{"contracts/TokenFactory.sol":{"TokenFactory":{"abi":[{"inputs":[{"internalType":"address","name":"_registry","type":"address"}],"stateMutability":"nonpayable","type":"constructor"},{"inputs":[{"internalType":"address","name":"owner","type":"address"}],"name":"OwnableInvalidOwner","type":"error"},{"inputs":[{"internalType":"address","name":"account","type":"address"}],"name":"OwnableUnauthorizedAccount","type":"error"},{"inputs":[],"name":"ReentrancyGuardReentrantCall","type":"error"},{"anonymous":false,"inputs":[{"indexed":true,"internalType":"address","name":"tokenAddress","type":"address"},{"indexed":false,"internalType":"string","name":"imageUri","type":"string"},{"indexed":false,"internalType":"string","name":"description","type":"string"}],"name":"MetadataUpdated","type":"event"},{"anonymous":false,"inputs":[{"indexed":true,"internalType":"address","name":"previousOwner","type":"address"},{"indexed":true,"internalType":"address","name":"newOwner","type":"address"}],"name":"OwnershipTransferred","type":"event"},{"anonymous":false,"inputs":[{"indexed":true,"internalType":"address","name":"tokenAddress","type":"address"},{"indexed":false,"internalType":"uint256","name":"amount","type":"uint256"}],"name":"TokenBurned","type":"event"},{"anonymous":false,"inputs":[{"indexed":true,"internalType":"address","name":"tokenAddress","type":"address"},{"indexed":true,"internalType":"address","name":"creator","type":"address"},{"indexed":false,"internalType":"string","name":"name","type":"string"},{"indexed":false,"internalType":"string","name":"symbol","type":"string"},{"indexed":false,"internalType":"uint256","name":"totalSupply","type":"uint256"}],"name":"TokenCreated","type":"event"},{"anonymous":false,"inputs":[{"indexed":true,"internalType":"address","name":"tokenAddress","type":"address"},{"indexed":false,"internalType":"uint256","name":"amount","type":"uint256"}],"name":"TokenMinted","type":"event"},{"inputs":[],"name":"CREATION_FEE","outputs":[{"internalType":"uint256","name":"","type":"uint256"}],"stateMutability":"view","type":"function"},{"inputs":[],"name":"INITIAL_SUPPLY","outputs":[{"internalType":"uint256","name":"","type":"uint256"}],"stateMutability":"view","type":"function"},{"inputs":[{"internalType":"uint256","name":"","type":"uint256"}],"name":"allTokens","outputs":[{"internalType":"address","name":"","type":"address"}],"stateMutability":"view","type":"function"},{"inputs":[{"internalType":"address","name":"tokenAddress","type":"address"},{"internalType":"uint256","name":"amount","type":"uint256"}],"name":"burnToken","outputs":[],"stateMutability":"nonpayable","type":"function"},{"inputs":[{"internalType":"string","name":"name","type":"string"},{"internalType":"string","name":"symbol","type":"string"},{"internalType":"string","name":"imageUri","type":"string"},{"internalType":"string","name":"description","type":"string"}],"name":"createToken","outputs":[{"internalType":"address","name":"","type":"address"}],"stateMutability":"payable","type":"function"},{"inputs":[{"internalType":"address","name":"","type":"address"},{"internalType":"uint256","name":"","type":"uint256"}],"name":"creatorTokens","outputs":[{"internalType":"address","name":"","type":"address"}],"stateMutability":"view","type":"function"},{"inputs":[],"name":"getAllTokens","outputs":[{"internalType":"address[]","name":"","type":"address[]"}],"stateMutability":"view","type":"function"},{"inputs":[{"internalType":"address","name":"creator","type":"address"}],"name":"getCreatorTokens","outputs":[{"internalType":"address[]","name":"","type":"address[]"}],"stateMutability":"view","type":"function"},{"inputs":[{"internalType":"address","name":"tokenAddress","type":"address"}],"name":"getTokenMetadata","outputs":[{"components":[{"internalType":"string","name":"name","type":"string"},{"internalType":"string","name":"symbol","type":"string"},{"internalType":"string","name":"imageUri","type":"string"},{"internalType":"string","name":"description","type":"string"},{"internalType":"address","name":"creator","type":"address"},{"internalType":"uint256","name":"createdAt","type":"uint256"},{"internalType":"uint256","name":"totalSupply","type":"uint256"},{"internalType":"bool","name":"active","type":"bool"}],"internalType":"struct TokenFactory.TokenMetadata","name":"","type":"tuple"}],"stateMutability":"view","type":"function"},{"inputs":[{"internalType":"address","name":"tokenAddress","type":"address"},{"internalType":"uint256","name":"amount","type":"uint256"}],"name":"mintToken","outputs":[],"stateMutability":"nonpayable","type":"function"},{"inputs":[],"name":"owner","outputs":[{"internalType":"address","name":"","type":"address"}],"stateMutability":"view","type":"function"},{"inputs":[],"name":"registry","outputs":[{"internalType":"contract IRegistry","name":"","type":"address"}],"stateMutability":"view","type":"function"},{"inputs":[],"name":"renounceOwnership","outputs":[],"stateMutability":"nonpayable","type":"function"},{"inputs":[{"internalType":"address","name":"tokenAddress","type":"address"},{"internalType":"string","name":"imageUri","type":"string"},{"internalType":"string","name":"description","type":"string"}],"name":"setMetadata","outputs":[],"stateMutability":"nonpayable","type":"function"},{"inputs":[{"internalType":"address","name":"","type":"address"}],"name":"tokenMetadata","outputs":[{"internalType":"string","name":"name","type":"string"},{"internalType":"string","name":"symbol","type":"string"},{"internalType":"string","name":"imageUri","type":"string"},{"internalType":"string","name":"description","type":"string"},{"internalType":"address","name":"creator","type":"address"},{"internalType":"uint256","name":"createdAt","type":"uint256"},{"internalType":"uint256","name":"totalSupply","type":"uint256"},{"internalType":"bool","name":"active","type":"bool"}],"stateMutability":"view","type":"function"},{"inputs":[{"internalType":"address","name":"newOwner","type":"address"}],"name":"transferOwnership","outputs":[],"stateMutability":"nonpayable","type":"function"}],"evm":{"bytecode":{"linkReferences":{},"object":"6080346100ca57601f61395938819003918201601f19168301916001600160401b038311848410176100cf578084926020946040528339810103126100ca57516001600160a01b0390818116908190036100ca5733156100b15760005460018060a01b0319903382821617600055604051933391167f8be0079c531659141344cd1fd0a4f28419497f9722a3daafe3b4186f6b6457e0600080a360018055600254161760025561387390816100e68239f35b604051631e4fbdf760e01b815260006004820152602490fd5b600080fd5b634e487b7160e01b600052604160045260246000fdfe60808060405260043610156200001457600080fd5b600090813560e01c9081632a5c792a1462001888575080632ff2e9dc146200185f57806349a2104d146200183b578063634282af14620017dc5780636fecdf2414620016e5578063715018a6146200168757806374abfa5414620015f557806379c6506814620014e65780637b10399914620014bb5780638da5cb5b1462001492578063a076965914620008c7578063c00f14ab1462000733578063d1df306c1462000574578063db3fa4cc1462000512578063eb3b0cba146200017b5763f2fde38b14620000e257600080fd5b34620001785760203660031901126200017857620000ff6200196b565b6200010962001b74565b6001600160a01b039081169081156200015f57600054826bffffffffffffffffffffffff60a01b821617600055167f8be0079c531659141344cd1fd0a4f28419497f9722a3daafe3b4186f6b6457e0600080a380f35b604051631e4fbdf760e01b815260048101849052602490fd5b80fd5b5034620001785760603660031901126200017857620001996200196b565b906024356001600160401b0381116200050e57620001bc90369060040162001b27565b6044356001600160401b0381116200050a57620001de90369060040162001b27565b9060018060a01b0393848116845260036020526200020785600460408720015416331462001bf7565b848116845260036020526200022660ff60076040872001541662001c38565b848116845260036020526040842082516001600160401b0381116200042f5762000254600283015462001987565b601f8111620004bd575b506020601f82116001146200044f57908060039392889162000443575b508160011b9160001990851b1c19161760028201555b01948351956001600160401b0387116200042f57620002b1815462001987565b601f8111620003e5575b50602096601f81116001146200035157916200032e949391836200033f94899a7f6c1850fce35387a891e82ca88e975790ab6f0709e9ed6842e01397f296012a7e999a9162000345575b508160011b916000199060031b1c19161790555b60405194859460408652604086019062001ac9565b918483036020860152169562001ac9565b0390a280f35b90508901513862000305565b81875260208720601f198216885b818110620003cc5750826200032e979694927f6c1850fce35387a891e82ca88e975790ab6f0709e9ed6842e01397f296012a7e999a9b6200033f979560019410620003b2575b5050811b01905562000319565b8b015160001960f88460031b161c191690553880620003a5565b888b0151835560209a8b019a600190930192016200035f565b81875260208720601f890160051c81019160208a1062000424575b601f0160051c01905b818110620004185750620002bb565b87815560010162000409565b909150819062000400565b634e487b7160e01b86526041600452602486fd5b9050850151386200027b565b6002830187526020872090601f198316885b818110620004a4575091839160039594600194106200048b575b5050811b01600282015562000291565b87015160001983871b60f8161c1916905538806200047b565b9192602060018192868b01518155019401920162000461565b60028301875260208720601f830160051c81019160208410620004ff575b601f0160051c01905b818110620004f357506200025e565b878155600101620004e4565b9091508190620004db565b8280fd5b5080fd5b5034620001785760403660031901126200017857620005306200196b565b6001600160a01b03908116825260056020526040822080546024359390841015620001785750602092620005649162001952565b9190546040519260031b1c168152f35b5034620001785760403660031901126200017857620005926200196b565b906024359160018060a01b0316808252602060038152620005bd60ff60076040862001541662001c38565b620005ca84151562001c78565b6040516370a0823160e01b81523360048201528181602481865afa908115620006b2579085918591620006f8575b5010620006bd57813b156200050a5760405163079cc67960e41b815233600482015260248101859052838160448183875af18015620006b2579084916200069a575b50829052600381526006604084200193845481810390811162000686577f1af5163f80e79b5e554f61e1d052084d3a3fe1166e42a265798c4e2ddce8ffa293949555604051908152a280f35b634e487b7160e01b85526011600452602485fd5b620006a590620019c4565b6200050a5782386200063a565b6040513d86823e3d90fd5b6064906040519062461bcd60e51b825260048201526014602482015273496e73756666696369656e742062616c616e636560601b6044820152fd5b809250838092503d83116200072b575b620007148183620019f5565b81010312620007275784905138620005f8565b8380fd5b503d62000708565b50346200017857602090816003193601126200017857620007536200196b565b91604051916200076383620019d8565b80606093848152848482015284604082015284808201528160808201528160a08201528160c082015260e00152600160a01b60019003809416815260038252604090209060405192620007b684620019d8565b620007c18362001a17565b8452620007d16001840162001a17565b84830190815292620007e66002820162001a17565b6040860190815295620007fc6003830162001a17565b9083870191825280600484015416956080880196875260058401549260a0890193845260068501549460c08a019586526007015460ff169560e08a0196151587526040519a8b9a898c5251610100809a8d01526101208c016200085f9162001ac9565b9351601f198c8603810160408e0152946200087a9162001ac9565b905191848c830301908c0152620008919162001ac9565b9051918982030160808a0152620008a89162001ac9565b95511660a08701525160c08601525160e0850152511515908301520390f35b50608036600319011262000178576004356001600160401b0381116200050e57620008f790369060040162001b27565b906024356001600160401b0381116200050e576200091a90369060040162001b27565b916044356001600160401b0381116200050a576200093d90369060040162001b27565b916064356001600160401b0381116200050e576200096090369060040162001b27565b926002600154146200148057600260015566038d7ea4c6800034106200143b57825115158062001430575b15620013f25760025460405163faac38ef60e01b81529190602090839060049082906001600160a01b03165afa91821562001018578392620013cc575b506001600160a01b038216156200138f5760405180611b788101106001600160401b03611b78830111176200137b57611b7862001cc6823960c0611b788201528062000a6d62000a5662000a3f62000a2860c0611b788601018a62001ac9565b611b78850181036020611b78870101528b62001ac9565b611b78840181036040611b78860101528562001ac9565b611b78830181036060611b78850101528862001ac9565b33611b78830160808101919091526001600160a01b03861660a090910152039084f094851562001018576040519162000aa683620019d8565b858352876020840152604083015260608201523360808201524260a08201526b033b2e3c9fd0803ce800000060c0820152600160e082015260018060a01b038516835260036020526040832081518051906001600160401b0382116200042f57819062000b14845462001987565b601f811162001329575b50602090601f8311600114620012bb578792620012af575b50508160011b916000199060031b1c19161781555b60208201518051906001600160401b0382116200042f57819062000b73600185015462001987565b601f81116200125a575b50602090601f8311600114620011e6578792620011da575b50508160011b916000199060031b1c19161760018201555b60408201518051906001600160401b0382116200042f57819062000bd5600285015462001987565b601f811162001185575b50602090601f83116001146200111157879262001105575b50508160011b916000199060031b1c19161760028201555b60608201518051906001600160401b0382116200042f5762000c35600384015462001987565b601f8111620010bc575b50602090601f83116001146200104557918060e09492600794899262001039575b50508160011b916000199060031b1c19161760038201555b6004810160018060a01b036080860151166bffffffffffffffffffffffff60a01b82541617905560a0840151600582015560c0840151600682015501910151151560ff80198354169116179055600454600160401b81101562000fea576001810180600455811015620010235760046000527f8a35acfbc15ff81a39ae7d344fd709f28e8600b4aa8c65c6b64bfe7fe36bd19b0180546001600160a01b0319166001600160a01b0386161790553382526005602052604082208054600160401b81101562000fea5762000d519160018201815562001952565b81546001600160a01b0360039290921b82811b1990911687831690911b1790915560025416803b156200050a576040516213049560e71b81526001600160a01b03861660048201529083908290602490829084905af18015620010185790839162001000575b5050604051631b0796e160e11b602082019081526001600160a01b03861660248084019190915282526060820192906001600160401b0384118385101762000fea5784809493819460405251925af162000e1062001bc2565b501562000f995760025460405163796b1c1360e11b815290602090829060049082906001600160a01b03165afa90811562000f8e57829162000f58575b506001600160a01b03811615158062000f4e575b62000ef2575b505062000e9560209362000e876040519360608552606085019062001ac9565b908382038685015262001ac9565b6b033b2e3c9fd0803ce8000000604083015233916001600160a01b038416917f6e6ae68e7d7d45fbd855c40d1eaafa8de46c5fbec3ee26f1af88730e400bc92c919081900390a3600180556040516001600160a01b039091168152f35b8180809234905af162000f0462001bc2565b501562000f1357388062000e67565b60405162461bcd60e51b8152602060048201526013602482015272119959481d1c985b9cd9995c8819985a5b1959606a1b6044820152606490fd5b5034151562000e61565b62000f7f915060203d60201162000f86575b62000f768183620019f5565b81019062001ba1565b3862000e4d565b503d62000f6a565b6040513d84823e3d90fd5b60405162461bcd60e51b815260206004820152602360248201527f426f6e64696e6720637572766520696e697469616c697a6174696f6e206661696044820152621b195960ea1b6064820152608490fd5b634e487b7160e01b600052604160045260246000fd5b6200100b90620019c4565b6200050e57813862000db7565b6040513d85823e3d90fd5b634e487b7160e01b600052603260045260246000fd5b01519050388062000c60565b906003840187526020872091875b601f1985168110620010a357509260e0949260019260079583601f1981161062001089575b505050811b01600382015562000c78565b015160001960f88460031b161c1916905538808062001078565b9192602060018192868501518155019401920162001053565b60038401875260208720601f840160051c810160208510620010fd575b601f830160051c82018110620010f157505062000c3f565b888155600101620010d9565b5080620010d9565b01519050388062000bf7565b9250600284018752602087209087935b601f198416851062001169576001945083601f198116106200114f575b505050811b01600282015562000c0f565b015160001960f88460031b161c191690553880806200113e565b8181015183556020948501946001909301929091019062001121565b90915060028401875260208720601f840160051c810160208510620011d2575b90849392915b601f830160051c82018110620011c357505062000bdf565b898155859450600101620011ab565b5080620011a5565b01519050388062000b95565b9250600184018752602087209087935b601f19841685106200123e576001945083601f1981161062001224575b505050811b01600182015562000bad565b015160001960f88460031b161c1916905538808062001213565b81810151835560209485019460019093019290910190620011f6565b90915060018401875260208720601f840160051c810160208510620012a7575b90849392915b601f830160051c820181106200129857505062000b7d565b89815585945060010162001280565b50806200127a565b01519050388062000b36565b9250838752602087209087935b601f19841685106200130d576001945083601f19811610620012f3575b505050811b01815562000b4b565b015160001960f88460031b161c19169055388080620012e5565b81810151835560209485019460019093019290910190620012c8565b90915083875260208720601f840160051c81016020851062001373575b90849392915b601f830160051c820181106200136457505062000b1e565b8981558594506001016200134c565b508062001346565b634e487b7160e01b84526041600452602484fd5b60405162461bcd60e51b8152602060048201526015602482015274109bdb991a5b99c818dd5c9d99481b9bdd081cd95d605a1b6044820152606490fd5b620013ea91925060203d60201162000f865762000f768183620019f5565b9038620009c8565b60405162461bcd60e51b8152602060048201526016602482015275125b9d985b1a59081b985b59481bdc881cde5b589bdb60521b6044820152606490fd5b50845115156200098b565b60405162461bcd60e51b815260206004820152601960248201527f496e73756666696369656e74206372656174696f6e20666565000000000000006044820152606490fd5b604051633ee5aeb560e01b8152600490fd5b50346200017857806003193601126200017857546040516001600160a01b039091168152602090f35b503462000178578060031936011262000178576002546040516001600160a01b039091168152602090f35b5034620001785760403660031901126200017857620015046200196b565b6024356200152f60018060a01b03809316928385526003602052600460408620015416331462001bf7565b81835260036020526200154c60ff60076040862001541662001c38565b6200155981151562001c78565b813b156200050a576040516340c10f1960e01b815233600482015260248101829052838160448183875af18015620006b257620015df575b508183526003602052600660408420018054908282018092116200068657556040519081527fb9144c96c86541f6fa89c9f2f02495cccf4b08cd6643e26d34ee00aa586558a890602090a280f35b620015ed90939193620019c4565b913862001591565b503462000178576020806003193601126200050e576001600160a01b0391826200161e6200196b565b168152600582526040812092604051908193808654938481520195845280842093915b8383106200166d5762001669866200165c818a0382620019f5565b604051918291826200190c565b0390f35b845481168752958101956001948501949092019162001641565b50346200017857806003193601126200017857620016a462001b74565b80546001600160a01b03198116825581906001600160a01b03167f8be0079c531659141344cd1fd0a4f28419497f9722a3daafe3b4186f6b6457e08280a380f35b503462000178576020366003190112620001785762001794906001600160a01b039060409082620017156200196b565b168152600360205220906200172a8262001a17565b91620017396001820162001a17565b90620017486002820162001a17565b620017c16200175a6003840162001a17565b9460048401541694620017b2600585015493620017a360ff6007600689015498015416976040519b8c9b8c6101008091528d019062001ac9565b908b820360208d015262001ac9565b9089820360408b015262001ac9565b90878203606089015262001ac9565b93608086015260a085015260c0840152151560e08301520390f35b50346200017857602036600319011262000178576004356004548110156200050e5760049091527f8a35acfbc15ff81a39ae7d344fd709f28e8600b4aa8c65c6b64bfe7fe36bd19b01546040516001600160a01b039091168152602090f35b50346200017857806003193601126200017857602060405166038d7ea4c680008152f35b5034620001785780600319360112620001785760206040516b033b2e3c9fd0803ce80000008152f35b9050346200050e57816003193601126200050e57600480548083529083526020808301937f8a35acfbc15ff81a39ae7d344fd709f28e8600b4aa8c65c6b64bfe7fe36bd19b92915b828210620018eb5762001669856200165c81890382620019f5565b83546001600160a01b031686529485019460019384019390910190620018d0565b6020908160408183019282815285518094520193019160005b82811062001934575050505090565b83516001600160a01b03168552938101939281019260010162001925565b8054821015620010235760005260206000200190600090565b600435906001600160a01b03821682036200198257565b600080fd5b90600182811c92168015620019b9575b6020831014620019a357565b634e487b7160e01b600052602260045260246000fd5b91607f169162001997565b6001600160401b03811162000fea57604052565b61010081019081106001600160401b0382111762000fea57604052565b90601f801991011681019081106001600160401b0382111762000fea57604052565b906040519182600082549262001a2d8462001987565b90818452600194858116908160001462001aa4575060011462001a5d575b505062001a5b92500383620019f5565b565b9093915060005260209081600020936000915b81831062001a8b57505062001a5b9350820101388062001a4b565b8554888401850152948501948794509183019162001a70565b91505062001a5b94506020925060ff191682840152151560051b820101388062001a4b565b919082519283825260005b84811062001af6575050826000602080949584010152601f8019910116010190565b60208183018101518483018201520162001ad4565b6001600160401b03811162000fea57601f01601f191660200190565b81601f82011215620019825780359062001b418262001b0b565b9262001b516040519485620019f5565b828452602083830101116200198257816000926020809301838601378301015290565b6000546001600160a01b0316330362001b8957565b60405163118cdaa760e01b8152336004820152602490fd5b908160209103126200198257516001600160a01b0381168103620019825790565b3d1562001bf2573d9062001bd68262001b0b565b9162001be66040519384620019f5565b82523d6000602084013e565b606090565b1562001bff57565b60405162461bcd60e51b81526020600482015260116024820152702737ba103a37b5b2b71031b932b0ba37b960791b6044820152606490fd5b1562001c4057565b60405162461bcd60e51b815260206004820152601060248201526f546f6b656e206e6f742061637469766560801b6044820152606490fd5b1562001c8057565b60405162461bcd60e51b815260206004820152601d60248201527f416d6f756e74206d7573742062652067726561746572207468616e20300000006044820152606490fdfe604060c08152346200075b5762001b78803803806200001e8162000760565b928339810160c0828203126200075b5781516001600160401b0392908381116200075b57826200005091830162000786565b91602092838301518581116200075b57826200006e91850162000786565b94868401518181116200075b57836200008991860162000786565b926060850151908282116200075b57620000a591860162000786565b92620000c260a0620000ba60808801620007f8565b9601620007f8565b9383519083821162000658576003928354926001968785811c9516801562000750575b8b8610146200073a5781908b601f96878111620006e1575b50508b908683116001146200067a576000926200066e575b505060001982871b1c191690871b1784555b8951858111620006585760049a8b548881811c911680156200064d575b8c8210146200053557908b8287859411620005f4575b50508b908683116001146200058d5760009262000581575b505060001982871b1c191690871b178a555b6001600160a01b039788169081156200056a57600580546001600160a01b03198116841782559092908a167f8be0079c531659141344cd1fd0a4f28419497f9722a3daafe3b4186f6b6457e0600080a380519086821162000555576006548881811c911680156200054a575b8c8210146200053557908b8287859411620004dd575b50508b90868311600114620004725760009262000466575b505060001982871b1c191690871b176006555b81519485116200045157600754908682811c9216801562000446575b8a8310146200043157838211620003e7575b5050879184116001146200037a579383949184926000956200036e575b50501b92600019911b1c1916176007555b806080523360a0521691821562000357576002546b033b2e3c9fd0803ce80000009182820180921162000342575060025560008381528083528481208054830190558451918252917fddf252ad1be2c89b69c2b068fc378daa952ba7f163c4a11628f55a4df523b3ef91a35161136a90816200080e823960805181818161054701528181610b9e01528181610ec20152611081015260a051818181610363015281816105bd0152818161060f0152610c840152f35b601190634e487b7160e01b6000525260246000fd5b602490600085519163ec442f0560e01b8352820152fd5b0151935038806200027c565b9190601f19841692600760005284896000209460005b8b89838310620003cf5750505010620003b4575b50505050811b016007556200028d565b01519060f884600019921b161c1916905538808080620003a4565b86860151895590970196948501948893500162000390565b6007600052896000209084808801821c8301938c891062000427575b01901c019086905b8281106200041a57506200025f565b600081550186906200040b565b9350829362000403565b60228b634e487b7160e01b6000525260246000fd5b91607f16916200024d565b60418a634e487b7160e01b6000525260246000fd5b0151905038806200021e565b899350908c91601f198416600660005283600020936000905b828210620004c55750508411620004ac575b505050811b0160065562000231565b015160001983891b60f8161c191690553880806200049d565b8385015186558d979095019493840193018f6200048b565b909192506006600052868260002091818601871c83019386106200052b575b918b918695949301871c01915b8281106200051b57508d915062000206565b600081558594508b910162000509565b92508192620004fc565b60228d634e487b7160e01b6000525260246000fd5b90607f1690620001f0565b60418c634e487b7160e01b6000525260246000fd5b8b51631e4fbdf760e01b81526000818d0152602490fd5b01519050388062000172565b60008e81528d81208b9550929190601f198516908f5b828210620005dc5750508411620005c3575b505050811b018a5562000184565b015160001983891b60f8161c19169055388080620005b5565b8385015186558d979095019493840193018f620005a3565b909192508d60005286826000209181860160051c830193861062000643575b918b91869594930160051c01915b8281106200063357508d91506200015a565b600081558594508b910162000621565b9250819262000613565b90607f169062000144565b634e487b7160e01b600052604160045260246000fd5b01519050388062000115565b60008881528d81208b9550929190601f198516908f5b828210620006c95750508411620006b0575b505050811b01845562000127565b015160001983891b60f8161c19169055388080620006a2565b8385015186558d979095019493840193018f62000690565b909192508760005286826000209181860160051c830193861062000730575b918b91869594930160051c01915b8281106200072057508d9150620000fd565b600081558594508b91016200070e565b9250819262000700565b634e487b7160e01b600052602260045260246000fd5b94607f1694620000e5565b600080fd5b6040519190601f01601f191682016001600160401b038111838210176200065857604052565b919080601f840112156200075b5782516001600160401b0381116200065857602090620007bc601f8201601f1916830162000760565b928184528282870101116200075b5760005b818110620007e457508260009394955001015290565b8581018301518482018401528201620007ce565b51906001600160a01b03821682036200075b5756fe608060408181526004918236101561001657600080fd5b600092833560e01c91826302669b5214610eae5750816306fdde0314610e04578163095ea7b314610dda57816318160ddd14610dbb57816323b872dd14610cc7578163313ce56714610cab57816340c10f1914610b7257816342966c6814610b545781634ada218b14610b3057816356ce0e6c1461083d57816370a0823114610806578163715018a6146107a65781637284e416146106fc57816379cc6790146105e65781638a8c523c146105265781638da5cb5b146104fd578163902d55a5146104d657816395d89b4114610401578163a9059cbb146103d0578163aa2fe91b14610392578163c45a01551461034e578163dd62ed3e14610305578163ed58bad8146102af578163f2fde38b1461021b575063fc04b5e11461013857600080fd5b346102175781600319360112610217578051908260065461015881611026565b808552916001918083169081156101ef5750600114610192575b5050506101848261018e940383610f6b565b5191829182610ef1565b0390f35b9450600685527ff652222313e28459528d920b65115c16c04f3efc82aaedc97be59f3f377c0d3f5b8286106101d75750505061018482602061018e9582010194610172565b805460208787018101919091529095019481016101ba565b61018e97508693506020925061018494915060ff191682840152151560051b82010194610172565b5080fd5b9050346102ab5760203660031901126102ab57610236610f3a565b9061023f610ffa565b6001600160a01b03918216928315610295575050600554826bffffffffffffffffffffffff60a01b821617600555167f8be0079c531659141344cd1fd0a4f28419497f9722a3daafe3b4186f6b6457e08380a380f35b51631e4fbdf760e01b8152908101849052602490fd5b8280fd5b5050346102175780600319360112610217576102c9610f3a565b9060243591821515809303610301576102e0610ffa565b60018060a01b03168352600960205282209060ff8019835416911617905580f35b8380fd5b50503461021757806003193601126102175780602092610323610f3a565b61032b610f55565b6001600160a01b0391821683526001865283832091168252845220549051908152f35b505034610217578160031936011261021757517f00000000000000000000000000000000000000000000000000000000000000006001600160a01b03168152602090f35b5050346102175760203660031901126102175760209160ff9082906001600160a01b036103bd610f3a565b1681526009855220541690519015158152f35b5050346102175780600319360112610217576020906103fa6103f0610f3a565b6024359033611060565b5160018152f35b919050346102ab57826003193601126102ab578051918381549061042482611026565b808652926001928084169081156104ab575060011461044f575b61018e8686610184828b0383610f6b565b815294507f8a35acfbc15ff81a39ae7d344fd709f28e8600b4aa8c65c6b64bfe7fe36bd19b5b8286106104935750505061018482602061018e95820101943861043e565b80546020878701810191909152909501948101610475565b905061018e97508693506020925061018494915060ff191682840152151560051b820101943861043e565b505034610217578160031936011261021757602090516b033b2e3c9fd0803ce80000008152f35b50503461021757816003193601126102175760055490516001600160a01b039091168152602090f35b5050346102175781600319360112610217576105869060018060a01b0390817f00000000000000000000000000000000000000000000000000000000000000001633149182156105ba575b82156105ac575b508115610596575b506112f7565b600160ff19600854161760085580f35b60ff915033845260096020528320541638610580565b600554163314915038610578565b337f00000000000000000000000000000000000000000000000000000000000000008216149250610571565b838334610217578060031936011261021757610600610f3a565b602435916001600160a01b03337f000000000000000000000000000000000000000000000000000000000000000082161415806106ee575b61064b575b846106488585611258565b80f35b82168452600160205280842033855260205280842054908382106106a0575082810390811161068d576106489394506106859033836111c5565b83928561063d565b634e487b7160e01b845260118552602484fd5b5162461bcd60e51b81526020818701526024808201527f45524332303a206275726e20616d6f756e74206578636565647320616c6c6f77604482015263616e636560e01b6064820152608490fd5b508060055416331415610638565b5050346102175781600319360112610217578051908260075461071e81611026565b808552916001918083169081156101ef5750600114610749575050506101848261018e940383610f6b565b9450600785527fa66cc928b5edb82af9bd49922954155ab7b0942694bea4ce44661d9a8736c6885b82861061078e5750505061018482602061018e9582010194610172565b80546020878701810191909152909501948101610771565b83346108035780600319360112610803576107bf610ffa565b600580546001600160a01b0319811690915581906001600160a01b03167f8be0079c531659141344cd1fd0a4f28419497f9722a3daafe3b4186f6b6457e08280a380f35b80fd5b5050346102175760203660031901126102175760209181906001600160a01b0361082e610f3a565b16815280845220549051908152f35b838334610217573660031901126108035767ffffffffffffffff82358181116102ab5761086d9036908501610fa3565b92602435828111610301576108859036908301610fa3565b9061088e610ffa565b8451838111610b1d57806108a3600654611026565b96601f97888111610ab1575b50602090888311600114610a2e578792610a23575b50508160011b916000199060031b1c1916176006555b8151928311610a1057506108ef600754611026565b8481116109b0575b50602093821160011461093257928293829392610927575b50508160011b916000199060031b1c19161760075580f35b01519050838061090f565b60078352601f198216937fa66cc928b5edb82af9bd49922954155ab7b0942694bea4ce44661d9a8736c68891845b868110610998575083600195961061097f575b505050811b0160075580f35b015160001960f88460031b161c19169055838080610973565b91926020600181928685015181550194019201610960565b600784527fa66cc928b5edb82af9bd49922954155ab7b0942694bea4ce44661d9a8736c6888580850160051c82019260208610610a07575b0160051c01905b8181106109fc57506108f7565b8481556001016109ef565b925081926109e8565b634e487b7160e01b845260419052602483fd5b0151905087806108c4565b600688527ff652222313e28459528d920b65115c16c04f3efc82aaedc97be59f3f377c0d3f9250601f198416885b818110610a995750908460019594939210610a80575b505050811b016006556108da565b015160001960f88460031b161c19169055878080610a72565b92936020600181928786015181550195019301610a5c565b909150600687527ff652222313e28459528d920b65115c16c04f3efc82aaedc97be59f3f377c0d3f8880850160051c82019260208610610b14575b9085949392910160051c01905b818110610b0657506108af565b888155849350600101610af9565b92508192610aec565b634e487b7160e01b855260418252602485fd5b50503461021757816003193601126102175760209060ff6008541690519015158152f35b83903461021757602036600319011261021757610648903533611258565b919050346102ab57806003193601126102ab57610b8d610f3a565b60243591906001600160a01b0390337f00000000000000000000000000000000000000000000000000000000000000008316148015610c80575b8015610c73575b8015610c5e575b610bde906112f7565b16928315610c495760025490838201809211610c36575084927fddf252ad1be2c89b69c2b068fc378daa952ba7f163c4a11628f55a4df523b3ef9260209260025585855284835280852082815401905551908152a380f35b634e487b7160e01b865260119052602485fd5b84602492519163ec442f0560e01b8352820152fd5b5033865260096020528286205460ff16610bd5565b5081600554163314610bce565b50817f0000000000000000000000000000000000000000000000000000000000000000163314610bc7565b5050346102175781600319360112610217576020905160128152f35b9050823461080357606036600319011261080357610ce3610f3a565b610ceb610f55565b916044359360018060a01b038316808352600160205286832033845260205286832054916000198310610d27575b6020886103fa898989611060565b868310610d8f578115610d78573315610d61575082526001602090815286832033845281529186902090859003905582906103fa87610d19565b8751634a1406b160e11b8152908101849052602490fd5b875163e602df0560e01b8152908101849052602490fd5b8751637dc7a0d960e11b8152339181019182526020820193909352604081018790528291506060010390fd5b5050346102175781600319360112610217576020906002549051908152f35b5050346102175780600319360112610217576020906103fa610dfa610f3a565b60243590336111c5565b50503461021757816003193601126102175780519082600354610e2681611026565b808552916001918083169081156101ef5750600114610e51575050506101848261018e940383610f6b565b9450600385527fc2575a0e9e593c00f959f8c92f12db2869c3395a3b0502d05e2516446f71f85b5b828610610e965750505061018482602061018e9582010194610172565b80546020878701810191909152909501948101610e79565b8490346102175781600319360112610217577f00000000000000000000000000000000000000000000000000000000000000006001600160a01b03168152602090f35b6020808252825181830181905290939260005b828110610f2657505060409293506000838284010152601f8019910116010190565b818101860151848201604001528501610f04565b600435906001600160a01b0382168203610f5057565b600080fd5b602435906001600160a01b0382168203610f5057565b90601f8019910116810190811067ffffffffffffffff821117610f8d57604052565b634e487b7160e01b600052604160045260246000fd5b81601f82011215610f505780359067ffffffffffffffff8211610f8d5760405192610fd8601f8401601f191660200185610f6b565b82845260208383010111610f5057816000926020809301838601378301015290565b6005546001600160a01b0316330361100e57565b60405163118cdaa760e01b8152336004820152602490fd5b90600182811c92168015611056575b602083101461104057565b634e487b7160e01b600052602260045260246000fd5b91607f1691611035565b6001600160a01b03928382169290919083156111ac578416938415611193577f000000000000000000000000000000000000000000000000000000000000000016808414159081611188575b50611143575b60009083825281602052604082205490838210611111575091604082827fddf252ad1be2c89b69c2b068fc378daa952ba7f163c4a11628f55a4df523b3ef958760209652828652038282205586815220818154019055604051908152a3565b60405163391434e360e21b81526001600160a01b03919091166004820152602481019190915260448101839052606490fd5b60ff600854166110b25760405162461bcd60e51b8152602060048201526013602482015272151c98591a5b99c81b9bdd08195b98589b1959606a1b6044820152606490fd5b9050841415386110ac565b60405163ec442f0560e01b815260006004820152602490fd5b604051634b637e8f60e11b815260006004820152602490fd5b6001600160a01b0390811691821561123f57169182156112265760207f8c5be1e5ebec7d5bd14f71427d1e84f3dd0314c0f7b2291e5b200ac8c7c3b925918360005260018252604060002085600052825280604060002055604051908152a3565b604051634a1406b160e11b815260006004820152602490fd5b60405163e602df0560e01b815260006004820152602490fd5b906001600160a01b0382169081156111ac57600092828452836020526040842054908282106112c55750817fddf252ad1be2c89b69c2b068fc378daa952ba7f163c4a11628f55a4df523b3ef926020928587528684520360408620558060025403600255604051908152a3565b60405163391434e360e21b81526001600160a01b03919091166004820152602481019190915260448101829052606490fd5b156112fe57565b60405162461bcd60e51b815260206004820152600e60248201526d139bdd08185d5d1a1bdc9a5e995960921b6044820152606490fdfea2646970667358221220b6827bce96ccdf23b8e61645d22302186a93c4ecd16d80160fe16550161f93b564736f6c63430008140033a2646970667358221220260fa5597ce94a97a0e629116263a041e4fe1ef859dd2a3c78722a1a455c62eb64736f6c63430008140033","opcodes":"PUSH1 0x80 CALLVALUE PUSH2 0xCA JUMPI PUSH1 0x1F PUSH2 0x3959 CODESIZE DUP2 SWAP1 SUB SWAP2 DUP3 ADD PUSH1 0x1F NOT AND DUP4 ADD SWAP2 PUSH1 0x1 PUSH1 0x1 PUSH1 0x40 SHL SUB DUP4 GT DUP5 DUP5 LT OR PUSH2 0xCF JUMPI DUP1 DUP5 SWAP3 PUSH1 0x20 SWAP5 PUSH1 0x40 MSTORE DUP4 CODECOPY DUP2 ADD SUB SLT PUSH2 0xCA JUMPI MLOAD PUSH1 0x1 PUSH1 0x1 PUSH1 0xA0 SHL SUB SWAP1 DUP2 DUP2 AND SWAP1 DUP2 SWAP1 SUB PUSH2 0xCA JUMPI CALLER ISZERO PUSH2 0xB1 JUMPI PUSH1 0x0 SLOAD PUSH1 0x1 DUP1 PUSH1 0xA0 SHL SUB NOT SWAP1 CALLER DUP3 DUP3 AND OR PUSH1 0x0 SSTORE PUSH1 0x40 MLOAD SWAP4 CALLER SWAP2 AND PUSH32 0x8BE0079C531659141344CD1FD0A4F28419497F9722A3DAAFE3B4186F6B6457E0 PUSH1 0x0 DUP1 LOG3 PUSH1 0x1 DUP1 SSTORE PUSH1 0x2 SLOAD AND OR PUSH1 0x2 SSTORE PUSH2 0x3873 SWAP1 DUP2 PUSH2 0xE6 DUP3 CODECOPY RETURN JUMPDEST PUSH1 0x40 MLOAD PUSH4 0x1E4FBDF7 PUSH1 0xE0 SHL DUP2 MSTORE PUSH1 0x0 PUSH1 0x4 DUP3 ADD MSTORE PUSH1 0x24 SWAP1 REVERT JUMPDEST PUSH1 0x0 DUP1 REVERT JUMPDEST PUSH4 0x4E487B71 PUSH1 0xE0 SHL PUSH1 0x0 MSTORE PUSH1 0x41 PUSH1 0x4 MSTORE PUSH1 0x24 PUSH1 0x0 REVERT INVALID PUSH1 0x80 DUP1 PUSH1 0x40 MSTORE PUSH1 0x4 CALLDATASIZE LT ISZERO PUSH3 0x14 JUMPI PUSH1 0x0 DUP1 REVERT JUMPDEST PUSH1 0x0 SWAP1 DUP2 CALLDATALOAD PUSH1 0xE0 SHR SWAP1 DUP2 PUSH4 0x2A5C792A EQ PUSH3 0x1888 JUMPI POP DUP1 PUSH4 0x2FF2E9DC EQ PUSH3 0x185F JUMPI DUP1 PUSH4 0x49A2104D EQ PUSH3 0x183B JUMPI DUP1 PUSH4 0x634282AF EQ PUSH3 0x17DC JUMPI DUP1 PUSH4 0x6FECDF24 EQ PUSH3 0x16E5 JUMPI DUP1 PUSH4 0x715018A6 EQ PUSH3 0x1687 JUMPI DUP1 PUSH4 0x74ABFA54 EQ PUSH3 0x15F5 JUMPI DUP1 PUSH4 0x79C65068 EQ PUSH3 0x14E6 JUMPI DUP1 PUSH4 0x7B103999 EQ PUSH3 0x14BB JUMPI DUP1 PUSH4 0x8DA5CB5B EQ PUSH3 0x1492 JUMPI DUP1 PUSH4 0xA0769659 EQ PUSH3 0x8C7 JUMPI DUP1 PUSH4 0xC00F14AB EQ PUSH3 0x733 JUMPI DUP1 PUSH4 0xD1DF306C EQ PUSH3 0x574 JUMPI DUP1 PUSH4 0xDB3FA4CC EQ PUSH3 0x512 JUMPI DUP1 PUSH4 0xEB3B0CBA EQ PUSH3 0x17B JUMPI PUSH4 0xF2FDE38B EQ PUSH3 0xE2 JUMPI PUSH1 0x0 DUP1 REVERT JUMPDEST CALLVALUE PUSH3 0x178 JUMPI PUSH1 0x20 CALLDATASIZE PUSH1 0x3 NOT ADD SLT PUSH3 0x178 JUMPI PUSH3 0xFF PUSH3 0x196B JUMP JUMPDEST PUSH3 0x109 PUSH3 0x1B74 JUMP JUMPDEST PUSH1 0x1 PUSH1 0x1 PUSH1 0xA0 SHL SUB SWAP1 DUP2 AND SWAP1 DUP2 ISZERO PUSH3 0x15F JUMPI PUSH1 0x0 SLOAD DUP3 PUSH12 0xFFFFFFFFFFFFFFFFFFFFFFFF PUSH1 0xA0 SHL DUP3 AND OR PUSH1 0x0 SSTORE AND PUSH32 0x8BE0079C531659141344CD1FD0A4F28419497F9722A3DAAFE3B4186F6B6457E0 PUSH1 0x0 DUP1 LOG3 DUP1 RETURN JUMPDEST PUSH1 0x40 MLOAD PUSH4 0x1E4FBDF7 PUSH1 0xE0 SHL DUP2 MSTORE PUSH1 0x4 DUP2 ADD DUP5 SWAP1 MSTORE PUSH1 0x24 SWAP1 REVERT JUMPDEST DUP1 REVERT JUMPDEST POP CALLVALUE PUSH3 0x178 JUMPI PUSH1 0x60 CALLDATASIZE PUSH1 0x3 NOT ADD SLT PUSH3 0x178 JUMPI PUSH3 0x199 PUSH3 0x196B JUMP JUMPDEST SWAP1 PUSH1 0x24 CALLDATALOAD PUSH1 0x1 PUSH1 0x1 PUSH1 0x40 SHL SUB DUP2 GT PUSH3 0x50E JUMPI PUSH3 0x1BC SWAP1 CALLDATASIZE SWAP1 PUSH1 0x4 ADD PUSH3 0x1B27 JUMP JUMPDEST PUSH1 0x44 CALLDATALOAD PUSH1 0x1 PUSH1 0x1 PUSH1 0x40 SHL SUB DUP2 GT PUSH3 0x50A JUMPI PUSH3 0x1DE SWAP1 CALLDATASIZE SWAP1 PUSH1 0x4 ADD PUSH3 0x1B27 JUMP JUMPDEST SWAP1 PUSH1 0x1 DUP1 PUSH1 0xA0 SHL SUB SWAP4 DUP5 DUP2 AND DUP5 MSTORE PUSH1 0x3 PUSH1 0x20 MSTORE PUSH3 0x207 DUP6 PUSH1 0x4 PUSH1 0x40 DUP8 KECCAK256 ADD SLOAD AND CALLER EQ PUSH3 0x1BF7 JUMP JUMPDEST DUP5 DUP2 AND DUP5 MSTORE PUSH1 0x3 PUSH1 0x20 MSTORE PUSH3 0x226 PUSH1 0xFF PUSH1 0x7 PUSH1 0x40 DUP8 KECCAK256 ADD SLOAD AND PUSH3 0x1C38 JUMP JUMPDEST DUP5 DUP2 AND DUP5 MSTORE PUSH1 0x3 PUSH1 0x20 MSTORE PUSH1 0x40 DUP5 KECCAK256 DUP3 MLOAD PUSH1 0x1 PUSH1 0x1 PUSH1 0x40 SHL SUB DUP2 GT PUSH3 0x42F JUMPI PUSH3 0x254 PUSH1 0x2 DUP4 ADD SLOAD PUSH3 0x1987 JUMP JUMPDEST PUSH1 0x1F DUP2 GT PUSH3 0x4BD JUMPI JUMPDEST POP PUSH1 0x20 PUSH1 0x1F DUP3 GT PUSH1 0x1 EQ PUSH3 0x44F JUMPI SWAP1 DUP1 PUSH1 0x3 SWAP4 SWAP3 DUP9 SWAP2 PUSH3 0x443 JUMPI JUMPDEST POP DUP2 PUSH1 0x1 SHL SWAP2 PUSH1 0x0 NOT SWAP1 DUP6 SHL SHR NOT AND OR PUSH1 0x2 DUP3 ADD SSTORE JUMPDEST ADD SWAP5 DUP4 MLOAD SWAP6 PUSH1 0x1 PUSH1 0x1 PUSH1 0x40 SHL SUB DUP8 GT PUSH3 0x42F JUMPI PUSH3 0x2B1 DUP2 SLOAD PUSH3 0x1987 JUMP JUMPDEST PUSH1 0x1F DUP2 GT PUSH3 0x3E5 JUMPI JUMPDEST POP PUSH1 0x20 SWAP7 PUSH1 0x1F DUP2 GT PUSH1 0x1 EQ PUSH3 0x351 JUMPI SWAP2 PUSH3 0x32E SWAP5 SWAP4 SWAP2 DUP4 PUSH3 0x33F SWAP5 DUP10 SWAP11 PUSH32 0x6C1850FCE35387A891E82CA88E975790AB6F0709E9ED6842E01397F296012A7E SWAP10 SWAP11 SWAP2 PUSH3 0x345 JUMPI JUMPDEST POP DUP2 PUSH1 0x1 SHL SWAP2 PUSH1 0x0 NOT SWAP1 PUSH1 0x3 SHL SHR NOT AND OR SWAP1 SSTORE JUMPDEST PUSH1 0x40 MLOAD SWAP5 DUP6 SWAP5 PUSH1 0x40 DUP7 MSTORE PUSH1 0x40 DUP7 ADD SWAP1 PUSH3 0x1AC9 JUMP JUMPDEST SWAP2 DUP5 DUP4 SUB PUSH1 0x20 DUP7 ADD MSTORE AND SWAP6 PUSH3 0x1AC9 JUMP JUMPDEST SUB SWAP1 LOG2 DUP1 RETURN JUMPDEST SWAP1 POP DUP10 ADD MLOAD CODESIZE PUSH3 0x305 JUMP JUMPDEST DUP2 DUP8 MSTORE PUSH1 0x20 DUP8 KECCAK256 PUSH1 0x1F NOT DUP3 AND DUP9 JUMPDEST DUP2 DUP2 LT PUSH3 0x3CC JUMPI POP DUP3 PUSH3 0x32E SWAP8 SWAP7 SWAP5 SWAP3 PUSH32 0x6C1850FCE35387A891E82CA88E975790AB6F0709E9ED6842E01397F296012A7E SWAP10 SWAP11 SWAP12 PUSH3 0x33F SWAP8 SWAP6 PUSH1 0x1 SWAP5 LT PUSH3 0x3B2 JUMPI JUMPDEST POP POP DUP2 SHL ADD SWAP1 SSTORE PUSH3 0x319 JUMP JUMPDEST DUP12 ADD MLOAD PUSH1 0x0 NOT PUSH1 0xF8 DUP5 PUSH1 0x3 SHL AND SHR NOT AND SWAP1 SSTORE CODESIZE DUP1 PUSH3 0x3A5 JUMP JUMPDEST DUP9 DUP12 ADD MLOAD DUP4 SSTORE PUSH1 0x20 SWAP11 DUP12 ADD SWAP11 PUSH1 0x1 SWAP1 SWAP4 ADD SWAP3 ADD PUSH3 0x35F JUMP JUMPDEST DUP2 DUP8 MSTORE PUSH1 0x20 DUP8 KECCAK256 PUSH1 0x1F DUP10 ADD PUSH1 0x5 SHR DUP2 ADD SWAP2 PUSH1 0x20 DUP11 LT PUSH3 0x424 JUMPI JUMPDEST PUSH1 0x1F ADD PUSH1 0x5 SHR ADD SWAP1 JUMPDEST DUP2 DUP2 LT PUSH3 0x418 JUMPI POP PUSH3 0x2BB JUMP JUMPDEST DUP8 DUP2 SSTORE PUSH1 0x1 ADD PUSH3 0x409 JUMP JUMPDEST SWAP1 SWAP2 POP DUP2 SWAP1 PUSH3 0x400 JUMP JUMPDEST PUSH4 0x4E487B71 PUSH1 0xE0 SHL DUP7 MSTORE PUSH1 0x41 PUSH1 0x4 MSTORE PUSH1 0x24 DUP7 REVERT JUMPDEST SWAP1 POP DUP6 ADD MLOAD CODESIZE PUSH3 0x27B JUMP JUMPDEST PUSH1 0x2 DUP4 ADD DUP8 MSTORE PUSH1 0x20 DUP8 KECCAK256 SWAP1 PUSH1 0x1F NOT DUP4 AND DUP9 JUMPDEST DUP2 DUP2 LT PUSH3 0x4A4 JUMPI POP SWAP2 DUP4 SWAP2 PUSH1 0x3 SWAP6 SWAP5 PUSH1 0x1 SWAP5 LT PUSH3 0x48B JUMPI JUMPDEST POP POP DUP2 SHL ADD PUSH1 0x2 DUP3 ADD SSTORE PUSH3 0x291 JUMP JUMPDEST DUP8 ADD MLOAD PUSH1 0x0 NOT DUP4 DUP8 SHL PUSH1 0xF8 AND SHR NOT AND SWAP1 SSTORE CODESIZE DUP1 PUSH3 0x47B JUMP JUMPDEST SWAP2 SWAP3 PUSH1 0x20 PUSH1 0x1 DUP2 SWAP3 DUP7 DUP12 ADD MLOAD DUP2 SSTORE ADD SWAP5 ADD SWAP3 ADD PUSH3 0x461 JUMP JUMPDEST PUSH1 0x2 DUP4 ADD DUP8 MSTORE PUSH1 0x20 DUP8 KECCAK256 PUSH1 0x1F DUP4 ADD PUSH1 0x5 SHR DUP2 ADD SWAP2 PUSH1 0x20 DUP5 LT PUSH3 0x4FF JUMPI JUMPDEST PUSH1 0x1F ADD PUSH1 0x5 SHR ADD SWAP1 JUMPDEST DUP2 DUP2 LT PUSH3 0x4F3 JUMPI POP PUSH3 0x25E JUMP JUMPDEST DUP8 DUP2 SSTORE PUSH1 0x1 ADD PUSH3 0x4E4 JUMP JUMPDEST SWAP1 SWAP2 POP DUP2 SWAP1 PUSH3 0x4DB JUMP JUMPDEST DUP3 DUP1 REVERT JUMPDEST POP DUP1 REVERT JUMPDEST POP CALLVALUE PUSH3 0x178 JUMPI PUSH1 0x40 CALLDATASIZE PUSH1 0x3 NOT ADD SLT PUSH3 0x178 JUMPI PUSH3 0x530 PUSH3 0x196B JUMP JUMPDEST PUSH1 0x1 PUSH1 0x1 PUSH1 0xA0 SHL SUB SWAP1 DUP2 AND DUP3 MSTORE PUSH1 0x5 PUSH1 0x20 MSTORE PUSH1 0x40 DUP3 KECCAK256 DUP1 SLOAD PUSH1 0x24 CALLDATALOAD SWAP4 SWAP1 DUP5 LT ISZERO PUSH3 0x178 JUMPI POP PUSH1 0x20 SWAP3 PUSH3 0x564 SWAP2 PUSH3 0x1952 JUMP JUMPDEST SWAP2 SWAP1 SLOAD PUSH1 0x40 MLOAD SWAP3 PUSH1 0x3 SHL SHR AND DUP2 MSTORE RETURN JUMPDEST POP CALLVALUE PUSH3 0x178 JUMPI PUSH1 0x40 CALLDATASIZE PUSH1 0x3 NOT ADD SLT PUSH3 0x178 JUMPI PUSH3 0x592 PUSH3 0x196B JUMP JUMPDEST SWAP1 PUSH1 0x24 CALLDATALOAD SWAP2 PUSH1 0x1 DUP1 PUSH1 0xA0 SHL SUB AND DUP1 DUP3 MSTORE PUSH1 0x20 PUSH1 0x3 DUP2 MSTORE PUSH3 0x5BD PUSH1 0xFF PUSH1 0x7 PUSH1 0x40 DUP7 KECCAK256 ADD SLOAD AND PUSH3 0x1C38 JUMP JUMPDEST PUSH3 0x5CA DUP5 ISZERO ISZERO PUSH3 0x1C78 JUMP JUMPDEST PUSH1 0x40 MLOAD PUSH4 0x70A08231 PUSH1 0xE0 SHL DUP2 MSTORE CALLER PUSH1 0x4 DUP3 ADD MSTORE DUP2 DUP2 PUSH1 0x24 DUP2 DUP7 GAS STATICCALL SWAP1 DUP2 ISZERO PUSH3 0x6B2 JUMPI SWAP1 DUP6 SWAP2 DUP6 SWAP2 PUSH3 0x6F8 JUMPI JUMPDEST POP LT PUSH3 0x6BD JUMPI DUP2 EXTCODESIZE ISZERO PUSH3 0x50A JUMPI PUSH1 0x40 MLOAD PUSH4 0x79CC679 PUSH1 0xE4 SHL DUP2 MSTORE CALLER PUSH1 0x4 DUP3 ADD MSTORE PUSH1 0x24 DUP2 ADD DUP6 SWAP1 MSTORE DUP4 DUP2 PUSH1 0x44 DUP2 DUP4 DUP8 GAS CALL DUP1 ISZERO PUSH3 0x6B2 JUMPI SWAP1 DUP5 SWAP2 PUSH3 0x69A JUMPI JUMPDEST POP DUP3 SWAP1 MSTORE PUSH1 0x3 DUP2 MSTORE PUSH1 0x6 PUSH1 0x40 DUP5 KECCAK256 ADD SWAP4 DUP5 SLOAD DUP2 DUP2 SUB SWAP1 DUP2 GT PUSH3 0x686 JUMPI PUSH32 0x1AF5163F80E79B5E554F61E1D052084D3A3FE1166E42A265798C4E2DDCE8FFA2 SWAP4 SWAP5 SWAP6 SSTORE PUSH1 0x40 MLOAD SWAP1 DUP2 MSTORE LOG2 DUP1 RETURN JUMPDEST PUSH4 0x4E487B71 PUSH1 0xE0 SHL DUP6 MSTORE PUSH1 0x11 PUSH1 0x4 MSTORE PUSH1 0x24 DUP6 REVERT JUMPDEST PUSH3 0x6A5 SWAP1 PUSH3 0x19C4 JUMP JUMPDEST PUSH3 0x50A JUMPI DUP3 CODESIZE PUSH3 0x63A JUMP JUMPDEST PUSH1 0x40 MLOAD RETURNDATASIZE DUP7 DUP3 RETURNDATACOPY RETURNDATASIZE SWAP1 REVERT JUMPDEST PUSH1 0x64 SWAP1 PUSH1 0x40 MLOAD SWAP1 PUSH3 0x461BCD PUSH1 0xE5 SHL DUP3 MSTORE PUSH1 0x4 DUP3 ADD MSTORE PUSH1 0x14 PUSH1 0x24 DUP3 ADD MSTORE PUSH20 0x496E73756666696369656E742062616C616E6365 PUSH1 0x60 SHL PUSH1 0x44 DUP3 ADD MSTORE REVERT JUMPDEST DUP1 SWAP3 POP DUP4 DUP1 SWAP3 POP RETURNDATASIZE DUP4 GT PUSH3 0x72B JUMPI JUMPDEST PUSH3 0x714 DUP2 DUP4 PUSH3 0x19F5 JUMP JUMPDEST DUP2 ADD SUB SLT PUSH3 0x727 JUMPI DUP5 SWAP1 MLOAD CODESIZE PUSH3 0x5F8 JUMP JUMPDEST DUP4 DUP1 REVERT JUMPDEST POP RETURNDATASIZE PUSH3 0x708 JUMP JUMPDEST POP CALLVALUE PUSH3 0x178 JUMPI PUSH1 0x20 SWAP1 DUP2 PUSH1 0x3 NOT CALLDATASIZE ADD SLT PUSH3 0x178 JUMPI PUSH3 0x753 PUSH3 0x196B JUMP JUMPDEST SWAP2 PUSH1 0x40 MLOAD SWAP2 PUSH3 0x763 DUP4 PUSH3 0x19D8 JUMP JUMPDEST DUP1 PUSH1 0x60 SWAP4 DUP5 DUP2 MSTORE DUP5 DUP5 DUP3 ADD MSTORE DUP5 PUSH1 0x40 DUP3 ADD MSTORE DUP5 DUP1 DUP3 ADD MSTORE DUP2 PUSH1 0x80 DUP3 ADD MSTORE DUP2 PUSH1 0xA0 DUP3 ADD MSTORE DUP2 PUSH1 0xC0 DUP3 ADD MSTORE PUSH1 0xE0 ADD MSTORE PUSH1 0x1 PUSH1 0xA0 SHL PUSH1 0x1 SWAP1 SUB DUP1 SWAP5 AND DUP2 MSTORE PUSH1 0x3 DUP3 MSTORE PUSH1 0x40 SWAP1 KECCAK256 SWAP1 PUSH1 0x40 MLOAD SWAP3 PUSH3 0x7B6 DUP5 PUSH3 0x19D8 JUMP JUMPDEST PUSH3 0x7C1 DUP4 PUSH3 0x1A17 JUMP JUMPDEST DUP5 MSTORE PUSH3 0x7D1 PUSH1 0x1 DUP5 ADD PUSH3 0x1A17 JUMP JUMPDEST DUP5 DUP4 ADD SWAP1 DUP2 MSTORE SWAP3 PUSH3 0x7E6 PUSH1 0x2 DUP3 ADD PUSH3 0x1A17 JUMP JUMPDEST PUSH1 0x40 DUP7 ADD SWAP1 DUP2 MSTORE SWAP6 PUSH3 0x7FC PUSH1 0x3 DUP4 ADD PUSH3 0x1A17 JUMP JUMPDEST SWAP1 DUP4 DUP8 ADD SWAP2 DUP3 MSTORE DUP1 PUSH1 0x4 DUP5 ADD SLOAD AND SWAP6 PUSH1 0x80 DUP9 ADD SWAP7 DUP8 MSTORE PUSH1 0x5 DUP5 ADD SLOAD SWAP3 PUSH1 0xA0 DUP10 ADD SWAP4 DUP5 MSTORE PUSH1 0x6 DUP6 ADD SLOAD SWAP5 PUSH1 0xC0 DUP11 ADD SWAP6 DUP7 MSTORE PUSH1 0x7 ADD SLOAD PUSH1 0xFF AND SWAP6 PUSH1 0xE0 DUP11 ADD SWAP7 ISZERO ISZERO DUP8 MSTORE PUSH1 0x40 MLOAD SWAP11 DUP12 SWAP11 DUP10 DUP13 MSTORE MLOAD PUSH2 0x100 DUP1 SWAP11 DUP14 ADD MSTORE PUSH2 0x120 DUP13 ADD PUSH3 0x85F SWAP2 PUSH3 0x1AC9 JUMP JUMPDEST SWAP4 MLOAD PUSH1 0x1F NOT DUP13 DUP7 SUB DUP2 ADD PUSH1 0x40 DUP15 ADD MSTORE SWAP5 PUSH3 0x87A SWAP2 PUSH3 0x1AC9 JUMP JUMPDEST SWAP1 MLOAD SWAP2 DUP5 DUP13 DUP4 SUB ADD SWAP1 DUP13 ADD MSTORE PUSH3 0x891 SWAP2 PUSH3 0x1AC9 JUMP JUMPDEST SWAP1 MLOAD SWAP2 DUP10 DUP3 SUB ADD PUSH1 0x80 DUP11 ADD MSTORE PUSH3 0x8A8 SWAP2 PUSH3 0x1AC9 JUMP JUMPDEST SWAP6 MLOAD AND PUSH1 0xA0 DUP8 ADD MSTORE MLOAD PUSH1 0xC0 DUP7 ADD MSTORE MLOAD PUSH1 0xE0 DUP6 ADD MSTORE MLOAD ISZERO ISZERO SWAP1 DUP4 ADD MSTORE SUB SWAP1 RETURN JUMPDEST POP PUSH1 0x80 CALLDATASIZE PUSH1 0x3 NOT ADD SLT PUSH3 0x178 JUMPI PUSH1 0x4 CALLDATALOAD PUSH1 0x1 PUSH1 0x1 PUSH1 0x40 SHL SUB DUP2 GT PUSH3 0x50E JUMPI PUSH3 0x8F7 SWAP1 CALLDATASIZE SWAP1 PUSH1 0x4 ADD PUSH3 0x1B27 JUMP JUMPDEST SWAP1 PUSH1 0x24 CALLDATALOAD PUSH1 0x1 PUSH1 0x1 PUSH1 0x40 SHL SUB DUP2 GT PUSH3 0x50E JUMPI PUSH3 0x91A SWAP1 CALLDATASIZE SWAP1 PUSH1 0x4 ADD PUSH3 0x1B27 JUMP JUMPDEST SWAP2 PUSH1 0x44 CALLDATALOAD PUSH1 0x1 PUSH1 0x1 PUSH1 0x40 SHL SUB DUP2 GT PUSH3 0x50A JUMPI PUSH3 0x93D SWAP1 CALLDATASIZE SWAP1 PUSH1 0x4 ADD PUSH3 0x1B27 JUMP JUMPDEST SWAP2 PUSH1 0x64 CALLDATALOAD PUSH1 0x1 PUSH1 0x1 PUSH1 0x40 SHL SUB DUP2 GT PUSH3 0x50E JUMPI PUSH3 0x960 SWAP1 CALLDATASIZE SWAP1 PUSH1 0x4 ADD PUSH3 0x1B27 JUMP JUMPDEST SWAP3 PUSH1 0x2 PUSH1 0x1 SLOAD EQ PUSH3 0x1480 JUMPI PUSH1 0x2 PUSH1 0x1 SSTORE PUSH7 0x38D7EA4C68000 CALLVALUE LT PUSH3 0x143B JUMPI DUP3 MLOAD ISZERO ISZERO DUP1 PUSH3 0x1430 JUMPI JUMPDEST ISZERO PUSH3 0x13F2 JUMPI PUSH1 0x2 SLOAD PUSH1 0x40 MLOAD PUSH4 0xFAAC38EF PUSH1 0xE0 SHL DUP2 MSTORE SWAP2 SWAP1 PUSH1 0x20 SWAP1 DUP4 SWAP1 PUSH1 0x4 SWAP1 DUP3 SWAP1 PUSH1 0x1 PUSH1 0x1 PUSH1 0xA0 SHL SUB AND GAS STATICCALL SWAP2 DUP3 ISZERO PUSH3 0x1018 JUMPI DUP4 SWAP3 PUSH3 0x13CC JUMPI JUMPDEST POP PUSH1 0x1 PUSH1 0x1 PUSH1 0xA0 SHL SUB DUP3 AND ISZERO PUSH3 0x138F JUMPI PUSH1 0x40 MLOAD DUP1 PUSH2 0x1B78 DUP2 ADD LT PUSH1 0x1 PUSH1 0x1 PUSH1 0x40 SHL SUB PUSH2 0x1B78 DUP4 ADD GT OR PUSH3 0x137B JUMPI PUSH2 0x1B78 PUSH3 0x1CC6 DUP3 CODECOPY PUSH1 0xC0 PUSH2 0x1B78 DUP3 ADD MSTORE DUP1 PUSH3 0xA6D PUSH3 0xA56 PUSH3 0xA3F PUSH3 0xA28 PUSH1 0xC0 PUSH2 0x1B78 DUP7 ADD ADD DUP11 PUSH3 0x1AC9 JUMP JUMPDEST PUSH2 0x1B78 DUP6 ADD DUP2 SUB PUSH1 0x20 PUSH2 0x1B78 DUP8 ADD ADD MSTORE DUP12 PUSH3 0x1AC9 JUMP JUMPDEST PUSH2 0x1B78 DUP5 ADD DUP2 SUB PUSH1 0x40 PUSH2 0x1B78 DUP7 ADD ADD MSTORE DUP6 PUSH3 0x1AC9 JUMP JUMPDEST PUSH2 0x1B78 DUP4 ADD DUP2 SUB PUSH1 0x60 PUSH2 0x1B78 DUP6 ADD ADD MSTORE DUP9 PUSH3 0x1AC9 JUMP JUMPDEST CALLER PUSH2 0x1B78 DUP4 ADD PUSH1 0x80 DUP2 ADD SWAP2 SWAP1 SWAP2 MSTORE PUSH1 0x1 PUSH1 0x1 PUSH1 0xA0 SHL SUB DUP7 AND PUSH1 0xA0 SWAP1 SWAP2 ADD MSTORE SUB SWAP1 DUP5 CREATE SWAP5 DUP6 ISZERO PUSH3 0x1018 JUMPI PUSH1 0x40 MLOAD SWAP2 PUSH3 0xAA6 DUP4 PUSH3 0x19D8 JUMP JUMPDEST DUP6 DUP4 MSTORE DUP8 PUSH1 0x20 DUP5 ADD MSTORE PUSH1 0x40 DUP4 ADD MSTORE PUSH1 0x60 DUP3 ADD MSTORE CALLER PUSH1 0x80 DUP3 ADD MSTORE TIMESTAMP PUSH1 0xA0 DUP3 ADD MSTORE PUSH12 0x33B2E3C9FD0803CE8000000 PUSH1 0xC0 DUP3 ADD MSTORE PUSH1 0x1 PUSH1 0xE0 DUP3 ADD MSTORE PUSH1 0x1 DUP1 PUSH1 0xA0 SHL SUB DUP6 AND DUP4 MSTORE PUSH1 0x3 PUSH1 0x20 MSTORE PUSH1 0x40 DUP4 KECCAK256 DUP2 MLOAD DUP1 MLOAD SWAP1 PUSH1 0x1 PUSH1 0x1 PUSH1 0x40 SHL SUB DUP3 GT PUSH3 0x42F JUMPI DUP2 SWAP1 PUSH3 0xB14 DUP5 SLOAD PUSH3 0x1987 JUMP JUMPDEST PUSH1 0x1F DUP2 GT PUSH3 0x1329 JUMPI JUMPDEST POP PUSH1 0x20 SWAP1 PUSH1 0x1F DUP4 GT PUSH1 0x1 EQ PUSH3 0x12BB JUMPI DUP8 SWAP3 PUSH3 0x12AF JUMPI JUMPDEST POP POP DUP2 PUSH1 0x1 SHL SWAP2 PUSH1 0x0 NOT SWAP1 PUSH1 0x3 SHL SHR NOT AND OR DUP2 SSTORE JUMPDEST PUSH1 0x20 DUP3 ADD MLOAD DUP1 MLOAD SWAP1 PUSH1 0x1 PUSH1 0x1 PUSH1 0x40 SHL SUB DUP3 GT PUSH3 0x42F JUMPI DUP2 SWAP1 PUSH3 0xB73 PUSH1 0x1 DUP6 ADD SLOAD PUSH3 0x1987 JUMP JUMPDEST PUSH1 0x1F DUP2 GT PUSH3 0x125A JUMPI JUMPDEST POP PUSH1 0x20 SWAP1 PUSH1 0x1F DUP4 GT PUSH1 0x1 EQ PUSH3 0x11E6 JUMPI DUP8 SWAP3 PUSH3 0x11DA JUMPI JUMPDEST POP POP DUP2 PUSH1 0x1 SHL SWAP2 PUSH1 0x0 NOT SWAP1 PUSH1 0x3 SHL SHR NOT AND OR PUSH1 0x1 DUP3 ADD SSTORE JUMPDEST PUSH1 0x40 DUP3 ADD MLOAD DUP1 MLOAD SWAP1 PUSH1 0x1 PUSH1 0x1 PUSH1 0x40 SHL SUB DUP3 GT PUSH3 0x42F JUMPI DUP2 SWAP1 PUSH3 0xBD5 PUSH1 0x2 DUP6 ADD SLOAD PUSH3 0x1987 JUMP JUMPDEST PUSH1 0x1F DUP2 GT PUSH3 0x1185 JUMPI JUMPDEST POP PUSH1 0x20 SWAP1 PUSH1 0x1F DUP4 GT PUSH1 0x1 EQ PUSH3 0x1111 JUMPI DUP8 SWAP3 PUSH3 0x1105 JUMPI JUMPDEST POP POP DUP2 PUSH1 0x1 SHL SWAP2 PUSH1 0x0 NOT SWAP1 PUSH1 0x3 SHL SHR NOT AND OR PUSH1 0x2 DUP3 ADD SSTORE JUMPDEST PUSH1 0x60 DUP3 ADD MLOAD DUP1 MLOAD SWAP1 PUSH1 0x1 PUSH1 0x1 PUSH1 0x40 SHL SUB DUP3 GT PUSH3 0x42F JUMPI PUSH3 0xC35 PUSH1 0x3 DUP5 ADD SLOAD PUSH3 0x1987 JUMP JUMPDEST PUSH1 0x1F DUP2 GT PUSH3 0x10BC JUMPI JUMPDEST POP PUSH1 0x20 SWAP1 PUSH1 0x1F DUP4 GT PUSH1 0x1 EQ PUSH3 0x1045 JUMPI SWAP2 DUP1 PUSH1 0xE0 SWAP5 SWAP3 PUSH1 0x7 SWAP5 DUP10 SWAP3 PUSH3 0x1039 JUMPI JUMPDEST POP POP DUP2 PUSH1 0x1 SHL SWAP2 PUSH1 0x0 NOT SWAP1 PUSH1 0x3 SHL SHR NOT AND OR PUSH1 0x3 DUP3 ADD SSTORE JUMPDEST PUSH1 0x4 DUP2 ADD PUSH1 0x1 DUP1 PUSH1 0xA0 SHL SUB PUSH1 0x80 DUP7 ADD MLOAD AND PUSH12 0xFFFFFFFFFFFFFFFFFFFFFFFF PUSH1 0xA0 SHL DUP3 SLOAD AND OR SWAP1 SSTORE PUSH1 0xA0 DUP5 ADD MLOAD PUSH1 0x5 DUP3 ADD SSTORE PUSH1 0xC0 DUP5 ADD MLOAD PUSH1 0x6 DUP3 ADD SSTORE ADD SWAP2 ADD MLOAD ISZERO ISZERO PUSH1 0xFF DUP1 NOT DUP4 SLOAD AND SWAP2 AND OR SWAP1 SSTORE PUSH1 0x4 SLOAD PUSH1 0x1 PUSH1 0x40 SHL DUP2 LT ISZERO PUSH3 0xFEA JUMPI PUSH1 0x1 DUP2 ADD DUP1 PUSH1 0x4 SSTORE DUP2 LT ISZERO PUSH3 0x1023 JUMPI PUSH1 0x4 PUSH1 0x0 MSTORE PUSH32 0x8A35ACFBC15FF81A39AE7D344FD709F28E8600B4AA8C65C6B64BFE7FE36BD19B ADD DUP1 SLOAD PUSH1 0x1 PUSH1 0x1 PUSH1 0xA0 SHL SUB NOT AND PUSH1 0x1 PUSH1 0x1 PUSH1 0xA0 SHL SUB DUP7 AND OR SWAP1 SSTORE CALLER DUP3 MSTORE PUSH1 0x5 PUSH1 0x20 MSTORE PUSH1 0x40 DUP3 KECCAK256 DUP1 SLOAD PUSH1 0x1 PUSH1 0x40 SHL DUP2 LT ISZERO PUSH3 0xFEA JUMPI PUSH3 0xD51 SWAP2 PUSH1 0x1 DUP3 ADD DUP2 SSTORE PUSH3 0x1952 JUMP JUMPDEST DUP2 SLOAD PUSH1 0x1 PUSH1 0x1 PUSH1 0xA0 SHL SUB PUSH1 0x3 SWAP3 SWAP1 SWAP3 SHL DUP3 DUP2 SHL NOT SWAP1 SWAP2 AND DUP8 DUP4 AND SWAP1 SWAP2 SHL OR SWAP1 SWAP2 SSTORE PUSH1 0x2 SLOAD AND DUP1 EXTCODESIZE ISZERO PUSH3 0x50A JUMPI PUSH1 0x40 MLOAD PUSH3 0x130495 PUSH1 0xE7 SHL DUP2 MSTORE PUSH1 0x1 PUSH1 0x1 PUSH1 0xA0 SHL SUB DUP7 AND PUSH1 0x4 DUP3 ADD MSTORE SWAP1 DUP4 SWAP1 DUP3 SWAP1 PUSH1 0x24 SWAP1 DUP3 SWAP1 DUP5 SWAP1 GAS CALL DUP1 ISZERO PUSH3 0x1018 JUMPI SWAP1 DUP4 SWAP2 PUSH3 0x1000 JUMPI JUMPDEST POP POP PUSH1 0x40 MLOAD PUSH4 0x1B0796E1 PUSH1 0xE1 SHL PUSH1 0x20 DUP3 ADD SWAP1 DUP2 MSTORE PUSH1 0x1 PUSH1 0x1 PUSH1 0xA0 SHL SUB DUP7 AND PUSH1 0x24 DUP1 DUP5 ADD SWAP2 SWAP1 SWAP2 MSTORE DUP3 MSTORE PUSH1 0x60 DUP3 ADD SWAP3 SWAP1 PUSH1 0x1 PUSH1 0x1 PUSH1 0x40 SHL SUB DUP5 GT DUP4 DUP6 LT OR PUSH3 0xFEA JUMPI DUP5 DUP1 SWAP5 SWAP4 DUP2 SWAP5 PUSH1 0x40 MSTORE MLOAD SWAP3 GAS CALL PUSH3 0xE10 PUSH3 0x1BC2 JUMP JUMPDEST POP ISZERO PUSH3 0xF99 JUMPI PUSH1 0x2 SLOAD PUSH1 0x40 MLOAD PUSH4 0x796B1C13 PUSH1 0xE1 SHL DUP2 MSTORE SWAP1 PUSH1 0x20 SWAP1 DUP3 SWAP1 PUSH1 0x4 SWAP1 DUP3 SWAP1 PUSH1 0x1 PUSH1 0x1 PUSH1 0xA0 SHL SUB AND GAS STATICCALL SWAP1 DUP2 ISZERO PUSH3 0xF8E JUMPI DUP3 SWAP2 PUSH3 0xF58 JUMPI JUMPDEST POP PUSH1 0x1 PUSH1 0x1 PUSH1 0xA0 SHL SUB DUP2 AND ISZERO ISZERO DUP1 PUSH3 0xF4E JUMPI JUMPDEST PUSH3 0xEF2 JUMPI JUMPDEST POP POP PUSH3 0xE95 PUSH1 0x20 SWAP4 PUSH3 0xE87 PUSH1 0x40 MLOAD SWAP4 PUSH1 0x60 DUP6 MSTORE PUSH1 0x60 DUP6 ADD SWAP1 PUSH3 0x1AC9 JUMP JUMPDEST SWAP1 DUP4 DUP3 SUB DUP7 DUP6 ADD MSTORE PUSH3 0x1AC9 JUMP JUMPDEST PUSH12 0x33B2E3C9FD0803CE8000000 PUSH1 0x40 DUP4 ADD MSTORE CALLER SWAP2 PUSH1 0x1 PUSH1 0x1 PUSH1 0xA0 SHL SUB DUP5 AND SWAP2 PUSH32 0x6E6AE68E7D7D45FBD855C40D1EAAFA8DE46C5FBEC3EE26F1AF88730E400BC92C SWAP2 SWAP1 DUP2 SWAP1 SUB SWAP1 LOG3 PUSH1 0x1 DUP1 SSTORE PUSH1 0x40 MLOAD PUSH1 0x1 PUSH1 0x1 PUSH1 0xA0 SHL SUB SWAP1 SWAP2 AND DUP2 MSTORE RETURN JUMPDEST DUP2 DUP1 DUP1 SWAP3 CALLVALUE SWAP1 GAS CALL PUSH3 0xF04 PUSH3 0x1BC2 JUMP JUMPDEST POP ISZERO PUSH3 0xF13 JUMPI CODESIZE DUP1 PUSH3 0xE67 JUMP JUMPDEST PUSH1 0x40 MLOAD PUSH3 0x461BCD PUSH1 0xE5 SHL DUP2 MSTORE PUSH1 0x20 PUSH1 0x4 DUP3 ADD MSTORE PUSH1 0x13 PUSH1 0x24 DUP3 ADD MSTORE PUSH19 0x119959481D1C985B9CD9995C8819985A5B1959 PUSH1 0x6A SHL PUSH1 0x44 DUP3 ADD MSTORE PUSH1 0x64 SWAP1 REVERT JUMPDEST POP CALLVALUE ISZERO ISZERO PUSH3 0xE61 JUMP JUMPDEST PUSH3 0xF7F SWAP2 POP PUSH1 0x20 RETURNDATASIZE PUSH1 0x20 GT PUSH3 0xF86 JUMPI JUMPDEST PUSH3 0xF76 DUP2 DUP4 PUSH3 0x19F5 JUMP JUMPDEST DUP2 ADD SWAP1 PUSH3 0x1BA1 JUMP JUMPDEST CODESIZE PUSH3 0xE4D JUMP JUMPDEST POP RETURNDATASIZE PUSH3 0xF6A JUMP JUMPDEST PUSH1 0x40 MLOAD RETURNDATASIZE DUP5 DUP3 RETURNDATACOPY RETURNDATASIZE SWAP1 REVERT JUMPDEST PUSH1 0x40 MLOAD PUSH3 0x461BCD PUSH1 0xE5 SHL DUP2 MSTORE PUSH1 0x20 PUSH1 0x4 DUP3 ADD MSTORE PUSH1 0x23 PUSH1 0x24 DUP3 ADD MSTORE PUSH32 0x426F6E64696E6720637572766520696E697469616C697A6174696F6E20666169 PUSH1 0x44 DUP3 ADD MSTORE PUSH3 0x1B1959 PUSH1 0xEA SHL PUSH1 0x64 DUP3 ADD MSTORE PUSH1 0x84 SWAP1 REVERT JUMPDEST PUSH4 0x4E487B71 PUSH1 0xE0 SHL PUSH1 0x0 MSTORE PUSH1 0x41 PUSH1 0x4 MSTORE PUSH1 0x24 PUSH1 0x0 REVERT JUMPDEST PUSH3 0x100B SWAP1 PUSH3 0x19C4 JUMP JUMPDEST PUSH3 0x50E JUMPI DUP2 CODESIZE PUSH3 0xDB7 JUMP JUMPDEST PUSH1 0x40 MLOAD RETURNDATASIZE DUP6 DUP3 RETURNDATACOPY RETURNDATASIZE SWAP1 REVERT JUMPDEST PUSH4 0x4E487B71 PUSH1 0xE0 SHL PUSH1 0x0 MSTORE PUSH1 0x32 PUSH1 0x4 MSTORE PUSH1 0x24 PUSH1 0x0 REVERT JUMPDEST ADD MLOAD SWAP1 POP CODESIZE DUP1 PUSH3 0xC60 JUMP JUMPDEST SWAP1 PUSH1 0x3 DUP5 ADD DUP8 MSTORE PUSH1 0x20 DUP8 KECCAK256 SWAP2 DUP8 JUMPDEST PUSH1 0x1F NOT DUP6 AND DUP2 LT PUSH3 0x10A3 JUMPI POP SWAP3 PUSH1 0xE0 SWAP5 SWAP3 PUSH1 0x1 SWAP3 PUSH1 0x7 SWAP6 DUP4 PUSH1 0x1F NOT DUP2 AND LT PUSH3 0x1089 JUMPI JUMPDEST POP POP POP DUP2 SHL ADD PUSH1 0x3 DUP3 ADD SSTORE PUSH3 0xC78 JUMP JUMPDEST ADD MLOAD PUSH1 0x0 NOT PUSH1 0xF8 DUP5 PUSH1 0x3 SHL AND SHR NOT AND SWAP1 SSTORE CODESIZE DUP1 DUP1 PUSH3 0x1078 JUMP JUMPDEST SWAP2 SWAP3 PUSH1 0x20 PUSH1 0x1 DUP2 SWAP3 DUP7 DUP6 ADD MLOAD DUP2 SSTORE ADD SWAP5 ADD SWAP3 ADD PUSH3 0x1053 JUMP JUMPDEST PUSH1 0x3 DUP5 ADD DUP8 MSTORE PUSH1 0x20 DUP8 KECCAK256 PUSH1 0x1F DUP5 ADD PUSH1 0x5 SHR DUP2 ADD PUSH1 0x20 DUP6 LT PUSH3 0x10FD JUMPI JUMPDEST PUSH1 0x1F DUP4 ADD PUSH1 0x5 SHR DUP3 ADD DUP2 LT PUSH3 0x10F1 JUMPI POP POP PUSH3 0xC3F JUMP JUMPDEST DUP9 DUP2 SSTORE PUSH1 0x1 ADD PUSH3 0x10D9 JUMP JUMPDEST POP DUP1 PUSH3 0x10D9 JUMP JUMPDEST ADD MLOAD SWAP1 POP CODESIZE DUP1 PUSH3 0xBF7 JUMP JUMPDEST SWAP3 POP PUSH1 0x2 DUP5 ADD DUP8 MSTORE PUSH1 0x20 DUP8 KECCAK256 SWAP1 DUP8 SWAP4 JUMPDEST PUSH1 0x1F NOT DUP5 AND DUP6 LT PUSH3 0x1169 JUMPI PUSH1 0x1 SWAP5 POP DUP4 PUSH1 0x1F NOT DUP2 AND LT PUSH3 0x114F JUMPI JUMPDEST POP POP POP DUP2 SHL ADD PUSH1 0x2 DUP3 ADD SSTORE PUSH3 0xC0F JUMP JUMPDEST ADD MLOAD PUSH1 0x0 NOT PUSH1 0xF8 DUP5 PUSH1 0x3 SHL AND SHR NOT AND SWAP1 SSTORE CODESIZE DUP1 DUP1 PUSH3 0x113E JUMP JUMPDEST DUP2 DUP2 ADD MLOAD DUP4 SSTORE PUSH1 0x20 SWAP5 DUP6 ADD SWAP5 PUSH1 0x1 SWAP1 SWAP4 ADD SWAP3 SWAP1 SWAP2 ADD SWAP1 PUSH3 0x1121 JUMP JUMPDEST SWAP1 SWAP2 POP PUSH1 0x2 DUP5 ADD DUP8 MSTORE PUSH1 0x20 DUP8 KECCAK256 PUSH1 0x1F DUP5 ADD PUSH1 0x5 SHR DUP2 ADD PUSH1 0x20 DUP6 LT PUSH3 0x11D2 JUMPI JUMPDEST SWAP1 DUP5 SWAP4 SWAP3 SWAP2 JUMPDEST PUSH1 0x1F DUP4 ADD PUSH1 0x5 SHR DUP3 ADD DUP2 LT PUSH3 0x11C3 JUMPI POP POP PUSH3 0xBDF JUMP JUMPDEST DUP10 DUP2 SSTORE DUP6 SWAP5 POP PUSH1 0x1 ADD PUSH3 0x11AB JUMP JUMPDEST POP DUP1 PUSH3 0x11A5 JUMP JUMPDEST ADD MLOAD SWAP1 POP CODESIZE DUP1 PUSH3 0xB95 JUMP JUMPDEST SWAP3 POP PUSH1 0x1 DUP5 ADD DUP8 MSTORE PUSH1 0x20 DUP8 KECCAK256 SWAP1 DUP8 SWAP4 JUMPDEST PUSH1 0x1F NOT DUP5 AND DUP6 LT PUSH3 0x123E JUMPI PUSH1 0x1 SWAP5 POP DUP4 PUSH1 0x1F NOT DUP2 AND LT PUSH3 0x1224 JUMPI JUMPDEST POP POP POP DUP2 SHL ADD PUSH1 0x1 DUP3 ADD SSTORE PUSH3 0xBAD JUMP JUMPDEST ADD MLOAD PUSH1 0x0 NOT PUSH1 0xF8 DUP5 PUSH1 0x3 SHL AND SHR NOT AND SWAP1 SSTORE CODESIZE DUP1 DUP1 PUSH3 0x1213 JUMP JUMPDEST DUP2 DUP2 ADD MLOAD DUP4 SSTORE PUSH1 0x20 SWAP5 DUP6 ADD SWAP5 PUSH1 0x1 SWAP1 SWAP4 ADD SWAP3 SWAP1 SWAP2 ADD SWAP1 PUSH3 0x11F6 JUMP JUMPDEST SWAP1 SWAP2 POP PUSH1 0x1 DUP5 ADD DUP8 MSTORE PUSH1 0x20 DUP8 KECCAK256 PUSH1 0x1F DUP5 ADD PUSH1 0x5 SHR DUP2 ADD PUSH1 0x20 DUP6 LT PUSH3 0x12A7 JUMPI JUMPDEST SWAP1 DUP5 SWAP4 SWAP3 SWAP2 JUMPDEST PUSH1 0x1F DUP4 ADD PUSH1 0x5 SHR DUP3 ADD DUP2 LT PUSH3 0x1298 JUMPI POP POP PUSH3 0xB7D JUMP JUMPDEST DUP10 DUP2 SSTORE DUP6 SWAP5 POP PUSH1 0x1 ADD PUSH3 0x1280 JUMP JUMPDEST POP DUP1 PUSH3 0x127A JUMP JUMPDEST ADD MLOAD SWAP1 POP CODESIZE DUP1 PUSH3 0xB36 JUMP JUMPDEST SWAP3 POP DUP4 DUP8 MSTORE PUSH1 0x20 DUP8 KECCAK256 SWAP1 DUP8 SWAP4 JUMPDEST PUSH1 0x1F NOT DUP5 AND DUP6 LT PUSH3 0x130D JUMPI PUSH1 0x1 SWAP5 POP DUP4 PUSH1 0x1F NOT DUP2 AND LT PUSH3 0x12F3 JUMPI JUMPDEST POP POP POP DUP2 SHL ADD DUP2 SSTORE PUSH3 0xB4B JUMP JUMPDEST ADD MLOAD PUSH1 0x0 NOT PUSH1 0xF8 DUP5 PUSH1 0x3 SHL AND SHR NOT AND SWAP1 SSTORE CODESIZE DUP1 DUP1 PUSH3 0x12E5 JUMP JUMPDEST DUP2 DUP2 ADD MLOAD DUP4 SSTORE PUSH1 0x20 SWAP5 DUP6 ADD SWAP5 PUSH1 0x1 SWAP1 SWAP4 ADD SWAP3 SWAP1 SWAP2 ADD SWAP1 PUSH3 0x12C8 JUMP JUMPDEST SWAP1 SWAP2 POP DUP4 DUP8 MSTORE PUSH1 0x20 DUP8 KECCAK256 PUSH1 0x1F DUP5 ADD PUSH1 0x5 SHR DUP2 ADD PUSH1 0x20 DUP6 LT PUSH3 0x1373 JUMPI JUMPDEST SWAP1 DUP5 SWAP4 SWAP3 SWAP2 JUMPDEST PUSH1 0x1F DUP4 ADD PUSH1 0x5 SHR DUP3 ADD DUP2 LT PUSH3 0x1364 JUMPI POP POP PUSH3 0xB1E JUMP JUMPDEST DUP10 DUP2 SSTORE DUP6 SWAP5 POP PUSH1 0x1 ADD PUSH3 0x134C JUMP JUMPDEST POP DUP1 PUSH3 0x1346 JUMP JUMPDEST PUSH4 0x4E487B71 PUSH1 0xE0 SHL DUP5 MSTORE PUSH1 0x41 PUSH1 0x4 MSTORE PUSH1 0x24 DUP5 REVERT JUMPDEST PUSH1 0x40 MLOAD PUSH3 0x461BCD PUSH1 0xE5 SHL DUP2 MSTORE PUSH1 0x20 PUSH1 0x4 DUP3 ADD MSTORE PUSH1 0x15 PUSH1 0x24 DUP3 ADD MSTORE PUSH21 0x109BDB991A5B99C818DD5C9D99481B9BDD081CD95D PUSH1 0x5A SHL PUSH1 0x44 DUP3 ADD MSTORE PUSH1 0x64 SWAP1 REVERT JUMPDEST PUSH3 0x13EA SWAP2 SWAP3 POP PUSH1 0x20 RETURNDATASIZE PUSH1 0x20 GT PUSH3 0xF86 JUMPI PUSH3 0xF76 DUP2 DUP4 PUSH3 0x19F5 JUMP JUMPDEST SWAP1 CODESIZE PUSH3 0x9C8 JUMP JUMPDEST PUSH1 0x40 MLOAD PUSH3 0x461BCD PUSH1 0xE5 SHL DUP2 MSTORE PUSH1 0x20 PUSH1 0x4 DUP3 ADD MSTORE PUSH1 0x16 PUSH1 0x24 DUP3 ADD MSTORE PUSH22 0x125B9D985B1A59081B985B59481BDC881CDE5B589BDB PUSH1 0x52 SHL PUSH1 0x44 DUP3 ADD MSTORE PUSH1 0x64 SWAP1 REVERT JUMPDEST POP DUP5 MLOAD ISZERO ISZERO PUSH3 0x98B JUMP JUMPDEST PUSH1 0x40 MLOAD PUSH3 0x461BCD PUSH1 0xE5 SHL DUP2 MSTORE PUSH1 0x20 PUSH1 0x4 DUP3 ADD MSTORE PUSH1 0x19 PUSH1 0x24 DUP3 ADD MSTORE PUSH32 0x496E73756666696369656E74206372656174696F6E2066656500000000000000 PUSH1 0x44 DUP3 ADD MSTORE PUSH1 0x64 SWAP1 REVERT JUMPDEST PUSH1 0x40 MLOAD PUSH4 0x3EE5AEB5 PUSH1 0xE0 SHL DUP2 MSTORE PUSH1 0x4 SWAP1 REVERT JUMPDEST POP CALLVALUE PUSH3 0x178 JUMPI DUP1 PUSH1 0x3 NOT CALLDATASIZE ADD SLT PUSH3 0x178 JUMPI SLOAD PUSH1 0x40 MLOAD PUSH1 0x1 PUSH1 0x1 PUSH1 0xA0 SHL SUB SWAP1 SWAP2 AND DUP2 MSTORE PUSH1 0x20 SWAP1 RETURN JUMPDEST POP CALLVALUE PUSH3 0x178 JUMPI DUP1 PUSH1 0x3 NOT CALLDATASIZE ADD SLT PUSH3 0x178 JUMPI PUSH1 0x2 SLOAD PUSH1 0x40 MLOAD PUSH1 0x1 PUSH1 0x1 PUSH1 0xA0 SHL SUB SWAP1 SWAP2 AND DUP2 MSTORE PUSH1 0x20 SWAP1 RETURN JUMPDEST POP CALLVALUE PUSH3 0x178 JUMPI PUSH1 0x40 CALLDATASIZE PUSH1 0x3 NOT ADD SLT PUSH3 0x178 JUMPI PUSH3 0x1504 PUSH3 0x196B JUMP JUMPDEST PUSH1 0x24 CALLDATALOAD PUSH3 0x152F PUSH1 0x1 DUP1 PUSH1 0xA0 SHL SUB DUP1 SWAP4 AND SWAP3 DUP4 DUP6 MSTORE PUSH1 0x3 PUSH1 0x20 MSTORE PUSH1 0x4 PUSH1 0x40 DUP7 KECCAK256 ADD SLOAD AND CALLER EQ PUSH3 0x1BF7 JUMP JUMPDEST DUP2 DUP4 MSTORE PUSH1 0x3 PUSH1 0x20 MSTORE PUSH3 0x154C PUSH1 0xFF PUSH1 0x7 PUSH1 0x40 DUP7 KECCAK256 ADD SLOAD AND PUSH3 0x1C38 JUMP JUMPDEST PUSH3 0x1559 DUP2 ISZERO ISZERO PUSH3 0x1C78 JUMP JUMPDEST DUP2 EXTCODESIZE ISZERO PUSH3 0x50A JUMPI PUSH1 0x40 MLOAD PUSH4 0x40C10F19 PUSH1 0xE0 SHL DUP2 MSTORE CALLER PUSH1 0x4 DUP3 ADD MSTORE PUSH1 0x24 DUP2 ADD DUP3 SWAP1 MSTORE DUP4 DUP2 PUSH1 0x44 DUP2 DUP4 DUP8 GAS CALL DUP1 ISZERO PUSH3 0x6B2 JUMPI PUSH3 0x15DF JUMPI JUMPDEST POP DUP2 DUP4 MSTORE PUSH1 0x3 PUSH1 0x20 MSTORE PUSH1 0x6 PUSH1 0x40 DUP5 KECCAK256 ADD DUP1 SLOAD SWAP1 DUP3 DUP3 ADD DUP1 SWAP3 GT PUSH3 0x686 JUMPI SSTORE PUSH1 0x40 MLOAD SWAP1 DUP2 MSTORE PUSH32 0xB9144C96C86541F6FA89C9F2F02495CCCF4B08CD6643E26D34EE00AA586558A8 SWAP1 PUSH1 0x20 SWAP1 LOG2 DUP1 RETURN JUMPDEST PUSH3 0x15ED SWAP1 SWAP4 SWAP2 SWAP4 PUSH3 0x19C4 JUMP JUMPDEST SWAP2 CODESIZE PUSH3 0x1591 JUMP JUMPDEST POP CALLVALUE PUSH3 0x178 JUMPI PUSH1 0x20 DUP1 PUSH1 0x3 NOT CALLDATASIZE ADD SLT PUSH3 0x50E JUMPI PUSH1 0x1 PUSH1 0x1 PUSH1 0xA0 SHL SUB SWAP2 DUP3 PUSH3 0x161E PUSH3 0x196B JUMP JUMPDEST AND DUP2 MSTORE PUSH1 0x5 DUP3 MSTORE PUSH1 0x40 DUP2 KECCAK256 SWAP3 PUSH1 0x40 MLOAD SWAP1 DUP2 SWAP4 DUP1 DUP7 SLOAD SWAP4 DUP5 DUP2 MSTORE ADD SWAP6 DUP5 MSTORE DUP1 DUP5 KECCAK256 SWAP4 SWAP2 JUMPDEST DUP4 DUP4 LT PUSH3 0x166D JUMPI PUSH3 0x1669 DUP7 PUSH3 0x165C DUP2 DUP11 SUB DUP3 PUSH3 0x19F5 JUMP JUMPDEST PUSH1 0x40 MLOAD SWAP2 DUP3 SWAP2 DUP3 PUSH3 0x190C JUMP JUMPDEST SUB SWAP1 RETURN JUMPDEST DUP5 SLOAD DUP2 AND DUP8 MSTORE SWAP6 DUP2 ADD SWAP6 PUSH1 0x1 SWAP5 DUP6 ADD SWAP5 SWAP1 SWAP3 ADD SWAP2 PUSH3 0x1641 JUMP JUMPDEST POP CALLVALUE PUSH3 0x178 JUMPI DUP1 PUSH1 0x3 NOT CALLDATASIZE ADD SLT PUSH3 0x178 JUMPI PUSH3 0x16A4 PUSH3 0x1B74 JUMP JUMPDEST DUP1 SLOAD PUSH1 0x1 PUSH1 0x1 PUSH1 0xA0 SHL SUB NOT DUP2 AND DUP3 SSTORE DUP2 SWAP1 PUSH1 0x1 PUSH1 0x1 PUSH1 0xA0 SHL SUB AND PUSH32 0x8BE0079C531659141344CD1FD0A4F28419497F9722A3DAAFE3B4186F6B6457E0 DUP3 DUP1 LOG3 DUP1 RETURN JUMPDEST POP CALLVALUE PUSH3 0x178 JUMPI PUSH1 0x20 CALLDATASIZE PUSH1 0x3 NOT ADD SLT PUSH3 0x178 JUMPI PUSH3 0x1794 SWAP1 PUSH1 0x1 PUSH1 0x1 PUSH1 0xA0 SHL SUB SWAP1 PUSH1 0x40 SWAP1 DUP3 PUSH3 0x1715 PUSH3 0x196B JUMP JUMPDEST AND DUP2 MSTORE PUSH1 0x3 PUSH1 0x20 MSTORE KECCAK256 SWAP1 PUSH3 0x172A DUP3 PUSH3 0x1A17 JUMP JUMPDEST SWAP2 PUSH3 0x1739 PUSH1 0x1 DUP3 ADD PUSH3 0x1A17 JUMP JUMPDEST SWAP1 PUSH3 0x1748 PUSH1 0x2 DUP3 ADD PUSH3 0x1A17 JUMP JUMPDEST PUSH3 0x17C1 PUSH3 0x175A PUSH1 0x3 DUP5 ADD PUSH3 0x1A17 JUMP JUMPDEST SWAP5 PUSH1 0x4 DUP5 ADD SLOAD AND SWAP5 PUSH3 0x17B2 PUSH1 0x5 DUP6 ADD SLOAD SWAP4 PUSH3 0x17A3 PUSH1 0xFF PUSH1 0x7 PUSH1 0x6 DUP10 ADD SLOAD SWAP9 ADD SLOAD AND SWAP8 PUSH1 0x40 MLOAD SWAP12 DUP13 SWAP12 DUP13 PUSH2 0x100 DUP1 SWAP2 MSTORE DUP14 ADD SWAP1 PUSH3 0x1AC9 JUMP JUMPDEST SWAP1 DUP12 DUP3 SUB PUSH1 0x20 DUP14 ADD MSTORE PUSH3 0x1AC9 JUMP JUMPDEST SWAP1 DUP10 DUP3 SUB PUSH1 0x40 DUP12 ADD MSTORE PUSH3 0x1AC9 JUMP JUMPDEST SWAP1 DUP8 DUP3 SUB PUSH1 0x60 DUP10 ADD MSTORE PUSH3 0x1AC9 JUMP JUMPDEST SWAP4 PUSH1 0x80 DUP7 ADD MSTORE PUSH1 0xA0 DUP6 ADD MSTORE PUSH1 0xC0 DUP5 ADD MSTORE ISZERO ISZERO PUSH1 0xE0 DUP4 ADD MSTORE SUB SWAP1 RETURN JUMPDEST POP CALLVALUE PUSH3 0x178 JUMPI PUSH1 0x20 CALLDATASIZE PUSH1 0x3 NOT ADD SLT PUSH3 0x178 JUMPI PUSH1 0x4 CALLDATALOAD PUSH1 0x4 SLOAD DUP2 LT ISZERO PUSH3 0x50E JUMPI PUSH1 0x4 SWAP1 SWAP2 MSTORE PUSH32 0x8A35ACFBC15FF81A39AE7D344FD709F28E8600B4AA8C65C6B64BFE7FE36BD19B ADD SLOAD PUSH1 0x40 MLOAD PUSH1 0x1 PUSH1 0x1 PUSH1 0xA0 SHL SUB SWAP1 SWAP2 AND DUP2 MSTORE PUSH1 0x20 SWAP1 RETURN JUMPDEST POP CALLVALUE PUSH3 0x178 JUMPI DUP1 PUSH1 0x3 NOT CALLDATASIZE ADD SLT PUSH3 0x178 JUMPI PUSH1 0x20 PUSH1 0x40 MLOAD PUSH7 0x38D7EA4C68000 DUP2 MSTORE RETURN JUMPDEST POP CALLVALUE PUSH3 0x178 JUMPI DUP1 PUSH1 0x3 NOT CALLDATASIZE ADD SLT PUSH3 0x178 JUMPI PUSH1 0x20 PUSH1 0x40 MLOAD PUSH12 0x33B2E3C9FD0803CE8000000 DUP2 MSTORE RETURN JUMPDEST SWAP1 POP CALLVALUE PUSH3 0x50E JUMPI DUP2 PUSH1 0x3 NOT CALLDATASIZE ADD SLT PUSH3 0x50E JUMPI PUSH1 0x4 DUP1 SLOAD DUP1 DUP4 MSTORE SWAP1 DUP4 MSTORE PUSH1 0x20 DUP1 DUP4 ADD SWAP4 PUSH32 0x8A35ACFBC15FF81A39AE7D344FD709F28E8600B4AA8C65C6B64BFE7FE36BD19B SWAP3 SWAP2 JUMPDEST DUP3 DUP3 LT PUSH3 0x18EB JUMPI PUSH3 0x1669 DUP6 PUSH3 0x165C DUP2 DUP10 SUB DUP3 PUSH3 0x19F5 JUMP JUMPDEST DUP4 SLOAD PUSH1 0x1 PUSH1 0x1 PUSH1 0xA0 SHL SUB AND DUP7 MSTORE SWAP5 DUP6 ADD SWAP5 PUSH1 0x1 SWAP4 DUP5 ADD SWAP4 SWAP1 SWAP2 ADD SWAP1 PUSH3 0x18D0 JUMP JUMPDEST PUSH1 0x20 SWAP1 DUP2 PUSH1 0x40 DUP2 DUP4 ADD SWAP3 DUP3 DUP2 MSTORE DUP6 MLOAD DUP1 SWAP5 MSTORE ADD SWAP4 ADD SWAP2 PUSH1 0x0 JUMPDEST DUP3 DUP2 LT PUSH3 0x1934 JUMPI POP POP POP POP SWAP1 JUMP JUMPDEST DUP4 MLOAD PUSH1 0x1 PUSH1 0x1 PUSH1 0xA0 SHL SUB AND DUP6 MSTORE SWAP4 DUP2 ADD SWAP4 SWAP3 DUP2 ADD SWAP3 PUSH1 0x1 ADD PUSH3 0x1925 JUMP JUMPDEST DUP1 SLOAD DUP3 LT ISZERO PUSH3 0x1023 JUMPI PUSH1 0x0 MSTORE PUSH1 0x20 PUSH1 0x0 KECCAK256 ADD SWAP1 PUSH1 0x0 SWAP1 JUMP JUMPDEST PUSH1 0x4 CALLDATALOAD SWAP1 PUSH1 0x1 PUSH1 0x1 PUSH1 0xA0 SHL SUB DUP3 AND DUP3 SUB PUSH3 0x1982 JUMPI JUMP JUMPDEST PUSH1 0x0 DUP1 REVERT JUMPDEST SWAP1 PUSH1 0x1 DUP3 DUP2 SHR SWAP3 AND DUP1 ISZERO PUSH3 0x19B9 JUMPI JUMPDEST PUSH1 0x20 DUP4 LT EQ PUSH3 0x19A3 JUMPI JUMP JUMPDEST PUSH4 0x4E487B71 PUSH1 0xE0 SHL PUSH1 0x0 MSTORE PUSH1 0x22 PUSH1 0x4 MSTORE PUSH1 0x24 PUSH1 0x0 REVERT JUMPDEST SWAP2 PUSH1 0x7F AND SWAP2 PUSH3 0x1997 JUMP JUMPDEST PUSH1 0x1 PUSH1 0x1 PUSH1 0x40 SHL SUB DUP2 GT PUSH3 0xFEA JUMPI PUSH1 0x40 MSTORE JUMP JUMPDEST PUSH2 0x100 DUP2 ADD SWAP1 DUP2 LT PUSH1 0x1 PUSH1 0x1 PUSH1 0x40 SHL SUB DUP3 GT OR PUSH3 0xFEA JUMPI PUSH1 0x40 MSTORE JUMP JUMPDEST SWAP1 PUSH1 0x1F DUP1 NOT SWAP2 ADD AND DUP2 ADD SWAP1 DUP2 LT PUSH1 0x1 PUSH1 0x1 PUSH1 0x40 SHL SUB DUP3 GT OR PUSH3 0xFEA JUMPI PUSH1 0x40 MSTORE JUMP JUMPDEST SWAP1 PUSH1 0x40 MLOAD SWAP2 DUP3 PUSH1 0x0 DUP3 SLOAD SWAP3 PUSH3 0x1A2D DUP5 PUSH3 0x1987 JUMP JUMPDEST SWAP1 DUP2 DUP5 MSTORE PUSH1 0x1 SWAP5 DUP6 DUP2 AND SWAP1 DUP2 PUSH1 0x0 EQ PUSH3 0x1AA4 JUMPI POP PUSH1 0x1 EQ PUSH3 0x1A5D JUMPI JUMPDEST POP POP PUSH3 0x1A5B SWAP3 POP SUB DUP4 PUSH3 0x19F5 JUMP JUMPDEST JUMP JUMPDEST SWAP1 SWAP4 SWAP2 POP PUSH1 0x0 MSTORE PUSH1 0x20 SWAP1 DUP2 PUSH1 0x0 KECCAK256 SWAP4 PUSH1 0x0 SWAP2 JUMPDEST DUP2 DUP4 LT PUSH3 0x1A8B JUMPI POP POP PUSH3 0x1A5B SWAP4 POP DUP3 ADD ADD CODESIZE DUP1 PUSH3 0x1A4B JUMP JUMPDEST DUP6 SLOAD DUP9 DUP5 ADD DUP6 ADD MSTORE SWAP5 DUP6 ADD SWAP5 DUP8 SWAP5 POP SWAP2 DUP4 ADD SWAP2 PUSH3 0x1A70 JUMP JUMPDEST SWAP2 POP POP PUSH3 0x1A5B SWAP5 POP PUSH1 0x20 SWAP3 POP PUSH1 0xFF NOT AND DUP3 DUP5 ADD MSTORE ISZERO ISZERO PUSH1 0x5 SHL DUP3 ADD ADD CODESIZE DUP1 PUSH3 0x1A4B JUMP JUMPDEST SWAP2 SWAP1 DUP3 MLOAD SWAP3 DUP4 DUP3 MSTORE PUSH1 0x0 JUMPDEST DUP5 DUP2 LT PUSH3 0x1AF6 JUMPI POP POP DUP3 PUSH1 0x0 PUSH1 0x20 DUP1 SWAP5 SWAP6 DUP5 ADD ADD MSTORE PUSH1 0x1F DUP1 NOT SWAP2 ADD AND ADD ADD SWAP1 JUMP JUMPDEST PUSH1 0x20 DUP2 DUP4 ADD DUP2 ADD MLOAD DUP5 DUP4 ADD DUP3 ADD MSTORE ADD PUSH3 0x1AD4 JUMP JUMPDEST PUSH1 0x1 PUSH1 0x1 PUSH1 0x40 SHL SUB DUP2 GT PUSH3 0xFEA JUMPI PUSH1 0x1F ADD PUSH1 0x1F NOT AND PUSH1 0x20 ADD SWAP1 JUMP JUMPDEST DUP2 PUSH1 0x1F DUP3 ADD SLT ISZERO PUSH3 0x1982 JUMPI DUP1 CALLDATALOAD SWAP1 PUSH3 0x1B41 DUP3 PUSH3 0x1B0B JUMP JUMPDEST SWAP3 PUSH3 0x1B51 PUSH1 0x40 MLOAD SWAP5 DUP6 PUSH3 0x19F5 JUMP JUMPDEST DUP3 DUP5 MSTORE PUSH1 0x20 DUP4 DUP4 ADD ADD GT PUSH3 0x1982 JUMPI DUP2 PUSH1 0x0 SWAP3 PUSH1 0x20 DUP1 SWAP4 ADD DUP4 DUP7 ADD CALLDATACOPY DUP4 ADD ADD MSTORE SWAP1 JUMP JUMPDEST PUSH1 0x0 SLOAD PUSH1 0x1 PUSH1 0x1 PUSH1 0xA0 SHL SUB AND CALLER SUB PUSH3 0x1B89 JUMPI JUMP JUMPDEST PUSH1 0x40 MLOAD PUSH4 0x118CDAA7 PUSH1 0xE0 SHL DUP2 MSTORE CALLER PUSH1 0x4 DUP3 ADD MSTORE PUSH1 0x24 SWAP1 REVERT JUMPDEST SWAP1 DUP2 PUSH1 0x20 SWAP2 SUB SLT PUSH3 0x1982 JUMPI MLOAD PUSH1 0x1 PUSH1 0x1 PUSH1 0xA0 SHL SUB DUP2 AND DUP2 SUB PUSH3 0x1982 JUMPI SWAP1 JUMP JUMPDEST RETURNDATASIZE ISZERO PUSH3 0x1BF2 JUMPI RETURNDATASIZE SWAP1 PUSH3 0x1BD6 DUP3 PUSH3 0x1B0B JUMP JUMPDEST SWAP2 PUSH3 0x1BE6 PUSH1 0x40 MLOAD SWAP4 DUP5 PUSH3 0x19F5 JUMP JUMPDEST DUP3 MSTORE RETURNDATASIZE PUSH1 0x0 PUSH1 0x20 DUP5 ADD RETURNDATACOPY JUMP JUMPDEST PUSH1 0x60 SWAP1 JUMP JUMPDEST ISZERO PUSH3 0x1BFF JUMPI JUMP JUMPDEST PUSH1 0x40 MLOAD PUSH3 0x461BCD PUSH1 0xE5 SHL DUP2 MSTORE PUSH1 0x20 PUSH1 0x4 DUP3 ADD MSTORE PUSH1 0x11 PUSH1 0x24 DUP3 ADD MSTORE PUSH17 0x2737BA103A37B5B2B71031B932B0BA37B9 PUSH1 0x79 SHL PUSH1 0x44 DUP3 ADD MSTORE PUSH1 0x64 SWAP1 REVERT JUMPDEST ISZERO PUSH3 0x1C40 JUMPI JUMP JUMPDEST PUSH1 0x40 MLOAD PUSH3 0x461BCD PUSH1 0xE5 SHL DUP2 MSTORE PUSH1 0x20 PUSH1 0x4 DUP3 ADD MSTORE PUSH1 0x10 PUSH1 0x24 DUP3 ADD MSTORE PUSH16 0x546F6B656E206E6F7420616374697665 PUSH1 0x80 SHL PUSH1 0x44 DUP3 ADD MSTORE PUSH1 0x64 SWAP1 REVERT JUMPDEST ISZERO PUSH3 0x1C80 JUMPI JUMP JUMPDEST PUSH1 0x40 MLOAD PUSH3 0x461BCD PUSH1 0xE5 SHL DUP2 MSTORE PUSH1 0x20 PUSH1 0x4 DUP3 ADD MSTORE PUSH1 0x1D PUSH1 0x24 DUP3 ADD MSTORE PUSH32 0x416D6F756E74206D7573742062652067726561746572207468616E2030000000 PUSH1 0x44 DUP3 ADD MSTORE PUSH1 0x64 SWAP1 REVERT INVALID PUSH1 0x40 PUSH1 0xC0 DUP2 MSTORE CALLVALUE PUSH3 0x75B JUMPI PUSH3 0x1B78 DUP1 CODESIZE SUB DUP1 PUSH3 0x1E DUP2 PUSH3 0x760 JUMP JUMPDEST SWAP3 DUP4 CODECOPY DUP2 ADD PUSH1 0xC0 DUP3 DUP3 SUB SLT PUSH3 0x75B JUMPI DUP2 MLOAD PUSH1 0x1 PUSH1 0x1 PUSH1 0x40 SHL SUB SWAP3 SWAP1 DUP4 DUP2 GT PUSH3 0x75B JUMPI DUP3 PUSH3 0x50 SWAP2 DUP4 ADD PUSH3 0x786 JUMP JUMPDEST SWAP2 PUSH1 0x20 SWAP3 DUP4 DUP4 ADD MLOAD DUP6 DUP2 GT PUSH3 0x75B JUMPI DUP3 PUSH3 0x6E SWAP2 DUP6 ADD PUSH3 0x786 JUMP JUMPDEST SWAP5 DUP7 DUP5 ADD MLOAD DUP2 DUP2 GT PUSH3 0x75B JUMPI DUP4 PUSH3 0x89 SWAP2 DUP7 ADD PUSH3 0x786 JUMP JUMPDEST SWAP3 PUSH1 0x60 DUP6 ADD MLOAD SWAP1 DUP3 DUP3 GT PUSH3 0x75B JUMPI PUSH3 0xA5 SWAP2 DUP7 ADD PUSH3 0x786 JUMP JUMPDEST SWAP3 PUSH3 0xC2 PUSH1 0xA0 PUSH3 0xBA PUSH1 0x80 DUP9 ADD PUSH3 0x7F8 JUMP JUMPDEST SWAP7 ADD PUSH3 0x7F8 JUMP JUMPDEST SWAP4 DUP4 MLOAD SWAP1 DUP4 DUP3 GT PUSH3 0x658 JUMPI PUSH1 0x3 SWAP3 DUP4 SLOAD SWAP3 PUSH1 0x1 SWAP7 DUP8 DUP6 DUP2 SHR SWAP6 AND DUP1 ISZERO PUSH3 0x750 JUMPI JUMPDEST DUP12 DUP7 LT EQ PUSH3 0x73A JUMPI DUP2 SWAP1 DUP12 PUSH1 0x1F SWAP7 DUP8 DUP2 GT PUSH3 0x6E1 JUMPI JUMPDEST POP POP DUP12 SWAP1 DUP7 DUP4 GT PUSH1 0x1 EQ PUSH3 0x67A JUMPI PUSH1 0x0 SWAP3 PUSH3 0x66E JUMPI JUMPDEST POP POP PUSH1 0x0 NOT DUP3 DUP8 SHL SHR NOT AND SWAP1 DUP8 SHL OR DUP5 SSTORE JUMPDEST DUP10 MLOAD DUP6 DUP2 GT PUSH3 0x658 JUMPI PUSH1 0x4 SWAP11 DUP12 SLOAD DUP9 DUP2 DUP2 SHR SWAP2 AND DUP1 ISZERO PUSH3 0x64D JUMPI JUMPDEST DUP13 DUP3 LT EQ PUSH3 0x535 JUMPI SWAP1 DUP12 DUP3 DUP8 DUP6 SWAP5 GT PUSH3 0x5F4 JUMPI JUMPDEST POP POP DUP12 SWAP1 DUP7 DUP4 GT PUSH1 0x1 EQ PUSH3 0x58D JUMPI PUSH1 0x0 SWAP3 PUSH3 0x581 JUMPI JUMPDEST POP POP PUSH1 0x0 NOT DUP3 DUP8 SHL SHR NOT AND SWAP1 DUP8 SHL OR DUP11 SSTORE JUMPDEST PUSH1 0x1 PUSH1 0x1 PUSH1 0xA0 SHL SUB SWAP8 DUP9 AND SWAP1 DUP2 ISZERO PUSH3 0x56A JUMPI PUSH1 0x5 DUP1 SLOAD PUSH1 0x1 PUSH1 0x1 PUSH1 0xA0 SHL SUB NOT DUP2 AND DUP5 OR DUP3 SSTORE SWAP1 SWAP3 SWAP1 DUP11 AND PUSH32 0x8BE0079C531659141344CD1FD0A4F28419497F9722A3DAAFE3B4186F6B6457E0 PUSH1 0x0 DUP1 LOG3 DUP1 MLOAD SWAP1 DUP7 DUP3 GT PUSH3 0x555 JUMPI PUSH1 0x6 SLOAD DUP9 DUP2 DUP2 SHR SWAP2 AND DUP1 ISZERO PUSH3 0x54A JUMPI JUMPDEST DUP13 DUP3 LT EQ PUSH3 0x535 JUMPI SWAP1 DUP12 DUP3 DUP8 DUP6 SWAP5 GT PUSH3 0x4DD JUMPI JUMPDEST POP POP DUP12 SWAP1 DUP7 DUP4 GT PUSH1 0x1 EQ PUSH3 0x472 JUMPI PUSH1 0x0 SWAP3 PUSH3 0x466 JUMPI JUMPDEST POP POP PUSH1 0x0 NOT DUP3 DUP8 SHL SHR NOT AND SWAP1 DUP8 SHL OR PUSH1 0x6 SSTORE JUMPDEST DUP2 MLOAD SWAP5 DUP6 GT PUSH3 0x451 JUMPI PUSH1 0x7 SLOAD SWAP1 DUP7 DUP3 DUP2 SHR SWAP3 AND DUP1 ISZERO PUSH3 0x446 JUMPI JUMPDEST DUP11 DUP4 LT EQ PUSH3 0x431 JUMPI DUP4 DUP3 GT PUSH3 0x3E7 JUMPI JUMPDEST POP POP DUP8 SWAP2 DUP5 GT PUSH1 0x1 EQ PUSH3 0x37A JUMPI SWAP4 DUP4 SWAP5 SWAP2 DUP5 SWAP3 PUSH1 0x0 SWAP6 PUSH3 0x36E JUMPI JUMPDEST POP POP SHL SWAP3 PUSH1 0x0 NOT SWAP2 SHL SHR NOT AND OR PUSH1 0x7 SSTORE JUMPDEST DUP1 PUSH1 0x80 MSTORE CALLER PUSH1 0xA0 MSTORE AND SWAP2 DUP3 ISZERO PUSH3 0x357 JUMPI PUSH1 0x2 SLOAD PUSH12 0x33B2E3C9FD0803CE8000000 SWAP2 DUP3 DUP3 ADD DUP1 SWAP3 GT PUSH3 0x342 JUMPI POP PUSH1 0x2 SSTORE PUSH1 0x0 DUP4 DUP2 MSTORE DUP1 DUP4 MSTORE DUP5 DUP2 KECCAK256 DUP1 SLOAD DUP4 ADD SWAP1 SSTORE DUP5 MLOAD SWAP2 DUP3 MSTORE SWAP2 PUSH32 0xDDF252AD1BE2C89B69C2B068FC378DAA952BA7F163C4A11628F55A4DF523B3EF SWAP2 LOG3 MLOAD PUSH2 0x136A SWAP1 DUP2 PUSH3 0x80E DUP3 CODECOPY PUSH1 0x80 MLOAD DUP2 DUP2 DUP2 PUSH2 0x547 ADD MSTORE DUP2 DUP2 PUSH2 0xB9E ADD MSTORE DUP2 DUP2 PUSH2 0xEC2 ADD MSTORE PUSH2 0x1081 ADD MSTORE PUSH1 0xA0 MLOAD DUP2 DUP2 DUP2 PUSH2 0x363 ADD MSTORE DUP2 DUP2 PUSH2 0x5BD ADD MSTORE DUP2 DUP2 PUSH2 0x60F ADD MSTORE PUSH2 0xC84 ADD MSTORE RETURN JUMPDEST PUSH1 0x11 SWAP1 PUSH4 0x4E487B71 PUSH1 0xE0 SHL PUSH1 0x0 MSTORE MSTORE PUSH1 0x24 PUSH1 0x0 REVERT JUMPDEST PUSH1 0x24 SWAP1 PUSH1 0x0 DUP6 MLOAD SWAP2 PUSH4 0xEC442F05 PUSH1 0xE0 SHL DUP4 MSTORE DUP3 ADD MSTORE REVERT JUMPDEST ADD MLOAD SWAP4 POP CODESIZE DUP1 PUSH3 0x27C JUMP JUMPDEST SWAP2 SWAP1 PUSH1 0x1F NOT DUP5 AND SWAP3 PUSH1 0x7 PUSH1 0x0 MSTORE DUP5 DUP10 PUSH1 0x0 KECCAK256 SWAP5 PUSH1 0x0 JUMPDEST DUP12 DUP10 DUP4 DUP4 LT PUSH3 0x3CF JUMPI POP POP POP LT PUSH3 0x3B4 JUMPI JUMPDEST POP POP POP POP DUP2 SHL ADD PUSH1 0x7 SSTORE PUSH3 0x28D JUMP JUMPDEST ADD MLOAD SWAP1 PUSH1 0xF8 DUP5 PUSH1 0x0 NOT SWAP3 SHL AND SHR NOT AND SWAP1 SSTORE CODESIZE DUP1 DUP1 DUP1 PUSH3 0x3A4 JUMP JUMPDEST DUP7 DUP7 ADD MLOAD DUP10 SSTORE SWAP1 SWAP8 ADD SWAP7 SWAP5 DUP6 ADD SWAP5 DUP9 SWAP4 POP ADD PUSH3 0x390 JUMP JUMPDEST PUSH1 0x7 PUSH1 0x0 MSTORE DUP10 PUSH1 0x0 KECCAK256 SWAP1 DUP5 DUP1 DUP9 ADD DUP3 SHR DUP4 ADD SWAP4 DUP13 DUP10 LT PUSH3 0x427 JUMPI JUMPDEST ADD SWAP1 SHR ADD SWAP1 DUP7 SWAP1 JUMPDEST DUP3 DUP2 LT PUSH3 0x41A JUMPI POP PUSH3 0x25F JUMP JUMPDEST PUSH1 0x0 DUP2 SSTORE ADD DUP7 SWAP1 PUSH3 0x40B JUMP JUMPDEST SWAP4 POP DUP3 SWAP4 PUSH3 0x403 JUMP JUMPDEST PUSH1 0x22 DUP12 PUSH4 0x4E487B71 PUSH1 0xE0 SHL PUSH1 0x0 MSTORE MSTORE PUSH1 0x24 PUSH1 0x0 REVERT JUMPDEST SWAP2 PUSH1 0x7F AND SWAP2 PUSH3 0x24D JUMP JUMPDEST PUSH1 0x41 DUP11 PUSH4 0x4E487B71 PUSH1 0xE0 SHL PUSH1 0x0 MSTORE MSTORE PUSH1 0x24 PUSH1 0x0 REVERT JUMPDEST ADD MLOAD SWAP1 POP CODESIZE DUP1 PUSH3 0x21E JUMP JUMPDEST DUP10 SWAP4 POP SWAP1 DUP13 SWAP2 PUSH1 0x1F NOT DUP5 AND PUSH1 0x6 PUSH1 0x0 MSTORE DUP4 PUSH1 0x0 KECCAK256 SWAP4 PUSH1 0x0 SWAP1 JUMPDEST DUP3 DUP3 LT PUSH3 0x4C5 JUMPI POP POP DUP5 GT PUSH3 0x4AC JUMPI JUMPDEST POP POP POP DUP2 SHL ADD PUSH1 0x6 SSTORE PUSH3 0x231 JUMP JUMPDEST ADD MLOAD PUSH1 0x0 NOT DUP4 DUP10 SHL PUSH1 0xF8 AND SHR NOT AND SWAP1 SSTORE CODESIZE DUP1 DUP1 PUSH3 0x49D JUMP JUMPDEST DUP4 DUP6 ADD MLOAD DUP7 SSTORE DUP14 SWAP8 SWAP1 SWAP6 ADD SWAP5 SWAP4 DUP5 ADD SWAP4 ADD DUP16 PUSH3 0x48B JUMP JUMPDEST SWAP1 SWAP2 SWAP3 POP PUSH1 0x6 PUSH1 0x0 MSTORE DUP7 DUP3 PUSH1 0x0 KECCAK256 SWAP2 DUP2 DUP7 ADD DUP8 SHR DUP4 ADD SWAP4 DUP7 LT PUSH3 0x52B JUMPI JUMPDEST SWAP2 DUP12 SWAP2 DUP7 SWAP6 SWAP5 SWAP4 ADD DUP8 SHR ADD SWAP2 JUMPDEST DUP3 DUP2 LT PUSH3 0x51B JUMPI POP DUP14 SWAP2 POP PUSH3 0x206 JUMP JUMPDEST PUSH1 0x0 DUP2 SSTORE DUP6 SWAP5 POP DUP12 SWAP2 ADD PUSH3 0x509 JUMP JUMPDEST SWAP3 POP DUP2 SWAP3 PUSH3 0x4FC JUMP JUMPDEST PUSH1 0x22 DUP14 PUSH4 0x4E487B71 PUSH1 0xE0 SHL PUSH1 0x0 MSTORE MSTORE PUSH1 0x24 PUSH1 0x0 REVERT JUMPDEST SWAP1 PUSH1 0x7F AND SWAP1 PUSH3 0x1F0 JUMP JUMPDEST PUSH1 0x41 DUP13 PUSH4 0x4E487B71 PUSH1 0xE0 SHL PUSH1 0x0 MSTORE MSTORE PUSH1 0x24 PUSH1 0x0 REVERT JUMPDEST DUP12 MLOAD PUSH4 0x1E4FBDF7 PUSH1 0xE0 SHL DUP2 MSTORE PUSH1 0x0 DUP2 DUP14 ADD MSTORE PUSH1 0x24 SWAP1 REVERT JUMPDEST ADD MLOAD SWAP1 POP CODESIZE DUP1 PUSH3 0x172 JUMP JUMPDEST PUSH1 0x0 DUP15 DUP2 MSTORE DUP14 DUP2 KECCAK256 DUP12 SWAP6 POP SWAP3 SWAP2 SWAP1 PUSH1 0x1F NOT DUP6 AND SWAP1 DUP16 JUMPDEST DUP3 DUP3 LT PUSH3 0x5DC JUMPI POP POP DUP5 GT PUSH3 0x5C3 JUMPI JUMPDEST POP POP POP DUP2 SHL ADD DUP11 SSTORE PUSH3 0x184 JUMP JUMPDEST ADD MLOAD PUSH1 0x0 NOT DUP4 DUP10 SHL PUSH1 0xF8 AND SHR NOT AND SWAP1 SSTORE CODESIZE DUP1 DUP1 PUSH3 0x5B5 JUMP JUMPDEST DUP4 DUP6 ADD MLOAD DUP7 SSTORE DUP14 SWAP8 SWAP1 SWAP6 ADD SWAP5 SWAP4 DUP5 ADD SWAP4 ADD DUP16 PUSH3 0x5A3 JUMP JUMPDEST SWAP1 SWAP2 SWAP3 POP DUP14 PUSH1 0x0 MSTORE DUP7 DUP3 PUSH1 0x0 KECCAK256 SWAP2 DUP2 DUP7 ADD PUSH1 0x5 SHR DUP4 ADD SWAP4 DUP7 LT PUSH3 0x643 JUMPI JUMPDEST SWAP2 DUP12 SWAP2 DUP7 SWAP6 SWAP5 SWAP4 ADD PUSH1 0x5 SHR ADD SWAP2 JUMPDEST DUP3 DUP2 LT PUSH3 0x633 JUMPI POP DUP14 SWAP2 POP PUSH3 0x15A JUMP JUMPDEST PUSH1 0x0 DUP2 SSTORE DUP6 SWAP5 POP DUP12 SWAP2 ADD PUSH3 0x621 JUMP JUMPDEST SWAP3 POP DUP2 SWAP3 PUSH3 0x613 JUMP JUMPDEST SWAP1 PUSH1 0x7F AND SWAP1 PUSH3 0x144 JUMP JUMPDEST PUSH4 0x4E487B71 PUSH1 0xE0 SHL PUSH1 0x0 MSTORE PUSH1 0x41 PUSH1 0x4 MSTORE PUSH1 0x24 PUSH1 0x0 REVERT JUMPDEST ADD MLOAD SWAP1 POP CODESIZE DUP1 PUSH3 0x115 JUMP JUMPDEST PUSH1 0x0 DUP9 DUP2 MSTORE DUP14 DUP2 KECCAK256 DUP12 SWAP6 POP SWAP3 SWAP2 SWAP1 PUSH1 0x1F NOT DUP6 AND SWAP1 DUP16 JUMPDEST DUP3 DUP3 LT PUSH3 0x6C9 JUMPI POP POP DUP5 GT PUSH3 0x6B0 JUMPI JUMPDEST POP POP POP DUP2 SHL ADD DUP5 SSTORE PUSH3 0x127 JUMP JUMPDEST ADD MLOAD PUSH1 0x0 NOT DUP4 DUP10 SHL PUSH1 0xF8 AND SHR NOT AND SWAP1 SSTORE CODESIZE DUP1 DUP1 PUSH3 0x6A2 JUMP JUMPDEST DUP4 DUP6 ADD MLOAD DUP7 SSTORE DUP14 SWAP8 SWAP1 SWAP6 ADD SWAP5 SWAP4 DUP5 ADD SWAP4 ADD DUP16 PUSH3 0x690 JUMP JUMPDEST SWAP1 SWAP2 SWAP3 POP DUP8 PUSH1 0x0 MSTORE DUP7 DUP3 PUSH1 0x0 KECCAK256 SWAP2 DUP2 DUP7 ADD PUSH1 0x5 SHR DUP4 ADD SWAP4 DUP7 LT PUSH3 0x730 JUMPI JUMPDEST SWAP2 DUP12 SWAP2 DUP7 SWAP6 SWAP5 SWAP4 ADD PUSH1 0x5 SHR ADD SWAP2 JUMPDEST DUP3 DUP2 LT PUSH3 0x720 JUMPI POP DUP14 SWAP2 POP PUSH3 0xFD JUMP JUMPDEST PUSH1 0x0 DUP2 SSTORE DUP6 SWAP5 POP DUP12 SWAP2 ADD PUSH3 0x70E JUMP JUMPDEST SWAP3 POP DUP2 SWAP3 PUSH3 0x700 JUMP JUMPDEST PUSH4 0x4E487B71 PUSH1 0xE0 SHL PUSH1 0x0 MSTORE PUSH1 0x22 PUSH1 0x4 MSTORE PUSH1 0x24 PUSH1 0x0 REVERT JUMPDEST SWAP5 PUSH1 0x7F AND SWAP5 PUSH3 0xE5 JUMP JUMPDEST PUSH1 0x0 DUP1 REVERT JUMPDEST PUSH1 0x40 MLOAD SWAP2 SWAP1 PUSH1 0x1F ADD PUSH1 0x1F NOT AND DUP3 ADD PUSH1 0x1 PUSH1 0x1 PUSH1 0x40 SHL SUB DUP2 GT DUP4 DUP3 LT OR PUSH3 0x658 JUMPI PUSH1 0x40 MSTORE JUMP JUMPDEST SWAP2 SWAP1 DUP1 PUSH1 0x1F DUP5 ADD SLT ISZERO PUSH3 0x75B JUMPI DUP3 MLOAD PUSH1 0x1 PUSH1 0x1 PUSH1 0x40 SHL SUB DUP2 GT PUSH3 0x658 JUMPI PUSH1 0x20 SWAP1 PUSH3 0x7BC PUSH1 0x1F DUP3 ADD PUSH1 0x1F NOT AND DUP4 ADD PUSH3 0x760 JUMP JUMPDEST SWAP3 DUP2 DUP5 MSTORE DUP3 DUP3 DUP8 ADD ADD GT PUSH3 0x75B JUMPI PUSH1 0x0 JUMPDEST DUP2 DUP2 LT PUSH3 0x7E4 JUMPI POP DUP3 PUSH1 0x0 SWAP4 SWAP5 SWAP6 POP ADD ADD MSTORE SWAP1 JUMP JUMPDEST DUP6 DUP2 ADD DUP4 ADD MLOAD DUP5 DUP3 ADD DUP5 ADD MSTORE DUP3 ADD PUSH3 0x7CE JUMP JUMPDEST MLOAD SWAP1 PUSH1 0x1 PUSH1 0x1 PUSH1 0xA0 SHL SUB DUP3 AND DUP3 SUB PUSH3 0x75B JUMPI JUMP INVALID PUSH1 0x80 PUSH1 0x40 DUP2 DUP2 MSTORE PUSH1 0x4 SWAP2 DUP3 CALLDATASIZE LT ISZERO PUSH2 0x16 JUMPI PUSH1 0x0 DUP1 REVERT JUMPDEST PUSH1 0x0 SWAP3 DUP4 CALLDATALOAD PUSH1 0xE0 SHR SWAP2 DUP3 PUSH4 0x2669B52 EQ PUSH2 0xEAE JUMPI POP DUP2 PUSH4 0x6FDDE03 EQ PUSH2 0xE04 JUMPI DUP2 PUSH4 0x95EA7B3 EQ PUSH2 0xDDA JUMPI DUP2 PUSH4 0x18160DDD EQ PUSH2 0xDBB JUMPI DUP2 PUSH4 0x23B872DD EQ PUSH2 0xCC7 JUMPI DUP2 PUSH4 0x313CE567 EQ PUSH2 0xCAB JUMPI DUP2 PUSH4 0x40C10F19 EQ PUSH2 0xB72 JUMPI DUP2 PUSH4 0x42966C68 EQ PUSH2 0xB54 JUMPI DUP2 PUSH4 0x4ADA218B EQ PUSH2 0xB30 JUMPI DUP2 PUSH4 0x56CE0E6C EQ PUSH2 0x83D JUMPI DUP2 PUSH4 0x70A08231 EQ PUSH2 0x806 JUMPI DUP2 PUSH4 0x715018A6 EQ PUSH2 0x7A6 JUMPI DUP2 PUSH4 0x7284E416 EQ PUSH2 0x6FC JUMPI DUP2 PUSH4 0x79CC6790 EQ PUSH2 0x5E6 JUMPI DUP2 PUSH4 0x8A8C523C EQ PUSH2 0x526 JUMPI DUP2 PUSH4 0x8DA5CB5B EQ PUSH2 0x4FD JUMPI DUP2 PUSH4 0x902D55A5 EQ PUSH2 0x4D6 JUMPI DUP2 PUSH4 0x95D89B41 EQ PUSH2 0x401 JUMPI DUP2 PUSH4 0xA9059CBB EQ PUSH2 0x3D0 JUMPI DUP2 PUSH4 0xAA2FE91B EQ PUSH2 0x392 JUMPI DUP2 PUSH4 0xC45A0155 EQ PUSH2 0x34E JUMPI DUP2 PUSH4 0xDD62ED3E EQ PUSH2 0x305 JUMPI DUP2 PUSH4 0xED58BAD8 EQ PUSH2 0x2AF JUMPI DUP2 PUSH4 0xF2FDE38B EQ PUSH2 0x21B JUMPI POP PUSH4 0xFC04B5E1 EQ PUSH2 0x138 JUMPI PUSH1 0x0 DUP1 REVERT JUMPDEST CALLVALUE PUSH2 0x217 JUMPI DUP2 PUSH1 0x3 NOT CALLDATASIZE ADD SLT PUSH2 0x217 JUMPI DUP1 MLOAD SWAP1 DUP3 PUSH1 0x6 SLOAD PUSH2 0x158 DUP2 PUSH2 0x1026 JUMP JUMPDEST DUP1 DUP6 MSTORE SWAP2 PUSH1 0x1 SWAP2 DUP1 DUP4 AND SWAP1 DUP2 ISZERO PUSH2 0x1EF JUMPI POP PUSH1 0x1 EQ PUSH2 0x192 JUMPI JUMPDEST POP POP POP PUSH2 0x184 DUP3 PUSH2 0x18E SWAP5 SUB DUP4 PUSH2 0xF6B JUMP JUMPDEST MLOAD SWAP2 DUP3 SWAP2 DUP3 PUSH2 0xEF1 JUMP JUMPDEST SUB SWAP1 RETURN JUMPDEST SWAP5 POP PUSH1 0x6 DUP6 MSTORE PUSH32 0xF652222313E28459528D920B65115C16C04F3EFC82AAEDC97BE59F3F377C0D3F JUMPDEST DUP3 DUP7 LT PUSH2 0x1D7 JUMPI POP POP POP PUSH2 0x184 DUP3 PUSH1 0x20 PUSH2 0x18E SWAP6 DUP3 ADD ADD SWAP5 PUSH2 0x172 JUMP JUMPDEST DUP1 SLOAD PUSH1 0x20 DUP8 DUP8 ADD DUP2 ADD SWAP2 SWAP1 SWAP2 MSTORE SWAP1 SWAP6 ADD SWAP5 DUP2 ADD PUSH2 0x1BA JUMP JUMPDEST PUSH2 0x18E SWAP8 POP DUP7 SWAP4 POP PUSH1 0x20 SWAP3 POP PUSH2 0x184 SWAP5 SWAP2 POP PUSH1 0xFF NOT AND DUP3 DUP5 ADD MSTORE ISZERO ISZERO PUSH1 0x5 SHL DUP3 ADD ADD SWAP5 PUSH2 0x172 JUMP JUMPDEST POP DUP1 REVERT JUMPDEST SWAP1 POP CALLVALUE PUSH2 0x2AB JUMPI PUSH1 0x20 CALLDATASIZE PUSH1 0x3 NOT ADD SLT PUSH2 0x2AB JUMPI PUSH2 0x236 PUSH2 0xF3A JUMP JUMPDEST SWAP1 PUSH2 0x23F PUSH2 0xFFA JUMP JUMPDEST PUSH1 0x1 PUSH1 0x1 PUSH1 0xA0 SHL SUB SWAP2 DUP3 AND SWAP3 DUP4 ISZERO PUSH2 0x295 JUMPI POP POP PUSH1 0x5 SLOAD DUP3 PUSH12 0xFFFFFFFFFFFFFFFFFFFFFFFF PUSH1 0xA0 SHL DUP3 AND OR PUSH1 0x5 SSTORE AND PUSH32 0x8BE0079C531659141344CD1FD0A4F28419497F9722A3DAAFE3B4186F6B6457E0 DUP4 DUP1 LOG3 DUP1 RETURN JUMPDEST MLOAD PUSH4 0x1E4FBDF7 PUSH1 0xE0 SHL DUP2 MSTORE SWAP1 DUP2 ADD DUP5 SWAP1 MSTORE PUSH1 0x24 SWAP1 REVERT JUMPDEST DUP3 DUP1 REVERT JUMPDEST POP POP CALLVALUE PUSH2 0x217 JUMPI DUP1 PUSH1 0x3 NOT CALLDATASIZE ADD SLT PUSH2 0x217 JUMPI PUSH2 0x2C9 PUSH2 0xF3A JUMP JUMPDEST SWAP1 PUSH1 0x24 CALLDATALOAD SWAP2 DUP3 ISZERO ISZERO DUP1 SWAP4 SUB PUSH2 0x301 JUMPI PUSH2 0x2E0 PUSH2 0xFFA JUMP JUMPDEST PUSH1 0x1 DUP1 PUSH1 0xA0 SHL SUB AND DUP4 MSTORE PUSH1 0x9 PUSH1 0x20 MSTORE DUP3 KECCAK256 SWAP1 PUSH1 0xFF DUP1 NOT DUP4 SLOAD AND SWAP2 AND OR SWAP1 SSTORE DUP1 RETURN JUMPDEST DUP4 DUP1 REVERT JUMPDEST POP POP CALLVALUE PUSH2 0x217 JUMPI DUP1 PUSH1 0x3 NOT CALLDATASIZE ADD SLT PUSH2 0x217 JUMPI DUP1 PUSH1 0x20 SWAP3 PUSH2 0x323 PUSH2 0xF3A JUMP JUMPDEST PUSH2 0x32B PUSH2 0xF55 JUMP JUMPDEST PUSH1 0x1 PUSH1 0x1 PUSH1 0xA0 SHL SUB SWAP2 DUP3 AND DUP4 MSTORE PUSH1 0x1 DUP7 MSTORE DUP4 DUP4 KECCAK256 SWAP2 AND DUP3 MSTORE DUP5 MSTORE KECCAK256 SLOAD SWAP1 MLOAD SWAP1 DUP2 MSTORE RETURN JUMPDEST POP POP CALLVALUE PUSH2 0x217 JUMPI DUP2 PUSH1 0x3 NOT CALLDATASIZE ADD SLT PUSH2 0x217 JUMPI MLOAD PUSH32 0x0 PUSH1 0x1 PUSH1 0x1 PUSH1 0xA0 SHL SUB AND DUP2 MSTORE PUSH1 0x20 SWAP1 RETURN JUMPDEST POP POP CALLVALUE PUSH2 0x217 JUMPI PUSH1 0x20 CALLDATASIZE PUSH1 0x3 NOT ADD SLT PUSH2 0x217 JUMPI PUSH1 0x20 SWAP2 PUSH1 0xFF SWAP1 DUP3 SWAP1 PUSH1 0x1 PUSH1 0x1 PUSH1 0xA0 SHL SUB PUSH2 0x3BD PUSH2 0xF3A JUMP JUMPDEST AND DUP2 MSTORE PUSH1 0x9 DUP6 MSTORE KECCAK256 SLOAD AND SWAP1 MLOAD SWAP1 ISZERO ISZERO DUP2 MSTORE RETURN JUMPDEST POP POP CALLVALUE PUSH2 0x217 JUMPI DUP1 PUSH1 0x3 NOT CALLDATASIZE ADD SLT PUSH2 0x217 JUMPI PUSH1 0x20 SWAP1 PUSH2 0x3FA PUSH2 0x3F0 PUSH2 0xF3A JUMP JUMPDEST PUSH1 0x24 CALLDATALOAD SWAP1 CALLER PUSH2 0x1060 JUMP JUMPDEST MLOAD PUSH1 0x1 DUP2 MSTORE RETURN JUMPDEST SWAP2 SWAP1 POP CALLVALUE PUSH2 0x2AB JUMPI DUP3 PUSH1 0x3 NOT CALLDATASIZE ADD SLT PUSH2 0x2AB JUMPI DUP1 MLOAD SWAP2 DUP4 DUP2 SLOAD SWAP1 PUSH2 0x424 DUP3 PUSH2 0x1026 JUMP JUMPDEST DUP1 DUP7 MSTORE SWAP3 PUSH1 0x1 SWAP3 DUP1 DUP5 AND SWAP1 DUP2 ISZERO PUSH2 0x4AB JUMPI POP PUSH1 0x1 EQ PUSH2 0x44F JUMPI JUMPDEST PUSH2 0x18E DUP7 DUP7 PUSH2 0x184 DUP3 DUP12 SUB DUP4 PUSH2 0xF6B JUMP JUMPDEST DUP2 MSTORE SWAP5 POP PUSH32 0x8A35ACFBC15FF81A39AE7D344FD709F28E8600B4AA8C65C6B64BFE7FE36BD19B JUMPDEST DUP3 DUP7 LT PUSH2 0x493 JUMPI POP POP POP PUSH2 0x184 DUP3 PUSH1 0x20 PUSH2 0x18E SWAP6 DUP3 ADD ADD SWAP5 CODESIZE PUSH2 0x43E JUMP JUMPDEST DUP1 SLOAD PUSH1 0x20 DUP8 DUP8 ADD DUP2 ADD SWAP2 SWAP1 SWAP2 MSTORE SWAP1 SWAP6 ADD SWAP5 DUP2 ADD PUSH2 0x475 JUMP JUMPDEST SWAP1 POP PUSH2 0x18E SWAP8 POP DUP7 SWAP4 POP PUSH1 0x20 SWAP3 POP PUSH2 0x184 SWAP5 SWAP2 POP PUSH1 0xFF NOT AND DUP3 DUP5 ADD MSTORE ISZERO ISZERO PUSH1 0x5 SHL DUP3 ADD ADD SWAP5 CODESIZE PUSH2 0x43E JUMP JUMPDEST POP POP CALLVALUE PUSH2 0x217 JUMPI DUP2 PUSH1 0x3 NOT CALLDATASIZE ADD SLT PUSH2 0x217 JUMPI PUSH1 0x20 SWAP1 MLOAD PUSH12 0x33B2E3C9FD0803CE8000000 DUP2 MSTORE RETURN JUMPDEST POP POP CALLVALUE PUSH2 0x217 JUMPI DUP2 PUSH1 0x3 NOT CALLDATASIZE ADD SLT PUSH2 0x217 JUMPI PUSH1 0x5 SLOAD SWAP1 MLOAD PUSH1 0x1 PUSH1 0x1 PUSH1 0xA0 SHL SUB SWAP1 SWAP2 AND DUP2 MSTORE PUSH1 0x20 SWAP1 RETURN JUMPDEST POP POP CALLVALUE PUSH2 0x217 JUMPI DUP2 PUSH1 0x3 NOT CALLDATASIZE ADD SLT PUSH2 0x217 JUMPI PUSH2 0x586 SWAP1 PUSH1 0x1 DUP1 PUSH1 0xA0 SHL SUB SWAP1 DUP2 PUSH32 0x0 AND CALLER EQ SWAP2 DUP3 ISZERO PUSH2 0x5BA JUMPI JUMPDEST DUP3 ISZERO PUSH2 0x5AC JUMPI JUMPDEST POP DUP2 ISZERO PUSH2 0x596 JUMPI JUMPDEST POP PUSH2 0x12F7 JUMP JUMPDEST PUSH1 0x1 PUSH1 0xFF NOT PUSH1 0x8 SLOAD AND OR PUSH1 0x8 SSTORE DUP1 RETURN JUMPDEST PUSH1 0xFF SWAP2 POP CALLER DUP5 MSTORE PUSH1 0x9 PUSH1 0x20 MSTORE DUP4 KECCAK256 SLOAD AND CODESIZE PUSH2 0x580 JUMP JUMPDEST PUSH1 0x5 SLOAD AND CALLER EQ SWAP2 POP CODESIZE PUSH2 0x578 JUMP JUMPDEST CALLER PUSH32 0x0 DUP3 AND EQ SWAP3 POP PUSH2 0x571 JUMP JUMPDEST DUP4 DUP4 CALLVALUE PUSH2 0x217 JUMPI DUP1 PUSH1 0x3 NOT CALLDATASIZE ADD SLT PUSH2 0x217 JUMPI PUSH2 0x600 PUSH2 0xF3A JUMP JUMPDEST PUSH1 0x24 CALLDATALOAD SWAP2 PUSH1 0x1 PUSH1 0x1 PUSH1 0xA0 SHL SUB CALLER PUSH32 0x0 DUP3 AND EQ ISZERO DUP1 PUSH2 0x6EE JUMPI JUMPDEST PUSH2 0x64B JUMPI JUMPDEST DUP5 PUSH2 0x648 DUP6 DUP6 PUSH2 0x1258 JUMP JUMPDEST DUP1 RETURN JUMPDEST DUP3 AND DUP5 MSTORE PUSH1 0x1 PUSH1 0x20 MSTORE DUP1 DUP5 KECCAK256 CALLER DUP6 MSTORE PUSH1 0x20 MSTORE DUP1 DUP5 KECCAK256 SLOAD SWAP1 DUP4 DUP3 LT PUSH2 0x6A0 JUMPI POP DUP3 DUP2 SUB SWAP1 DUP2 GT PUSH2 0x68D JUMPI PUSH2 0x648 SWAP4 SWAP5 POP PUSH2 0x685 SWAP1 CALLER DUP4 PUSH2 0x11C5 JUMP JUMPDEST DUP4 SWAP3 DUP6 PUSH2 0x63D JUMP JUMPDEST PUSH4 0x4E487B71 PUSH1 0xE0 SHL DUP5 MSTORE PUSH1 0x11 DUP6 MSTORE PUSH1 0x24 DUP5 REVERT JUMPDEST MLOAD PUSH3 0x461BCD PUSH1 0xE5 SHL DUP2 MSTORE PUSH1 0x20 DUP2 DUP8 ADD MSTORE PUSH1 0x24 DUP1 DUP3 ADD MSTORE PUSH32 0x45524332303A206275726E20616D6F756E74206578636565647320616C6C6F77 PUSH1 0x44 DUP3 ADD MSTORE PUSH4 0x616E6365 PUSH1 0xE0 SHL PUSH1 0x64 DUP3 ADD MSTORE PUSH1 0x84 SWAP1 REVERT JUMPDEST POP DUP1 PUSH1 0x5 SLOAD AND CALLER EQ ISZERO PUSH2 0x638 JUMP JUMPDEST POP POP CALLVALUE PUSH2 0x217 JUMPI DUP2 PUSH1 0x3 NOT CALLDATASIZE ADD SLT PUSH2 0x217 JUMPI DUP1 MLOAD SWAP1 DUP3 PUSH1 0x7 SLOAD PUSH2 0x71E DUP2 PUSH2 0x1026 JUMP JUMPDEST DUP1 DUP6 MSTORE SWAP2 PUSH1 0x1 SWAP2 DUP1 DUP4 AND SWAP1 DUP2 ISZERO PUSH2 0x1EF JUMPI POP PUSH1 0x1 EQ PUSH2 0x749 JUMPI POP POP POP PUSH2 0x184 DUP3 PUSH2 0x18E SWAP5 SUB DUP4 PUSH2 0xF6B JUMP JUMPDEST SWAP5 POP PUSH1 0x7 DUP6 MSTORE PUSH32 0xA66CC928B5EDB82AF9BD49922954155AB7B0942694BEA4CE44661D9A8736C688 JUMPDEST DUP3 DUP7 LT PUSH2 0x78E JUMPI POP POP POP PUSH2 0x184 DUP3 PUSH1 0x20 PUSH2 0x18E SWAP6 DUP3 ADD ADD SWAP5 PUSH2 0x172 JUMP JUMPDEST DUP1 SLOAD PUSH1 0x20 DUP8 DUP8 ADD DUP2 ADD SWAP2 SWAP1 SWAP2 MSTORE SWAP1 SWAP6 ADD SWAP5 DUP2 ADD PUSH2 0x771 JUMP JUMPDEST DUP4 CALLVALUE PUSH2 0x803 JUMPI DUP1 PUSH1 0x3 NOT CALLDATASIZE ADD SLT PUSH2 0x803 JUMPI PUSH2 0x7BF PUSH2 0xFFA JUMP JUMPDEST PUSH1 0x5 DUP1 SLOAD PUSH1 0x1 PUSH1 0x1 PUSH1 0xA0 SHL SUB NOT DUP2 AND SWAP1 SWAP2 SSTORE DUP2 SWAP1 PUSH1 0x1 PUSH1 0x1 PUSH1 0xA0 SHL SUB AND PUSH32 0x8BE0079C531659141344CD1FD0A4F28419497F9722A3DAAFE3B4186F6B6457E0 DUP3 DUP1 LOG3 DUP1 RETURN JUMPDEST DUP1 REVERT JUMPDEST POP POP CALLVALUE PUSH2 0x217 JUMPI PUSH1 0x20 CALLDATASIZE PUSH1 0x3 NOT ADD SLT PUSH2 0x217 JUMPI PUSH1 0x20 SWAP2 DUP2 SWAP1 PUSH1 0x1 PUSH1 0x1 PUSH1 0xA0 SHL SUB PUSH2 0x82E PUSH2 0xF3A JUMP JUMPDEST AND DUP2 MSTORE DUP1 DUP5 MSTORE KECCAK256 SLOAD SWAP1 MLOAD SWAP1 DUP2 MSTORE RETURN JUMPDEST DUP4 DUP4 CALLVALUE PUSH2 0x217 JUMPI CALLDATASIZE PUSH1 0x3 NOT ADD SLT PUSH2 0x803 JUMPI PUSH8 0xFFFFFFFFFFFFFFFF DUP3 CALLDATALOAD DUP2 DUP2 GT PUSH2 0x2AB JUMPI PUSH2 0x86D SWAP1 CALLDATASIZE SWAP1 DUP6 ADD PUSH2 0xFA3 JUMP JUMPDEST SWAP3 PUSH1 0x24 CALLDATALOAD DUP3 DUP2 GT PUSH2 0x301 JUMPI PUSH2 0x885 SWAP1 CALLDATASIZE SWAP1 DUP4 ADD PUSH2 0xFA3 JUMP JUMPDEST SWAP1 PUSH2 0x88E PUSH2 0xFFA JUMP JUMPDEST DUP5 MLOAD DUP4 DUP2 GT PUSH2 0xB1D JUMPI DUP1 PUSH2 0x8A3 PUSH1 0x6 SLOAD PUSH2 0x1026 JUMP JUMPDEST SWAP7 PUSH1 0x1F SWAP8 DUP9 DUP2 GT PUSH2 0xAB1 JUMPI JUMPDEST POP PUSH1 0x20 SWAP1 DUP9 DUP4 GT PUSH1 0x1 EQ PUSH2 0xA2E JUMPI DUP8 SWAP3 PUSH2 0xA23 JUMPI JUMPDEST POP POP DUP2 PUSH1 0x1 SHL SWAP2 PUSH1 0x0 NOT SWAP1 PUSH1 0x3 SHL SHR NOT AND OR PUSH1 0x6 SSTORE JUMPDEST DUP2 MLOAD SWAP3 DUP4 GT PUSH2 0xA10 JUMPI POP PUSH2 0x8EF PUSH1 0x7 SLOAD PUSH2 0x1026 JUMP JUMPDEST DUP5 DUP2 GT PUSH2 0x9B0 JUMPI JUMPDEST POP PUSH1 0x20 SWAP4 DUP3 GT PUSH1 0x1 EQ PUSH2 0x932 JUMPI SWAP3 DUP3 SWAP4 DUP3 SWAP4 SWAP3 PUSH2 0x927 JUMPI JUMPDEST POP POP DUP2 PUSH1 0x1 SHL SWAP2 PUSH1 0x0 NOT SWAP1 PUSH1 0x3 SHL SHR NOT AND OR PUSH1 0x7 SSTORE DUP1 RETURN JUMPDEST ADD MLOAD SWAP1 POP DUP4 DUP1 PUSH2 0x90F JUMP JUMPDEST PUSH1 0x7 DUP4 MSTORE PUSH1 0x1F NOT DUP3 AND SWAP4 PUSH32 0xA66CC928B5EDB82AF9BD49922954155AB7B0942694BEA4CE44661D9A8736C688 SWAP2 DUP5 JUMPDEST DUP7 DUP2 LT PUSH2 0x998 JUMPI POP DUP4 PUSH1 0x1 SWAP6 SWAP7 LT PUSH2 0x97F JUMPI JUMPDEST POP POP POP DUP2 SHL ADD PUSH1 0x7 SSTORE DUP1 RETURN JUMPDEST ADD MLOAD PUSH1 0x0 NOT PUSH1 0xF8 DUP5 PUSH1 0x3 SHL AND SHR NOT AND SWAP1 SSTORE DUP4 DUP1 DUP1 PUSH2 0x973 JUMP JUMPDEST SWAP2 SWAP3 PUSH1 0x20 PUSH1 0x1 DUP2 SWAP3 DUP7 DUP6 ADD MLOAD DUP2 SSTORE ADD SWAP5 ADD SWAP3 ADD PUSH2 0x960 JUMP JUMPDEST PUSH1 0x7 DUP5 MSTORE PUSH32 0xA66CC928B5EDB82AF9BD49922954155AB7B0942694BEA4CE44661D9A8736C688 DUP6 DUP1 DUP6 ADD PUSH1 0x5 SHR DUP3 ADD SWAP3 PUSH1 0x20 DUP7 LT PUSH2 0xA07 JUMPI JUMPDEST ADD PUSH1 0x5 SHR ADD SWAP1 JUMPDEST DUP2 DUP2 LT PUSH2 0x9FC JUMPI POP PUSH2 0x8F7 JUMP JUMPDEST DUP5 DUP2 SSTORE PUSH1 0x1 ADD PUSH2 0x9EF JUMP JUMPDEST SWAP3 POP DUP2 SWAP3 PUSH2 0x9E8 JUMP JUMPDEST PUSH4 0x4E487B71 PUSH1 0xE0 SHL DUP5 MSTORE PUSH1 0x41 SWAP1 MSTORE PUSH1 0x24 DUP4 REVERT JUMPDEST ADD MLOAD SWAP1 POP DUP8 DUP1 PUSH2 0x8C4 JUMP JUMPDEST PUSH1 0x6 DUP9 MSTORE PUSH32 0xF652222313E28459528D920B65115C16C04F3EFC82AAEDC97BE59F3F377C0D3F SWAP3 POP PUSH1 0x1F NOT DUP5 AND DUP9 JUMPDEST DUP2 DUP2 LT PUSH2 0xA99 JUMPI POP SWAP1 DUP5 PUSH1 0x1 SWAP6 SWAP5 SWAP4 SWAP3 LT PUSH2 0xA80 JUMPI JUMPDEST POP POP POP DUP2 SHL ADD PUSH1 0x6 SSTORE PUSH2 0x8DA JUMP JUMPDEST ADD MLOAD PUSH1 0x0 NOT PUSH1 0xF8 DUP5 PUSH1 0x3 SHL AND SHR NOT AND SWAP1 SSTORE DUP8 DUP1 DUP1 PUSH2 0xA72 JUMP JUMPDEST SWAP3 SWAP4 PUSH1 0x20 PUSH1 0x1 DUP2 SWAP3 DUP8 DUP7 ADD MLOAD DUP2 SSTORE ADD SWAP6 ADD SWAP4 ADD PUSH2 0xA5C JUMP JUMPDEST SWAP1 SWAP2 POP PUSH1 0x6 DUP8 MSTORE PUSH32 0xF652222313E28459528D920B65115C16C04F3EFC82AAEDC97BE59F3F377C0D3F DUP9 DUP1 DUP6 ADD PUSH1 0x5 SHR DUP3 ADD SWAP3 PUSH1 0x20 DUP7 LT PUSH2 0xB14 JUMPI JUMPDEST SWAP1 DUP6 SWAP5 SWAP4 SWAP3 SWAP2 ADD PUSH1 0x5 SHR ADD SWAP1 JUMPDEST DUP2 DUP2 LT PUSH2 0xB06 JUMPI POP PUSH2 0x8AF JUMP JUMPDEST DUP9 DUP2 SSTORE DUP5 SWAP4 POP PUSH1 0x1 ADD PUSH2 0xAF9 JUMP JUMPDEST SWAP3 POP DUP2 SWAP3 PUSH2 0xAEC JUMP JUMPDEST PUSH4 0x4E487B71 PUSH1 0xE0 SHL DUP6 MSTORE PUSH1 0x41 DUP3 MSTORE PUSH1 0x24 DUP6 REVERT JUMPDEST POP POP CALLVALUE PUSH2 0x217 JUMPI DUP2 PUSH1 0x3 NOT CALLDATASIZE ADD SLT PUSH2 0x217 JUMPI PUSH1 0x20 SWAP1 PUSH1 0xFF PUSH1 0x8 SLOAD AND SWAP1 MLOAD SWAP1 ISZERO ISZERO DUP2 MSTORE RETURN JUMPDEST DUP4 SWAP1 CALLVALUE PUSH2 0x217 JUMPI PUSH1 0x20 CALLDATASIZE PUSH1 0x3 NOT ADD SLT PUSH2 0x217 JUMPI PUSH2 0x648 SWAP1 CALLDATALOAD CALLER PUSH2 0x1258 JUMP JUMPDEST SWAP2 SWAP1 POP CALLVALUE PUSH2 0x2AB JUMPI DUP1 PUSH1 0x3 NOT CALLDATASIZE ADD SLT PUSH2 0x2AB JUMPI PUSH2 0xB8D PUSH2 0xF3A JUMP JUMPDEST PUSH1 0x24 CALLDATALOAD SWAP2 SWAP1 PUSH1 0x1 PUSH1 0x1 PUSH1 0xA0 SHL SUB SWAP1 CALLER PUSH32 0x0 DUP4 AND EQ DUP1 ISZERO PUSH2 0xC80 JUMPI JUMPDEST DUP1 ISZERO PUSH2 0xC73 JUMPI JUMPDEST DUP1 ISZERO PUSH2 0xC5E JUMPI JUMPDEST PUSH2 0xBDE SWAP1 PUSH2 0x12F7 JUMP JUMPDEST AND SWAP3 DUP4 ISZERO PUSH2 0xC49 JUMPI PUSH1 0x2 SLOAD SWAP1 DUP4 DUP3 ADD DUP1 SWAP3 GT PUSH2 0xC36 JUMPI POP DUP5 SWAP3 PUSH32 0xDDF252AD1BE2C89B69C2B068FC378DAA952BA7F163C4A11628F55A4DF523B3EF SWAP3 PUSH1 0x20 SWAP3 PUSH1 0x2 SSTORE DUP6 DUP6 MSTORE DUP5 DUP4 MSTORE DUP1 DUP6 KECCAK256 DUP3 DUP2 SLOAD ADD SWAP1 SSTORE MLOAD SWAP1 DUP2 MSTORE LOG3 DUP1 RETURN JUMPDEST PUSH4 0x4E487B71 PUSH1 0xE0 SHL DUP7 MSTORE PUSH1 0x11 SWAP1 MSTORE PUSH1 0x24 DUP6 REVERT JUMPDEST DUP5 PUSH1 0x24 SWAP3 MLOAD SWAP2 PUSH4 0xEC442F05 PUSH1 0xE0 SHL DUP4 MSTORE DUP3 ADD MSTORE REVERT JUMPDEST POP CALLER DUP7 MSTORE PUSH1 0x9 PUSH1 0x20 MSTORE DUP3 DUP7 KECCAK256 SLOAD PUSH1 0xFF AND PUSH2 0xBD5 JUMP JUMPDEST POP DUP2 PUSH1 0x5 SLOAD AND CALLER EQ PUSH2 0xBCE JUMP JUMPDEST POP DUP2 PUSH32 0x0 AND CALLER EQ PUSH2 0xBC7 JUMP JUMPDEST POP POP CALLVALUE PUSH2 0x217 JUMPI DUP2 PUSH1 0x3 NOT CALLDATASIZE ADD SLT PUSH2 0x217 JUMPI PUSH1 0x20 SWAP1 MLOAD PUSH1 0x12 DUP2 MSTORE RETURN JUMPDEST SWAP1 POP DUP3 CALLVALUE PUSH2 0x803 JUMPI PUSH1 0x60 CALLDATASIZE PUSH1 0x3 NOT ADD SLT PUSH2 0x803 JUMPI PUSH2 0xCE3 PUSH2 0xF3A JUMP JUMPDEST PUSH2 0xCEB PUSH2 0xF55 JUMP JUMPDEST SWAP2 PUSH1 0x44 CALLDATALOAD SWAP4 PUSH1 0x1 DUP1 PUSH1 0xA0 SHL SUB DUP4 AND DUP1 DUP4 MSTORE PUSH1 0x1 PUSH1 0x20 MSTORE DUP7 DUP4 KECCAK256 CALLER DUP5 MSTORE PUSH1 0x20 MSTORE DUP7 DUP4 KECCAK256 SLOAD SWAP2 PUSH1 0x0 NOT DUP4 LT PUSH2 0xD27 JUMPI JUMPDEST PUSH1 0x20 DUP9 PUSH2 0x3FA DUP10 DUP10 DUP10 PUSH2 0x1060 JUMP JUMPDEST DUP7 DUP4 LT PUSH2 0xD8F JUMPI DUP2 ISZERO PUSH2 0xD78 JUMPI CALLER ISZERO PUSH2 0xD61 JUMPI POP DUP3 MSTORE PUSH1 0x1 PUSH1 0x20 SWAP1 DUP2 MSTORE DUP7 DUP4 KECCAK256 CALLER DUP5 MSTORE DUP2 MSTORE SWAP2 DUP7 SWAP1 KECCAK256 SWAP1 DUP6 SWAP1 SUB SWAP1 SSTORE DUP3 SWAP1 PUSH2 0x3FA DUP8 PUSH2 0xD19 JUMP JUMPDEST DUP8 MLOAD PUSH4 0x4A1406B1 PUSH1 0xE1 SHL DUP2 MSTORE SWAP1 DUP2 ADD DUP5 SWAP1 MSTORE PUSH1 0x24 SWAP1 REVERT JUMPDEST DUP8 MLOAD PUSH4 0xE602DF05 PUSH1 0xE0 SHL DUP2 MSTORE SWAP1 DUP2 ADD DUP5 SWAP1 MSTORE PUSH1 0x24 SWAP1 REVERT JUMPDEST DUP8 MLOAD PUSH4 0x7DC7A0D9 PUSH1 0xE1 SHL DUP2 MSTORE CALLER SWAP2 DUP2 ADD SWAP2 DUP3 MSTORE PUSH1 0x20 DUP3 ADD SWAP4 SWAP1 SWAP4 MSTORE PUSH1 0x40 DUP2 ADD DUP8 SWAP1 MSTORE DUP3 SWAP2 POP PUSH1 0x60 ADD SUB SWAP1 REVERT JUMPDEST POP POP CALLVALUE PUSH2 0x217 JUMPI DUP2 PUSH1 0x3 NOT CALLDATASIZE ADD SLT PUSH2 0x217 JUMPI PUSH1 0x20 SWAP1 PUSH1 0x2 SLOAD SWAP1 MLOAD SWAP1 DUP2 MSTORE RETURN JUMPDEST POP POP CALLVALUE PUSH2 0x217 JUMPI DUP1 PUSH1 0x3 NOT CALLDATASIZE ADD SLT PUSH2 0x217 JUMPI PUSH1 0x20 SWAP1 PUSH2 0x3FA PUSH2 0xDFA PUSH2 0xF3A JUMP JUMPDEST PUSH1 0x24 CALLDATALOAD SWAP1 CALLER PUSH2 0x11C5 JUMP JUMPDEST POP POP CALLVALUE PUSH2 0x217 JUMPI DUP2 PUSH1 0x3 NOT CALLDATASIZE ADD SLT PUSH2 0x217 JUMPI DUP1 MLOAD SWAP1 DUP3 PUSH1 0x3 SLOAD PUSH2 0xE26 DUP2 PUSH2 0x1026 JUMP JUMPDEST DUP1 DUP6 MSTORE SWAP2 PUSH1 0x1 SWAP2 DUP1 DUP4 AND SWAP1 DUP2 ISZERO PUSH2 0x1EF JUMPI POP PUSH1 0x1 EQ PUSH2 0xE51 JUMPI POP POP POP PUSH2 0x184 DUP3 PUSH2 0x18E SWAP5 SUB DUP4 PUSH2 0xF6B JUMP JUMPDEST SWAP5 POP PUSH1 0x3 DUP6 MSTORE PUSH32 0xC2575A0E9E593C00F959F8C92F12DB2869C3395A3B0502D05E2516446F71F85B JUMPDEST DUP3 DUP7 LT PUSH2 0xE96 JUMPI POP POP POP PUSH2 0x184 DUP3 PUSH1 0x20 PUSH2 0x18E SWAP6 DUP3 ADD ADD SWAP5 PUSH2 0x172 JUMP JUMPDEST DUP1 SLOAD PUSH1 0x20 DUP8 DUP8 ADD DUP2 ADD SWAP2 SWAP1 SWAP2 MSTORE SWAP1 SWAP6 ADD SWAP5 DUP2 ADD PUSH2 0xE79 JUMP JUMPDEST DUP5 SWAP1 CALLVALUE PUSH2 0x217 JUMPI DUP2 PUSH1 0x3 NOT CALLDATASIZE ADD SLT PUSH2 0x217 JUMPI PUSH32 0x0 PUSH1 0x1 PUSH1 0x1 PUSH1 0xA0 SHL SUB AND DUP2 MSTORE PUSH1 0x20 SWAP1 RETURN JUMPDEST PUSH1 0x20 DUP1 DUP3 MSTORE DUP3 MLOAD DUP2 DUP4 ADD DUP2 SWAP1 MSTORE SWAP1 SWAP4 SWAP3 PUSH1 0x0 JUMPDEST DUP3 DUP2 LT PUSH2 0xF26 JUMPI POP POP PUSH1 0x40 SWAP3 SWAP4 POP PUSH1 0x0 DUP4 DUP3 DUP5 ADD ADD MSTORE PUSH1 0x1F DUP1 NOT SWAP2 ADD AND ADD ADD SWAP1 JUMP JUMPDEST DUP2 DUP2 ADD DUP7 ADD MLOAD DUP5 DUP3 ADD PUSH1 0x40 ADD MSTORE DUP6 ADD PUSH2 0xF04 JUMP JUMPDEST PUSH1 0x4 CALLDATALOAD SWAP1 PUSH1 0x1 PUSH1 0x1 PUSH1 0xA0 SHL SUB DUP3 AND DUP3 SUB PUSH2 0xF50 JUMPI JUMP JUMPDEST PUSH1 0x0 DUP1 REVERT JUMPDEST PUSH1 0x24 CALLDATALOAD SWAP1 PUSH1 0x1 PUSH1 0x1 PUSH1 0xA0 SHL SUB DUP3 AND DUP3 SUB PUSH2 0xF50 JUMPI JUMP JUMPDEST SWAP1 PUSH1 0x1F DUP1 NOT SWAP2 ADD AND DUP2 ADD SWAP1 DUP2 LT PUSH8 0xFFFFFFFFFFFFFFFF DUP3 GT OR PUSH2 0xF8D JUMPI PUSH1 0x40 MSTORE JUMP JUMPDEST PUSH4 0x4E487B71 PUSH1 0xE0 SHL PUSH1 0x0 MSTORE PUSH1 0x41 PUSH1 0x4 MSTORE PUSH1 0x24 PUSH1 0x0 REVERT JUMPDEST DUP2 PUSH1 0x1F DUP3 ADD SLT ISZERO PUSH2 0xF50 JUMPI DUP1 CALLDATALOAD SWAP1 PUSH8 0xFFFFFFFFFFFFFFFF DUP3 GT PUSH2 0xF8D JUMPI PUSH1 0x40 MLOAD SWAP3 PUSH2 0xFD8 PUSH1 0x1F DUP5 ADD PUSH1 0x1F NOT AND PUSH1 0x20 ADD DUP6 PUSH2 0xF6B JUMP JUMPDEST DUP3 DUP5 MSTORE PUSH1 0x20 DUP4 DUP4 ADD ADD GT PUSH2 0xF50 JUMPI DUP2 PUSH1 0x0 SWAP3 PUSH1 0x20 DUP1 SWAP4 ADD DUP4 DUP7 ADD CALLDATACOPY DUP4 ADD ADD MSTORE SWAP1 JUMP JUMPDEST PUSH1 0x5 SLOAD PUSH1 0x1 PUSH1 0x1 PUSH1 0xA0 SHL SUB AND CALLER SUB PUSH2 0x100E JUMPI JUMP JUMPDEST PUSH1 0x40 MLOAD PUSH4 0x118CDAA7 PUSH1 0xE0 SHL DUP2 MSTORE CALLER PUSH1 0x4 DUP3 ADD MSTORE PUSH1 0x24 SWAP1 REVERT JUMPDEST SWAP1 PUSH1 0x1 DUP3 DUP2 SHR SWAP3 AND DUP1 ISZERO PUSH2 0x1056 JUMPI JUMPDEST PUSH1 0x20 DUP4 LT EQ PUSH2 0x1040 JUMPI JUMP JUMPDEST PUSH4 0x4E487B71 PUSH1 0xE0 SHL PUSH1 0x0 MSTORE PUSH1 0x22 PUSH1 0x4 MSTORE PUSH1 0x24 PUSH1 0x0 REVERT JUMPDEST SWAP2 PUSH1 0x7F AND SWAP2 PUSH2 0x1035 JUMP JUMPDEST PUSH1 0x1 PUSH1 0x1 PUSH1 0xA0 SHL SUB SWAP3 DUP4 DUP3 AND SWAP3 SWAP1 SWAP2 SWAP1 DUP4 ISZERO PUSH2 0x11AC JUMPI DUP5 AND SWAP4 DUP5 ISZERO PUSH2 0x1193 JUMPI PUSH32 0x0 AND DUP1 DUP5 EQ ISZERO SWAP1 DUP2 PUSH2 0x1188 JUMPI JUMPDEST POP PUSH2 0x1143 JUMPI JUMPDEST PUSH1 0x0 SWAP1 DUP4 DUP3 MSTORE DUP2 PUSH1 0x20 MSTORE PUSH1 0x40 DUP3 KECCAK256 SLOAD SWAP1 DUP4 DUP3 LT PUSH2 0x1111 JUMPI POP SWAP2 PUSH1 0x40 DUP3 DUP3 PUSH32 0xDDF252AD1BE2C89B69C2B068FC378DAA952BA7F163C4A11628F55A4DF523B3EF SWAP6 DUP8 PUSH1 0x20 SWAP7 MSTORE DUP3 DUP7 MSTORE SUB DUP3 DUP3 KECCAK256 SSTORE DUP7 DUP2 MSTORE KECCAK256 DUP2 DUP2 SLOAD ADD SWAP1 SSTORE PUSH1 0x40 MLOAD SWAP1 DUP2 MSTORE LOG3 JUMP JUMPDEST PUSH1 0x40 MLOAD PUSH4 0x391434E3 PUSH1 0xE2 SHL DUP2 MSTORE PUSH1 0x1 PUSH1 0x1 PUSH1 0xA0 SHL SUB SWAP2 SWAP1 SWAP2 AND PUSH1 0x4 DUP3 ADD MSTORE PUSH1 0x24 DUP2 ADD SWAP2 SWAP1 SWAP2 MSTORE PUSH1 0x44 DUP2 ADD DUP4 SWAP1 MSTORE PUSH1 0x64 SWAP1 REVERT JUMPDEST PUSH1 0xFF PUSH1 0x8 SLOAD AND PUSH2 0x10B2 JUMPI PUSH1 0x40 MLOAD PUSH3 0x461BCD PUSH1 0xE5 SHL DUP2 MSTORE PUSH1 0x20 PUSH1 0x4 DUP3 ADD MSTORE PUSH1 0x13 PUSH1 0x24 DUP3 ADD MSTORE PUSH19 0x151C98591A5B99C81B9BDD08195B98589B1959 PUSH1 0x6A SHL PUSH1 0x44 DUP3 ADD MSTORE PUSH1 0x64 SWAP1 REVERT JUMPDEST SWAP1 POP DUP5 EQ ISZERO CODESIZE PUSH2 0x10AC JUMP JUMPDEST PUSH1 0x40 MLOAD PUSH4 0xEC442F05 PUSH1 0xE0 SHL DUP2 MSTORE PUSH1 0x0 PUSH1 0x4 DUP3 ADD MSTORE PUSH1 0x24 SWAP1 REVERT JUMPDEST PUSH1 0x40 MLOAD PUSH4 0x4B637E8F PUSH1 0xE1 SHL DUP2 MSTORE PUSH1 0x0 PUSH1 0x4 DUP3 ADD MSTORE PUSH1 0x24 SWAP1 REVERT JUMPDEST PUSH1 0x1 PUSH1 0x1 PUSH1 0xA0 SHL SUB SWAP1 DUP2 AND SWAP2 DUP3 ISZERO PUSH2 0x123F JUMPI AND SWAP2 DUP3 ISZERO PUSH2 0x1226 JUMPI PUSH1 0x20 PUSH32 0x8C5BE1E5EBEC7D5BD14F71427D1E84F3DD0314C0F7B2291E5B200AC8C7C3B925 SWAP2 DUP4 PUSH1 0x0 MSTORE PUSH1 0x1 DUP3 MSTORE PUSH1 0x40 PUSH1 0x0 KECCAK256 DUP6 PUSH1 0x0 MSTORE DUP3 MSTORE DUP1 PUSH1 0x40 PUSH1 0x0 KECCAK256 SSTORE PUSH1 0x40 MLOAD SWAP1 DUP2 MSTORE LOG3 JUMP JUMPDEST PUSH1 0x40 MLOAD PUSH4 0x4A1406B1 PUSH1 0xE1 SHL DUP2 MSTORE PUSH1 0x0 PUSH1 0x4 DUP3 ADD MSTORE PUSH1 0x24 SWAP1 REVERT JUMPDEST PUSH1 0x40 MLOAD PUSH4 0xE602DF05 PUSH1 0xE0 SHL DUP2 MSTORE PUSH1 0x0 PUSH1 0x4 DUP3 ADD MSTORE PUSH1 0x24 SWAP1 REVERT JUMPDEST SWAP1 PUSH1 0x1 PUSH1 0x1 PUSH1 0xA0 SHL SUB DUP3 AND SWAP1 DUP2 ISZERO PUSH2 0x11AC JUMPI PUSH1 0x0 SWAP3 DUP3 DUP5 MSTORE DUP4 PUSH1 0x20 MSTORE PUSH1 0x40 DUP5 KECCAK256 SLOAD SWAP1 DUP3 DUP3 LT PUSH2 0x12C5 JUMPI POP DUP2 PUSH32 0xDDF252AD1BE2C89B69C2B068FC378DAA952BA7F163C4A11628F55A4DF523B3EF SWAP3 PUSH1 0x20 SWAP3 DUP6 DUP8 MSTORE DUP7 DUP5 MSTORE SUB PUSH1 0x40 DUP7 KECCAK256 SSTORE DUP1 PUSH1 0x2 SLOAD SUB PUSH1 0x2 SSTORE PUSH1 0x40 MLOAD SWAP1 DUP2 MSTORE LOG3 JUMP JUMPDEST PUSH1 0x40 MLOAD PUSH4 0x391434E3 PUSH1 0xE2 SHL DUP2 MSTORE PUSH1 0x1 PUSH1 0x1 PUSH1 0xA0 SHL SUB SWAP2 SWAP1 SWAP2 AND PUSH1 0x4 DUP3 ADD MSTORE PUSH1 0x24 DUP2 ADD SWAP2 SWAP1 SWAP2 MSTORE PUSH1 0x44 DUP2 ADD DUP3 SWAP1 MSTORE PUSH1 0x64 SWAP1 REVERT JUMPDEST ISZERO PUSH2 0x12FE JUMPI JUMP JUMPDEST PUSH1 0x40 MLOAD PUSH3 0x461BCD PUSH1 0xE5 SHL DUP2 MSTORE PUSH1 0x20 PUSH1 0x4 DUP3 ADD MSTORE PUSH1 0xE PUSH1 0x24 DUP3 ADD MSTORE PUSH14 0x139BDD08185D5D1A1BDC9A5E9959 PUSH1 0x92 SHL PUSH1 0x44 DUP3 ADD MSTORE PUSH1 0x64 SWAP1 REVERT INVALID LOG2 PUSH5 0x6970667358 0x22 SLT KECCAK256 0xB6 DUP3 PUSH28 0xCE96CCDF23B8E61645D22302186A93C4ECD16D80160FE16550161F93 0xB5 PUSH5 0x736F6C6343 STOP ADDMOD EQ STOP CALLER LOG2 PUSH5 0x6970667358 0x22 SLT KECCAK256 0x26 0xF 0xA5 MSIZE PUSH29 0xE94A97A0E629116263A041E4FE1EF859DD2A3C78722A1A455C62EB6473 PUSH16 0x6C634300081400330000000000000000 "},"methodIdentifiers":{"CREATION_FEE()":"49a2104d","INITIAL_SUPPLY()":"2ff2e9dc","allTokens(uint256)":"634282af","burnToken(address,uint256)":"d1df306c","createToken(string,string,string,string)":"a0769659","creatorTokens(address,uint256)":"db3fa4cc","getAllTokens()":"2a5c792a","getCreatorTokens(address)":"74abfa54","getTokenMetadata(address)":"c00f14ab","mintToken(address,uint256)":"79c65068","owner()":"8da5cb5b","registry()":"7b103999","renounceOwnership()":"715018a6","setMetadata(address,string,string)":"eb3b0cba","tokenMetadata(address)":"6fecdf24","transferOwnership(address)":"f2fde38b"}}}}}