{"contracts/BondingCurveContract.sol":{"BondingCurveContract":{"abi":[{"inputs":[{"internalType":"address","name":"_registry","type":"address"}],"stateMutability":"nonpayable","type":"constructor"},{"inputs":[{"internalType":"address","name":"owner","type":"address"}],"name":"OwnableInvalidOwner","type":"error"},{"inputs":[{"internalType":"address","name":"account","type":"address"}],"name":"OwnableUnauthorizedAccount","type":"error"},{"inputs":[],"name":"ReentrancyGuardReentrantCall","type":"error"},{"inputs":[{"internalType":"address","name":"token","type":"address"}],"name":"SafeERC20FailedOperation","type":"error"},{"anonymous":false,"inputs":[{"indexed":true,"internalType":"address","name":"token","type":"address"},{"indexed":false,"internalType":"uint256","name":"virtualOkbReserves","type":"uint256"},{"indexed":false,"internalType":"uint256","name":"virtualTokenReserves","type":"uint256"}],"name":"CurveParametersUpdated","type":"event"},{"anonymous":false,"inputs":[{"indexed":true,"internalType":"address","name":"previousOwner","type":"address"},{"indexed":true,"internalType":"address","name":"newOwner","type":"address"}],"name":"OwnershipTransferred","type":"event"},{"anonymous":false,"inputs":[{"indexed":true,"internalType":"address","name":"token","type":"address"},{"indexed":true,"internalType":"address","name":"buyer","type":"address"},{"indexed":false,"internalType":"uint256","name":"okbIn","type":"uint256"},{"indexed":false,"internalType":"uint256","name":"tokensOut","type":"uint256"},{"indexed":false,"internalType":"uint256","name":"newPrice","type":"uint256"}],"name":"TokenBought","type":"event"},{"anonymous":false,"inputs":[{"indexed":true,"internalType":"address","name":"token","type":"address"},{"indexed":false,"internalType":"uint256","name":"okbCollected","type":"uint256"}],"name":"TokenGraduated","type":"event"},{"anonymous":false,"inputs":[{"indexed":true,"internalType":"address","name":"token","type":"address"},{"indexed":true,"internalType":"address","name":"seller","type":"address"},{"indexed":false,"internalType":"uint256","name":"tokensIn","type":"uint256"},{"indexed":false,"internalType":"uint256","name":"okbOut","type":"uint256"},{"indexed":false,"internalType":"uint256","name":"newPrice","type":"uint256"}],"name":"TokenSold","type":"event"},{"inputs":[],"name":"DEFAULT_VIRTUAL_OKB","outputs":[{"internalType":"uint256","name":"","type":"uint256"}],"stateMutability":"view","type":"function"},{"inputs":[],"name":"DEFAULT_VIRTUAL_TOKENS","outputs":[{"internalType":"uint256","name":"","type":"uint256"}],"stateMutability":"view","type":"function"},{"inputs":[],"name":"GRADUATION_THRESHOLD","outputs":[{"internalType":"uint256","name":"","type":"uint256"}],"stateMutability":"view","type":"function"},{"inputs":[],"name":"MAX_SUPPLY_FOR_CURVE","outputs":[{"internalType":"uint256","name":"","type":"uint256"}],"stateMutability":"view","type":"function"},{"inputs":[{"internalType":"address","name":"token","type":"address"},{"internalType":"address","name":"user","type":"address"},{"internalType":"uint256","name":"okbAmount","type":"uint256"}],"name":"buyTokens","outputs":[{"internalType":"uint256","name":"","type":"uint256"}],"stateMutability":"payable","type":"function"},{"inputs":[{"internalType":"address","name":"token","type":"address"}],"name":"getCurveInfo","outputs":[{"components":[{"internalType":"uint256","name":"soldSupply","type":"uint256"},{"internalType":"uint256","name":"okbCollected","type":"uint256"},{"internalType":"uint256","name":"virtualOkbReserves","type":"uint256"},{"internalType":"uint256","name":"virtualTokenReserves","type":"uint256"},{"internalType":"bool","name":"graduated","type":"bool"},{"internalType":"bool","name":"active","type":"bool"}],"internalType":"struct BondingCurveContract.TokenCurve","name":"","type":"tuple"}],"stateMutability":"view","type":"function"},{"inputs":[{"internalType":"address","name":"token","type":"address"},{"internalType":"uint256","name":"amount","type":"uint256"}],"name":"getPrice","outputs":[{"internalType":"uint256","name":"","type":"uint256"}],"stateMutability":"view","type":"function"},{"inputs":[{"internalType":"address","name":"token","type":"address"}],"name":"getTokenBalance","outputs":[{"internalType":"uint256","name":"","type":"uint256"}],"stateMutability":"view","type":"function"},{"inputs":[{"internalType":"address","name":"token","type":"address"}],"name":"initializeCurve","outputs":[],"stateMutability":"nonpayable","type":"function"},{"inputs":[],"name":"owner","outputs":[{"internalType":"address","name":"","type":"address"}],"stateMutability":"view","type":"function"},{"inputs":[],"name":"registry","outputs":[{"internalType":"contract IRegistry","name":"","type":"address"}],"stateMutability":"view","type":"function"},{"inputs":[],"name":"renounceOwnership","outputs":[],"stateMutability":"nonpayable","type":"function"},{"inputs":[{"internalType":"address","name":"token","type":"address"},{"internalType":"address","name":"user","type":"address"},{"internalType":"uint256","name":"tokenAmount","type":"uint256"}],"name":"sellTokens","outputs":[{"internalType":"uint256","name":"","type":"uint256"}],"stateMutability":"nonpayable","type":"function"},{"inputs":[{"internalType":"address","name":"","type":"address"}],"name":"tokenBalances","outputs":[{"internalType":"uint256","name":"","type":"uint256"}],"stateMutability":"view","type":"function"},{"inputs":[{"internalType":"address","name":"","type":"address"}],"name":"tokenCurves","outputs":[{"internalType":"uint256","name":"soldSupply","type":"uint256"},{"internalType":"uint256","name":"okbCollected","type":"uint256"},{"internalType":"uint256","name":"virtualOkbReserves","type":"uint256"},{"internalType":"uint256","name":"virtualTokenReserves","type":"uint256"},{"internalType":"bool","name":"graduated","type":"bool"},{"internalType":"bool","name":"active","type":"bool"}],"stateMutability":"view","type":"function"},{"inputs":[{"internalType":"address","name":"newOwner","type":"address"}],"name":"transferOwnership","outputs":[],"stateMutability":"nonpayable","type":"function"},{"inputs":[{"internalType":"address","name":"token","type":"address"},{"internalType":"uint256","name":"virtualOkbReserves","type":"uint256"},{"internalType":"uint256","name":"virtualTokenReserves","type":"uint256"}],"name":"updateCurveParameters","outputs":[],"stateMutability":"nonpayable","type":"function"},{"stateMutability":"payable","type":"receive"}],"evm":{"bytecode":{"linkReferences":{},"object":"6080346100ca57601f61169f38819003918201601f19168301916001600160401b038311848410176100cf578084926020946040528339810103126100ca57516001600160a01b0390818116908190036100ca5733156100b15760005460018060a01b0319903382821617600055604051933391167f8be0079c531659141344cd1fd0a4f28419497f9722a3daafe3b4186f6b6457e0600080a36001805560025416176002556115b990816100e68239f35b604051631e4fbdf760e01b815260006004820152602490fd5b600080fd5b634e487b7160e01b600052604160045260246000fdfe60806040818152600436101561001f575b5050361561001d57600080fd5b005b600091823560e01c908163047f8bc114610f6157508063169f7dee14610eea578063360f2dc214610d035780633aecd0e31461091d5780633eafec21146109a9578063449e815d1461097a5780634f39cb3614610954578063523fba7f1461091d578063715018a6146108c05780637b103999146108985780638da5cb5b146108715780639571b2751461084b578063c8c5b1cb14610744578063d73337df14610721578063dcefa5381461018e578063f2fde38b146101095763fcfc0c09036100105734610105578160031936011261010557602090516804563918244f4000008152f35b5080fd5b503461010557602036600319011261010557610123611038565b61012b611088565b6001600160a01b03908116918215610177575082546001600160a01b0319811683178455167f8be0079c531659141344cd1fd0a4f28419497f9722a3daafe3b4186f6b6457e08380a380f35b51631e4fbdf760e01b815260048101849052602490fd5b509061019936611053565b9291906101a461145a565b600254855163c187645360e01b81526001600160a01b038481166004830152909160209183916024918391165afa90811561071757906101eb9185916106e8575b50611120565b6001600160a01b03821683526003602052848320600401546102129060081c60ff1661115c565b6001600160a01b03821683526003602052848320600401546102379060ff16156112b0565b8334036106ad576102498415156112ee565b6001600160a01b0382168352600360205284832080549490919061026d868261147d565b958615610673576b0295be96e64066972000000061028b888361133a565b11610639578661029a9161133a565b83556102aa81600185015461133a565b60018401556001600160a01b038416855260046020528685205486116105f5576001600160a01b0384168552600460205286852080546102eb90889061119b565b9055865163a9059cbb60e01b60208201526001600160a01b0383166024820152604480820188905281526080810167ffffffffffffffff8111828210176105e1578852610341906001600160a01b0386166113f2565b600254875163796b1c1360e11b815290602090829060049082906001600160a01b03165afa9081156105d757918087600195936804563918244f400000979582916105b8575b50868060a01b038116610598575b5050507f8692cf5ba66abd64f88cdc1ffa0ee9d9c21ee2d999322a20445ae32393394e3e6103f06103c68554611552565b8b51938452602084018b9052604084015260a086901b869003938416938816929081906060820190565b0390a30154101561040a575b602083856001805551908152f35b6001600160a01b038116808352600360209081528584206004818101805460ff1916600190811790915591909101548751908152909392917f3774b363547126f466f72012377433ce54030696ae07ad35617ad9317eaf776b91a2600254855163ebdccebb60e01b81529260209184919082906001600160a01b03165afa91821561058e57839261055d575b506001600160a01b0382166104ac575b506103fc565b84516397f548f760e01b602082019081526001600160a01b0390921660248083019190915281526060810167ffffffffffffffff81118282101761054957849392918491885251925af16104fe611366565b501561050c573880806104a6565b815162461bcd60e51b815260206004820152601660248201527511dc98591d585d1a5bdb8818d85b1b0819985a5b195960521b6044820152606490fd5b634e487b7160e01b85526041600452602485fd5b61058091925060203d602011610587575b61057881836110e6565b810190611347565b9038610496565b503d61056e565b85513d85823e3d90fd5b81806105b09481935af16105aa611366565b506113a6565b808738610395565b6105d1915060203d6020116105875761057881836110e6565b38610387565b88513d88823e3d90fd5b634e487b7160e01b87526041600452602487fd5b865162461bcd60e51b815260206004820152601a60248201527f496e73756666696369656e7420746f6b656e2062616c616e63650000000000006044820152606490fd5b875162461bcd60e51b8152602060048201526013602482015272115e18d959591cc818dd5c9d99481b1a5b5a5d606a1b6044820152606490fd5b875162461bcd60e51b81526020600482015260136024820152724e6f20746f6b656e7320617661696c61626c6560681b6044820152606490fd5b845162461bcd60e51b8152602060048201526014602482015273125b98dbdc9c9958dd0813d2d088185b5bdd5b9d60621b6044820152606490fd5b61070a915060203d602011610710575b61070281836110e6565b810190611108565b386101e5565b503d6106f8565b86513d86823e3d90fd5b5034610105578160031936011261010557602090516801a055690d9db800008152f35b50346101055760603660031901126101055761075e611038565b906024356044359261076e611088565b6001600160a01b03168085526003602052828520600401549093906107989060081c60ff1661115c565b83855260036020526107b360ff6004858820015416156112b0565b81151580610842575b1561080957907f69e033b4ae750ca02de6986a1466464b43f15a095bb41bb657e4c19303c6f54a92918486526003602052806003848820846002820155015582519182526020820152a280f35b825162461bcd60e51b8152602060048201526012602482015271496e76616c696420706172616d657465727360701b6044820152606490fd5b508015156107bc565b5034610105578160031936011261010557602090516b037790968dc8efffd10000008152f35b5034610105578160031936011261010557905490516001600160a01b039091168152602090f35b503461010557816003193601126101055760025490516001600160a01b039091168152602090f35b823461091a578060031936011261091a576108d9611088565b80546001600160a01b03198116825581906001600160a01b03167f8be0079c531659141344cd1fd0a4f28419497f9722a3daafe3b4186f6b6457e08280a380f35b80fd5b50346101055760203660031901126101055760209181906001600160a01b03610944611038565b1681526004845220549051908152f35b5034610105578160031936011261010557602090516b0295be96e6406697200000008152f35b50346101055780600319360112610105576020906109a2610999611038565b602435906111f1565b9051908152f35b5034610105576109b836611053565b6109c49392919361145a565b60018060a01b03948560025416918685518098819663c187645360e01b835216948560048301526020998a9160249889915afa908115610cf95790610a0f918591610ce25750611120565b83835260038852610a2b60ff6004888620015460081c1661115c565b83835260038852610a4560ff6004888620015416156112b0565b610a508215156112ee565b8383526003885285832090815497888411610c9f57610a6f89856114fc565b988915610c6857894710610c255784610a879161119b565b835560018301610a988a825461119b565b9055818851916323b872dd60e01b8c840152169687818301523060448301528460648301526064825260a082019082821067ffffffffffffffff831117610c13575060049291610aea918a52876113f2565b858552818a52878520610afe85825461133a565b905589816002541689519384809263796b1c1360e11b82525afa918215610c09579089949392918692610bea575b50811615610b9e57610b9191610b6f8680807f9387a595ac4be9038bbb9751abad8baa3dcf219dd9e19abb81552bd521fe35469989610b75975af16105aa611366565b54611552565b8751938493846040919493926060820195825260208201520152565b0390a36001805551908152f35b5091928080808094968982f115610bdf57507f9387a595ac4be9038bbb9751abad8baa3dcf219dd9e19abb81552bd521fe354691610b91610b758893610b6f565b8551903d90823e3d90fd5b610c029192508b3d8d116105875761057881836110e6565b9038610b2c565b88513d87823e3d90fd5b634e487b7160e01b8752604160045286fd5b885162461bcd60e51b8152600481018c90526018818a01527f496e73756666696369656e74204f4b422062616c616e636500000000000000006044820152606490fd5b885162461bcd60e51b8152600481018c90526011818a0152704e6f204f4b4220746f207265636569766560781b6044820152606490fd5b875162461bcd60e51b8152600481018b9052601a818901527f43616e6e6f742073656c6c206d6f7265207468616e20736f6c640000000000006044820152606490fd5b61070a91508a3d8c116107105761070281836110e6565b87513d86823e3d90fd5b50346101055760209081600319360112610ee657610d1f611038565b600254825163c187645360e01b81526001600160a01b0392831660048201819052929091859183916024918391165afa908115610e815790610d67918691610ecf5750611120565b8084526003835260ff6004838620015460081c16610e8b578151610d8a816110b4565b8481528381018581526004848301926801a055690d9db800008452606081016b037790968dc8efffd10000008152608082019489865260a083019460018652878b5260038a52888b209351845551600184015551600283015551600382015501915115159060ff61ff0084549251151560081b1692169061ffff1916171790558151926370a0823160e01b84523060048501528084602481855afa938415610e81578594610e4e575b5083610e3d578480f35b600491855252822055388080808480f35b9080945081813d8311610e7a575b610e6681836110e6565b81010312610e7657519238610e33565b8480fd5b503d610e5c565b83513d87823e3d90fd5b815162461bcd60e51b815260048101849052601960248201527f437572766520616c726561647920696e697469616c697a6564000000000000006044820152606490fd5b61070a9150853d87116107105761070281836110e6565b8280fd5b50346101055760203660031901126101055760c09160ff9082906001600160a01b03610f14611038565b1681526003602052209182549260018101549160028201549060046003840154930154938151968752602087015285015260608401528181161515608084015260081c16151560a0820152f35b905034610ee6576020366003190112610ee65782829160c09460a0610f84611038565b92610f8e816110b4565b8281528260208201528286820152826060820152826080820152015260018060a01b03168152600360205220908051610fc6816110b4565b82549283825260018101549260208301938452600282015481840190815260046003840154936060860194855201549460ff60a0608087019682891615158852019660081c161515865282519687525160208701525190850152516060840152511515608083015251151560a0820152f35b600435906001600160a01b038216820361104e57565b600080fd5b606090600319011261104e576001600160a01b0390600435828116810361104e5791602435908116810361104e579060443590565b6000546001600160a01b0316330361109c57565b60405163118cdaa760e01b8152336004820152602490fd5b60c0810190811067ffffffffffffffff8211176110d057604052565b634e487b7160e01b600052604160045260246000fd5b90601f8019910116810190811067ffffffffffffffff8211176110d057604052565b9081602091031261104e5751801515810361104e5790565b1561112757565b60405162461bcd60e51b815260206004820152600d60248201526c24b73b30b634b2103a37b5b2b760991b6044820152606490fd5b1561116357565b60405162461bcd60e51b815260206004820152601060248201526f4375727665206e6f742061637469766560801b6044820152606490fd5b919082039182116111a857565b634e487b7160e01b600052601160045260246000fd5b818102929181159184041417156111a857565b81156111db570490565b634e487b7160e01b600052601260045260246000fd5b60018060a01b031660005260036020526040600020604051611212816110b4565b815481526001820154602082015260028201549060408101918252600460038401549360608301948552015461126060ff60808401928181161515845260081c1615158060a085015261115c565b516112a7576112749151925190519061119b565b908115801561129f575b611297576112949261128f916111be565b6111d1565b90565b505050600090565b50821561127e565b50505050600090565b156112b757565b60405162461bcd60e51b815260206004820152600f60248201526e151bdad95b8819dc98591d585d1959608a1b6044820152606490fd5b156112f557565b60405162461bcd60e51b815260206004820152601d60248201527f416d6f756e74206d7573742062652067726561746572207468616e20300000006044820152606490fd5b919082018092116111a857565b9081602091031261104e57516001600160a01b038116810361104e5790565b3d156113a1573d9067ffffffffffffffff82116110d05760405191611395601f8201601f1916602001846110e6565b82523d6000602084013e565b606090565b156113ad57565b60405162461bcd60e51b815260206004820152601b60248201527f466565206d616e61676572207472616e73666572206661696c656400000000006044820152606490fd5b906000602091828151910182855af11561144e576000513d61144557506001600160a01b0381163b155b6114235750565b604051635274afe760e01b81526001600160a01b039091166004820152602490fd5b6001141561141c565b6040513d6000823e3d90fd5b60026001541461146b576002600155565b604051633ee5aeb560e01b8152600490fd5b80156114f5576b0295be96e6406697200000009081831015611297576114a283611552565b80156114e9575b670de0b6b3a7640000808302928304036111a8576114c6916111d1565b91816114d2848361133a565b116114dc57505090565b8103915081116111a85790565b5064e8d4a510006114a9565b5050600090565b9081158015611549575b6114f5578161153c8261153661153061152b670de0b6b3a7640000976115459761119b565b611552565b91611552565b9061133a565b60011c906111be565b0490565b50808211611506565b69d3c21bcecceda1000000900464e8d4a5100090818102908082048314901517156111a85781018091116111a8579056fea26469706673582212203ad79548cc96559cd032bdadd9cf464f79e3cfd4ff894db671f95154b293ab0464736f6c63430008140033","opcodes":"PUSH1 0x80 CALLVALUE PUSH2 0xCA JUMPI PUSH1 0x1F PUSH2 0x169F CODESIZE DUP2 SWAP1 SUB SWAP2 DUP3 ADD PUSH1 0x1F NOT AND DUP4 ADD SWAP2 PUSH1 0x1 PUSH1 0x1 PUSH1 0x40 SHL SUB DUP4 GT DUP5 DUP5 LT OR PUSH2 0xCF JUMPI DUP1 DUP5 SWAP3 PUSH1 0x20 SWAP5 PUSH1 0x40 MSTORE DUP4 CODECOPY DUP2 ADD SUB SLT PUSH2 0xCA JUMPI MLOAD PUSH1 0x1 PUSH1 0x1 PUSH1 0xA0 SHL SUB SWAP1 DUP2 DUP2 AND SWAP1 DUP2 SWAP1 SUB PUSH2 0xCA JUMPI CALLER ISZERO PUSH2 0xB1 JUMPI PUSH1 0x0 SLOAD PUSH1 0x1 DUP1 PUSH1 0xA0 SHL SUB NOT SWAP1 CALLER DUP3 DUP3 AND OR PUSH1 0x0 SSTORE PUSH1 0x40 MLOAD SWAP4 CALLER SWAP2 AND PUSH32 0x8BE0079C531659141344CD1FD0A4F28419497F9722A3DAAFE3B4186F6B6457E0 PUSH1 0x0 DUP1 LOG3 PUSH1 0x1 DUP1 SSTORE PUSH1 0x2 SLOAD AND OR PUSH1 0x2 SSTORE PUSH2 0x15B9 SWAP1 DUP2 PUSH2 0xE6 DUP3 CODECOPY RETURN JUMPDEST PUSH1 0x40 MLOAD PUSH4 0x1E4FBDF7 PUSH1 0xE0 SHL DUP2 MSTORE PUSH1 0x0 PUSH1 0x4 DUP3 ADD MSTORE PUSH1 0x24 SWAP1 REVERT JUMPDEST PUSH1 0x0 DUP1 REVERT JUMPDEST PUSH4 0x4E487B71 PUSH1 0xE0 SHL PUSH1 0x0 MSTORE PUSH1 0x41 PUSH1 0x4 MSTORE PUSH1 0x24 PUSH1 0x0 REVERT INVALID PUSH1 0x80 PUSH1 0x40 DUP2 DUP2 MSTORE PUSH1 0x4 CALLDATASIZE LT ISZERO PUSH2 0x1F JUMPI JUMPDEST POP POP CALLDATASIZE ISZERO PUSH2 0x1D JUMPI PUSH1 0x0 DUP1 REVERT JUMPDEST STOP JUMPDEST PUSH1 0x0 SWAP2 DUP3 CALLDATALOAD PUSH1 0xE0 SHR SWAP1 DUP2 PUSH4 0x47F8BC1 EQ PUSH2 0xF61 JUMPI POP DUP1 PUSH4 0x169F7DEE EQ PUSH2 0xEEA JUMPI DUP1 PUSH4 0x360F2DC2 EQ PUSH2 0xD03 JUMPI DUP1 PUSH4 0x3AECD0E3 EQ PUSH2 0x91D JUMPI DUP1 PUSH4 0x3EAFEC21 EQ PUSH2 0x9A9 JUMPI DUP1 PUSH4 0x449E815D EQ PUSH2 0x97A JUMPI DUP1 PUSH4 0x4F39CB36 EQ PUSH2 0x954 JUMPI DUP1 PUSH4 0x523FBA7F EQ PUSH2 0x91D JUMPI DUP1 PUSH4 0x715018A6 EQ PUSH2 0x8C0 JUMPI DUP1 PUSH4 0x7B103999 EQ PUSH2 0x898 JUMPI DUP1 PUSH4 0x8DA5CB5B EQ PUSH2 0x871 JUMPI DUP1 PUSH4 0x9571B275 EQ PUSH2 0x84B JUMPI DUP1 PUSH4 0xC8C5B1CB EQ PUSH2 0x744 JUMPI DUP1 PUSH4 0xD73337DF EQ PUSH2 0x721 JUMPI DUP1 PUSH4 0xDCEFA538 EQ PUSH2 0x18E JUMPI DUP1 PUSH4 0xF2FDE38B EQ PUSH2 0x109 JUMPI PUSH4 0xFCFC0C09 SUB PUSH2 0x10 JUMPI CALLVALUE PUSH2 0x105 JUMPI DUP2 PUSH1 0x3 NOT CALLDATASIZE ADD SLT PUSH2 0x105 JUMPI PUSH1 0x20 SWAP1 MLOAD PUSH9 0x4563918244F400000 DUP2 MSTORE RETURN JUMPDEST POP DUP1 REVERT JUMPDEST POP CALLVALUE PUSH2 0x105 JUMPI PUSH1 0x20 CALLDATASIZE PUSH1 0x3 NOT ADD SLT PUSH2 0x105 JUMPI PUSH2 0x123 PUSH2 0x1038 JUMP JUMPDEST PUSH2 0x12B PUSH2 0x1088 JUMP JUMPDEST PUSH1 0x1 PUSH1 0x1 PUSH1 0xA0 SHL SUB SWAP1 DUP2 AND SWAP2 DUP3 ISZERO PUSH2 0x177 JUMPI POP DUP3 SLOAD PUSH1 0x1 PUSH1 0x1 PUSH1 0xA0 SHL SUB NOT DUP2 AND DUP4 OR DUP5 SSTORE AND PUSH32 0x8BE0079C531659141344CD1FD0A4F28419497F9722A3DAAFE3B4186F6B6457E0 DUP4 DUP1 LOG3 DUP1 RETURN JUMPDEST MLOAD PUSH4 0x1E4FBDF7 PUSH1 0xE0 SHL DUP2 MSTORE PUSH1 0x4 DUP2 ADD DUP5 SWAP1 MSTORE PUSH1 0x24 SWAP1 REVERT JUMPDEST POP SWAP1 PUSH2 0x199 CALLDATASIZE PUSH2 0x1053 JUMP JUMPDEST SWAP3 SWAP2 SWAP1 PUSH2 0x1A4 PUSH2 0x145A JUMP JUMPDEST PUSH1 0x2 SLOAD DUP6 MLOAD PUSH4 0xC1876453 PUSH1 0xE0 SHL DUP2 MSTORE PUSH1 0x1 PUSH1 0x1 PUSH1 0xA0 SHL SUB DUP5 DUP2 AND PUSH1 0x4 DUP4 ADD MSTORE SWAP1 SWAP2 PUSH1 0x20 SWAP2 DUP4 SWAP2 PUSH1 0x24 SWAP2 DUP4 SWAP2 AND GAS STATICCALL SWAP1 DUP2 ISZERO PUSH2 0x717 JUMPI SWAP1 PUSH2 0x1EB SWAP2 DUP6 SWAP2 PUSH2 0x6E8 JUMPI JUMPDEST POP PUSH2 0x1120 JUMP JUMPDEST PUSH1 0x1 PUSH1 0x1 PUSH1 0xA0 SHL SUB DUP3 AND DUP4 MSTORE PUSH1 0x3 PUSH1 0x20 MSTORE DUP5 DUP4 KECCAK256 PUSH1 0x4 ADD SLOAD PUSH2 0x212 SWAP1 PUSH1 0x8 SHR PUSH1 0xFF AND PUSH2 0x115C JUMP JUMPDEST PUSH1 0x1 PUSH1 0x1 PUSH1 0xA0 SHL SUB DUP3 AND DUP4 MSTORE PUSH1 0x3 PUSH1 0x20 MSTORE DUP5 DUP4 KECCAK256 PUSH1 0x4 ADD SLOAD PUSH2 0x237 SWAP1 PUSH1 0xFF AND ISZERO PUSH2 0x12B0 JUMP JUMPDEST DUP4 CALLVALUE SUB PUSH2 0x6AD JUMPI PUSH2 0x249 DUP5 ISZERO ISZERO PUSH2 0x12EE JUMP JUMPDEST PUSH1 0x1 PUSH1 0x1 PUSH1 0xA0 SHL SUB DUP3 AND DUP4 MSTORE PUSH1 0x3 PUSH1 0x20 MSTORE DUP5 DUP4 KECCAK256 DUP1 SLOAD SWAP5 SWAP1 SWAP2 SWAP1 PUSH2 0x26D DUP7 DUP3 PUSH2 0x147D JUMP JUMPDEST SWAP6 DUP7 ISZERO PUSH2 0x673 JUMPI PUSH12 0x295BE96E640669720000000 PUSH2 0x28B DUP9 DUP4 PUSH2 0x133A JUMP JUMPDEST GT PUSH2 0x639 JUMPI DUP7 PUSH2 0x29A SWAP2 PUSH2 0x133A JUMP JUMPDEST DUP4 SSTORE PUSH2 0x2AA DUP2 PUSH1 0x1 DUP6 ADD SLOAD PUSH2 0x133A JUMP JUMPDEST PUSH1 0x1 DUP5 ADD SSTORE PUSH1 0x1 PUSH1 0x1 PUSH1 0xA0 SHL SUB DUP5 AND DUP6 MSTORE PUSH1 0x4 PUSH1 0x20 MSTORE DUP7 DUP6 KECCAK256 SLOAD DUP7 GT PUSH2 0x5F5 JUMPI PUSH1 0x1 PUSH1 0x1 PUSH1 0xA0 SHL SUB DUP5 AND DUP6 MSTORE PUSH1 0x4 PUSH1 0x20 MSTORE DUP7 DUP6 KECCAK256 DUP1 SLOAD PUSH2 0x2EB SWAP1 DUP9 SWAP1 PUSH2 0x119B JUMP JUMPDEST SWAP1 SSTORE DUP7 MLOAD PUSH4 0xA9059CBB PUSH1 0xE0 SHL PUSH1 0x20 DUP3 ADD MSTORE PUSH1 0x1 PUSH1 0x1 PUSH1 0xA0 SHL SUB DUP4 AND PUSH1 0x24 DUP3 ADD MSTORE PUSH1 0x44 DUP1 DUP3 ADD DUP9 SWAP1 MSTORE DUP2 MSTORE PUSH1 0x80 DUP2 ADD PUSH8 0xFFFFFFFFFFFFFFFF DUP2 GT DUP3 DUP3 LT OR PUSH2 0x5E1 JUMPI DUP9 MSTORE PUSH2 0x341 SWAP1 PUSH1 0x1 PUSH1 0x1 PUSH1 0xA0 SHL SUB DUP7 AND PUSH2 0x13F2 JUMP JUMPDEST PUSH1 0x2 SLOAD DUP8 MLOAD PUSH4 0x796B1C13 PUSH1 0xE1 SHL DUP2 MSTORE SWAP1 PUSH1 0x20 SWAP1 DUP3 SWAP1 PUSH1 0x4 SWAP1 DUP3 SWAP1 PUSH1 0x1 PUSH1 0x1 PUSH1 0xA0 SHL SUB AND GAS STATICCALL SWAP1 DUP2 ISZERO PUSH2 0x5D7 JUMPI SWAP2 DUP1 DUP8 PUSH1 0x1 SWAP6 SWAP4 PUSH9 0x4563918244F400000 SWAP8 SWAP6 DUP3 SWAP2 PUSH2 0x5B8 JUMPI JUMPDEST POP DUP7 DUP1 PUSH1 0xA0 SHL SUB DUP2 AND PUSH2 0x598 JUMPI JUMPDEST POP POP POP PUSH32 0x8692CF5BA66ABD64F88CDC1FFA0EE9D9C21EE2D999322A20445AE32393394E3E PUSH2 0x3F0 PUSH2 0x3C6 DUP6 SLOAD PUSH2 0x1552 JUMP JUMPDEST DUP12 MLOAD SWAP4 DUP5 MSTORE PUSH1 0x20 DUP5 ADD DUP12 SWAP1 MSTORE PUSH1 0x40 DUP5 ADD MSTORE PUSH1 0xA0 DUP7 SWAP1 SHL DUP7 SWAP1 SUB SWAP4 DUP5 AND SWAP4 DUP9 AND SWAP3 SWAP1 DUP2 SWAP1 PUSH1 0x60 DUP3 ADD SWAP1 JUMP JUMPDEST SUB SWAP1 LOG3 ADD SLOAD LT ISZERO PUSH2 0x40A JUMPI JUMPDEST PUSH1 0x20 DUP4 DUP6 PUSH1 0x1 DUP1 SSTORE MLOAD SWAP1 DUP2 MSTORE RETURN JUMPDEST PUSH1 0x1 PUSH1 0x1 PUSH1 0xA0 SHL SUB DUP2 AND DUP1 DUP4 MSTORE PUSH1 0x3 PUSH1 0x20 SWAP1 DUP2 MSTORE DUP6 DUP5 KECCAK256 PUSH1 0x4 DUP2 DUP2 ADD DUP1 SLOAD PUSH1 0xFF NOT AND PUSH1 0x1 SWAP1 DUP2 OR SWAP1 SWAP2 SSTORE SWAP2 SWAP1 SWAP2 ADD SLOAD DUP8 MLOAD SWAP1 DUP2 MSTORE SWAP1 SWAP4 SWAP3 SWAP2 PUSH32 0x3774B363547126F466F72012377433CE54030696AE07AD35617AD9317EAF776B SWAP2 LOG2 PUSH1 0x2 SLOAD DUP6 MLOAD PUSH4 0xEBDCCEBB PUSH1 0xE0 SHL DUP2 MSTORE SWAP3 PUSH1 0x20 SWAP2 DUP5 SWAP2 SWAP1 DUP3 SWAP1 PUSH1 0x1 PUSH1 0x1 PUSH1 0xA0 SHL SUB AND GAS STATICCALL SWAP2 DUP3 ISZERO PUSH2 0x58E JUMPI DUP4 SWAP3 PUSH2 0x55D JUMPI JUMPDEST POP PUSH1 0x1 PUSH1 0x1 PUSH1 0xA0 SHL SUB DUP3 AND PUSH2 0x4AC JUMPI JUMPDEST POP PUSH2 0x3FC JUMP JUMPDEST DUP5 MLOAD PUSH4 0x97F548F7 PUSH1 0xE0 SHL PUSH1 0x20 DUP3 ADD SWAP1 DUP2 MSTORE PUSH1 0x1 PUSH1 0x1 PUSH1 0xA0 SHL SUB SWAP1 SWAP3 AND PUSH1 0x24 DUP1 DUP4 ADD SWAP2 SWAP1 SWAP2 MSTORE DUP2 MSTORE PUSH1 0x60 DUP2 ADD PUSH8 0xFFFFFFFFFFFFFFFF DUP2 GT DUP3 DUP3 LT OR PUSH2 0x549 JUMPI DUP5 SWAP4 SWAP3 SWAP2 DUP5 SWAP2 DUP9 MSTORE MLOAD SWAP3 GAS CALL PUSH2 0x4FE PUSH2 0x1366 JUMP JUMPDEST POP ISZERO PUSH2 0x50C JUMPI CODESIZE DUP1 DUP1 PUSH2 0x4A6 JUMP JUMPDEST DUP2 MLOAD PUSH3 0x461BCD PUSH1 0xE5 SHL DUP2 MSTORE PUSH1 0x20 PUSH1 0x4 DUP3 ADD MSTORE PUSH1 0x16 PUSH1 0x24 DUP3 ADD MSTORE PUSH22 0x11DC98591D585D1A5BDB8818D85B1B0819985A5B1959 PUSH1 0x52 SHL PUSH1 0x44 DUP3 ADD MSTORE PUSH1 0x64 SWAP1 REVERT JUMPDEST PUSH4 0x4E487B71 PUSH1 0xE0 SHL DUP6 MSTORE PUSH1 0x41 PUSH1 0x4 MSTORE PUSH1 0x24 DUP6 REVERT JUMPDEST PUSH2 0x580 SWAP2 SWAP3 POP PUSH1 0x20 RETURNDATASIZE PUSH1 0x20 GT PUSH2 0x587 JUMPI JUMPDEST PUSH2 0x578 DUP2 DUP4 PUSH2 0x10E6 JUMP JUMPDEST DUP2 ADD SWAP1 PUSH2 0x1347 JUMP JUMPDEST SWAP1 CODESIZE PUSH2 0x496 JUMP JUMPDEST POP RETURNDATASIZE PUSH2 0x56E JUMP JUMPDEST DUP6 MLOAD RETURNDATASIZE DUP6 DUP3 RETURNDATACOPY RETURNDATASIZE SWAP1 REVERT JUMPDEST DUP2 DUP1 PUSH2 0x5B0 SWAP5 DUP2 SWAP4 GAS CALL PUSH2 0x5AA PUSH2 0x1366 JUMP JUMPDEST POP PUSH2 0x13A6 JUMP JUMPDEST DUP1 DUP8 CODESIZE PUSH2 0x395 JUMP JUMPDEST PUSH2 0x5D1 SWAP2 POP PUSH1 0x20 RETURNDATASIZE PUSH1 0x20 GT PUSH2 0x587 JUMPI PUSH2 0x578 DUP2 DUP4 PUSH2 0x10E6 JUMP JUMPDEST CODESIZE PUSH2 0x387 JUMP JUMPDEST DUP9 MLOAD RETURNDATASIZE DUP9 DUP3 RETURNDATACOPY RETURNDATASIZE SWAP1 REVERT JUMPDEST PUSH4 0x4E487B71 PUSH1 0xE0 SHL DUP8 MSTORE PUSH1 0x41 PUSH1 0x4 MSTORE PUSH1 0x24 DUP8 REVERT JUMPDEST DUP7 MLOAD PUSH3 0x461BCD PUSH1 0xE5 SHL DUP2 MSTORE PUSH1 0x20 PUSH1 0x4 DUP3 ADD MSTORE PUSH1 0x1A PUSH1 0x24 DUP3 ADD MSTORE PUSH32 0x496E73756666696369656E7420746F6B656E2062616C616E6365000000000000 PUSH1 0x44 DUP3 ADD MSTORE PUSH1 0x64 SWAP1 REVERT JUMPDEST DUP8 MLOAD PUSH3 0x461BCD PUSH1 0xE5 SHL DUP2 MSTORE PUSH1 0x20 PUSH1 0x4 DUP3 ADD MSTORE PUSH1 0x13 PUSH1 0x24 DUP3 ADD MSTORE PUSH19 0x115E18D959591CC818DD5C9D99481B1A5B5A5D PUSH1 0x6A SHL PUSH1 0x44 DUP3 ADD MSTORE PUSH1 0x64 SWAP1 REVERT JUMPDEST DUP8 MLOAD PUSH3 0x461BCD PUSH1 0xE5 SHL DUP2 MSTORE PUSH1 0x20 PUSH1 0x4 DUP3 ADD MSTORE PUSH1 0x13 PUSH1 0x24 DUP3 ADD MSTORE PUSH19 0x4E6F20746F6B656E7320617661696C61626C65 PUSH1 0x68 SHL PUSH1 0x44 DUP3 ADD MSTORE PUSH1 0x64 SWAP1 REVERT JUMPDEST DUP5 MLOAD PUSH3 0x461BCD PUSH1 0xE5 SHL DUP2 MSTORE PUSH1 0x20 PUSH1 0x4 DUP3 ADD MSTORE PUSH1 0x14 PUSH1 0x24 DUP3 ADD MSTORE PUSH20 0x125B98DBDC9C9958DD0813D2D088185B5BDD5B9D PUSH1 0x62 SHL PUSH1 0x44 DUP3 ADD MSTORE PUSH1 0x64 SWAP1 REVERT JUMPDEST PUSH2 0x70A SWAP2 POP PUSH1 0x20 RETURNDATASIZE PUSH1 0x20 GT PUSH2 0x710 JUMPI JUMPDEST PUSH2 0x702 DUP2 DUP4 PUSH2 0x10E6 JUMP JUMPDEST DUP2 ADD SWAP1 PUSH2 0x1108 JUMP JUMPDEST CODESIZE PUSH2 0x1E5 JUMP JUMPDEST POP RETURNDATASIZE PUSH2 0x6F8 JUMP JUMPDEST DUP7 MLOAD RETURNDATASIZE DUP7 DUP3 RETURNDATACOPY RETURNDATASIZE SWAP1 REVERT JUMPDEST POP CALLVALUE PUSH2 0x105 JUMPI DUP2 PUSH1 0x3 NOT CALLDATASIZE ADD SLT PUSH2 0x105 JUMPI PUSH1 0x20 SWAP1 MLOAD PUSH9 0x1A055690D9DB80000 DUP2 MSTORE RETURN JUMPDEST POP CALLVALUE PUSH2 0x105 JUMPI PUSH1 0x60 CALLDATASIZE PUSH1 0x3 NOT ADD SLT PUSH2 0x105 JUMPI PUSH2 0x75E PUSH2 0x1038 JUMP JUMPDEST SWAP1 PUSH1 0x24 CALLDATALOAD PUSH1 0x44 CALLDATALOAD SWAP3 PUSH2 0x76E PUSH2 0x1088 JUMP JUMPDEST PUSH1 0x1 PUSH1 0x1 PUSH1 0xA0 SHL SUB AND DUP1 DUP6 MSTORE PUSH1 0x3 PUSH1 0x20 MSTORE DUP3 DUP6 KECCAK256 PUSH1 0x4 ADD SLOAD SWAP1 SWAP4 SWAP1 PUSH2 0x798 SWAP1 PUSH1 0x8 SHR PUSH1 0xFF AND PUSH2 0x115C JUMP JUMPDEST DUP4 DUP6 MSTORE PUSH1 0x3 PUSH1 0x20 MSTORE PUSH2 0x7B3 PUSH1 0xFF PUSH1 0x4 DUP6 DUP9 KECCAK256 ADD SLOAD AND ISZERO PUSH2 0x12B0 JUMP JUMPDEST DUP2 ISZERO ISZERO DUP1 PUSH2 0x842 JUMPI JUMPDEST ISZERO PUSH2 0x809 JUMPI SWAP1 PUSH32 0x69E033B4AE750CA02DE6986A1466464B43F15A095BB41BB657E4C19303C6F54A SWAP3 SWAP2 DUP5 DUP7 MSTORE PUSH1 0x3 PUSH1 0x20 MSTORE DUP1 PUSH1 0x3 DUP5 DUP9 KECCAK256 DUP5 PUSH1 0x2 DUP3 ADD SSTORE ADD SSTORE DUP3 MLOAD SWAP2 DUP3 MSTORE PUSH1 0x20 DUP3 ADD MSTORE LOG2 DUP1 RETURN JUMPDEST DUP3 MLOAD PUSH3 0x461BCD PUSH1 0xE5 SHL DUP2 MSTORE PUSH1 0x20 PUSH1 0x4 DUP3 ADD MSTORE PUSH1 0x12 PUSH1 0x24 DUP3 ADD MSTORE PUSH18 0x496E76616C696420706172616D6574657273 PUSH1 0x70 SHL PUSH1 0x44 DUP3 ADD MSTORE PUSH1 0x64 SWAP1 REVERT JUMPDEST POP DUP1 ISZERO ISZERO PUSH2 0x7BC JUMP JUMPDEST POP CALLVALUE PUSH2 0x105 JUMPI DUP2 PUSH1 0x3 NOT CALLDATASIZE ADD SLT PUSH2 0x105 JUMPI PUSH1 0x20 SWAP1 MLOAD PUSH12 0x37790968DC8EFFFD1000000 DUP2 MSTORE RETURN JUMPDEST POP CALLVALUE PUSH2 0x105 JUMPI DUP2 PUSH1 0x3 NOT CALLDATASIZE ADD SLT PUSH2 0x105 JUMPI SWAP1 SLOAD SWAP1 MLOAD PUSH1 0x1 PUSH1 0x1 PUSH1 0xA0 SHL SUB SWAP1 SWAP2 AND DUP2 MSTORE PUSH1 0x20 SWAP1 RETURN JUMPDEST POP CALLVALUE PUSH2 0x105 JUMPI DUP2 PUSH1 0x3 NOT CALLDATASIZE ADD SLT PUSH2 0x105 JUMPI PUSH1 0x2 SLOAD SWAP1 MLOAD PUSH1 0x1 PUSH1 0x1 PUSH1 0xA0 SHL SUB SWAP1 SWAP2 AND DUP2 MSTORE PUSH1 0x20 SWAP1 RETURN JUMPDEST DUP3 CALLVALUE PUSH2 0x91A JUMPI DUP1 PUSH1 0x3 NOT CALLDATASIZE ADD SLT PUSH2 0x91A JUMPI PUSH2 0x8D9 PUSH2 0x1088 JUMP JUMPDEST DUP1 SLOAD PUSH1 0x1 PUSH1 0x1 PUSH1 0xA0 SHL SUB NOT DUP2 AND DUP3 SSTORE DUP2 SWAP1 PUSH1 0x1 PUSH1 0x1 PUSH1 0xA0 SHL SUB AND PUSH32 0x8BE0079C531659141344CD1FD0A4F28419497F9722A3DAAFE3B4186F6B6457E0 DUP3 DUP1 LOG3 DUP1 RETURN JUMPDEST DUP1 REVERT JUMPDEST POP CALLVALUE PUSH2 0x105 JUMPI PUSH1 0x20 CALLDATASIZE PUSH1 0x3 NOT ADD SLT PUSH2 0x105 JUMPI PUSH1 0x20 SWAP2 DUP2 SWAP1 PUSH1 0x1 PUSH1 0x1 PUSH1 0xA0 SHL SUB PUSH2 0x944 PUSH2 0x1038 JUMP JUMPDEST AND DUP2 MSTORE PUSH1 0x4 DUP5 MSTORE KECCAK256 SLOAD SWAP1 MLOAD SWAP1 DUP2 MSTORE RETURN JUMPDEST POP CALLVALUE PUSH2 0x105 JUMPI DUP2 PUSH1 0x3 NOT CALLDATASIZE ADD SLT PUSH2 0x105 JUMPI PUSH1 0x20 SWAP1 MLOAD PUSH12 0x295BE96E640669720000000 DUP2 MSTORE RETURN JUMPDEST POP CALLVALUE PUSH2 0x105 JUMPI DUP1 PUSH1 0x3 NOT CALLDATASIZE ADD SLT PUSH2 0x105 JUMPI PUSH1 0x20 SWAP1 PUSH2 0x9A2 PUSH2 0x999 PUSH2 0x1038 JUMP JUMPDEST PUSH1 0x24 CALLDATALOAD SWAP1 PUSH2 0x11F1 JUMP JUMPDEST SWAP1 MLOAD SWAP1 DUP2 MSTORE RETURN JUMPDEST POP CALLVALUE PUSH2 0x105 JUMPI PUSH2 0x9B8 CALLDATASIZE PUSH2 0x1053 JUMP JUMPDEST PUSH2 0x9C4 SWAP4 SWAP3 SWAP2 SWAP4 PUSH2 0x145A JUMP JUMPDEST PUSH1 0x1 DUP1 PUSH1 0xA0 SHL SUB SWAP5 DUP6 PUSH1 0x2 SLOAD AND SWAP2 DUP7 DUP6 MLOAD DUP1 SWAP9 DUP2 SWAP7 PUSH4 0xC1876453 PUSH1 0xE0 SHL DUP4 MSTORE AND SWAP5 DUP6 PUSH1 0x4 DUP4 ADD MSTORE PUSH1 0x20 SWAP10 DUP11 SWAP2 PUSH1 0x24 SWAP9 DUP10 SWAP2 GAS STATICCALL SWAP1 DUP2 ISZERO PUSH2 0xCF9 JUMPI SWAP1 PUSH2 0xA0F SWAP2 DUP6 SWAP2 PUSH2 0xCE2 JUMPI POP PUSH2 0x1120 JUMP JUMPDEST DUP4 DUP4 MSTORE PUSH1 0x3 DUP9 MSTORE PUSH2 0xA2B PUSH1 0xFF PUSH1 0x4 DUP9 DUP7 KECCAK256 ADD SLOAD PUSH1 0x8 SHR AND PUSH2 0x115C JUMP JUMPDEST DUP4 DUP4 MSTORE PUSH1 0x3 DUP9 MSTORE PUSH2 0xA45 PUSH1 0xFF PUSH1 0x4 DUP9 DUP7 KECCAK256 ADD SLOAD AND ISZERO PUSH2 0x12B0 JUMP JUMPDEST PUSH2 0xA50 DUP3 ISZERO ISZERO PUSH2 0x12EE JUMP JUMPDEST DUP4 DUP4 MSTORE PUSH1 0x3 DUP9 MSTORE DUP6 DUP4 KECCAK256 SWAP1 DUP2 SLOAD SWAP8 DUP9 DUP5 GT PUSH2 0xC9F JUMPI PUSH2 0xA6F DUP10 DUP6 PUSH2 0x14FC JUMP JUMPDEST SWAP9 DUP10 ISZERO PUSH2 0xC68 JUMPI DUP10 SELFBALANCE LT PUSH2 0xC25 JUMPI DUP5 PUSH2 0xA87 SWAP2 PUSH2 0x119B JUMP JUMPDEST DUP4 SSTORE PUSH1 0x1 DUP4 ADD PUSH2 0xA98 DUP11 DUP3 SLOAD PUSH2 0x119B JUMP JUMPDEST SWAP1 SSTORE DUP2 DUP9 MLOAD SWAP2 PUSH4 0x23B872DD PUSH1 0xE0 SHL DUP13 DUP5 ADD MSTORE AND SWAP7 DUP8 DUP2 DUP4 ADD MSTORE ADDRESS PUSH1 0x44 DUP4 ADD MSTORE DUP5 PUSH1 0x64 DUP4 ADD MSTORE PUSH1 0x64 DUP3 MSTORE PUSH1 0xA0 DUP3 ADD SWAP1 DUP3 DUP3 LT PUSH8 0xFFFFFFFFFFFFFFFF DUP4 GT OR PUSH2 0xC13 JUMPI POP PUSH1 0x4 SWAP3 SWAP2 PUSH2 0xAEA SWAP2 DUP11 MSTORE DUP8 PUSH2 0x13F2 JUMP JUMPDEST DUP6 DUP6 MSTORE DUP2 DUP11 MSTORE DUP8 DUP6 KECCAK256 PUSH2 0xAFE DUP6 DUP3 SLOAD PUSH2 0x133A JUMP JUMPDEST SWAP1 SSTORE DUP10 DUP2 PUSH1 0x2 SLOAD AND DUP10 MLOAD SWAP4 DUP5 DUP1 SWAP3 PUSH4 0x796B1C13 PUSH1 0xE1 SHL DUP3 MSTORE GAS STATICCALL SWAP2 DUP3 ISZERO PUSH2 0xC09 JUMPI SWAP1 DUP10 SWAP5 SWAP4 SWAP3 SWAP2 DUP7 SWAP3 PUSH2 0xBEA JUMPI JUMPDEST POP DUP2 AND ISZERO PUSH2 0xB9E JUMPI PUSH2 0xB91 SWAP2 PUSH2 0xB6F DUP7 DUP1 DUP1 PUSH32 0x9387A595AC4BE9038BBB9751ABAD8BAA3DCF219DD9E19ABB81552BD521FE3546 SWAP10 DUP10 PUSH2 0xB75 SWAP8 GAS CALL PUSH2 0x5AA PUSH2 0x1366 JUMP JUMPDEST SLOAD PUSH2 0x1552 JUMP JUMPDEST DUP8 MLOAD SWAP4 DUP5 SWAP4 DUP5 PUSH1 0x40 SWAP2 SWAP5 SWAP4 SWAP3 PUSH1 0x60 DUP3 ADD SWAP6 DUP3 MSTORE PUSH1 0x20 DUP3 ADD MSTORE ADD MSTORE JUMP JUMPDEST SUB SWAP1 LOG3 PUSH1 0x1 DUP1 SSTORE MLOAD SWAP1 DUP2 MSTORE RETURN JUMPDEST POP SWAP2 SWAP3 DUP1 DUP1 DUP1 DUP1 SWAP5 SWAP7 DUP10 DUP3 CALL ISZERO PUSH2 0xBDF JUMPI POP PUSH32 0x9387A595AC4BE9038BBB9751ABAD8BAA3DCF219DD9E19ABB81552BD521FE3546 SWAP2 PUSH2 0xB91 PUSH2 0xB75 DUP9 SWAP4 PUSH2 0xB6F JUMP JUMPDEST DUP6 MLOAD SWAP1 RETURNDATASIZE SWAP1 DUP3 RETURNDATACOPY RETURNDATASIZE SWAP1 REVERT JUMPDEST PUSH2 0xC02 SWAP2 SWAP3 POP DUP12 RETURNDATASIZE DUP14 GT PUSH2 0x587 JUMPI PUSH2 0x578 DUP2 DUP4 PUSH2 0x10E6 JUMP JUMPDEST SWAP1 CODESIZE PUSH2 0xB2C JUMP JUMPDEST DUP9 MLOAD RETURNDATASIZE DUP8 DUP3 RETURNDATACOPY RETURNDATASIZE SWAP1 REVERT JUMPDEST PUSH4 0x4E487B71 PUSH1 0xE0 SHL DUP8 MSTORE PUSH1 0x41 PUSH1 0x4 MSTORE DUP7 REVERT JUMPDEST DUP9 MLOAD PUSH3 0x461BCD PUSH1 0xE5 SHL DUP2 MSTORE PUSH1 0x4 DUP2 ADD DUP13 SWAP1 MSTORE PUSH1 0x18 DUP2 DUP11 ADD MSTORE PUSH32 0x496E73756666696369656E74204F4B422062616C616E63650000000000000000 PUSH1 0x44 DUP3 ADD MSTORE PUSH1 0x64 SWAP1 REVERT JUMPDEST DUP9 MLOAD PUSH3 0x461BCD PUSH1 0xE5 SHL DUP2 MSTORE PUSH1 0x4 DUP2 ADD DUP13 SWAP1 MSTORE PUSH1 0x11 DUP2 DUP11 ADD MSTORE PUSH17 0x4E6F204F4B4220746F2072656365697665 PUSH1 0x78 SHL PUSH1 0x44 DUP3 ADD MSTORE PUSH1 0x64 SWAP1 REVERT JUMPDEST DUP8 MLOAD PUSH3 0x461BCD PUSH1 0xE5 SHL DUP2 MSTORE PUSH1 0x4 DUP2 ADD DUP12 SWAP1 MSTORE PUSH1 0x1A DUP2 DUP10 ADD MSTORE PUSH32 0x43616E6E6F742073656C6C206D6F7265207468616E20736F6C64000000000000 PUSH1 0x44 DUP3 ADD MSTORE PUSH1 0x64 SWAP1 REVERT JUMPDEST PUSH2 0x70A SWAP2 POP DUP11 RETURNDATASIZE DUP13 GT PUSH2 0x710 JUMPI PUSH2 0x702 DUP2 DUP4 PUSH2 0x10E6 JUMP JUMPDEST DUP8 MLOAD RETURNDATASIZE DUP7 DUP3 RETURNDATACOPY RETURNDATASIZE SWAP1 REVERT JUMPDEST POP CALLVALUE PUSH2 0x105 JUMPI PUSH1 0x20 SWAP1 DUP2 PUSH1 0x3 NOT CALLDATASIZE ADD SLT PUSH2 0xEE6 JUMPI PUSH2 0xD1F PUSH2 0x1038 JUMP JUMPDEST PUSH1 0x2 SLOAD DUP3 MLOAD PUSH4 0xC1876453 PUSH1 0xE0 SHL DUP2 MSTORE PUSH1 0x1 PUSH1 0x1 PUSH1 0xA0 SHL SUB SWAP3 DUP4 AND PUSH1 0x4 DUP3 ADD DUP2 SWAP1 MSTORE SWAP3 SWAP1 SWAP2 DUP6 SWAP2 DUP4 SWAP2 PUSH1 0x24 SWAP2 DUP4 SWAP2 AND GAS STATICCALL SWAP1 DUP2 ISZERO PUSH2 0xE81 JUMPI SWAP1 PUSH2 0xD67 SWAP2 DUP7 SWAP2 PUSH2 0xECF JUMPI POP PUSH2 0x1120 JUMP JUMPDEST DUP1 DUP5 MSTORE PUSH1 0x3 DUP4 MSTORE PUSH1 0xFF PUSH1 0x4 DUP4 DUP7 KECCAK256 ADD SLOAD PUSH1 0x8 SHR AND PUSH2 0xE8B JUMPI DUP2 MLOAD PUSH2 0xD8A DUP2 PUSH2 0x10B4 JUMP JUMPDEST DUP5 DUP2 MSTORE DUP4 DUP2 ADD DUP6 DUP2 MSTORE PUSH1 0x4 DUP5 DUP4 ADD SWAP3 PUSH9 0x1A055690D9DB80000 DUP5 MSTORE PUSH1 0x60 DUP2 ADD PUSH12 0x37790968DC8EFFFD1000000 DUP2 MSTORE PUSH1 0x80 DUP3 ADD SWAP5 DUP10 DUP7 MSTORE PUSH1 0xA0 DUP4 ADD SWAP5 PUSH1 0x1 DUP7 MSTORE DUP8 DUP12 MSTORE PUSH1 0x3 DUP11 MSTORE DUP9 DUP12 KECCAK256 SWAP4 MLOAD DUP5 SSTORE MLOAD PUSH1 0x1 DUP5 ADD SSTORE MLOAD PUSH1 0x2 DUP4 ADD SSTORE MLOAD PUSH1 0x3 DUP3 ADD SSTORE ADD SWAP2 MLOAD ISZERO ISZERO SWAP1 PUSH1 0xFF PUSH2 0xFF00 DUP5 SLOAD SWAP3 MLOAD ISZERO ISZERO PUSH1 0x8 SHL AND SWAP3 AND SWAP1 PUSH2 0xFFFF NOT AND OR OR SWAP1 SSTORE DUP2 MLOAD SWAP3 PUSH4 0x70A08231 PUSH1 0xE0 SHL DUP5 MSTORE ADDRESS PUSH1 0x4 DUP6 ADD MSTORE DUP1 DUP5 PUSH1 0x24 DUP2 DUP6 GAS STATICCALL SWAP4 DUP5 ISZERO PUSH2 0xE81 JUMPI DUP6 SWAP5 PUSH2 0xE4E JUMPI JUMPDEST POP DUP4 PUSH2 0xE3D JUMPI DUP5 DUP1 RETURN JUMPDEST PUSH1 0x4 SWAP2 DUP6 MSTORE MSTORE DUP3 KECCAK256 SSTORE CODESIZE DUP1 DUP1 DUP1 DUP5 DUP1 RETURN JUMPDEST SWAP1 DUP1 SWAP5 POP DUP2 DUP2 RETURNDATASIZE DUP4 GT PUSH2 0xE7A JUMPI JUMPDEST PUSH2 0xE66 DUP2 DUP4 PUSH2 0x10E6 JUMP JUMPDEST DUP2 ADD SUB SLT PUSH2 0xE76 JUMPI MLOAD SWAP3 CODESIZE PUSH2 0xE33 JUMP JUMPDEST DUP5 DUP1 REVERT JUMPDEST POP RETURNDATASIZE PUSH2 0xE5C JUMP JUMPDEST DUP4 MLOAD RETURNDATASIZE DUP8 DUP3 RETURNDATACOPY RETURNDATASIZE SWAP1 REVERT JUMPDEST DUP2 MLOAD PUSH3 0x461BCD PUSH1 0xE5 SHL DUP2 MSTORE PUSH1 0x4 DUP2 ADD DUP5 SWAP1 MSTORE PUSH1 0x19 PUSH1 0x24 DUP3 ADD MSTORE PUSH32 0x437572766520616C726561647920696E697469616C697A656400000000000000 PUSH1 0x44 DUP3 ADD MSTORE PUSH1 0x64 SWAP1 REVERT JUMPDEST PUSH2 0x70A SWAP2 POP DUP6 RETURNDATASIZE DUP8 GT PUSH2 0x710 JUMPI PUSH2 0x702 DUP2 DUP4 PUSH2 0x10E6 JUMP JUMPDEST DUP3 DUP1 REVERT JUMPDEST POP CALLVALUE PUSH2 0x105 JUMPI PUSH1 0x20 CALLDATASIZE PUSH1 0x3 NOT ADD SLT PUSH2 0x105 JUMPI PUSH1 0xC0 SWAP2 PUSH1 0xFF SWAP1 DUP3 SWAP1 PUSH1 0x1 PUSH1 0x1 PUSH1 0xA0 SHL SUB PUSH2 0xF14 PUSH2 0x1038 JUMP JUMPDEST AND DUP2 MSTORE PUSH1 0x3 PUSH1 0x20 MSTORE KECCAK256 SWAP2 DUP3 SLOAD SWAP3 PUSH1 0x1 DUP2 ADD SLOAD SWAP2 PUSH1 0x2 DUP3 ADD SLOAD SWAP1 PUSH1 0x4 PUSH1 0x3 DUP5 ADD SLOAD SWAP4 ADD SLOAD SWAP4 DUP2 MLOAD SWAP7 DUP8 MSTORE PUSH1 0x20 DUP8 ADD MSTORE DUP6 ADD MSTORE PUSH1 0x60 DUP5 ADD MSTORE DUP2 DUP2 AND ISZERO ISZERO PUSH1 0x80 DUP5 ADD MSTORE PUSH1 0x8 SHR AND ISZERO ISZERO PUSH1 0xA0 DUP3 ADD MSTORE RETURN JUMPDEST SWAP1 POP CALLVALUE PUSH2 0xEE6 JUMPI PUSH1 0x20 CALLDATASIZE PUSH1 0x3 NOT ADD SLT PUSH2 0xEE6 JUMPI DUP3 DUP3 SWAP2 PUSH1 0xC0 SWAP5 PUSH1 0xA0 PUSH2 0xF84 PUSH2 0x1038 JUMP JUMPDEST SWAP3 PUSH2 0xF8E DUP2 PUSH2 0x10B4 JUMP JUMPDEST DUP3 DUP2 MSTORE DUP3 PUSH1 0x20 DUP3 ADD MSTORE DUP3 DUP7 DUP3 ADD MSTORE DUP3 PUSH1 0x60 DUP3 ADD MSTORE DUP3 PUSH1 0x80 DUP3 ADD MSTORE ADD MSTORE PUSH1 0x1 DUP1 PUSH1 0xA0 SHL SUB AND DUP2 MSTORE PUSH1 0x3 PUSH1 0x20 MSTORE KECCAK256 SWAP1 DUP1 MLOAD PUSH2 0xFC6 DUP2 PUSH2 0x10B4 JUMP JUMPDEST DUP3 SLOAD SWAP3 DUP4 DUP3 MSTORE PUSH1 0x1 DUP2 ADD SLOAD SWAP3 PUSH1 0x20 DUP4 ADD SWAP4 DUP5 MSTORE PUSH1 0x2 DUP3 ADD SLOAD DUP2 DUP5 ADD SWAP1 DUP2 MSTORE PUSH1 0x4 PUSH1 0x3 DUP5 ADD SLOAD SWAP4 PUSH1 0x60 DUP7 ADD SWAP5 DUP6 MSTORE ADD SLOAD SWAP5 PUSH1 0xFF PUSH1 0xA0 PUSH1 0x80 DUP8 ADD SWAP7 DUP3 DUP10 AND ISZERO ISZERO DUP9 MSTORE ADD SWAP7 PUSH1 0x8 SHR AND ISZERO ISZERO DUP7 MSTORE DUP3 MLOAD SWAP7 DUP8 MSTORE MLOAD PUSH1 0x20 DUP8 ADD MSTORE MLOAD SWAP1 DUP6 ADD MSTORE MLOAD PUSH1 0x60 DUP5 ADD MSTORE MLOAD ISZERO ISZERO PUSH1 0x80 DUP4 ADD MSTORE MLOAD ISZERO ISZERO PUSH1 0xA0 DUP3 ADD MSTORE RETURN JUMPDEST PUSH1 0x4 CALLDATALOAD SWAP1 PUSH1 0x1 PUSH1 0x1 PUSH1 0xA0 SHL SUB DUP3 AND DUP3 SUB PUSH2 0x104E JUMPI JUMP JUMPDEST PUSH1 0x0 DUP1 REVERT JUMPDEST PUSH1 0x60 SWAP1 PUSH1 0x3 NOT ADD SLT PUSH2 0x104E JUMPI PUSH1 0x1 PUSH1 0x1 PUSH1 0xA0 SHL SUB SWAP1 PUSH1 0x4 CALLDATALOAD DUP3 DUP2 AND DUP2 SUB PUSH2 0x104E JUMPI SWAP2 PUSH1 0x24 CALLDATALOAD SWAP1 DUP2 AND DUP2 SUB PUSH2 0x104E JUMPI SWAP1 PUSH1 0x44 CALLDATALOAD SWAP1 JUMP JUMPDEST PUSH1 0x0 SLOAD PUSH1 0x1 PUSH1 0x1 PUSH1 0xA0 SHL SUB AND CALLER SUB PUSH2 0x109C JUMPI JUMP JUMPDEST PUSH1 0x40 MLOAD PUSH4 0x118CDAA7 PUSH1 0xE0 SHL DUP2 MSTORE CALLER PUSH1 0x4 DUP3 ADD MSTORE PUSH1 0x24 SWAP1 REVERT JUMPDEST PUSH1 0xC0 DUP2 ADD SWAP1 DUP2 LT PUSH8 0xFFFFFFFFFFFFFFFF DUP3 GT OR PUSH2 0x10D0 JUMPI PUSH1 0x40 MSTORE JUMP JUMPDEST PUSH4 0x4E487B71 PUSH1 0xE0 SHL PUSH1 0x0 MSTORE PUSH1 0x41 PUSH1 0x4 MSTORE PUSH1 0x24 PUSH1 0x0 REVERT JUMPDEST SWAP1 PUSH1 0x1F DUP1 NOT SWAP2 ADD AND DUP2 ADD SWAP1 DUP2 LT PUSH8 0xFFFFFFFFFFFFFFFF DUP3 GT OR PUSH2 0x10D0 JUMPI PUSH1 0x40 MSTORE JUMP JUMPDEST SWAP1 DUP2 PUSH1 0x20 SWAP2 SUB SLT PUSH2 0x104E JUMPI MLOAD DUP1 ISZERO ISZERO DUP2 SUB PUSH2 0x104E JUMPI SWAP1 JUMP JUMPDEST ISZERO PUSH2 0x1127 JUMPI JUMP JUMPDEST PUSH1 0x40 MLOAD PUSH3 0x461BCD PUSH1 0xE5 SHL DUP2 MSTORE PUSH1 0x20 PUSH1 0x4 DUP3 ADD MSTORE PUSH1 0xD PUSH1 0x24 DUP3 ADD MSTORE PUSH13 0x24B73B30B634B2103A37B5B2B7 PUSH1 0x99 SHL PUSH1 0x44 DUP3 ADD MSTORE PUSH1 0x64 SWAP1 REVERT JUMPDEST ISZERO PUSH2 0x1163 JUMPI JUMP JUMPDEST PUSH1 0x40 MLOAD PUSH3 0x461BCD PUSH1 0xE5 SHL DUP2 MSTORE PUSH1 0x20 PUSH1 0x4 DUP3 ADD MSTORE PUSH1 0x10 PUSH1 0x24 DUP3 ADD MSTORE PUSH16 0x4375727665206E6F7420616374697665 PUSH1 0x80 SHL PUSH1 0x44 DUP3 ADD MSTORE PUSH1 0x64 SWAP1 REVERT JUMPDEST SWAP2 SWAP1 DUP3 SUB SWAP2 DUP3 GT PUSH2 0x11A8 JUMPI JUMP JUMPDEST PUSH4 0x4E487B71 PUSH1 0xE0 SHL PUSH1 0x0 MSTORE PUSH1 0x11 PUSH1 0x4 MSTORE PUSH1 0x24 PUSH1 0x0 REVERT JUMPDEST DUP2 DUP2 MUL SWAP3 SWAP2 DUP2 ISZERO SWAP2 DUP5 DIV EQ OR ISZERO PUSH2 0x11A8 JUMPI JUMP JUMPDEST DUP2 ISZERO PUSH2 0x11DB JUMPI DIV SWAP1 JUMP JUMPDEST PUSH4 0x4E487B71 PUSH1 0xE0 SHL PUSH1 0x0 MSTORE PUSH1 0x12 PUSH1 0x4 MSTORE PUSH1 0x24 PUSH1 0x0 REVERT JUMPDEST PUSH1 0x1 DUP1 PUSH1 0xA0 SHL SUB AND PUSH1 0x0 MSTORE PUSH1 0x3 PUSH1 0x20 MSTORE PUSH1 0x40 PUSH1 0x0 KECCAK256 PUSH1 0x40 MLOAD PUSH2 0x1212 DUP2 PUSH2 0x10B4 JUMP JUMPDEST DUP2 SLOAD DUP2 MSTORE PUSH1 0x1 DUP3 ADD SLOAD PUSH1 0x20 DUP3 ADD MSTORE PUSH1 0x2 DUP3 ADD SLOAD SWAP1 PUSH1 0x40 DUP2 ADD SWAP2 DUP3 MSTORE PUSH1 0x4 PUSH1 0x3 DUP5 ADD SLOAD SWAP4 PUSH1 0x60 DUP4 ADD SWAP5 DUP6 MSTORE ADD SLOAD PUSH2 0x1260 PUSH1 0xFF PUSH1 0x80 DUP5 ADD SWAP3 DUP2 DUP2 AND ISZERO ISZERO DUP5 MSTORE PUSH1 0x8 SHR AND ISZERO ISZERO DUP1 PUSH1 0xA0 DUP6 ADD MSTORE PUSH2 0x115C JUMP JUMPDEST MLOAD PUSH2 0x12A7 JUMPI PUSH2 0x1274 SWAP2 MLOAD SWAP3 MLOAD SWAP1 MLOAD SWAP1 PUSH2 0x119B JUMP JUMPDEST SWAP1 DUP2 ISZERO DUP1 ISZERO PUSH2 0x129F JUMPI JUMPDEST PUSH2 0x1297 JUMPI PUSH2 0x1294 SWAP3 PUSH2 0x128F SWAP2 PUSH2 0x11BE JUMP JUMPDEST PUSH2 0x11D1 JUMP JUMPDEST SWAP1 JUMP JUMPDEST POP POP POP PUSH1 0x0 SWAP1 JUMP JUMPDEST POP DUP3 ISZERO PUSH2 0x127E JUMP JUMPDEST POP POP POP POP PUSH1 0x0 SWAP1 JUMP JUMPDEST ISZERO PUSH2 0x12B7 JUMPI JUMP JUMPDEST PUSH1 0x40 MLOAD PUSH3 0x461BCD PUSH1 0xE5 SHL DUP2 MSTORE PUSH1 0x20 PUSH1 0x4 DUP3 ADD MSTORE PUSH1 0xF PUSH1 0x24 DUP3 ADD MSTORE PUSH15 0x151BDAD95B8819DC98591D585D1959 PUSH1 0x8A SHL PUSH1 0x44 DUP3 ADD MSTORE PUSH1 0x64 SWAP1 REVERT JUMPDEST ISZERO PUSH2 0x12F5 JUMPI JUMP JUMPDEST PUSH1 0x40 MLOAD PUSH3 0x461BCD PUSH1 0xE5 SHL DUP2 MSTORE PUSH1 0x20 PUSH1 0x4 DUP3 ADD MSTORE PUSH1 0x1D PUSH1 0x24 DUP3 ADD MSTORE PUSH32 0x416D6F756E74206D7573742062652067726561746572207468616E2030000000 PUSH1 0x44 DUP3 ADD MSTORE PUSH1 0x64 SWAP1 REVERT JUMPDEST SWAP2 SWAP1 DUP3 ADD DUP1 SWAP3 GT PUSH2 0x11A8 JUMPI JUMP JUMPDEST SWAP1 DUP2 PUSH1 0x20 SWAP2 SUB SLT PUSH2 0x104E JUMPI MLOAD PUSH1 0x1 PUSH1 0x1 PUSH1 0xA0 SHL SUB DUP2 AND DUP2 SUB PUSH2 0x104E JUMPI SWAP1 JUMP JUMPDEST RETURNDATASIZE ISZERO PUSH2 0x13A1 JUMPI RETURNDATASIZE SWAP1 PUSH8 0xFFFFFFFFFFFFFFFF DUP3 GT PUSH2 0x10D0 JUMPI PUSH1 0x40 MLOAD SWAP2 PUSH2 0x1395 PUSH1 0x1F DUP3 ADD PUSH1 0x1F NOT AND PUSH1 0x20 ADD DUP5 PUSH2 0x10E6 JUMP JUMPDEST DUP3 MSTORE RETURNDATASIZE PUSH1 0x0 PUSH1 0x20 DUP5 ADD RETURNDATACOPY JUMP JUMPDEST PUSH1 0x60 SWAP1 JUMP JUMPDEST ISZERO PUSH2 0x13AD JUMPI JUMP JUMPDEST PUSH1 0x40 MLOAD PUSH3 0x461BCD PUSH1 0xE5 SHL DUP2 MSTORE PUSH1 0x20 PUSH1 0x4 DUP3 ADD MSTORE PUSH1 0x1B PUSH1 0x24 DUP3 ADD MSTORE PUSH32 0x466565206D616E61676572207472616E73666572206661696C65640000000000 PUSH1 0x44 DUP3 ADD MSTORE PUSH1 0x64 SWAP1 REVERT JUMPDEST SWAP1 PUSH1 0x0 PUSH1 0x20 SWAP2 DUP3 DUP2 MLOAD SWAP2 ADD DUP3 DUP6 GAS CALL ISZERO PUSH2 0x144E JUMPI PUSH1 0x0 MLOAD RETURNDATASIZE PUSH2 0x1445 JUMPI POP PUSH1 0x1 PUSH1 0x1 PUSH1 0xA0 SHL SUB DUP2 AND EXTCODESIZE ISZERO JUMPDEST PUSH2 0x1423 JUMPI POP JUMP JUMPDEST PUSH1 0x40 MLOAD PUSH4 0x5274AFE7 PUSH1 0xE0 SHL DUP2 MSTORE PUSH1 0x1 PUSH1 0x1 PUSH1 0xA0 SHL SUB SWAP1 SWAP2 AND PUSH1 0x4 DUP3 ADD MSTORE PUSH1 0x24 SWAP1 REVERT JUMPDEST PUSH1 0x1 EQ ISZERO PUSH2 0x141C JUMP JUMPDEST PUSH1 0x40 MLOAD RETURNDATASIZE PUSH1 0x0 DUP3 RETURNDATACOPY RETURNDATASIZE SWAP1 REVERT JUMPDEST PUSH1 0x2 PUSH1 0x1 SLOAD EQ PUSH2 0x146B JUMPI PUSH1 0x2 PUSH1 0x1 SSTORE JUMP JUMPDEST PUSH1 0x40 MLOAD PUSH4 0x3EE5AEB5 PUSH1 0xE0 SHL DUP2 MSTORE PUSH1 0x4 SWAP1 REVERT JUMPDEST DUP1 ISZERO PUSH2 0x14F5 JUMPI PUSH12 0x295BE96E640669720000000 SWAP1 DUP2 DUP4 LT ISZERO PUSH2 0x1297 JUMPI PUSH2 0x14A2 DUP4 PUSH2 0x1552 JUMP JUMPDEST DUP1 ISZERO PUSH2 0x14E9 JUMPI JUMPDEST PUSH8 0xDE0B6B3A7640000 DUP1 DUP4 MUL SWAP3 DUP4 DIV SUB PUSH2 0x11A8 JUMPI PUSH2 0x14C6 SWAP2 PUSH2 0x11D1 JUMP JUMPDEST SWAP2 DUP2 PUSH2 0x14D2 DUP5 DUP4 PUSH2 0x133A JUMP JUMPDEST GT PUSH2 0x14DC JUMPI POP POP SWAP1 JUMP JUMPDEST DUP2 SUB SWAP2 POP DUP2 GT PUSH2 0x11A8 JUMPI SWAP1 JUMP JUMPDEST POP PUSH5 0xE8D4A51000 PUSH2 0x14A9 JUMP JUMPDEST POP POP PUSH1 0x0 SWAP1 JUMP JUMPDEST SWAP1 DUP2 ISZERO DUP1 ISZERO PUSH2 0x1549 JUMPI JUMPDEST PUSH2 0x14F5 JUMPI DUP2 PUSH2 0x153C DUP3 PUSH2 0x1536 PUSH2 0x1530 PUSH2 0x152B PUSH8 0xDE0B6B3A7640000 SWAP8 PUSH2 0x1545 SWAP8 PUSH2 0x119B JUMP JUMPDEST PUSH2 0x1552 JUMP JUMPDEST SWAP2 PUSH2 0x1552 JUMP JUMPDEST SWAP1 PUSH2 0x133A JUMP JUMPDEST PUSH1 0x1 SHR SWAP1 PUSH2 0x11BE JUMP JUMPDEST DIV SWAP1 JUMP JUMPDEST POP DUP1 DUP3 GT PUSH2 0x1506 JUMP JUMPDEST PUSH10 0xD3C21BCECCEDA1000000 SWAP1 DIV PUSH5 0xE8D4A51000 SWAP1 DUP2 DUP2 MUL SWAP1 DUP1 DUP3 DIV DUP4 EQ SWAP1 ISZERO OR ISZERO PUSH2 0x11A8 JUMPI DUP2 ADD DUP1 SWAP2 GT PUSH2 0x11A8 JUMPI SWAP1 JUMP INVALID LOG2 PUSH5 0x6970667358 0x22 SLT KECCAK256 GASPRICE 0xD7 SWAP6 BASEFEE 0xCC SWAP7 SSTORE SWAP13 0xD0 ORIGIN 0xBD 0xAD 0xD9 0xCF CHAINID 0x4F PUSH26 0xE3CFD4FF894DB671F95154B293AB0464736F6C63430008140033 "},"methodIdentifiers":{"DEFAULT_VIRTUAL_OKB()":"d73337df","DEFAULT_VIRTUAL_TOKENS()":"9571b275","GRADUATION_THRESHOLD()":"fcfc0c09","MAX_SUPPLY_FOR_CURVE()":"4f39cb36","buyTokens(address,address,uint256)":"dcefa538","getCurveInfo(address)":"047f8bc1","getPrice(address,uint256)":"449e815d","getTokenBalance(address)":"3aecd0e3","initializeCurve(address)":"360f2dc2","owner()":"8da5cb5b","registry()":"7b103999","renounceOwnership()":"715018a6","sellTokens(address,address,uint256)":"3eafec21","tokenBalances(address)":"523fba7f","tokenCurves(address)":"169f7dee","transferOwnership(address)":"f2fde38b","updateCurveParameters(address,uint256,uint256)":"c8c5b1cb"}}}}}