{"contracts/Registry.sol":{"Registry":{"abi":[{"inputs":[],"stateMutability":"nonpayable","type":"constructor"},{"inputs":[{"internalType":"address","name":"owner","type":"address"}],"name":"OwnableInvalidOwner","type":"error"},{"inputs":[{"internalType":"address","name":"account","type":"address"}],"name":"OwnableUnauthorizedAccount","type":"error"},{"anonymous":false,"inputs":[{"indexed":false,"internalType":"string","name":"contractName","type":"string"},{"indexed":false,"internalType":"address","name":"newAddress","type":"address"}],"name":"ContractUpdated","type":"event"},{"anonymous":false,"inputs":[{"indexed":true,"internalType":"address","name":"previousOwner","type":"address"},{"indexed":true,"internalType":"address","name":"newOwner","type":"address"}],"name":"OwnershipTransferred","type":"event"},{"anonymous":false,"inputs":[{"indexed":true,"internalType":"address","name":"token","type":"address"}],"name":"TokenRegistered","type":"event"},{"inputs":[{"internalType":"address","name":"","type":"address"}],"name":"authorizedContracts","outputs":[{"internalType":"bool","name":"","type":"bool"}],"stateMutability":"view","type":"function"},{"inputs":[],"name":"bondingCurve","outputs":[{"internalType":"address","name":"","type":"address"}],"stateMutability":"view","type":"function"},{"inputs":[],"name":"feeManager","outputs":[{"internalType":"address","name":"","type":"address"}],"stateMutability":"view","type":"function"},{"inputs":[],"name":"getBondingCurve","outputs":[{"internalType":"address","name":"","type":"address"}],"stateMutability":"view","type":"function"},{"inputs":[],"name":"getFeeManager","outputs":[{"internalType":"address","name":"","type":"address"}],"stateMutability":"view","type":"function"},{"inputs":[],"name":"getLiquidityPool","outputs":[{"internalType":"address","name":"","type":"address"}],"stateMutability":"view","type":"function"},{"inputs":[],"name":"getMarketGraduation","outputs":[{"internalType":"address","name":"","type":"address"}],"stateMutability":"view","type":"function"},{"inputs":[],"name":"getTokenFactory","outputs":[{"internalType":"address","name":"","type":"address"}],"stateMutability":"view","type":"function"},{"inputs":[],"name":"getUserManager","outputs":[{"internalType":"address","name":"","type":"address"}],"stateMutability":"view","type":"function"},{"inputs":[],"name":"getWOKB","outputs":[{"internalType":"address","name":"","type":"address"}],"stateMutability":"view","type":"function"},{"inputs":[{"internalType":"address","name":"_tokenFactory","type":"address"},{"internalType":"address","name":"_bondingCurve","type":"address"},{"internalType":"address","name":"_liquidityPool","type":"address"},{"internalType":"address","name":"_userManager","type":"address"},{"internalType":"address","name":"_feeManager","type":"address"},{"internalType":"address","name":"_marketGraduation","type":"address"},{"internalType":"address","name":"_wokb","type":"address"}],"name":"initialize","outputs":[],"stateMutability":"nonpayable","type":"function"},{"inputs":[{"internalType":"address","name":"token","type":"address"}],"name":"isValidToken","outputs":[{"internalType":"bool","name":"","type":"bool"}],"stateMutability":"view","type":"function"},{"inputs":[],"name":"liquidityPool","outputs":[{"internalType":"address","name":"","type":"address"}],"stateMutability":"view","type":"function"},{"inputs":[],"name":"marketGraduation","outputs":[{"internalType":"address","name":"","type":"address"}],"stateMutability":"view","type":"function"},{"inputs":[],"name":"owner","outputs":[{"internalType":"address","name":"","type":"address"}],"stateMutability":"view","type":"function"},{"inputs":[{"internalType":"address","name":"token","type":"address"}],"name":"registerToken","outputs":[],"stateMutability":"nonpayable","type":"function"},{"inputs":[],"name":"renounceOwnership","outputs":[],"stateMutability":"nonpayable","type":"function"},{"inputs":[{"internalType":"address","name":"_contract","type":"address"},{"internalType":"bool","name":"_authorized","type":"bool"}],"name":"setAuthorizedContract","outputs":[],"stateMutability":"nonpayable","type":"function"},{"inputs":[],"name":"tokenFactory","outputs":[{"internalType":"address","name":"","type":"address"}],"stateMutability":"view","type":"function"},{"inputs":[{"internalType":"address","name":"newOwner","type":"address"}],"name":"transferOwnership","outputs":[],"stateMutability":"nonpayable","type":"function"},{"inputs":[],"name":"userManager","outputs":[{"internalType":"address","name":"","type":"address"}],"stateMutability":"view","type":"function"},{"inputs":[{"internalType":"address","name":"","type":"address"}],"name":"validTokens","outputs":[{"internalType":"bool","name":"","type":"bool"}],"stateMutability":"view","type":"function"},{"inputs":[],"name":"wokb","outputs":[{"internalType":"address","name":"","type":"address"}],"stateMutability":"view","type":"function"}],"evm":{"bytecode":{"linkReferences":{},"object":"6080806040523461007a5733156100645760008054336001600160a01b03198216811783556040519290916001600160a01b0316907f8be0079c531659141344cd1fd0a4f28419497f9722a3daafe3b4186f6b6457e09080a36106d590816100808239f35b631e4fbdf760e01b815260006004820152602490fd5b600080fdfe608060408181526004918236101561001657600080fd5b600092833560e01c91826309824a8014610593575081631dffd01214610425578163358764761461044d5781635c8a768714610425578163665a11ca14610377578163715018a6146103c85781638da5cb5b146103a0578163925d6ba2146102d257816395ddbe8914610377578163c1876453146102fb578163d0fb02031461022e578163d5b9221b14610339578163d7f739c4146102a9578163d908f78d14610280578163e12fb1b9146102fb578163e77772fe146102d2578163ebdccebb146102a9578163ed8be21714610280578163eff1d50e14610257578163f2d638261461022e578163f2fa7392146101d8578163f2fde38b1461014d575063faac38ef1461012257600080fd5b3461014957816003193601126101495760025490516001600160a01b039091168152602090f35b5080fd5b9050346101d45760203660031901126101d457610168610658565b90610171610673565b6001600160a01b039182169283156101be57505082546001600160a01b0319811683178455167f8be0079c531659141344cd1fd0a4f28419497f9722a3daafe3b4186f6b6457e08380a380f35b51631e4fbdf760e01b8152908101849052602490fd5b8280fd5b5050346101495780600319360112610149576101f2610658565b906024359182151580930361022a57610209610673565b60018060a01b03168352600960205282209060ff8019835416911617905580f35b8380fd5b50503461014957816003193601126101495760055490516001600160a01b039091168152602090f35b50503461014957816003193601126101495760025490516001600160a01b039091168152602090f35b50503461014957816003193601126101495760075490516001600160a01b039091168152602090f35b50503461014957816003193601126101495760065490516001600160a01b039091168152602090f35b50503461014957816003193601126101495760015490516001600160a01b039091168152602090f35b5050346101495760203660031901126101495760209160ff9082906001600160a01b03610326610658565b1681526008855220541690519015158152f35b5050346101495760203660031901126101495760209160ff9082906001600160a01b03610364610658565b1681526009855220541690519015158152f35b50503461014957816003193601126101495760035490516001600160a01b039091168152602090f35b505034610149578160031936011261014957905490516001600160a01b039091168152602090f35b83346104225780600319360112610422576103e1610673565b80546001600160a01b03198116825581906001600160a01b03167f8be0079c531659141344cd1fd0a4f28419497f9722a3daafe3b4186f6b6457e08280a380f35b80fd5b9050346101d457826003193601126101d4575490516001600160a01b03909116815260209150f35b9050346101d45760e03660031901126101d457610468610658565b6001600160a01b0360243581811694929085900361058f5760443582811680910361058b576064359083821680920361058757608435928484168094036105835760a4359480861680960361057f5760c4359181831680930361057b576104cd610673565b16906bffffffffffffffffffffffff60a01b60019883828b5416178a558a82600254161760025584826003541617600355858282541617905585816005541617600555868160065416176006556007541617600755885260096020528488209660ff1997878982541617905588528488208688825416179055875283872085878254161790558652828620848682541617905585528185208385825416179055845283209182541617905580f35b8a80fd5b8980fd5b8880fd5b8780fd5b8680fd5b8580fd5b9091503461022a57602036600319011261022a576105af610658565b91338552600960205260ff84862054168015610645575b156106135750506001600160a01b03168083526008602052908220805460ff191660011790557f158412daecdc1456d01568828bcdb18464cc7f1ce0215ddbc3f3cfede9d1e63d8280a280f35b62461bcd60e51b8252602090820152600e60248201526d139bdd08185d5d1a1bdc9a5e995960921b6044820152606490fd5b5084546001600160a01b031633146105c6565b600435906001600160a01b038216820361066e57565b600080fd5b6000546001600160a01b0316330361068757565b60405163118cdaa760e01b8152336004820152602490fdfea264697066735822122021fdf06593321b86559614041ea223cac831d9a50fd4359965aa93515dad10e264736f6c63430008140033","opcodes":"PUSH1 0x80 DUP1 PUSH1 0x40 MSTORE CALLVALUE PUSH2 0x7A JUMPI CALLER ISZERO PUSH2 0x64 JUMPI PUSH1 0x0 DUP1 SLOAD CALLER PUSH1 0x1 PUSH1 0x1 PUSH1 0xA0 SHL SUB NOT DUP3 AND DUP2 OR DUP4 SSTORE PUSH1 0x40 MLOAD SWAP3 SWAP1 SWAP2 PUSH1 0x1 PUSH1 0x1 PUSH1 0xA0 SHL SUB AND SWAP1 PUSH32 0x8BE0079C531659141344CD1FD0A4F28419497F9722A3DAAFE3B4186F6B6457E0 SWAP1 DUP1 LOG3 PUSH2 0x6D5 SWAP1 DUP2 PUSH2 0x80 DUP3 CODECOPY RETURN JUMPDEST PUSH4 0x1E4FBDF7 PUSH1 0xE0 SHL DUP2 MSTORE PUSH1 0x0 PUSH1 0x4 DUP3 ADD MSTORE PUSH1 0x24 SWAP1 REVERT JUMPDEST PUSH1 0x0 DUP1 REVERT INVALID PUSH1 0x80 PUSH1 0x40 DUP2 DUP2 MSTORE PUSH1 0x4 SWAP2 DUP3 CALLDATASIZE LT ISZERO PUSH2 0x16 JUMPI PUSH1 0x0 DUP1 REVERT JUMPDEST PUSH1 0x0 SWAP3 DUP4 CALLDATALOAD PUSH1 0xE0 SHR SWAP2 DUP3 PUSH4 0x9824A80 EQ PUSH2 0x593 JUMPI POP DUP2 PUSH4 0x1DFFD012 EQ PUSH2 0x425 JUMPI DUP2 PUSH4 0x35876476 EQ PUSH2 0x44D JUMPI DUP2 PUSH4 0x5C8A7687 EQ PUSH2 0x425 JUMPI DUP2 PUSH4 0x665A11CA EQ PUSH2 0x377 JUMPI DUP2 PUSH4 0x715018A6 EQ PUSH2 0x3C8 JUMPI DUP2 PUSH4 0x8DA5CB5B EQ PUSH2 0x3A0 JUMPI DUP2 PUSH4 0x925D6BA2 EQ PUSH2 0x2D2 JUMPI DUP2 PUSH4 0x95DDBE89 EQ PUSH2 0x377 JUMPI DUP2 PUSH4 0xC1876453 EQ PUSH2 0x2FB JUMPI DUP2 PUSH4 0xD0FB0203 EQ PUSH2 0x22E JUMPI DUP2 PUSH4 0xD5B9221B EQ PUSH2 0x339 JUMPI DUP2 PUSH4 0xD7F739C4 EQ PUSH2 0x2A9 JUMPI DUP2 PUSH4 0xD908F78D EQ PUSH2 0x280 JUMPI DUP2 PUSH4 0xE12FB1B9 EQ PUSH2 0x2FB JUMPI DUP2 PUSH4 0xE77772FE EQ PUSH2 0x2D2 JUMPI DUP2 PUSH4 0xEBDCCEBB EQ PUSH2 0x2A9 JUMPI DUP2 PUSH4 0xED8BE217 EQ PUSH2 0x280 JUMPI DUP2 PUSH4 0xEFF1D50E EQ PUSH2 0x257 JUMPI DUP2 PUSH4 0xF2D63826 EQ PUSH2 0x22E JUMPI DUP2 PUSH4 0xF2FA7392 EQ PUSH2 0x1D8 JUMPI DUP2 PUSH4 0xF2FDE38B EQ PUSH2 0x14D JUMPI POP PUSH4 0xFAAC38EF EQ PUSH2 0x122 JUMPI PUSH1 0x0 DUP1 REVERT JUMPDEST CALLVALUE PUSH2 0x149 JUMPI DUP2 PUSH1 0x3 NOT CALLDATASIZE ADD SLT PUSH2 0x149 JUMPI PUSH1 0x2 SLOAD SWAP1 MLOAD PUSH1 0x1 PUSH1 0x1 PUSH1 0xA0 SHL SUB SWAP1 SWAP2 AND DUP2 MSTORE PUSH1 0x20 SWAP1 RETURN JUMPDEST POP DUP1 REVERT JUMPDEST SWAP1 POP CALLVALUE PUSH2 0x1D4 JUMPI PUSH1 0x20 CALLDATASIZE PUSH1 0x3 NOT ADD SLT PUSH2 0x1D4 JUMPI PUSH2 0x168 PUSH2 0x658 JUMP JUMPDEST SWAP1 PUSH2 0x171 PUSH2 0x673 JUMP JUMPDEST PUSH1 0x1 PUSH1 0x1 PUSH1 0xA0 SHL SUB SWAP2 DUP3 AND SWAP3 DUP4 ISZERO PUSH2 0x1BE JUMPI POP POP DUP3 SLOAD PUSH1 0x1 PUSH1 0x1 PUSH1 0xA0 SHL SUB NOT DUP2 AND DUP4 OR DUP5 SSTORE AND PUSH32 0x8BE0079C531659141344CD1FD0A4F28419497F9722A3DAAFE3B4186F6B6457E0 DUP4 DUP1 LOG3 DUP1 RETURN JUMPDEST MLOAD PUSH4 0x1E4FBDF7 PUSH1 0xE0 SHL DUP2 MSTORE SWAP1 DUP2 ADD DUP5 SWAP1 MSTORE PUSH1 0x24 SWAP1 REVERT JUMPDEST DUP3 DUP1 REVERT JUMPDEST POP POP CALLVALUE PUSH2 0x149 JUMPI DUP1 PUSH1 0x3 NOT CALLDATASIZE ADD SLT PUSH2 0x149 JUMPI PUSH2 0x1F2 PUSH2 0x658 JUMP JUMPDEST SWAP1 PUSH1 0x24 CALLDATALOAD SWAP2 DUP3 ISZERO ISZERO DUP1 SWAP4 SUB PUSH2 0x22A JUMPI PUSH2 0x209 PUSH2 0x673 JUMP JUMPDEST PUSH1 0x1 DUP1 PUSH1 0xA0 SHL SUB AND DUP4 MSTORE PUSH1 0x9 PUSH1 0x20 MSTORE DUP3 KECCAK256 SWAP1 PUSH1 0xFF DUP1 NOT DUP4 SLOAD AND SWAP2 AND OR SWAP1 SSTORE DUP1 RETURN JUMPDEST DUP4 DUP1 REVERT JUMPDEST POP POP CALLVALUE PUSH2 0x149 JUMPI DUP2 PUSH1 0x3 NOT CALLDATASIZE ADD SLT PUSH2 0x149 JUMPI PUSH1 0x5 SLOAD SWAP1 MLOAD PUSH1 0x1 PUSH1 0x1 PUSH1 0xA0 SHL SUB SWAP1 SWAP2 AND DUP2 MSTORE PUSH1 0x20 SWAP1 RETURN JUMPDEST POP POP CALLVALUE PUSH2 0x149 JUMPI DUP2 PUSH1 0x3 NOT CALLDATASIZE ADD SLT PUSH2 0x149 JUMPI PUSH1 0x2 SLOAD SWAP1 MLOAD PUSH1 0x1 PUSH1 0x1 PUSH1 0xA0 SHL SUB SWAP1 SWAP2 AND DUP2 MSTORE PUSH1 0x20 SWAP1 RETURN JUMPDEST POP POP CALLVALUE PUSH2 0x149 JUMPI DUP2 PUSH1 0x3 NOT CALLDATASIZE ADD SLT PUSH2 0x149 JUMPI PUSH1 0x7 SLOAD SWAP1 MLOAD PUSH1 0x1 PUSH1 0x1 PUSH1 0xA0 SHL SUB SWAP1 SWAP2 AND DUP2 MSTORE PUSH1 0x20 SWAP1 RETURN JUMPDEST POP POP CALLVALUE PUSH2 0x149 JUMPI DUP2 PUSH1 0x3 NOT CALLDATASIZE ADD SLT PUSH2 0x149 JUMPI PUSH1 0x6 SLOAD SWAP1 MLOAD PUSH1 0x1 PUSH1 0x1 PUSH1 0xA0 SHL SUB SWAP1 SWAP2 AND DUP2 MSTORE PUSH1 0x20 SWAP1 RETURN JUMPDEST POP POP CALLVALUE PUSH2 0x149 JUMPI DUP2 PUSH1 0x3 NOT CALLDATASIZE ADD SLT PUSH2 0x149 JUMPI PUSH1 0x1 SLOAD SWAP1 MLOAD PUSH1 0x1 PUSH1 0x1 PUSH1 0xA0 SHL SUB SWAP1 SWAP2 AND DUP2 MSTORE PUSH1 0x20 SWAP1 RETURN JUMPDEST POP POP CALLVALUE PUSH2 0x149 JUMPI PUSH1 0x20 CALLDATASIZE PUSH1 0x3 NOT ADD SLT PUSH2 0x149 JUMPI PUSH1 0x20 SWAP2 PUSH1 0xFF SWAP1 DUP3 SWAP1 PUSH1 0x1 PUSH1 0x1 PUSH1 0xA0 SHL SUB PUSH2 0x326 PUSH2 0x658 JUMP JUMPDEST AND DUP2 MSTORE PUSH1 0x8 DUP6 MSTORE KECCAK256 SLOAD AND SWAP1 MLOAD SWAP1 ISZERO ISZERO DUP2 MSTORE RETURN JUMPDEST POP POP CALLVALUE PUSH2 0x149 JUMPI PUSH1 0x20 CALLDATASIZE PUSH1 0x3 NOT ADD SLT PUSH2 0x149 JUMPI PUSH1 0x20 SWAP2 PUSH1 0xFF SWAP1 DUP3 SWAP1 PUSH1 0x1 PUSH1 0x1 PUSH1 0xA0 SHL SUB PUSH2 0x364 PUSH2 0x658 JUMP JUMPDEST AND DUP2 MSTORE PUSH1 0x9 DUP6 MSTORE KECCAK256 SLOAD AND SWAP1 MLOAD SWAP1 ISZERO ISZERO DUP2 MSTORE RETURN JUMPDEST POP POP CALLVALUE PUSH2 0x149 JUMPI DUP2 PUSH1 0x3 NOT CALLDATASIZE ADD SLT PUSH2 0x149 JUMPI PUSH1 0x3 SLOAD SWAP1 MLOAD PUSH1 0x1 PUSH1 0x1 PUSH1 0xA0 SHL SUB SWAP1 SWAP2 AND DUP2 MSTORE PUSH1 0x20 SWAP1 RETURN JUMPDEST POP POP CALLVALUE PUSH2 0x149 JUMPI DUP2 PUSH1 0x3 NOT CALLDATASIZE ADD SLT PUSH2 0x149 JUMPI SWAP1 SLOAD SWAP1 MLOAD PUSH1 0x1 PUSH1 0x1 PUSH1 0xA0 SHL SUB SWAP1 SWAP2 AND DUP2 MSTORE PUSH1 0x20 SWAP1 RETURN JUMPDEST DUP4 CALLVALUE PUSH2 0x422 JUMPI DUP1 PUSH1 0x3 NOT CALLDATASIZE ADD SLT PUSH2 0x422 JUMPI PUSH2 0x3E1 PUSH2 0x673 JUMP JUMPDEST DUP1 SLOAD PUSH1 0x1 PUSH1 0x1 PUSH1 0xA0 SHL SUB NOT DUP2 AND DUP3 SSTORE DUP2 SWAP1 PUSH1 0x1 PUSH1 0x1 PUSH1 0xA0 SHL SUB AND PUSH32 0x8BE0079C531659141344CD1FD0A4F28419497F9722A3DAAFE3B4186F6B6457E0 DUP3 DUP1 LOG3 DUP1 RETURN JUMPDEST DUP1 REVERT JUMPDEST SWAP1 POP CALLVALUE PUSH2 0x1D4 JUMPI DUP3 PUSH1 0x3 NOT CALLDATASIZE ADD SLT PUSH2 0x1D4 JUMPI SLOAD SWAP1 MLOAD PUSH1 0x1 PUSH1 0x1 PUSH1 0xA0 SHL SUB SWAP1 SWAP2 AND DUP2 MSTORE PUSH1 0x20 SWAP2 POP RETURN JUMPDEST SWAP1 POP CALLVALUE PUSH2 0x1D4 JUMPI PUSH1 0xE0 CALLDATASIZE PUSH1 0x3 NOT ADD SLT PUSH2 0x1D4 JUMPI PUSH2 0x468 PUSH2 0x658 JUMP JUMPDEST PUSH1 0x1 PUSH1 0x1 PUSH1 0xA0 SHL SUB PUSH1 0x24 CALLDATALOAD DUP2 DUP2 AND SWAP5 SWAP3 SWAP1 DUP6 SWAP1 SUB PUSH2 0x58F JUMPI PUSH1 0x44 CALLDATALOAD DUP3 DUP2 AND DUP1 SWAP2 SUB PUSH2 0x58B JUMPI PUSH1 0x64 CALLDATALOAD SWAP1 DUP4 DUP3 AND DUP1 SWAP3 SUB PUSH2 0x587 JUMPI PUSH1 0x84 CALLDATALOAD SWAP3 DUP5 DUP5 AND DUP1 SWAP5 SUB PUSH2 0x583 JUMPI PUSH1 0xA4 CALLDATALOAD SWAP5 DUP1 DUP7 AND DUP1 SWAP7 SUB PUSH2 0x57F JUMPI PUSH1 0xC4 CALLDATALOAD SWAP2 DUP2 DUP4 AND DUP1 SWAP4 SUB PUSH2 0x57B JUMPI PUSH2 0x4CD PUSH2 0x673 JUMP JUMPDEST AND SWAP1 PUSH12 0xFFFFFFFFFFFFFFFFFFFFFFFF PUSH1 0xA0 SHL PUSH1 0x1 SWAP9 DUP4 DUP3 DUP12 SLOAD AND OR DUP11 SSTORE DUP11 DUP3 PUSH1 0x2 SLOAD AND OR PUSH1 0x2 SSTORE DUP5 DUP3 PUSH1 0x3 SLOAD AND OR PUSH1 0x3 SSTORE DUP6 DUP3 DUP3 SLOAD AND OR SWAP1 SSTORE DUP6 DUP2 PUSH1 0x5 SLOAD AND OR PUSH1 0x5 SSTORE DUP7 DUP2 PUSH1 0x6 SLOAD AND OR PUSH1 0x6 SSTORE PUSH1 0x7 SLOAD AND OR PUSH1 0x7 SSTORE DUP9 MSTORE PUSH1 0x9 PUSH1 0x20 MSTORE DUP5 DUP9 KECCAK256 SWAP7 PUSH1 0xFF NOT SWAP8 DUP8 DUP10 DUP3 SLOAD AND OR SWAP1 SSTORE DUP9 MSTORE DUP5 DUP9 KECCAK256 DUP7 DUP9 DUP3 SLOAD AND OR SWAP1 SSTORE DUP8 MSTORE DUP4 DUP8 KECCAK256 DUP6 DUP8 DUP3 SLOAD AND OR SWAP1 SSTORE DUP7 MSTORE DUP3 DUP7 KECCAK256 DUP5 DUP7 DUP3 SLOAD AND OR SWAP1 SSTORE DUP6 MSTORE DUP2 DUP6 KECCAK256 DUP4 DUP6 DUP3 SLOAD AND OR SWAP1 SSTORE DUP5 MSTORE DUP4 KECCAK256 SWAP2 DUP3 SLOAD AND OR SWAP1 SSTORE DUP1 RETURN JUMPDEST DUP11 DUP1 REVERT JUMPDEST DUP10 DUP1 REVERT JUMPDEST DUP9 DUP1 REVERT JUMPDEST DUP8 DUP1 REVERT JUMPDEST DUP7 DUP1 REVERT JUMPDEST DUP6 DUP1 REVERT JUMPDEST SWAP1 SWAP2 POP CALLVALUE PUSH2 0x22A JUMPI PUSH1 0x20 CALLDATASIZE PUSH1 0x3 NOT ADD SLT PUSH2 0x22A JUMPI PUSH2 0x5AF PUSH2 0x658 JUMP JUMPDEST SWAP2 CALLER DUP6 MSTORE PUSH1 0x9 PUSH1 0x20 MSTORE PUSH1 0xFF DUP5 DUP7 KECCAK256 SLOAD AND DUP1 ISZERO PUSH2 0x645 JUMPI JUMPDEST ISZERO PUSH2 0x613 JUMPI POP POP PUSH1 0x1 PUSH1 0x1 PUSH1 0xA0 SHL SUB AND DUP1 DUP4 MSTORE PUSH1 0x8 PUSH1 0x20 MSTORE SWAP1 DUP3 KECCAK256 DUP1 SLOAD PUSH1 0xFF NOT AND PUSH1 0x1 OR SWAP1 SSTORE PUSH32 0x158412DAECDC1456D01568828BCDB18464CC7F1CE0215DDBC3F3CFEDE9D1E63D DUP3 DUP1 LOG2 DUP1 RETURN JUMPDEST PUSH3 0x461BCD PUSH1 0xE5 SHL DUP3 MSTORE PUSH1 0x20 SWAP1 DUP3 ADD MSTORE PUSH1 0xE PUSH1 0x24 DUP3 ADD MSTORE PUSH14 0x139BDD08185D5D1A1BDC9A5E9959 PUSH1 0x92 SHL PUSH1 0x44 DUP3 ADD MSTORE PUSH1 0x64 SWAP1 REVERT JUMPDEST POP DUP5 SLOAD PUSH1 0x1 PUSH1 0x1 PUSH1 0xA0 SHL SUB AND CALLER EQ PUSH2 0x5C6 JUMP JUMPDEST PUSH1 0x4 CALLDATALOAD SWAP1 PUSH1 0x1 PUSH1 0x1 PUSH1 0xA0 SHL SUB DUP3 AND DUP3 SUB PUSH2 0x66E JUMPI JUMP JUMPDEST PUSH1 0x0 DUP1 REVERT JUMPDEST PUSH1 0x0 SLOAD PUSH1 0x1 PUSH1 0x1 PUSH1 0xA0 SHL SUB AND CALLER SUB PUSH2 0x687 JUMPI JUMP JUMPDEST PUSH1 0x40 MLOAD PUSH4 0x118CDAA7 PUSH1 0xE0 SHL DUP2 MSTORE CALLER PUSH1 0x4 DUP3 ADD MSTORE PUSH1 0x24 SWAP1 REVERT INVALID LOG2 PUSH5 0x6970667358 0x22 SLT KECCAK256 0x21 REVERT CREATE PUSH6 0x93321B865596 EQ DIV 0x1E LOG2 0x23 0xCA 0xC8 BALANCE 0xD9 0xA5 0xF 0xD4 CALLDATALOAD SWAP10 PUSH6 0xAA93515DAD10 0xE2 PUSH5 0x736F6C6343 STOP ADDMOD EQ STOP CALLER "},"methodIdentifiers":{"authorizedContracts(address)":"d5b9221b","bondingCurve()":"eff1d50e","feeManager()":"d0fb0203","getBondingCurve()":"faac38ef","getFeeManager()":"f2d63826","getLiquidityPool()":"95ddbe89","getMarketGraduation()":"ebdccebb","getTokenFactory()":"925d6ba2","getUserManager()":"1dffd012","getWOKB()":"d908f78d","initialize(address,address,address,address,address,address,address)":"35876476","isValidToken(address)":"c1876453","liquidityPool()":"665a11ca","marketGraduation()":"d7f739c4","owner()":"8da5cb5b","registerToken(address)":"09824a80","renounceOwnership()":"715018a6","setAuthorizedContract(address,bool)":"f2fa7392","tokenFactory()":"e77772fe","transferOwnership(address)":"f2fde38b","userManager()":"5c8a7687","validTokens(address)":"e12fb1b9","wokb()":"ed8be217"}}}}}