{"contracts/MarketGraduation.sol":{"MarketGraduation":{"abi":[{"inputs":[{"internalType":"address","name":"_registry","type":"address"}],"stateMutability":"nonpayable","type":"constructor"},{"inputs":[{"internalType":"address","name":"owner","type":"address"}],"name":"OwnableInvalidOwner","type":"error"},{"inputs":[{"internalType":"address","name":"account","type":"address"}],"name":"OwnableUnauthorizedAccount","type":"error"},{"inputs":[],"name":"ReentrancyGuardReentrantCall","type":"error"},{"anonymous":false,"inputs":[{"indexed":true,"internalType":"address","name":"token","type":"address"},{"indexed":false,"internalType":"uint256","name":"lpTokenId","type":"uint256"}],"name":"LiquidityLocked","type":"event"},{"anonymous":false,"inputs":[{"indexed":true,"internalType":"address","name":"previousOwner","type":"address"},{"indexed":true,"internalType":"address","name":"newOwner","type":"address"}],"name":"OwnershipTransferred","type":"event"},{"anonymous":false,"inputs":[{"indexed":true,"internalType":"address","name":"token","type":"address"}],"name":"PublicTradingEnabled","type":"event"},{"anonymous":false,"inputs":[{"indexed":true,"internalType":"address","name":"token","type":"address"},{"indexed":true,"internalType":"address","name":"pool","type":"address"},{"indexed":false,"internalType":"uint256","name":"okbLocked","type":"uint256"},{"indexed":false,"internalType":"uint256","name":"tokensLocked","type":"uint256"}],"name":"TokenGraduated","type":"event"},{"inputs":[],"name":"GRADUATION_THRESHOLD","outputs":[{"internalType":"uint256","name":"","type":"uint256"}],"stateMutability":"view","type":"function"},{"inputs":[],"name":"LOCKED_LIQUIDITY_OKB","outputs":[{"internalType":"uint256","name":"","type":"uint256"}],"stateMutability":"view","type":"function"},{"inputs":[],"name":"LOCKED_LIQUIDITY_TOKENS","outputs":[{"internalType":"uint256","name":"","type":"uint256"}],"stateMutability":"view","type":"function"},{"inputs":[],"name":"MIN_LIQUIDITY_RATIO","outputs":[{"internalType":"uint256","name":"","type":"uint256"}],"stateMutability":"view","type":"function"},{"inputs":[],"name":"POOL_FEE","outputs":[{"internalType":"uint24","name":"","type":"uint24"}],"stateMutability":"view","type":"function"},{"inputs":[],"name":"QUICKSWAP_FACTORY","outputs":[{"internalType":"address","name":"","type":"address"}],"stateMutability":"view","type":"function"},{"inputs":[],"name":"QUICKSWAP_POSITION_MANAGER","outputs":[{"internalType":"address","name":"","type":"address"}],"stateMutability":"view","type":"function"},{"inputs":[{"internalType":"address","name":"token","type":"address"}],"name":"checkGraduation","outputs":[{"internalType":"bool","name":"canGraduate","type":"bool"},{"internalType":"uint256","name":"okbCollected","type":"uint256"}],"stateMutability":"view","type":"function"},{"inputs":[{"internalType":"address","name":"token","type":"address"}],"name":"enablePublicTrading","outputs":[],"stateMutability":"nonpayable","type":"function"},{"inputs":[{"internalType":"address","name":"token","type":"address"}],"name":"forceGraduation","outputs":[],"stateMutability":"nonpayable","type":"function"},{"inputs":[{"internalType":"address","name":"token","type":"address"}],"name":"getGraduationInfo","outputs":[{"components":[{"internalType":"bool","name":"graduated","type":"bool"},{"internalType":"bool","name":"publicTradingEnabled","type":"bool"},{"internalType":"uint256","name":"graduatedAt","type":"uint256"},{"internalType":"uint256","name":"okbLocked","type":"uint256"},{"internalType":"uint256","name":"tokensLocked","type":"uint256"},{"internalType":"address","name":"poolAddress","type":"address"},{"internalType":"uint256","name":"lpTokenId","type":"uint256"}],"internalType":"struct MarketGraduation.GraduationInfo","name":"","type":"tuple"}],"stateMutability":"view","type":"function"},{"inputs":[{"internalType":"address","name":"token","type":"address"}],"name":"getPoolAddress","outputs":[{"internalType":"address","name":"","type":"address"}],"stateMutability":"view","type":"function"},{"inputs":[{"internalType":"address","name":"token","type":"address"}],"name":"graduateToken","outputs":[],"stateMutability":"nonpayable","type":"function"},{"inputs":[{"internalType":"address","name":"","type":"address"}],"name":"graduationInfo","outputs":[{"internalType":"bool","name":"graduated","type":"bool"},{"internalType":"bool","name":"publicTradingEnabled","type":"bool"},{"internalType":"uint256","name":"graduatedAt","type":"uint256"},{"internalType":"uint256","name":"okbLocked","type":"uint256"},{"internalType":"uint256","name":"tokensLocked","type":"uint256"},{"internalType":"address","name":"poolAddress","type":"address"},{"internalType":"uint256","name":"lpTokenId","type":"uint256"}],"stateMutability":"view","type":"function"},{"inputs":[{"internalType":"address","name":"token","type":"address"}],"name":"isGraduated","outputs":[{"internalType":"bool","name":"","type":"bool"}],"stateMutability":"view","type":"function"},{"inputs":[{"internalType":"address","name":"token","type":"address"}],"name":"isPublicTradingEnabled","outputs":[{"internalType":"bool","name":"","type":"bool"}],"stateMutability":"view","type":"function"},{"inputs":[{"internalType":"address","name":"token","type":"address"}],"name":"listOnDEX","outputs":[{"internalType":"address","name":"poolAddress","type":"address"}],"stateMutability":"payable","type":"function"},{"inputs":[],"name":"owner","outputs":[{"internalType":"address","name":"","type":"address"}],"stateMutability":"view","type":"function"},{"inputs":[],"name":"registry","outputs":[{"internalType":"contract IRegistry","name":"","type":"address"}],"stateMutability":"view","type":"function"},{"inputs":[],"name":"renounceOwnership","outputs":[],"stateMutability":"nonpayable","type":"function"},{"inputs":[{"internalType":"address","name":"newOwner","type":"address"}],"name":"transferOwnership","outputs":[],"stateMutability":"nonpayable","type":"function"},{"stateMutability":"payable","type":"receive"}],"evm":{"bytecode":{"linkReferences":{},"object":"6080346100ca57601f6118c138819003918201601f19168301916001600160401b038311848410176100cf578084926020946040528339810103126100ca57516001600160a01b0390818116908190036100ca5733156100b15760005460018060a01b0319903382821617600055604051933391167f8be0079c531659141344cd1fd0a4f28419497f9722a3daafe3b4186f6b6457e0600080a36001805560025416176002556117db90816100e68239f35b604051631e4fbdf760e01b815260006004820152602490fd5b600080fd5b634e487b7160e01b600052604160045260246000fdfe608080604052600436101561001d575b50361561001b57600080fd5b005b600090813560e01c90816307eca003146113ce5750806310087fcc146113a85780631228cbee14611366578063235177c814611267578063304e02701461124b5780633ba7863f1461121c57806368a4c8b7146111da578063715018a6146111805780637b103999146111575780637dc0450f146108df57806387b6f507146107a8578063888f6de6146107695780638da5cb5b1461074257806397f548f7146104d4578063c9d88f2e146104a5578063d2154ecc146102b9578063dd1b9c4a1461029c578063ea14c1e414610253578063ed841fe3146101c9578063f2fde38b146101335763fcfc0c090361000f573461013057806003193601126101305760206040516804563918244f4000008152f35b80fd5b5034610130576020366003190112610130576004356001600160a01b03818116918290036101c5576101636113f1565b81156101ac57600054826bffffffffffffffffffffffff60a01b821617600055167f8be0079c531659141344cd1fd0a4f28419497f9722a3daafe3b4186f6b6457e0600080a380f35b604051631e4fbdf760e01b815260048101849052602490fd5b8280fd5b5034610130576020366003190112610130576001600160a01b03600435818116908190036101c5578260409160e0945260036020522090815491600181015491600282015460056003840154926004850154169301549360ff604051968181161515885260081c161515602087015260408601526060850152608084015260a083015260c0820152f35b5034610130576020366003190112610130576004356001600160a01b038116908190036102985760408260ff926020945260038452205460081c166040519015158152f35b5080fd5b50346101305780600319360112610130576020604051610bb88152f35b503461013057602080600319360112610298576004356001600160a01b0381811692918390036104a1576102eb6113f1565b60248282600254166040519283809263c187645360e01b82528860048301525afa801561049657859061045c575b6103239150611481565b8284526003825261033a60ff6040862054166116dd565b8284526003825260046040852001541615610424578183526003815260ff604084205460081c166103ee57813b156101c5576040516322a3148f60e21b81528390818160048183885af180156103e3576103cf575b508290526003905260408220805461ff0019166101001790557f0682872b45791f5ba979e24c66b70ba20ce9177586ed6b1d2835db43d7eaaf5b8280a280f35b6103d890611439565b6101c557823861038f565b6040513d84823e3d90fd5b6064906040519062461bcd60e51b82526004820152600f60248201526e105b1c9958591e48195b98589b1959608a1b6044820152fd5b6064906040519062461bcd60e51b82526004820152601160248201527009cdee840d8d2e6e8cac840dedc40888ab607b1b6044820152fd5b508281813d831161048f575b610472818361144d565b8101031261048b576104866103239161146f565b610319565b8480fd5b503d610468565b6040513d87823e3d90fd5b8380fd5b5034610130578060031936011261013057602060405173d2480162aa7f02ead7bf4c127465446150d584528152f35b50346101305760209081600319360112610130576004356001600160a01b03818116918290036101c55780835416331480156106d4575b1561069e5783602491600254166040519283809263c187645360e01b82528660048301525afa801561065d578390610668575b6105489150611481565b8082526003835261056060ff6040842054161561169d565b604051634447b6f360e11b8152816004820152604081602481305afa90811561065d578391610623575b50156105de577f5d5e32a9db9d7b2e8a648cbabb24e8b703a4581f3c2a8d7a888671cedc308ccf6040839483855260038152818520600160ff1982541617815560014291015584825191818352820152a380f35b60405162461bcd60e51b815260048101849052601860248201527f4e6f7420726561647920666f722067726164756174696f6e00000000000000006044820152606490fd5b90506040813d604011610655575b8161063e6040938361144d565b810103126101c55761064f9061146f565b3861058a565b3d9150610631565b6040513d85823e3d90fd5b508381813d8311610697575b61067e818361144d565b810103126101c5576106926105489161146f565b61053e565b503d610674565b60405162461bcd60e51b815260048101859052600e60248201526d139bdd08185d5d1a1bdc9a5e995960921b6044820152606490fd5b5060048482600254166040519283809263faac38ef60e01b82525afa90811561073757908291859161070a575b5016331461050b565b61072a9150863d8811610730575b610722818361144d565b8101906114bd565b38610701565b503d610718565b6040513d86823e3d90fd5b5034610130578060031936011261013057546040516001600160a01b039091168152602090f35b503461013057602036600319011261013057600435906001600160a01b038216820361013057604061079a836114dc565b825191151582526020820152f35b503461013057806020806003193601126108dc576004356001600160a01b0381811692918390036108d057816024916107df6113f1565b600254166040519283809263c187645360e01b82528760048301525afa908115610737578491610878575b507f5d5e32a9db9d7b2e8a648cbabb24e8b703a4581f3c2a8d7a888671cedc308ccf91610838604092611481565b8385526003815261084f60ff83872054161561169d565b83855260038152818520600160ff1982541617815560014291015584825191818352820152a380f35b90508181813d83116108d5575b61088f818361144d565b810103126108d0577f5d5e32a9db9d7b2e8a648cbabb24e8b703a4581f3c2a8d7a888671cedc308ccf916108386108c760409361146f565b9250509161080a565b505050fd5b503d610885565b50fd5b506020366003190112610130576004356001600160a01b03811681036102985760026001541461114557600260018190555460405163c187645360e01b81526001600160a01b0383811660048301529091169190602081602481865afa801561073757849061110a575b6109539150611481565b6001600160a01b0381168352600360205260408320546109759060ff166116dd565b6001600160a01b03818116845260036020526040842060040154166110d45734156110c557345b6801f399b1438a100000811061108d5760206004936040519485809263d908f78d60e01b82525afa92831561073757849361106c575b506001600160a01b038316801561103857803b1561048b57604051630d0e30db60e41b8152858160048186865af18015610f5a57611025575b506040516370a0823160e01b81523060048201526020816024816001600160a01b0388165afa8015610f5a578690610fe8575b6aa56fa5b99019a5c8000000915010610fad5760405163095ea7b360e01b80825273f6ad3ccf71abb3e12becf6b3d2a74c963859adcd60048301526aa56fa5b99019a5c80000006024830152906020816044818a6001600160a01b038a165af18015610fa257610f65575b5060405190815273f6ad3ccf71abb3e12becf6b3d2a74c963859adcd600482015282602482015260208160448189865af18015610f5a57610f1d575b506001600160a01b03831610928315610f165782935b15610f0e57935b600160601b606083901b831584820483141715610efa576aa56fa5b99019a5c800000090048060601b918183041490151715610ee6576001600160a01b0390610b4a90611719565b6040516309f56ab160e11b81526001600160a01b03808816600483015288166024820152610bb8604482015291166064820152936020856084818573f6ad3ccf71abb3e12becf6b3d2a74c963859adcd5af19485156103e3578295610ec5575b506001600160a01b0384811690821614958615610ebe576aa56fa5b99019a5c8000000905b8715610eac5784925b8815610ea5576aa56fa5b99019a5c8000000985b89605f810204605f148a151715610e7f5715610e935785915b82605f810204605f1483151715610e7f5761012c42014211610e7f57604051998a61016081011067ffffffffffffffff6101608d011117610e6957606495605f95620d89b460808e89968b98610160830160405260018060a01b0316825260018060a01b03166020820152610bb86040820152620d89b3196060820152015260a08d015260c08c0152020460e089015202046101008601523061012086015261012c420161014086015261014060405195634418b22b60e11b875260018060a01b03815116600488015260018060a01b03602082015116602488015262ffffff6040820151166044880152606081015160020b6064880152608081015160020b608488015260a081015160a488015260c081015160c488015260e081015160e488015261010081015161010488015260018060a01b03610120820151166101248801520151610144860152608085610164818473f6ad3ccf71abb3e12becf6b3d2a74c963859adcd5af1948515610e5c578195610e0a575b506001600160a01b03928316808252600360208181526040938490206004810180546001600160a01b031916989097169788179096556005860188905560028601949094556aa56fa5b99019a5c800000094019390935551938452927f426f0c0a2e698e1e1dc15965aacaec6b35a143139f5ad496aff205755eefb805908490a260018055604051908152f35b9094506080813d8211610e54575b81610e256080938361144d565b8101031261048b57602081519101516fffffffffffffffffffffffffffffffff81160361048b57936020610d7d565b3d9150610e18565b50604051903d90823e3d90fd5b634e487b7160e01b600052604160045260246000fd5b634e487b7160e01b86526011600452602486fd5b6aa56fa5b99019a5c800000091610c05565b8598610bec565b6aa56fa5b99019a5c800000092610bd8565b8390610bcf565b610edf91955060203d60201161073057610722818361144d565b9338610baa565b634e487b7160e01b82526011600452602482fd5b634e487b7160e01b83526011600452602483fd5b508193610b02565b8093610afb565b6020813d602011610f52575b81610f366020938361144d565b81010312610f4e57610f479061146f565b5038610ae5565b8580fd5b3d9150610f29565b6040513d88823e3d90fd5b6020813d602011610f9a575b81610f7e6020938361144d565b81010312610f9657610f8f9061146f565b5038610aa9565b8680fd5b3d9150610f71565b6040513d89823e3d90fd5b60405162461bcd60e51b8152602060048201526013602482015272496e73756666696369656e7420746f6b656e7360681b6044820152606490fd5b506020813d60201161101d575b816110026020938361144d565b81010312610f4e576aa56fa5b99019a5c80000009051610a3e565b3d9150610ff5565b61103190959195611439565b9338610a0b565b60405162461bcd60e51b815260206004820152600c60248201526b15d3d2d0881b9bdd081cd95d60a21b6044820152606490fd5b61108691935060203d60201161073057610722818361144d565b91386109d2565b60405162461bcd60e51b815260206004820152601060248201526f24b739bab33334b1b4b2b73a1027a5a160811b6044820152606490fd5b6801f399b1438a10000061099c565b60405162461bcd60e51b815260206004820152600e60248201526d105b1c9958591e481b1a5cdd195960921b6044820152606490fd5b506020813d60201161113d575b816111246020938361144d565b810103126104a1576111386109539161146f565b610949565b3d9150611117565b604051633ee5aeb560e01b8152600490fd5b50346101305780600319360112610130576002546040516001600160a01b039091168152602090f35b50346101305780600319360112610130576111996113f1565b80546001600160a01b03198116825581906001600160a01b03167f8be0079c531659141344cd1fd0a4f28419497f9722a3daafe3b4186f6b6457e08280a380f35b5034610130576020366003190112610130576004356001600160a01b038116908190036102985760408260ff9260209452600384522054166040519015158152f35b5034610130578060031936011261013057602060405173f6ad3ccf71abb3e12becf6b3d2a74c963859adcd8152f35b5034610130578060031936011261013057602060405160648152f35b5034610130576020366003190112610130576001600160a01b03600435818116908190036101c5578260409160e09460c084516112a38161141d565b82815282602082015282868201528260608201528260808201528260a08201520152815260036020522090604051906112db8261141d565b82549260ff841615159384845260ff602085019160081c1615158152600182015460408501908152600283015490606086019182526003840154926080870193845260c06005876004880154169660a08a01978852015497019687526040519788525115156020880152516040870152516060860152516080850152511660a08301525160c0820152f35b5034610130576020366003190112610130576001600160a01b03600435818116908190036101c557604083600492602095526003855220015416604051908152f35b503461013057806003193601126101305760206040516aa56fa5b99019a5c80000008152f35b905034610298578160031936011261029857806801f399b1438a10000060209252f35b6000546001600160a01b0316330361140557565b60405163118cdaa760e01b8152336004820152602490fd5b60e0810190811067ffffffffffffffff821117610e6957604052565b67ffffffffffffffff8111610e6957604052565b90601f8019910116810190811067ffffffffffffffff821117610e6957604052565b5190811515820361147c57565b600080fd5b1561148857565b60405162461bcd60e51b815260206004820152600d60248201526c24b73b30b634b2103a37b5b2b760991b6044820152606490fd5b9081602091031261147c57516001600160a01b038116810361147c5790565b6002546040805163c187645360e01b81526001600160a01b0393841660048201819052602095949293909216908581602481855afa80156116925760009061165c575b6115299150611481565b816000526003855260ff83600020541661164f578460049184519283809263faac38ef60e01b82525afa90811561164457600091611627575b508251908582019263047f8bc160e01b8452602483015260248252606082019067ffffffffffffffff9383831085841117610e69576000938493875251915afa913d1561161b573d918211610e695751906115c6601f8201601f191686018361144d565b8152600081943d92013e5b156116135760c08280518101031261147c5761160160c06060840151936115fa60a0820161146f565b500161146f565b506804563918244f4000008210159190565b600091508190565b505091506060916115d1565b61163e9150853d871161073057610722818361144d565b38611562565b83513d6000823e3d90fd5b5050509050600090600090565b8682813d831161168b575b611671818361144d565b8101031261013057506116866115299161146f565b61151f565b503d611667565b84513d6000823e3d90fd5b156116a457565b60405162461bcd60e51b8152602060048201526011602482015270105b1c9958591e4819dc98591d585d1959607a1b6044820152606490fd5b156116e457565b60405162461bcd60e51b815260206004820152600d60248201526c139bdd0819dc98591d585d1959609a1b6044820152606490fd5b801561179f57600180820180831161178957811c9082905b83831061173e5750505090565b919250908280156117745780830490810180911161175f57811c9190611731565b60246000634e487b7160e01b81526011600452fd5b60246000634e487b7160e01b81526012600452fd5b634e487b7160e01b600052601160045260246000fd5b5060009056fea264697066735822122082ab2d126a72cd47ba3a3e0ba05d31b31fe24e5853e3c8835a809335f4b04af164736f6c63430008140033","opcodes":"PUSH1 0x80 CALLVALUE PUSH2 0xCA JUMPI PUSH1 0x1F PUSH2 0x18C1 CODESIZE DUP2 SWAP1 SUB SWAP2 DUP3 ADD PUSH1 0x1F NOT AND DUP4 ADD SWAP2 PUSH1 0x1 PUSH1 0x1 PUSH1 0x40 SHL SUB DUP4 GT DUP5 DUP5 LT OR PUSH2 0xCF JUMPI DUP1 DUP5 SWAP3 PUSH1 0x20 SWAP5 PUSH1 0x40 MSTORE DUP4 CODECOPY DUP2 ADD SUB SLT PUSH2 0xCA JUMPI MLOAD PUSH1 0x1 PUSH1 0x1 PUSH1 0xA0 SHL SUB SWAP1 DUP2 DUP2 AND SWAP1 DUP2 SWAP1 SUB PUSH2 0xCA JUMPI CALLER ISZERO PUSH2 0xB1 JUMPI PUSH1 0x0 SLOAD PUSH1 0x1 DUP1 PUSH1 0xA0 SHL SUB NOT SWAP1 CALLER DUP3 DUP3 AND OR PUSH1 0x0 SSTORE PUSH1 0x40 MLOAD SWAP4 CALLER SWAP2 AND PUSH32 0x8BE0079C531659141344CD1FD0A4F28419497F9722A3DAAFE3B4186F6B6457E0 PUSH1 0x0 DUP1 LOG3 PUSH1 0x1 DUP1 SSTORE PUSH1 0x2 SLOAD AND OR PUSH1 0x2 SSTORE PUSH2 0x17DB SWAP1 DUP2 PUSH2 0xE6 DUP3 CODECOPY RETURN JUMPDEST PUSH1 0x40 MLOAD PUSH4 0x1E4FBDF7 PUSH1 0xE0 SHL DUP2 MSTORE PUSH1 0x0 PUSH1 0x4 DUP3 ADD MSTORE PUSH1 0x24 SWAP1 REVERT JUMPDEST PUSH1 0x0 DUP1 REVERT JUMPDEST PUSH4 0x4E487B71 PUSH1 0xE0 SHL PUSH1 0x0 MSTORE PUSH1 0x41 PUSH1 0x4 MSTORE PUSH1 0x24 PUSH1 0x0 REVERT INVALID PUSH1 0x80 DUP1 PUSH1 0x40 MSTORE PUSH1 0x4 CALLDATASIZE LT ISZERO PUSH2 0x1D JUMPI JUMPDEST POP CALLDATASIZE ISZERO PUSH2 0x1B JUMPI PUSH1 0x0 DUP1 REVERT JUMPDEST STOP JUMPDEST PUSH1 0x0 SWAP1 DUP2 CALLDATALOAD PUSH1 0xE0 SHR SWAP1 DUP2 PUSH4 0x7ECA003 EQ PUSH2 0x13CE JUMPI POP DUP1 PUSH4 0x10087FCC EQ PUSH2 0x13A8 JUMPI DUP1 PUSH4 0x1228CBEE EQ PUSH2 0x1366 JUMPI DUP1 PUSH4 0x235177C8 EQ PUSH2 0x1267 JUMPI DUP1 PUSH4 0x304E0270 EQ PUSH2 0x124B JUMPI DUP1 PUSH4 0x3BA7863F EQ PUSH2 0x121C JUMPI DUP1 PUSH4 0x68A4C8B7 EQ PUSH2 0x11DA JUMPI DUP1 PUSH4 0x715018A6 EQ PUSH2 0x1180 JUMPI DUP1 PUSH4 0x7B103999 EQ PUSH2 0x1157 JUMPI DUP1 PUSH4 0x7DC0450F EQ PUSH2 0x8DF JUMPI DUP1 PUSH4 0x87B6F507 EQ PUSH2 0x7A8 JUMPI DUP1 PUSH4 0x888F6DE6 EQ PUSH2 0x769 JUMPI DUP1 PUSH4 0x8DA5CB5B EQ PUSH2 0x742 JUMPI DUP1 PUSH4 0x97F548F7 EQ PUSH2 0x4D4 JUMPI DUP1 PUSH4 0xC9D88F2E EQ PUSH2 0x4A5 JUMPI DUP1 PUSH4 0xD2154ECC EQ PUSH2 0x2B9 JUMPI DUP1 PUSH4 0xDD1B9C4A EQ PUSH2 0x29C JUMPI DUP1 PUSH4 0xEA14C1E4 EQ PUSH2 0x253 JUMPI DUP1 PUSH4 0xED841FE3 EQ PUSH2 0x1C9 JUMPI DUP1 PUSH4 0xF2FDE38B EQ PUSH2 0x133 JUMPI PUSH4 0xFCFC0C09 SUB PUSH2 0xF JUMPI CALLVALUE PUSH2 0x130 JUMPI DUP1 PUSH1 0x3 NOT CALLDATASIZE ADD SLT PUSH2 0x130 JUMPI PUSH1 0x20 PUSH1 0x40 MLOAD PUSH9 0x4563918244F400000 DUP2 MSTORE RETURN JUMPDEST DUP1 REVERT JUMPDEST POP CALLVALUE PUSH2 0x130 JUMPI PUSH1 0x20 CALLDATASIZE PUSH1 0x3 NOT ADD SLT PUSH2 0x130 JUMPI PUSH1 0x4 CALLDATALOAD PUSH1 0x1 PUSH1 0x1 PUSH1 0xA0 SHL SUB DUP2 DUP2 AND SWAP2 DUP3 SWAP1 SUB PUSH2 0x1C5 JUMPI PUSH2 0x163 PUSH2 0x13F1 JUMP JUMPDEST DUP2 ISZERO PUSH2 0x1AC JUMPI PUSH1 0x0 SLOAD DUP3 PUSH12 0xFFFFFFFFFFFFFFFFFFFFFFFF PUSH1 0xA0 SHL DUP3 AND OR PUSH1 0x0 SSTORE AND PUSH32 0x8BE0079C531659141344CD1FD0A4F28419497F9722A3DAAFE3B4186F6B6457E0 PUSH1 0x0 DUP1 LOG3 DUP1 RETURN JUMPDEST PUSH1 0x40 MLOAD PUSH4 0x1E4FBDF7 PUSH1 0xE0 SHL DUP2 MSTORE PUSH1 0x4 DUP2 ADD DUP5 SWAP1 MSTORE PUSH1 0x24 SWAP1 REVERT JUMPDEST DUP3 DUP1 REVERT JUMPDEST POP CALLVALUE PUSH2 0x130 JUMPI PUSH1 0x20 CALLDATASIZE PUSH1 0x3 NOT ADD SLT PUSH2 0x130 JUMPI PUSH1 0x1 PUSH1 0x1 PUSH1 0xA0 SHL SUB PUSH1 0x4 CALLDATALOAD DUP2 DUP2 AND SWAP1 DUP2 SWAP1 SUB PUSH2 0x1C5 JUMPI DUP3 PUSH1 0x40 SWAP2 PUSH1 0xE0 SWAP5 MSTORE PUSH1 0x3 PUSH1 0x20 MSTORE KECCAK256 SWAP1 DUP2 SLOAD SWAP2 PUSH1 0x1 DUP2 ADD SLOAD SWAP2 PUSH1 0x2 DUP3 ADD SLOAD PUSH1 0x5 PUSH1 0x3 DUP5 ADD SLOAD SWAP3 PUSH1 0x4 DUP6 ADD SLOAD AND SWAP4 ADD SLOAD SWAP4 PUSH1 0xFF PUSH1 0x40 MLOAD SWAP7 DUP2 DUP2 AND ISZERO ISZERO DUP9 MSTORE PUSH1 0x8 SHR AND ISZERO ISZERO PUSH1 0x20 DUP8 ADD MSTORE PUSH1 0x40 DUP7 ADD MSTORE PUSH1 0x60 DUP6 ADD MSTORE PUSH1 0x80 DUP5 ADD MSTORE PUSH1 0xA0 DUP4 ADD MSTORE PUSH1 0xC0 DUP3 ADD MSTORE RETURN JUMPDEST POP CALLVALUE PUSH2 0x130 JUMPI PUSH1 0x20 CALLDATASIZE PUSH1 0x3 NOT ADD SLT PUSH2 0x130 JUMPI PUSH1 0x4 CALLDATALOAD PUSH1 0x1 PUSH1 0x1 PUSH1 0xA0 SHL SUB DUP2 AND SWAP1 DUP2 SWAP1 SUB PUSH2 0x298 JUMPI PUSH1 0x40 DUP3 PUSH1 0xFF SWAP3 PUSH1 0x20 SWAP5 MSTORE PUSH1 0x3 DUP5 MSTORE KECCAK256 SLOAD PUSH1 0x8 SHR AND PUSH1 0x40 MLOAD SWAP1 ISZERO ISZERO DUP2 MSTORE RETURN JUMPDEST POP DUP1 REVERT JUMPDEST POP CALLVALUE PUSH2 0x130 JUMPI DUP1 PUSH1 0x3 NOT CALLDATASIZE ADD SLT PUSH2 0x130 JUMPI PUSH1 0x20 PUSH1 0x40 MLOAD PUSH2 0xBB8 DUP2 MSTORE RETURN JUMPDEST POP CALLVALUE PUSH2 0x130 JUMPI PUSH1 0x20 DUP1 PUSH1 0x3 NOT CALLDATASIZE ADD SLT PUSH2 0x298 JUMPI PUSH1 0x4 CALLDATALOAD PUSH1 0x1 PUSH1 0x1 PUSH1 0xA0 SHL SUB DUP2 DUP2 AND SWAP3 SWAP2 DUP4 SWAP1 SUB PUSH2 0x4A1 JUMPI PUSH2 0x2EB PUSH2 0x13F1 JUMP JUMPDEST PUSH1 0x24 DUP3 DUP3 PUSH1 0x2 SLOAD AND PUSH1 0x40 MLOAD SWAP3 DUP4 DUP1 SWAP3 PUSH4 0xC1876453 PUSH1 0xE0 SHL DUP3 MSTORE DUP9 PUSH1 0x4 DUP4 ADD MSTORE GAS STATICCALL DUP1 ISZERO PUSH2 0x496 JUMPI DUP6 SWAP1 PUSH2 0x45C JUMPI JUMPDEST PUSH2 0x323 SWAP2 POP PUSH2 0x1481 JUMP JUMPDEST DUP3 DUP5 MSTORE PUSH1 0x3 DUP3 MSTORE PUSH2 0x33A PUSH1 0xFF PUSH1 0x40 DUP7 KECCAK256 SLOAD AND PUSH2 0x16DD JUMP JUMPDEST DUP3 DUP5 MSTORE PUSH1 0x3 DUP3 MSTORE PUSH1 0x4 PUSH1 0x40 DUP6 KECCAK256 ADD SLOAD AND ISZERO PUSH2 0x424 JUMPI DUP2 DUP4 MSTORE PUSH1 0x3 DUP2 MSTORE PUSH1 0xFF PUSH1 0x40 DUP5 KECCAK256 SLOAD PUSH1 0x8 SHR AND PUSH2 0x3EE JUMPI DUP2 EXTCODESIZE ISZERO PUSH2 0x1C5 JUMPI PUSH1 0x40 MLOAD PUSH4 0x22A3148F PUSH1 0xE2 SHL DUP2 MSTORE DUP4 SWAP1 DUP2 DUP2 PUSH1 0x4 DUP2 DUP4 DUP9 GAS CALL DUP1 ISZERO PUSH2 0x3E3 JUMPI PUSH2 0x3CF JUMPI JUMPDEST POP DUP3 SWAP1 MSTORE PUSH1 0x3 SWAP1 MSTORE PUSH1 0x40 DUP3 KECCAK256 DUP1 SLOAD PUSH2 0xFF00 NOT AND PUSH2 0x100 OR SWAP1 SSTORE PUSH32 0x682872B45791F5BA979E24C66B70BA20CE9177586ED6B1D2835DB43D7EAAF5B DUP3 DUP1 LOG2 DUP1 RETURN JUMPDEST PUSH2 0x3D8 SWAP1 PUSH2 0x1439 JUMP JUMPDEST PUSH2 0x1C5 JUMPI DUP3 CODESIZE PUSH2 0x38F JUMP JUMPDEST PUSH1 0x40 MLOAD RETURNDATASIZE DUP5 DUP3 RETURNDATACOPY RETURNDATASIZE SWAP1 REVERT JUMPDEST PUSH1 0x64 SWAP1 PUSH1 0x40 MLOAD SWAP1 PUSH3 0x461BCD PUSH1 0xE5 SHL DUP3 MSTORE PUSH1 0x4 DUP3 ADD MSTORE PUSH1 0xF PUSH1 0x24 DUP3 ADD MSTORE PUSH15 0x105B1C9958591E48195B98589B1959 PUSH1 0x8A SHL PUSH1 0x44 DUP3 ADD MSTORE REVERT JUMPDEST PUSH1 0x64 SWAP1 PUSH1 0x40 MLOAD SWAP1 PUSH3 0x461BCD PUSH1 0xE5 SHL DUP3 MSTORE PUSH1 0x4 DUP3 ADD MSTORE PUSH1 0x11 PUSH1 0x24 DUP3 ADD MSTORE PUSH17 0x9CDEE840D8D2E6E8CAC840DEDC40888AB PUSH1 0x7B SHL PUSH1 0x44 DUP3 ADD MSTORE REVERT JUMPDEST POP DUP3 DUP2 DUP2 RETURNDATASIZE DUP4 GT PUSH2 0x48F JUMPI JUMPDEST PUSH2 0x472 DUP2 DUP4 PUSH2 0x144D JUMP JUMPDEST DUP2 ADD SUB SLT PUSH2 0x48B JUMPI PUSH2 0x486 PUSH2 0x323 SWAP2 PUSH2 0x146F JUMP JUMPDEST PUSH2 0x319 JUMP JUMPDEST DUP5 DUP1 REVERT JUMPDEST POP RETURNDATASIZE PUSH2 0x468 JUMP JUMPDEST PUSH1 0x40 MLOAD RETURNDATASIZE DUP8 DUP3 RETURNDATACOPY RETURNDATASIZE SWAP1 REVERT JUMPDEST DUP4 DUP1 REVERT JUMPDEST POP CALLVALUE PUSH2 0x130 JUMPI DUP1 PUSH1 0x3 NOT CALLDATASIZE ADD SLT PUSH2 0x130 JUMPI PUSH1 0x20 PUSH1 0x40 MLOAD PUSH20 0xD2480162AA7F02EAD7BF4C127465446150D58452 DUP2 MSTORE RETURN JUMPDEST POP CALLVALUE PUSH2 0x130 JUMPI PUSH1 0x20 SWAP1 DUP2 PUSH1 0x3 NOT CALLDATASIZE ADD SLT PUSH2 0x130 JUMPI PUSH1 0x4 CALLDATALOAD PUSH1 0x1 PUSH1 0x1 PUSH1 0xA0 SHL SUB DUP2 DUP2 AND SWAP2 DUP3 SWAP1 SUB PUSH2 0x1C5 JUMPI DUP1 DUP4 SLOAD AND CALLER EQ DUP1 ISZERO PUSH2 0x6D4 JUMPI JUMPDEST ISZERO PUSH2 0x69E JUMPI DUP4 PUSH1 0x24 SWAP2 PUSH1 0x2 SLOAD AND PUSH1 0x40 MLOAD SWAP3 DUP4 DUP1 SWAP3 PUSH4 0xC1876453 PUSH1 0xE0 SHL DUP3 MSTORE DUP7 PUSH1 0x4 DUP4 ADD MSTORE GAS STATICCALL DUP1 ISZERO PUSH2 0x65D JUMPI DUP4 SWAP1 PUSH2 0x668 JUMPI JUMPDEST PUSH2 0x548 SWAP2 POP PUSH2 0x1481 JUMP JUMPDEST DUP1 DUP3 MSTORE PUSH1 0x3 DUP4 MSTORE PUSH2 0x560 PUSH1 0xFF PUSH1 0x40 DUP5 KECCAK256 SLOAD AND ISZERO PUSH2 0x169D JUMP JUMPDEST PUSH1 0x40 MLOAD PUSH4 0x4447B6F3 PUSH1 0xE1 SHL DUP2 MSTORE DUP2 PUSH1 0x4 DUP3 ADD MSTORE PUSH1 0x40 DUP2 PUSH1 0x24 DUP2 ADDRESS GAS STATICCALL SWAP1 DUP2 ISZERO PUSH2 0x65D JUMPI DUP4 SWAP2 PUSH2 0x623 JUMPI JUMPDEST POP ISZERO PUSH2 0x5DE JUMPI PUSH32 0x5D5E32A9DB9D7B2E8A648CBABB24E8B703A4581F3C2A8D7A888671CEDC308CCF PUSH1 0x40 DUP4 SWAP5 DUP4 DUP6 MSTORE PUSH1 0x3 DUP2 MSTORE DUP2 DUP6 KECCAK256 PUSH1 0x1 PUSH1 0xFF NOT DUP3 SLOAD AND OR DUP2 SSTORE PUSH1 0x1 TIMESTAMP SWAP2 ADD SSTORE DUP5 DUP3 MLOAD SWAP2 DUP2 DUP4 MSTORE DUP3 ADD MSTORE LOG3 DUP1 RETURN JUMPDEST PUSH1 0x40 MLOAD PUSH3 0x461BCD PUSH1 0xE5 SHL DUP2 MSTORE PUSH1 0x4 DUP2 ADD DUP5 SWAP1 MSTORE PUSH1 0x18 PUSH1 0x24 DUP3 ADD MSTORE PUSH32 0x4E6F7420726561647920666F722067726164756174696F6E0000000000000000 PUSH1 0x44 DUP3 ADD MSTORE PUSH1 0x64 SWAP1 REVERT JUMPDEST SWAP1 POP PUSH1 0x40 DUP2 RETURNDATASIZE PUSH1 0x40 GT PUSH2 0x655 JUMPI JUMPDEST DUP2 PUSH2 0x63E PUSH1 0x40 SWAP4 DUP4 PUSH2 0x144D JUMP JUMPDEST DUP2 ADD SUB SLT PUSH2 0x1C5 JUMPI PUSH2 0x64F SWAP1 PUSH2 0x146F JUMP JUMPDEST CODESIZE PUSH2 0x58A JUMP JUMPDEST RETURNDATASIZE SWAP2 POP PUSH2 0x631 JUMP JUMPDEST PUSH1 0x40 MLOAD RETURNDATASIZE DUP6 DUP3 RETURNDATACOPY RETURNDATASIZE SWAP1 REVERT JUMPDEST POP DUP4 DUP2 DUP2 RETURNDATASIZE DUP4 GT PUSH2 0x697 JUMPI JUMPDEST PUSH2 0x67E DUP2 DUP4 PUSH2 0x144D JUMP JUMPDEST DUP2 ADD SUB SLT PUSH2 0x1C5 JUMPI PUSH2 0x692 PUSH2 0x548 SWAP2 PUSH2 0x146F JUMP JUMPDEST PUSH2 0x53E JUMP JUMPDEST POP RETURNDATASIZE PUSH2 0x674 JUMP JUMPDEST PUSH1 0x40 MLOAD PUSH3 0x461BCD PUSH1 0xE5 SHL DUP2 MSTORE PUSH1 0x4 DUP2 ADD DUP6 SWAP1 MSTORE PUSH1 0xE PUSH1 0x24 DUP3 ADD MSTORE PUSH14 0x139BDD08185D5D1A1BDC9A5E9959 PUSH1 0x92 SHL PUSH1 0x44 DUP3 ADD MSTORE PUSH1 0x64 SWAP1 REVERT JUMPDEST POP PUSH1 0x4 DUP5 DUP3 PUSH1 0x2 SLOAD AND PUSH1 0x40 MLOAD SWAP3 DUP4 DUP1 SWAP3 PUSH4 0xFAAC38EF PUSH1 0xE0 SHL DUP3 MSTORE GAS STATICCALL SWAP1 DUP2 ISZERO PUSH2 0x737 JUMPI SWAP1 DUP3 SWAP2 DUP6 SWAP2 PUSH2 0x70A JUMPI JUMPDEST POP AND CALLER EQ PUSH2 0x50B JUMP JUMPDEST PUSH2 0x72A SWAP2 POP DUP7 RETURNDATASIZE DUP9 GT PUSH2 0x730 JUMPI JUMPDEST PUSH2 0x722 DUP2 DUP4 PUSH2 0x144D JUMP JUMPDEST DUP2 ADD SWAP1 PUSH2 0x14BD JUMP JUMPDEST CODESIZE PUSH2 0x701 JUMP JUMPDEST POP RETURNDATASIZE PUSH2 0x718 JUMP JUMPDEST PUSH1 0x40 MLOAD RETURNDATASIZE DUP7 DUP3 RETURNDATACOPY RETURNDATASIZE SWAP1 REVERT JUMPDEST POP CALLVALUE PUSH2 0x130 JUMPI DUP1 PUSH1 0x3 NOT CALLDATASIZE ADD SLT PUSH2 0x130 JUMPI SLOAD PUSH1 0x40 MLOAD PUSH1 0x1 PUSH1 0x1 PUSH1 0xA0 SHL SUB SWAP1 SWAP2 AND DUP2 MSTORE PUSH1 0x20 SWAP1 RETURN JUMPDEST POP CALLVALUE PUSH2 0x130 JUMPI PUSH1 0x20 CALLDATASIZE PUSH1 0x3 NOT ADD SLT PUSH2 0x130 JUMPI PUSH1 0x4 CALLDATALOAD SWAP1 PUSH1 0x1 PUSH1 0x1 PUSH1 0xA0 SHL SUB DUP3 AND DUP3 SUB PUSH2 0x130 JUMPI PUSH1 0x40 PUSH2 0x79A DUP4 PUSH2 0x14DC JUMP JUMPDEST DUP3 MLOAD SWAP2 ISZERO ISZERO DUP3 MSTORE PUSH1 0x20 DUP3 ADD MSTORE RETURN JUMPDEST POP CALLVALUE PUSH2 0x130 JUMPI DUP1 PUSH1 0x20 DUP1 PUSH1 0x3 NOT CALLDATASIZE ADD SLT PUSH2 0x8DC JUMPI PUSH1 0x4 CALLDATALOAD PUSH1 0x1 PUSH1 0x1 PUSH1 0xA0 SHL SUB DUP2 DUP2 AND SWAP3 SWAP2 DUP4 SWAP1 SUB PUSH2 0x8D0 JUMPI DUP2 PUSH1 0x24 SWAP2 PUSH2 0x7DF PUSH2 0x13F1 JUMP JUMPDEST PUSH1 0x2 SLOAD AND PUSH1 0x40 MLOAD SWAP3 DUP4 DUP1 SWAP3 PUSH4 0xC1876453 PUSH1 0xE0 SHL DUP3 MSTORE DUP8 PUSH1 0x4 DUP4 ADD MSTORE GAS STATICCALL SWAP1 DUP2 ISZERO PUSH2 0x737 JUMPI DUP5 SWAP2 PUSH2 0x878 JUMPI JUMPDEST POP PUSH32 0x5D5E32A9DB9D7B2E8A648CBABB24E8B703A4581F3C2A8D7A888671CEDC308CCF SWAP2 PUSH2 0x838 PUSH1 0x40 SWAP3 PUSH2 0x1481 JUMP JUMPDEST DUP4 DUP6 MSTORE PUSH1 0x3 DUP2 MSTORE PUSH2 0x84F PUSH1 0xFF DUP4 DUP8 KECCAK256 SLOAD AND ISZERO PUSH2 0x169D JUMP JUMPDEST DUP4 DUP6 MSTORE PUSH1 0x3 DUP2 MSTORE DUP2 DUP6 KECCAK256 PUSH1 0x1 PUSH1 0xFF NOT DUP3 SLOAD AND OR DUP2 SSTORE PUSH1 0x1 TIMESTAMP SWAP2 ADD SSTORE DUP5 DUP3 MLOAD SWAP2 DUP2 DUP4 MSTORE DUP3 ADD MSTORE LOG3 DUP1 RETURN JUMPDEST SWAP1 POP DUP2 DUP2 DUP2 RETURNDATASIZE DUP4 GT PUSH2 0x8D5 JUMPI JUMPDEST PUSH2 0x88F DUP2 DUP4 PUSH2 0x144D JUMP JUMPDEST DUP2 ADD SUB SLT PUSH2 0x8D0 JUMPI PUSH32 0x5D5E32A9DB9D7B2E8A648CBABB24E8B703A4581F3C2A8D7A888671CEDC308CCF SWAP2 PUSH2 0x838 PUSH2 0x8C7 PUSH1 0x40 SWAP4 PUSH2 0x146F JUMP JUMPDEST SWAP3 POP POP SWAP2 PUSH2 0x80A JUMP JUMPDEST POP POP POP REVERT JUMPDEST POP RETURNDATASIZE PUSH2 0x885 JUMP JUMPDEST POP REVERT JUMPDEST POP PUSH1 0x20 CALLDATASIZE PUSH1 0x3 NOT ADD SLT PUSH2 0x130 JUMPI PUSH1 0x4 CALLDATALOAD PUSH1 0x1 PUSH1 0x1 PUSH1 0xA0 SHL SUB DUP2 AND DUP2 SUB PUSH2 0x298 JUMPI PUSH1 0x2 PUSH1 0x1 SLOAD EQ PUSH2 0x1145 JUMPI PUSH1 0x2 PUSH1 0x1 DUP2 SWAP1 SSTORE SLOAD PUSH1 0x40 MLOAD PUSH4 0xC1876453 PUSH1 0xE0 SHL DUP2 MSTORE PUSH1 0x1 PUSH1 0x1 PUSH1 0xA0 SHL SUB DUP4 DUP2 AND PUSH1 0x4 DUP4 ADD MSTORE SWAP1 SWAP2 AND SWAP2 SWAP1 PUSH1 0x20 DUP2 PUSH1 0x24 DUP2 DUP7 GAS STATICCALL DUP1 ISZERO PUSH2 0x737 JUMPI DUP5 SWAP1 PUSH2 0x110A JUMPI JUMPDEST PUSH2 0x953 SWAP2 POP PUSH2 0x1481 JUMP JUMPDEST PUSH1 0x1 PUSH1 0x1 PUSH1 0xA0 SHL SUB DUP2 AND DUP4 MSTORE PUSH1 0x3 PUSH1 0x20 MSTORE PUSH1 0x40 DUP4 KECCAK256 SLOAD PUSH2 0x975 SWAP1 PUSH1 0xFF AND PUSH2 0x16DD JUMP JUMPDEST PUSH1 0x1 PUSH1 0x1 PUSH1 0xA0 SHL SUB DUP2 DUP2 AND DUP5 MSTORE PUSH1 0x3 PUSH1 0x20 MSTORE PUSH1 0x40 DUP5 KECCAK256 PUSH1 0x4 ADD SLOAD AND PUSH2 0x10D4 JUMPI CALLVALUE ISZERO PUSH2 0x10C5 JUMPI CALLVALUE JUMPDEST PUSH9 0x1F399B1438A100000 DUP2 LT PUSH2 0x108D JUMPI PUSH1 0x20 PUSH1 0x4 SWAP4 PUSH1 0x40 MLOAD SWAP5 DUP6 DUP1 SWAP3 PUSH4 0xD908F78D PUSH1 0xE0 SHL DUP3 MSTORE GAS STATICCALL SWAP3 DUP4 ISZERO PUSH2 0x737 JUMPI DUP5 SWAP4 PUSH2 0x106C JUMPI JUMPDEST POP PUSH1 0x1 PUSH1 0x1 PUSH1 0xA0 SHL SUB DUP4 AND DUP1 ISZERO PUSH2 0x1038 JUMPI DUP1 EXTCODESIZE ISZERO PUSH2 0x48B JUMPI PUSH1 0x40 MLOAD PUSH4 0xD0E30DB PUSH1 0xE4 SHL DUP2 MSTORE DUP6 DUP2 PUSH1 0x4 DUP2 DUP7 DUP7 GAS CALL DUP1 ISZERO PUSH2 0xF5A JUMPI PUSH2 0x1025 JUMPI JUMPDEST POP PUSH1 0x40 MLOAD PUSH4 0x70A08231 PUSH1 0xE0 SHL DUP2 MSTORE ADDRESS PUSH1 0x4 DUP3 ADD MSTORE PUSH1 0x20 DUP2 PUSH1 0x24 DUP2 PUSH1 0x1 PUSH1 0x1 PUSH1 0xA0 SHL SUB DUP9 AND GAS STATICCALL DUP1 ISZERO PUSH2 0xF5A JUMPI DUP7 SWAP1 PUSH2 0xFE8 JUMPI JUMPDEST PUSH11 0xA56FA5B99019A5C8000000 SWAP2 POP LT PUSH2 0xFAD JUMPI PUSH1 0x40 MLOAD PUSH4 0x95EA7B3 PUSH1 0xE0 SHL DUP1 DUP3 MSTORE PUSH20 0xF6AD3CCF71ABB3E12BECF6B3D2A74C963859ADCD PUSH1 0x4 DUP4 ADD MSTORE PUSH11 0xA56FA5B99019A5C8000000 PUSH1 0x24 DUP4 ADD MSTORE SWAP1 PUSH1 0x20 DUP2 PUSH1 0x44 DUP2 DUP11 PUSH1 0x1 PUSH1 0x1 PUSH1 0xA0 SHL SUB DUP11 AND GAS CALL DUP1 ISZERO PUSH2 0xFA2 JUMPI PUSH2 0xF65 JUMPI JUMPDEST POP PUSH1 0x40 MLOAD SWAP1 DUP2 MSTORE PUSH20 0xF6AD3CCF71ABB3E12BECF6B3D2A74C963859ADCD PUSH1 0x4 DUP3 ADD MSTORE DUP3 PUSH1 0x24 DUP3 ADD MSTORE PUSH1 0x20 DUP2 PUSH1 0x44 DUP2 DUP10 DUP7 GAS CALL DUP1 ISZERO PUSH2 0xF5A JUMPI PUSH2 0xF1D JUMPI JUMPDEST POP PUSH1 0x1 PUSH1 0x1 PUSH1 0xA0 SHL SUB DUP4 AND LT SWAP3 DUP4 ISZERO PUSH2 0xF16 JUMPI DUP3 SWAP4 JUMPDEST ISZERO PUSH2 0xF0E JUMPI SWAP4 JUMPDEST PUSH1 0x1 PUSH1 0x60 SHL PUSH1 0x60 DUP4 SWAP1 SHL DUP4 ISZERO DUP5 DUP3 DIV DUP4 EQ OR ISZERO PUSH2 0xEFA JUMPI PUSH11 0xA56FA5B99019A5C8000000 SWAP1 DIV DUP1 PUSH1 0x60 SHL SWAP2 DUP2 DUP4 DIV EQ SWAP1 ISZERO OR ISZERO PUSH2 0xEE6 JUMPI PUSH1 0x1 PUSH1 0x1 PUSH1 0xA0 SHL SUB SWAP1 PUSH2 0xB4A SWAP1 PUSH2 0x1719 JUMP JUMPDEST PUSH1 0x40 MLOAD PUSH4 0x9F56AB1 PUSH1 0xE1 SHL DUP2 MSTORE PUSH1 0x1 PUSH1 0x1 PUSH1 0xA0 SHL SUB DUP1 DUP9 AND PUSH1 0x4 DUP4 ADD MSTORE DUP9 AND PUSH1 0x24 DUP3 ADD MSTORE PUSH2 0xBB8 PUSH1 0x44 DUP3 ADD MSTORE SWAP2 AND PUSH1 0x64 DUP3 ADD MSTORE SWAP4 PUSH1 0x20 DUP6 PUSH1 0x84 DUP2 DUP6 PUSH20 0xF6AD3CCF71ABB3E12BECF6B3D2A74C963859ADCD GAS CALL SWAP5 DUP6 ISZERO PUSH2 0x3E3 JUMPI DUP3 SWAP6 PUSH2 0xEC5 JUMPI JUMPDEST POP PUSH1 0x1 PUSH1 0x1 PUSH1 0xA0 SHL SUB DUP5 DUP2 AND SWAP1 DUP3 AND EQ SWAP6 DUP7 ISZERO PUSH2 0xEBE JUMPI PUSH11 0xA56FA5B99019A5C8000000 SWAP1 JUMPDEST DUP8 ISZERO PUSH2 0xEAC JUMPI DUP5 SWAP3 JUMPDEST DUP9 ISZERO PUSH2 0xEA5 JUMPI PUSH11 0xA56FA5B99019A5C8000000 SWAP9 JUMPDEST DUP10 PUSH1 0x5F DUP2 MUL DIV PUSH1 0x5F EQ DUP11 ISZERO OR ISZERO PUSH2 0xE7F JUMPI ISZERO PUSH2 0xE93 JUMPI DUP6 SWAP2 JUMPDEST DUP3 PUSH1 0x5F DUP2 MUL DIV PUSH1 0x5F EQ DUP4 ISZERO OR ISZERO PUSH2 0xE7F JUMPI PUSH2 0x12C TIMESTAMP ADD TIMESTAMP GT PUSH2 0xE7F JUMPI PUSH1 0x40 MLOAD SWAP10 DUP11 PUSH2 0x160 DUP2 ADD LT PUSH8 0xFFFFFFFFFFFFFFFF PUSH2 0x160 DUP14 ADD GT OR PUSH2 0xE69 JUMPI PUSH1 0x64 SWAP6 PUSH1 0x5F SWAP6 PUSH3 0xD89B4 PUSH1 0x80 DUP15 DUP10 SWAP7 DUP12 SWAP9 PUSH2 0x160 DUP4 ADD PUSH1 0x40 MSTORE PUSH1 0x1 DUP1 PUSH1 0xA0 SHL SUB AND DUP3 MSTORE PUSH1 0x1 DUP1 PUSH1 0xA0 SHL SUB AND PUSH1 0x20 DUP3 ADD MSTORE PUSH2 0xBB8 PUSH1 0x40 DUP3 ADD MSTORE PUSH3 0xD89B3 NOT PUSH1 0x60 DUP3 ADD MSTORE ADD MSTORE PUSH1 0xA0 DUP14 ADD MSTORE PUSH1 0xC0 DUP13 ADD MSTORE MUL DIV PUSH1 0xE0 DUP10 ADD MSTORE MUL DIV PUSH2 0x100 DUP7 ADD MSTORE ADDRESS PUSH2 0x120 DUP7 ADD MSTORE PUSH2 0x12C TIMESTAMP ADD PUSH2 0x140 DUP7 ADD MSTORE PUSH2 0x140 PUSH1 0x40 MLOAD SWAP6 PUSH4 0x4418B22B PUSH1 0xE1 SHL DUP8 MSTORE PUSH1 0x1 DUP1 PUSH1 0xA0 SHL SUB DUP2 MLOAD AND PUSH1 0x4 DUP9 ADD MSTORE PUSH1 0x1 DUP1 PUSH1 0xA0 SHL SUB PUSH1 0x20 DUP3 ADD MLOAD AND PUSH1 0x24 DUP9 ADD MSTORE PUSH3 0xFFFFFF PUSH1 0x40 DUP3 ADD MLOAD AND PUSH1 0x44 DUP9 ADD MSTORE PUSH1 0x60 DUP2 ADD MLOAD PUSH1 0x2 SIGNEXTEND PUSH1 0x64 DUP9 ADD MSTORE PUSH1 0x80 DUP2 ADD MLOAD PUSH1 0x2 SIGNEXTEND PUSH1 0x84 DUP9 ADD MSTORE PUSH1 0xA0 DUP2 ADD MLOAD PUSH1 0xA4 DUP9 ADD MSTORE PUSH1 0xC0 DUP2 ADD MLOAD PUSH1 0xC4 DUP9 ADD MSTORE PUSH1 0xE0 DUP2 ADD MLOAD PUSH1 0xE4 DUP9 ADD MSTORE PUSH2 0x100 DUP2 ADD MLOAD PUSH2 0x104 DUP9 ADD MSTORE PUSH1 0x1 DUP1 PUSH1 0xA0 SHL SUB PUSH2 0x120 DUP3 ADD MLOAD AND PUSH2 0x124 DUP9 ADD MSTORE ADD MLOAD PUSH2 0x144 DUP7 ADD MSTORE PUSH1 0x80 DUP6 PUSH2 0x164 DUP2 DUP5 PUSH20 0xF6AD3CCF71ABB3E12BECF6B3D2A74C963859ADCD GAS CALL SWAP5 DUP6 ISZERO PUSH2 0xE5C JUMPI DUP2 SWAP6 PUSH2 0xE0A JUMPI JUMPDEST POP PUSH1 0x1 PUSH1 0x1 PUSH1 0xA0 SHL SUB SWAP3 DUP4 AND DUP1 DUP3 MSTORE PUSH1 0x3 PUSH1 0x20 DUP2 DUP2 MSTORE PUSH1 0x40 SWAP4 DUP5 SWAP1 KECCAK256 PUSH1 0x4 DUP2 ADD DUP1 SLOAD PUSH1 0x1 PUSH1 0x1 PUSH1 0xA0 SHL SUB NOT AND SWAP9 SWAP1 SWAP8 AND SWAP8 DUP9 OR SWAP1 SWAP7 SSTORE PUSH1 0x5 DUP7 ADD DUP9 SWAP1 SSTORE PUSH1 0x2 DUP7 ADD SWAP5 SWAP1 SWAP5 SSTORE PUSH11 0xA56FA5B99019A5C8000000 SWAP5 ADD SWAP4 SWAP1 SWAP4 SSTORE MLOAD SWAP4 DUP5 MSTORE SWAP3 PUSH32 0x426F0C0A2E698E1E1DC15965AACAEC6B35A143139F5AD496AFF205755EEFB805 SWAP1 DUP5 SWAP1 LOG2 PUSH1 0x1 DUP1 SSTORE PUSH1 0x40 MLOAD SWAP1 DUP2 MSTORE RETURN JUMPDEST SWAP1 SWAP5 POP PUSH1 0x80 DUP2 RETURNDATASIZE DUP3 GT PUSH2 0xE54 JUMPI JUMPDEST DUP2 PUSH2 0xE25 PUSH1 0x80 SWAP4 DUP4 PUSH2 0x144D JUMP JUMPDEST DUP2 ADD SUB SLT PUSH2 0x48B JUMPI PUSH1 0x20 DUP2 MLOAD SWAP2 ADD MLOAD PUSH16 0xFFFFFFFFFFFFFFFFFFFFFFFFFFFFFFFF DUP2 AND SUB PUSH2 0x48B JUMPI SWAP4 PUSH1 0x20 PUSH2 0xD7D JUMP JUMPDEST RETURNDATASIZE SWAP2 POP PUSH2 0xE18 JUMP JUMPDEST POP PUSH1 0x40 MLOAD SWAP1 RETURNDATASIZE SWAP1 DUP3 RETURNDATACOPY RETURNDATASIZE SWAP1 REVERT JUMPDEST PUSH4 0x4E487B71 PUSH1 0xE0 SHL PUSH1 0x0 MSTORE PUSH1 0x41 PUSH1 0x4 MSTORE PUSH1 0x24 PUSH1 0x0 REVERT JUMPDEST PUSH4 0x4E487B71 PUSH1 0xE0 SHL DUP7 MSTORE PUSH1 0x11 PUSH1 0x4 MSTORE PUSH1 0x24 DUP7 REVERT JUMPDEST PUSH11 0xA56FA5B99019A5C8000000 SWAP2 PUSH2 0xC05 JUMP JUMPDEST DUP6 SWAP9 PUSH2 0xBEC JUMP JUMPDEST PUSH11 0xA56FA5B99019A5C8000000 SWAP3 PUSH2 0xBD8 JUMP JUMPDEST DUP4 SWAP1 PUSH2 0xBCF JUMP JUMPDEST PUSH2 0xEDF SWAP2 SWAP6 POP PUSH1 0x20 RETURNDATASIZE PUSH1 0x20 GT PUSH2 0x730 JUMPI PUSH2 0x722 DUP2 DUP4 PUSH2 0x144D JUMP JUMPDEST SWAP4 CODESIZE PUSH2 0xBAA JUMP JUMPDEST PUSH4 0x4E487B71 PUSH1 0xE0 SHL DUP3 MSTORE PUSH1 0x11 PUSH1 0x4 MSTORE PUSH1 0x24 DUP3 REVERT JUMPDEST PUSH4 0x4E487B71 PUSH1 0xE0 SHL DUP4 MSTORE PUSH1 0x11 PUSH1 0x4 MSTORE PUSH1 0x24 DUP4 REVERT JUMPDEST POP DUP2 SWAP4 PUSH2 0xB02 JUMP JUMPDEST DUP1 SWAP4 PUSH2 0xAFB JUMP JUMPDEST PUSH1 0x20 DUP2 RETURNDATASIZE PUSH1 0x20 GT PUSH2 0xF52 JUMPI JUMPDEST DUP2 PUSH2 0xF36 PUSH1 0x20 SWAP4 DUP4 PUSH2 0x144D JUMP JUMPDEST DUP2 ADD SUB SLT PUSH2 0xF4E JUMPI PUSH2 0xF47 SWAP1 PUSH2 0x146F JUMP JUMPDEST POP CODESIZE PUSH2 0xAE5 JUMP JUMPDEST DUP6 DUP1 REVERT JUMPDEST RETURNDATASIZE SWAP2 POP PUSH2 0xF29 JUMP JUMPDEST PUSH1 0x40 MLOAD RETURNDATASIZE DUP9 DUP3 RETURNDATACOPY RETURNDATASIZE SWAP1 REVERT JUMPDEST PUSH1 0x20 DUP2 RETURNDATASIZE PUSH1 0x20 GT PUSH2 0xF9A JUMPI JUMPDEST DUP2 PUSH2 0xF7E PUSH1 0x20 SWAP4 DUP4 PUSH2 0x144D JUMP JUMPDEST DUP2 ADD SUB SLT PUSH2 0xF96 JUMPI PUSH2 0xF8F SWAP1 PUSH2 0x146F JUMP JUMPDEST POP CODESIZE PUSH2 0xAA9 JUMP JUMPDEST DUP7 DUP1 REVERT JUMPDEST RETURNDATASIZE SWAP2 POP PUSH2 0xF71 JUMP JUMPDEST PUSH1 0x40 MLOAD RETURNDATASIZE DUP10 DUP3 RETURNDATACOPY RETURNDATASIZE SWAP1 REVERT JUMPDEST PUSH1 0x40 MLOAD PUSH3 0x461BCD PUSH1 0xE5 SHL DUP2 MSTORE PUSH1 0x20 PUSH1 0x4 DUP3 ADD MSTORE PUSH1 0x13 PUSH1 0x24 DUP3 ADD MSTORE PUSH19 0x496E73756666696369656E7420746F6B656E73 PUSH1 0x68 SHL PUSH1 0x44 DUP3 ADD MSTORE PUSH1 0x64 SWAP1 REVERT JUMPDEST POP PUSH1 0x20 DUP2 RETURNDATASIZE PUSH1 0x20 GT PUSH2 0x101D JUMPI JUMPDEST DUP2 PUSH2 0x1002 PUSH1 0x20 SWAP4 DUP4 PUSH2 0x144D JUMP JUMPDEST DUP2 ADD SUB SLT PUSH2 0xF4E JUMPI PUSH11 0xA56FA5B99019A5C8000000 SWAP1 MLOAD PUSH2 0xA3E JUMP JUMPDEST RETURNDATASIZE SWAP2 POP PUSH2 0xFF5 JUMP JUMPDEST PUSH2 0x1031 SWAP1 SWAP6 SWAP2 SWAP6 PUSH2 0x1439 JUMP JUMPDEST SWAP4 CODESIZE PUSH2 0xA0B JUMP JUMPDEST PUSH1 0x40 MLOAD PUSH3 0x461BCD PUSH1 0xE5 SHL DUP2 MSTORE PUSH1 0x20 PUSH1 0x4 DUP3 ADD MSTORE PUSH1 0xC PUSH1 0x24 DUP3 ADD MSTORE PUSH12 0x15D3D2D0881B9BDD081CD95D PUSH1 0xA2 SHL PUSH1 0x44 DUP3 ADD MSTORE PUSH1 0x64 SWAP1 REVERT JUMPDEST PUSH2 0x1086 SWAP2 SWAP4 POP PUSH1 0x20 RETURNDATASIZE PUSH1 0x20 GT PUSH2 0x730 JUMPI PUSH2 0x722 DUP2 DUP4 PUSH2 0x144D JUMP JUMPDEST SWAP2 CODESIZE PUSH2 0x9D2 JUMP JUMPDEST PUSH1 0x40 MLOAD PUSH3 0x461BCD PUSH1 0xE5 SHL DUP2 MSTORE PUSH1 0x20 PUSH1 0x4 DUP3 ADD MSTORE PUSH1 0x10 PUSH1 0x24 DUP3 ADD MSTORE PUSH16 0x24B739BAB33334B1B4B2B73A1027A5A1 PUSH1 0x81 SHL PUSH1 0x44 DUP3 ADD MSTORE PUSH1 0x64 SWAP1 REVERT JUMPDEST PUSH9 0x1F399B1438A100000 PUSH2 0x99C JUMP JUMPDEST PUSH1 0x40 MLOAD PUSH3 0x461BCD PUSH1 0xE5 SHL DUP2 MSTORE PUSH1 0x20 PUSH1 0x4 DUP3 ADD MSTORE PUSH1 0xE PUSH1 0x24 DUP3 ADD MSTORE PUSH14 0x105B1C9958591E481B1A5CDD1959 PUSH1 0x92 SHL PUSH1 0x44 DUP3 ADD MSTORE PUSH1 0x64 SWAP1 REVERT JUMPDEST POP PUSH1 0x20 DUP2 RETURNDATASIZE PUSH1 0x20 GT PUSH2 0x113D JUMPI JUMPDEST DUP2 PUSH2 0x1124 PUSH1 0x20 SWAP4 DUP4 PUSH2 0x144D JUMP JUMPDEST DUP2 ADD SUB SLT PUSH2 0x4A1 JUMPI PUSH2 0x1138 PUSH2 0x953 SWAP2 PUSH2 0x146F JUMP JUMPDEST PUSH2 0x949 JUMP JUMPDEST RETURNDATASIZE SWAP2 POP PUSH2 0x1117 JUMP JUMPDEST PUSH1 0x40 MLOAD PUSH4 0x3EE5AEB5 PUSH1 0xE0 SHL DUP2 MSTORE PUSH1 0x4 SWAP1 REVERT JUMPDEST POP CALLVALUE PUSH2 0x130 JUMPI DUP1 PUSH1 0x3 NOT CALLDATASIZE ADD SLT PUSH2 0x130 JUMPI PUSH1 0x2 SLOAD PUSH1 0x40 MLOAD PUSH1 0x1 PUSH1 0x1 PUSH1 0xA0 SHL SUB SWAP1 SWAP2 AND DUP2 MSTORE PUSH1 0x20 SWAP1 RETURN JUMPDEST POP CALLVALUE PUSH2 0x130 JUMPI DUP1 PUSH1 0x3 NOT CALLDATASIZE ADD SLT PUSH2 0x130 JUMPI PUSH2 0x1199 PUSH2 0x13F1 JUMP JUMPDEST DUP1 SLOAD PUSH1 0x1 PUSH1 0x1 PUSH1 0xA0 SHL SUB NOT DUP2 AND DUP3 SSTORE DUP2 SWAP1 PUSH1 0x1 PUSH1 0x1 PUSH1 0xA0 SHL SUB AND PUSH32 0x8BE0079C531659141344CD1FD0A4F28419497F9722A3DAAFE3B4186F6B6457E0 DUP3 DUP1 LOG3 DUP1 RETURN JUMPDEST POP CALLVALUE PUSH2 0x130 JUMPI PUSH1 0x20 CALLDATASIZE PUSH1 0x3 NOT ADD SLT PUSH2 0x130 JUMPI PUSH1 0x4 CALLDATALOAD PUSH1 0x1 PUSH1 0x1 PUSH1 0xA0 SHL SUB DUP2 AND SWAP1 DUP2 SWAP1 SUB PUSH2 0x298 JUMPI PUSH1 0x40 DUP3 PUSH1 0xFF SWAP3 PUSH1 0x20 SWAP5 MSTORE PUSH1 0x3 DUP5 MSTORE KECCAK256 SLOAD AND PUSH1 0x40 MLOAD SWAP1 ISZERO ISZERO DUP2 MSTORE RETURN JUMPDEST POP CALLVALUE PUSH2 0x130 JUMPI DUP1 PUSH1 0x3 NOT CALLDATASIZE ADD SLT PUSH2 0x130 JUMPI PUSH1 0x20 PUSH1 0x40 MLOAD PUSH20 0xF6AD3CCF71ABB3E12BECF6B3D2A74C963859ADCD DUP2 MSTORE RETURN JUMPDEST POP CALLVALUE PUSH2 0x130 JUMPI DUP1 PUSH1 0x3 NOT CALLDATASIZE ADD SLT PUSH2 0x130 JUMPI PUSH1 0x20 PUSH1 0x40 MLOAD PUSH1 0x64 DUP2 MSTORE RETURN JUMPDEST POP CALLVALUE PUSH2 0x130 JUMPI PUSH1 0x20 CALLDATASIZE PUSH1 0x3 NOT ADD SLT PUSH2 0x130 JUMPI PUSH1 0x1 PUSH1 0x1 PUSH1 0xA0 SHL SUB PUSH1 0x4 CALLDATALOAD DUP2 DUP2 AND SWAP1 DUP2 SWAP1 SUB PUSH2 0x1C5 JUMPI DUP3 PUSH1 0x40 SWAP2 PUSH1 0xE0 SWAP5 PUSH1 0xC0 DUP5 MLOAD PUSH2 0x12A3 DUP2 PUSH2 0x141D JUMP JUMPDEST DUP3 DUP2 MSTORE DUP3 PUSH1 0x20 DUP3 ADD MSTORE DUP3 DUP7 DUP3 ADD MSTORE DUP3 PUSH1 0x60 DUP3 ADD MSTORE DUP3 PUSH1 0x80 DUP3 ADD MSTORE DUP3 PUSH1 0xA0 DUP3 ADD MSTORE ADD MSTORE DUP2 MSTORE PUSH1 0x3 PUSH1 0x20 MSTORE KECCAK256 SWAP1 PUSH1 0x40 MLOAD SWAP1 PUSH2 0x12DB DUP3 PUSH2 0x141D JUMP JUMPDEST DUP3 SLOAD SWAP3 PUSH1 0xFF DUP5 AND ISZERO ISZERO SWAP4 DUP5 DUP5 MSTORE PUSH1 0xFF PUSH1 0x20 DUP6 ADD SWAP2 PUSH1 0x8 SHR AND ISZERO ISZERO DUP2 MSTORE PUSH1 0x1 DUP3 ADD SLOAD PUSH1 0x40 DUP6 ADD SWAP1 DUP2 MSTORE PUSH1 0x2 DUP4 ADD SLOAD SWAP1 PUSH1 0x60 DUP7 ADD SWAP2 DUP3 MSTORE PUSH1 0x3 DUP5 ADD SLOAD SWAP3 PUSH1 0x80 DUP8 ADD SWAP4 DUP5 MSTORE PUSH1 0xC0 PUSH1 0x5 DUP8 PUSH1 0x4 DUP9 ADD SLOAD AND SWAP7 PUSH1 0xA0 DUP11 ADD SWAP8 DUP9 MSTORE ADD SLOAD SWAP8 ADD SWAP7 DUP8 MSTORE PUSH1 0x40 MLOAD SWAP8 DUP9 MSTORE MLOAD ISZERO ISZERO PUSH1 0x20 DUP9 ADD MSTORE MLOAD PUSH1 0x40 DUP8 ADD MSTORE MLOAD PUSH1 0x60 DUP7 ADD MSTORE MLOAD PUSH1 0x80 DUP6 ADD MSTORE MLOAD AND PUSH1 0xA0 DUP4 ADD MSTORE MLOAD PUSH1 0xC0 DUP3 ADD MSTORE RETURN JUMPDEST POP CALLVALUE PUSH2 0x130 JUMPI PUSH1 0x20 CALLDATASIZE PUSH1 0x3 NOT ADD SLT PUSH2 0x130 JUMPI PUSH1 0x1 PUSH1 0x1 PUSH1 0xA0 SHL SUB PUSH1 0x4 CALLDATALOAD DUP2 DUP2 AND SWAP1 DUP2 SWAP1 SUB PUSH2 0x1C5 JUMPI PUSH1 0x40 DUP4 PUSH1 0x4 SWAP3 PUSH1 0x20 SWAP6 MSTORE PUSH1 0x3 DUP6 MSTORE KECCAK256 ADD SLOAD AND PUSH1 0x40 MLOAD SWAP1 DUP2 MSTORE RETURN JUMPDEST POP CALLVALUE PUSH2 0x130 JUMPI DUP1 PUSH1 0x3 NOT CALLDATASIZE ADD SLT PUSH2 0x130 JUMPI PUSH1 0x20 PUSH1 0x40 MLOAD PUSH11 0xA56FA5B99019A5C8000000 DUP2 MSTORE RETURN JUMPDEST SWAP1 POP CALLVALUE PUSH2 0x298 JUMPI DUP2 PUSH1 0x3 NOT CALLDATASIZE ADD SLT PUSH2 0x298 JUMPI DUP1 PUSH9 0x1F399B1438A100000 PUSH1 0x20 SWAP3 MSTORE RETURN JUMPDEST PUSH1 0x0 SLOAD PUSH1 0x1 PUSH1 0x1 PUSH1 0xA0 SHL SUB AND CALLER SUB PUSH2 0x1405 JUMPI JUMP JUMPDEST PUSH1 0x40 MLOAD PUSH4 0x118CDAA7 PUSH1 0xE0 SHL DUP2 MSTORE CALLER PUSH1 0x4 DUP3 ADD MSTORE PUSH1 0x24 SWAP1 REVERT JUMPDEST PUSH1 0xE0 DUP2 ADD SWAP1 DUP2 LT PUSH8 0xFFFFFFFFFFFFFFFF DUP3 GT OR PUSH2 0xE69 JUMPI PUSH1 0x40 MSTORE JUMP JUMPDEST PUSH8 0xFFFFFFFFFFFFFFFF DUP2 GT PUSH2 0xE69 JUMPI PUSH1 0x40 MSTORE JUMP JUMPDEST SWAP1 PUSH1 0x1F DUP1 NOT SWAP2 ADD AND DUP2 ADD SWAP1 DUP2 LT PUSH8 0xFFFFFFFFFFFFFFFF DUP3 GT OR PUSH2 0xE69 JUMPI PUSH1 0x40 MSTORE JUMP JUMPDEST MLOAD SWAP1 DUP2 ISZERO ISZERO DUP3 SUB PUSH2 0x147C JUMPI JUMP JUMPDEST PUSH1 0x0 DUP1 REVERT JUMPDEST ISZERO PUSH2 0x1488 JUMPI JUMP JUMPDEST PUSH1 0x40 MLOAD PUSH3 0x461BCD PUSH1 0xE5 SHL DUP2 MSTORE PUSH1 0x20 PUSH1 0x4 DUP3 ADD MSTORE PUSH1 0xD PUSH1 0x24 DUP3 ADD MSTORE PUSH13 0x24B73B30B634B2103A37B5B2B7 PUSH1 0x99 SHL PUSH1 0x44 DUP3 ADD MSTORE PUSH1 0x64 SWAP1 REVERT JUMPDEST SWAP1 DUP2 PUSH1 0x20 SWAP2 SUB SLT PUSH2 0x147C JUMPI MLOAD PUSH1 0x1 PUSH1 0x1 PUSH1 0xA0 SHL SUB DUP2 AND DUP2 SUB PUSH2 0x147C JUMPI SWAP1 JUMP JUMPDEST PUSH1 0x2 SLOAD PUSH1 0x40 DUP1 MLOAD PUSH4 0xC1876453 PUSH1 0xE0 SHL DUP2 MSTORE PUSH1 0x1 PUSH1 0x1 PUSH1 0xA0 SHL SUB SWAP4 DUP5 AND PUSH1 0x4 DUP3 ADD DUP2 SWAP1 MSTORE PUSH1 0x20 SWAP6 SWAP5 SWAP3 SWAP4 SWAP1 SWAP3 AND SWAP1 DUP6 DUP2 PUSH1 0x24 DUP2 DUP6 GAS STATICCALL DUP1 ISZERO PUSH2 0x1692 JUMPI PUSH1 0x0 SWAP1 PUSH2 0x165C JUMPI JUMPDEST PUSH2 0x1529 SWAP2 POP PUSH2 0x1481 JUMP JUMPDEST DUP2 PUSH1 0x0 MSTORE PUSH1 0x3 DUP6 MSTORE PUSH1 0xFF DUP4 PUSH1 0x0 KECCAK256 SLOAD AND PUSH2 0x164F JUMPI DUP5 PUSH1 0x4 SWAP2 DUP5 MLOAD SWAP3 DUP4 DUP1 SWAP3 PUSH4 0xFAAC38EF PUSH1 0xE0 SHL DUP3 MSTORE GAS STATICCALL SWAP1 DUP2 ISZERO PUSH2 0x1644 JUMPI PUSH1 0x0 SWAP2 PUSH2 0x1627 JUMPI JUMPDEST POP DUP3 MLOAD SWAP1 DUP6 DUP3 ADD SWAP3 PUSH4 0x47F8BC1 PUSH1 0xE0 SHL DUP5 MSTORE PUSH1 0x24 DUP4 ADD MSTORE PUSH1 0x24 DUP3 MSTORE PUSH1 0x60 DUP3 ADD SWAP1 PUSH8 0xFFFFFFFFFFFFFFFF SWAP4 DUP4 DUP4 LT DUP6 DUP5 GT OR PUSH2 0xE69 JUMPI PUSH1 0x0 SWAP4 DUP5 SWAP4 DUP8 MSTORE MLOAD SWAP2 GAS STATICCALL SWAP2 RETURNDATASIZE ISZERO PUSH2 0x161B JUMPI RETURNDATASIZE SWAP2 DUP3 GT PUSH2 0xE69 JUMPI MLOAD SWAP1 PUSH2 0x15C6 PUSH1 0x1F DUP3 ADD PUSH1 0x1F NOT AND DUP7 ADD DUP4 PUSH2 0x144D JUMP JUMPDEST DUP2 MSTORE PUSH1 0x0 DUP2 SWAP5 RETURNDATASIZE SWAP3 ADD RETURNDATACOPY JUMPDEST ISZERO PUSH2 0x1613 JUMPI PUSH1 0xC0 DUP3 DUP1 MLOAD DUP2 ADD SUB SLT PUSH2 0x147C JUMPI PUSH2 0x1601 PUSH1 0xC0 PUSH1 0x60 DUP5 ADD MLOAD SWAP4 PUSH2 0x15FA PUSH1 0xA0 DUP3 ADD PUSH2 0x146F JUMP JUMPDEST POP ADD PUSH2 0x146F JUMP JUMPDEST POP PUSH9 0x4563918244F400000 DUP3 LT ISZERO SWAP2 SWAP1 JUMP JUMPDEST PUSH1 0x0 SWAP2 POP DUP2 SWAP1 JUMP JUMPDEST POP POP SWAP2 POP PUSH1 0x60 SWAP2 PUSH2 0x15D1 JUMP JUMPDEST PUSH2 0x163E SWAP2 POP DUP6 RETURNDATASIZE DUP8 GT PUSH2 0x730 JUMPI PUSH2 0x722 DUP2 DUP4 PUSH2 0x144D JUMP JUMPDEST CODESIZE PUSH2 0x1562 JUMP JUMPDEST DUP4 MLOAD RETURNDATASIZE PUSH1 0x0 DUP3 RETURNDATACOPY RETURNDATASIZE SWAP1 REVERT JUMPDEST POP POP POP SWAP1 POP PUSH1 0x0 SWAP1 PUSH1 0x0 SWAP1 JUMP JUMPDEST DUP7 DUP3 DUP2 RETURNDATASIZE DUP4 GT PUSH2 0x168B JUMPI JUMPDEST PUSH2 0x1671 DUP2 DUP4 PUSH2 0x144D JUMP JUMPDEST DUP2 ADD SUB SLT PUSH2 0x130 JUMPI POP PUSH2 0x1686 PUSH2 0x1529 SWAP2 PUSH2 0x146F JUMP JUMPDEST PUSH2 0x151F JUMP JUMPDEST POP RETURNDATASIZE PUSH2 0x1667 JUMP JUMPDEST DUP5 MLOAD RETURNDATASIZE PUSH1 0x0 DUP3 RETURNDATACOPY RETURNDATASIZE SWAP1 REVERT JUMPDEST ISZERO PUSH2 0x16A4 JUMPI JUMP JUMPDEST PUSH1 0x40 MLOAD PUSH3 0x461BCD PUSH1 0xE5 SHL DUP2 MSTORE PUSH1 0x20 PUSH1 0x4 DUP3 ADD MSTORE PUSH1 0x11 PUSH1 0x24 DUP3 ADD MSTORE PUSH17 0x105B1C9958591E4819DC98591D585D1959 PUSH1 0x7A SHL PUSH1 0x44 DUP3 ADD MSTORE PUSH1 0x64 SWAP1 REVERT JUMPDEST ISZERO PUSH2 0x16E4 JUMPI JUMP JUMPDEST PUSH1 0x40 MLOAD PUSH3 0x461BCD PUSH1 0xE5 SHL DUP2 MSTORE PUSH1 0x20 PUSH1 0x4 DUP3 ADD MSTORE PUSH1 0xD PUSH1 0x24 DUP3 ADD MSTORE PUSH13 0x139BDD0819DC98591D585D1959 PUSH1 0x9A SHL PUSH1 0x44 DUP3 ADD MSTORE PUSH1 0x64 SWAP1 REVERT JUMPDEST DUP1 ISZERO PUSH2 0x179F JUMPI PUSH1 0x1 DUP1 DUP3 ADD DUP1 DUP4 GT PUSH2 0x1789 JUMPI DUP2 SHR SWAP1 DUP3 SWAP1 JUMPDEST DUP4 DUP4 LT PUSH2 0x173E JUMPI POP POP POP SWAP1 JUMP JUMPDEST SWAP2 SWAP3 POP SWAP1 DUP3 DUP1 ISZERO PUSH2 0x1774 JUMPI DUP1 DUP4 DIV SWAP1 DUP2 ADD DUP1 SWAP2 GT PUSH2 0x175F JUMPI DUP2 SHR SWAP2 SWAP1 PUSH2 0x1731 JUMP JUMPDEST PUSH1 0x24 PUSH1 0x0 PUSH4 0x4E487B71 PUSH1 0xE0 SHL DUP2 MSTORE PUSH1 0x11 PUSH1 0x4 MSTORE REVERT JUMPDEST PUSH1 0x24 PUSH1 0x0 PUSH4 0x4E487B71 PUSH1 0xE0 SHL DUP2 MSTORE PUSH1 0x12 PUSH1 0x4 MSTORE REVERT JUMPDEST PUSH4 0x4E487B71 PUSH1 0xE0 SHL PUSH1 0x0 MSTORE PUSH1 0x11 PUSH1 0x4 MSTORE PUSH1 0x24 PUSH1 0x0 REVERT JUMPDEST POP PUSH1 0x0 SWAP1 JUMP INVALID LOG2 PUSH5 0x6970667358 0x22 SLT KECCAK256 DUP3 0xAB 0x2D SLT PUSH11 0x72CD47BA3A3E0BA05D31B3 0x1F 0xE2 0x4E PC MSTORE8 0xE3 0xC8 DUP4 GAS DUP1 SWAP4 CALLDATALOAD DELEGATECALL 0xB0 0x4A CALL PUSH5 0x736F6C6343 STOP ADDMOD EQ STOP CALLER "},"methodIdentifiers":{"GRADUATION_THRESHOLD()":"fcfc0c09","LOCKED_LIQUIDITY_OKB()":"07eca003","LOCKED_LIQUIDITY_TOKENS()":"10087fcc","MIN_LIQUIDITY_RATIO()":"304e0270","POOL_FEE()":"dd1b9c4a","QUICKSWAP_FACTORY()":"c9d88f2e","QUICKSWAP_POSITION_MANAGER()":"3ba7863f","checkGraduation(address)":"888f6de6","enablePublicTrading(address)":"d2154ecc","forceGraduation(address)":"87b6f507","getGraduationInfo(address)":"235177c8","getPoolAddress(address)":"1228cbee","graduateToken(address)":"97f548f7","graduationInfo(address)":"ed841fe3","isGraduated(address)":"68a4c8b7","isPublicTradingEnabled(address)":"ea14c1e4","listOnDEX(address)":"7dc0450f","owner()":"8da5cb5b","registry()":"7b103999","renounceOwnership()":"715018a6","transferOwnership(address)":"f2fde38b"}}}}}