{"contracts/BondingCurveContract.sol":{"BondingCurveContract":{"abi":[{"inputs":[{"internalType":"address","name":"_registry","type":"address"}],"stateMutability":"nonpayable","type":"constructor"},{"inputs":[{"internalType":"address","name":"owner","type":"address"}],"name":"OwnableInvalidOwner","type":"error"},{"inputs":[{"internalType":"address","name":"account","type":"address"}],"name":"OwnableUnauthorizedAccount","type":"error"},{"inputs":[],"name":"ReentrancyGuardReentrantCall","type":"error"},{"inputs":[{"internalType":"address","name":"token","type":"address"}],"name":"SafeERC20FailedOperation","type":"error"},{"anonymous":false,"inputs":[{"indexed":true,"internalType":"address","name":"token","type":"address"},{"indexed":false,"internalType":"uint256","name":"virtualOkbReserves","type":"uint256"},{"indexed":false,"internalType":"uint256","name":"virtualTokenReserves","type":"uint256"}],"name":"CurveParametersUpdated","type":"event"},{"anonymous":false,"inputs":[{"indexed":true,"internalType":"address","name":"previousOwner","type":"address"},{"indexed":true,"internalType":"address","name":"newOwner","type":"address"}],"name":"OwnershipTransferred","type":"event"},{"anonymous":false,"inputs":[{"indexed":true,"internalType":"address","name":"token","type":"address"},{"indexed":true,"internalType":"address","name":"buyer","type":"address"},{"indexed":false,"internalType":"uint256","name":"okbIn","type":"uint256"},{"indexed":false,"internalType":"uint256","name":"tokensOut","type":"uint256"},{"indexed":false,"internalType":"uint256","name":"newPrice","type":"uint256"}],"name":"TokenBought","type":"event"},{"anonymous":false,"inputs":[{"indexed":true,"internalType":"address","name":"token","type":"address"},{"indexed":false,"internalType":"uint256","name":"okbCollected","type":"uint256"}],"name":"TokenGraduated","type":"event"},{"anonymous":false,"inputs":[{"indexed":true,"internalType":"address","name":"token","type":"address"},{"indexed":true,"internalType":"address","name":"seller","type":"address"},{"indexed":false,"internalType":"uint256","name":"tokensIn","type":"uint256"},{"indexed":false,"internalType":"uint256","name":"okbOut","type":"uint256"},{"indexed":false,"internalType":"uint256","name":"newPrice","type":"uint256"}],"name":"TokenSold","type":"event"},{"inputs":[],"name":"DEFAULT_VIRTUAL_OKB","outputs":[{"internalType":"uint256","name":"","type":"uint256"}],"stateMutability":"view","type":"function"},{"inputs":[],"name":"DEFAULT_VIRTUAL_TOKENS","outputs":[{"internalType":"uint256","name":"","type":"uint256"}],"stateMutability":"view","type":"function"},{"inputs":[],"name":"GRADUATION_THRESHOLD","outputs":[{"internalType":"uint256","name":"","type":"uint256"}],"stateMutability":"view","type":"function"},{"inputs":[],"name":"MAX_SUPPLY_FOR_CURVE","outputs":[{"internalType":"uint256","name":"","type":"uint256"}],"stateMutability":"view","type":"function"},{"inputs":[{"internalType":"address","name":"token","type":"address"},{"internalType":"uint256","name":"okbAmount","type":"uint256"}],"name":"buyTokens","outputs":[{"internalType":"uint256","name":"","type":"uint256"}],"stateMutability":"payable","type":"function"},{"inputs":[{"internalType":"address","name":"token","type":"address"}],"name":"getCurveInfo","outputs":[{"components":[{"internalType":"uint256","name":"soldSupply","type":"uint256"},{"internalType":"uint256","name":"okbCollected","type":"uint256"},{"internalType":"uint256","name":"virtualOkbReserves","type":"uint256"},{"internalType":"uint256","name":"virtualTokenReserves","type":"uint256"},{"internalType":"bool","name":"graduated","type":"bool"},{"internalType":"bool","name":"active","type":"bool"}],"internalType":"struct BondingCurveContract.TokenCurve","name":"","type":"tuple"}],"stateMutability":"view","type":"function"},{"inputs":[{"internalType":"address","name":"token","type":"address"},{"internalType":"uint256","name":"amount","type":"uint256"}],"name":"getPrice","outputs":[{"internalType":"uint256","name":"","type":"uint256"}],"stateMutability":"view","type":"function"},{"inputs":[{"internalType":"address","name":"token","type":"address"}],"name":"getTokenBalance","outputs":[{"internalType":"uint256","name":"","type":"uint256"}],"stateMutability":"view","type":"function"},{"inputs":[{"internalType":"address","name":"token","type":"address"}],"name":"initializeCurve","outputs":[],"stateMutability":"nonpayable","type":"function"},{"inputs":[],"name":"owner","outputs":[{"internalType":"address","name":"","type":"address"}],"stateMutability":"view","type":"function"},{"inputs":[],"name":"registry","outputs":[{"internalType":"contract IRegistry","name":"","type":"address"}],"stateMutability":"view","type":"function"},{"inputs":[],"name":"renounceOwnership","outputs":[],"stateMutability":"nonpayable","type":"function"},{"inputs":[{"internalType":"address","name":"token","type":"address"},{"internalType":"uint256","name":"tokenAmount","type":"uint256"}],"name":"sellTokens","outputs":[{"internalType":"uint256","name":"","type":"uint256"}],"stateMutability":"nonpayable","type":"function"},{"inputs":[{"internalType":"address","name":"","type":"address"}],"name":"tokenBalances","outputs":[{"internalType":"uint256","name":"","type":"uint256"}],"stateMutability":"view","type":"function"},{"inputs":[{"internalType":"address","name":"","type":"address"}],"name":"tokenCurves","outputs":[{"internalType":"uint256","name":"soldSupply","type":"uint256"},{"internalType":"uint256","name":"okbCollected","type":"uint256"},{"internalType":"uint256","name":"virtualOkbReserves","type":"uint256"},{"internalType":"uint256","name":"virtualTokenReserves","type":"uint256"},{"internalType":"bool","name":"graduated","type":"bool"},{"internalType":"bool","name":"active","type":"bool"}],"stateMutability":"view","type":"function"},{"inputs":[{"internalType":"address","name":"newOwner","type":"address"}],"name":"transferOwnership","outputs":[],"stateMutability":"nonpayable","type":"function"},{"inputs":[{"internalType":"address","name":"token","type":"address"},{"internalType":"uint256","name":"virtualOkbReserves","type":"uint256"},{"internalType":"uint256","name":"virtualTokenReserves","type":"uint256"}],"name":"updateCurveParameters","outputs":[],"stateMutability":"nonpayable","type":"function"},{"stateMutability":"payable","type":"receive"}],"evm":{"bytecode":{"linkReferences":{},"object":"6080346100ca57601f6115f938819003918201601f19168301916001600160401b038311848410176100cf578084926020946040528339810103126100ca57516001600160a01b0390818116908190036100ca5733156100b15760005460018060a01b0319903382821617600055604051933391167f8be0079c531659141344cd1fd0a4f28419497f9722a3daafe3b4186f6b6457e0600080a360018055600254161760025561151390816100e68239f35b604051631e4fbdf760e01b815260006004820152602490fd5b600080fd5b634e487b7160e01b600052604160045260246000fdfe60806040818152600436101561001f575b5050361561001d57600080fd5b005b600091823560e01c908163047f8bc114610ef0575080630752881a146109fa578063169f7dee14610983578063360f2dc21461079c5780633aecd0e314610710578063449e815d1461076d5780634f39cb3614610747578063523fba7f14610710578063715018a6146106b35780637b1039991461068b5780638da5cb5b146106645780639571b2751461063e578063c464fe65146102b8578063c8c5b1cb146101b1578063d73337df1461018e578063f2fde38b146101095763fcfc0c09036100105734610105578160031936011261010557602090516804563918244f4000008152f35b5080fd5b503461010557602036600319011261010557610123610fc7565b61012b610fe2565b6001600160a01b03908116918215610177575082546001600160a01b0319811683178455167f8be0079c531659141344cd1fd0a4f28419497f9722a3daafe3b4186f6b6457e08380a380f35b51631e4fbdf760e01b815260048101849052602490fd5b5034610105578160031936011261010557602090516801a055690d9db800008152f35b5034610105576060366003190112610105576101cb610fc7565b90602435604435926101db610fe2565b6001600160a01b03168085526003602052828520600401549093906102059060081c60ff166110b6565b838552600360205261022060ff60048588200154161561120a565b811515806102af575b1561027657907f69e033b4ae750ca02de6986a1466464b43f15a095bb41bb657e4c19303c6f54a92918486526003602052806003848820846002820155015582519182526020820152a280f35b825162461bcd60e51b8152602060048201526012602482015271496e76616c696420706172616d657465727360701b6044820152606490fd5b50801515610229565b50346101055780600319360112610105576102d1610fc7565b906024918235906102e06113b4565b60018060a01b038095816002541692855197889163c187645360e01b83521693846004830152818860209a8b935afa9081156106345790610328918391610607575b5061107a565b8281526003875261034460ff6004878420015460081c166110b6565b8281526003875261035e60ff60048784200154161561120a565b610369841515611248565b82815260038752848120918254968786116105c5576103888887611456565b97881561058e5788471061054b57866103a0916110f5565b8455600184016103b18982546110f5565b905586516323b872dd60e01b8a8201523382820152306044820152606480820188905281529060a082019067ffffffffffffffff8211838310176105395750600492916104009189528661134c565b848352818952868320610414878254611294565b905588816002541688519384809263796b1c1360e11b82525afa91821561052f57908892918492610500575b508116156104b957926104898380806104ac9661048f967f9387a595ac4be9038bbb9751abad8baa3dcf219dd9e19abb81552bd521fe3546995af16104836112c0565b50611300565b546114ac565b855194855260208501879052604085015233939081906060820190565b0390a36001805551908152f35b5081808080933382f1156104f557506104ac61048f7f9387a595ac4be9038bbb9751abad8baa3dcf219dd9e19abb81552bd521fe354692610489565b8451903d90823e3d90fd5b6105219192508a3d8c11610528575b6105198183611040565b8101906112a1565b9038610440565b503d61050f565b87513d85823e3d90fd5b634e487b7160e01b8552604160045284fd5b875162461bcd60e51b8152600481018b90526018818401527f496e73756666696369656e74204f4b422062616c616e636500000000000000006044820152606490fd5b875162461bcd60e51b8152600481018b9052601181840152704e6f204f4b4220746f207265636569766560781b6044820152606490fd5b88601a60649289519262461bcd60e51b845260048401528201527f43616e6e6f742073656c6c206d6f7265207468616e20736f6c640000000000006044820152fd5b6106279150893d8b1161062d575b61061f8183611040565b810190611062565b38610322565b503d610615565b86513d84823e3d90fd5b5034610105578160031936011261010557602090516b037790968dc8efffd10000008152f35b5034610105578160031936011261010557905490516001600160a01b039091168152602090f35b503461010557816003193601126101055760025490516001600160a01b039091168152602090f35b823461070d578060031936011261070d576106cc610fe2565b80546001600160a01b03198116825581906001600160a01b03167f8be0079c531659141344cd1fd0a4f28419497f9722a3daafe3b4186f6b6457e08280a380f35b80fd5b50346101055760203660031901126101055760209181906001600160a01b03610737610fc7565b1681526004845220549051908152f35b5034610105578160031936011261010557602090516b0295be96e6406697200000008152f35b503461010557806003193601126101055760209061079561078c610fc7565b6024359061114b565b9051908152f35b5034610105576020908160031936011261097f576107b8610fc7565b600254825163c187645360e01b81526001600160a01b0392831660048201819052929091859183916024918391165afa90811561091a5790610800918691610968575061107a565b8084526003835260ff6004838620015460081c166109245781516108238161100e565b8481528381018581526004848301926801a055690d9db800008452606081016b037790968dc8efffd10000008152608082019489865260a083019460018652878b5260038a52888b209351845551600184015551600283015551600382015501915115159060ff61ff0084549251151560081b1692169061ffff1916171790558151926370a0823160e01b84523060048501528084602481855afa93841561091a5785946108e7575b50836108d6578480f35b600491855252822055388080808480f35b9080945081813d8311610913575b6108ff8183611040565b8101031261090f575192386108cc565b8480fd5b503d6108f5565b83513d87823e3d90fd5b815162461bcd60e51b815260048101849052601960248201527f437572766520616c726561647920696e697469616c697a6564000000000000006044820152606490fd5b6106279150853d871161062d5761061f8183611040565b8280fd5b50346101055760203660031901126101055760c09160ff9082906001600160a01b036109ad610fc7565b1681526003602052209182549260018101549160028201549060046003840154930154938151968752602087015285015260608401528181161515608084015260081c16151560a0820152f35b50908160031936011261070d57610a0f610fc7565b90610a186113b4565b600254835163c187645360e01b81526001600160a01b039384166004820181905293909160209183916024918391165afa908115610ee65790610a61918391610ecd575061107a565b8181526003602052610a7e60ff6004858420015460081c166110b6565b8181526003602052610a9960ff60048584200154161561120a565b6024353403610e9257610aaf6024351515611248565b818152600360205282812091825492610aca846024356113d7565b938415610e58576b0295be96e640669720000000610ae88683611294565b11610e1e5784610af791611294565b8155610b096024356001830154611294565b60018201558183526004602052838584205410610dda578183526004602052848320610b368582546110f5565b9055845163a9059cbb60e01b6020820152336024820152604480820186905281526080810167ffffffffffffffff811182821017610d56578652610b7a908361134c565b600254855163796b1c1360e11b815290602090829060049082906001600160a01b03165afa908115610dd057916001916804563918244f400000938691610db1575b5085838060a01b038216610d95575b5050610bd781546114ac565b847f8692cf5ba66abd64f88cdc1ffa0ee9d9c21ee2d999322a20445ae32393394e3e895180610c1c33958c602435846040919493926060820195825260208201520152565b0390a301541015610c36575b602083856001805551908152f35b8060049183526003602052807f3774b363547126f466f72012377433ce54030696ae07ad35617ad9317eaf776b602060018887208681018260ff1982541617905501548851908152a2600254855163ebdccebb60e01b81529260209184919082906001600160a01b03165afa918215610d8b578392610d6a575b506001600160a01b038216610cc6575b50610c28565b845160208101916397f548f760e01b83526024820152602481526060810181811067ffffffffffffffff821117610d5657849392918491885251925af1610d0b6112c0565b5015610d1957388080610cc0565b815162461bcd60e51b815260206004820152601660248201527511dc98591d585d1a5bdb8818d85b1b0819985a5b195960521b6044820152606490fd5b634e487b7160e01b85526041600452602485fd5b610d8491925060203d602011610528576105198183611040565b9038610cb0565b85513d85823e3d90fd5b808080610daa94602435905af16104836112c0565b3885610bcb565b610dca915060203d602011610528576105198183611040565b38610bbc565b86513d86823e3d90fd5b845162461bcd60e51b815260206004820152601a60248201527f496e73756666696369656e7420746f6b656e2062616c616e63650000000000006044820152606490fd5b855162461bcd60e51b8152602060048201526013602482015272115e18d959591cc818dd5c9d99481b1a5b5a5d606a1b6044820152606490fd5b855162461bcd60e51b81526020600482015260136024820152724e6f20746f6b656e7320617661696c61626c6560681b6044820152606490fd5b825162461bcd60e51b8152602060048201526014602482015273125b98dbdc9c9958dd0813d2d088185b5bdd5b9d60621b6044820152606490fd5b610627915060203d60201161062d5761061f8183611040565b84513d84823e3d90fd5b90503461097f57602036600319011261097f5782829160c09460a0610f13610fc7565b92610f1d8161100e565b8281528260208201528286820152826060820152826080820152015260018060a01b03168152600360205220908051610f558161100e565b82549283825260018101549260208301938452600282015481840190815260046003840154936060860194855201549460ff60a0608087019682891615158852019660081c161515865282519687525160208701525190850152516060840152511515608083015251151560a0820152f35b600435906001600160a01b0382168203610fdd57565b600080fd5b6000546001600160a01b03163303610ff657565b60405163118cdaa760e01b8152336004820152602490fd5b60c0810190811067ffffffffffffffff82111761102a57604052565b634e487b7160e01b600052604160045260246000fd5b90601f8019910116810190811067ffffffffffffffff82111761102a57604052565b90816020910312610fdd57518015158103610fdd5790565b1561108157565b60405162461bcd60e51b815260206004820152600d60248201526c24b73b30b634b2103a37b5b2b760991b6044820152606490fd5b156110bd57565b60405162461bcd60e51b815260206004820152601060248201526f4375727665206e6f742061637469766560801b6044820152606490fd5b9190820391821161110257565b634e487b7160e01b600052601160045260246000fd5b8181029291811591840414171561110257565b8115611135570490565b634e487b7160e01b600052601260045260246000fd5b60018060a01b03166000526003602052604060002060405161116c8161100e565b81548152600182015460208201526002820154906040810191825260046003840154936060830194855201546111ba60ff60808401928181161515845260081c1615158060a08501526110b6565b51611201576111ce915192519051906110f5565b90811580156111f9575b6111f1576111ee926111e991611118565b61112b565b90565b505050600090565b5082156111d8565b50505050600090565b1561121157565b60405162461bcd60e51b815260206004820152600f60248201526e151bdad95b8819dc98591d585d1959608a1b6044820152606490fd5b1561124f57565b60405162461bcd60e51b815260206004820152601d60248201527f416d6f756e74206d7573742062652067726561746572207468616e20300000006044820152606490fd5b9190820180921161110257565b90816020910312610fdd57516001600160a01b0381168103610fdd5790565b3d156112fb573d9067ffffffffffffffff821161102a57604051916112ef601f8201601f191660200184611040565b82523d6000602084013e565b606090565b1561130757565b60405162461bcd60e51b815260206004820152601b60248201527f466565206d616e61676572207472616e73666572206661696c656400000000006044820152606490fd5b906000602091828151910182855af1156113a8576000513d61139f57506001600160a01b0381163b155b61137d5750565b604051635274afe760e01b81526001600160a01b039091166004820152602490fd5b60011415611376565b6040513d6000823e3d90fd5b6002600154146113c5576002600155565b604051633ee5aeb560e01b8152600490fd5b801561144f576b0295be96e64066972000000090818310156111f1576113fc836114ac565b8015611443575b670de0b6b3a764000080830292830403611102576114209161112b565b918161142c8483611294565b1161143657505090565b8103915081116111025790565b5064e8d4a51000611403565b5050600090565b90811580156114a3575b61144f57816114968261149061148a611485670de0b6b3a76400009761149f976110f5565b6114ac565b916114ac565b90611294565b60011c90611118565b0490565b50808211611460565b69d3c21bcecceda1000000900464e8d4a510009081810290808204831490151715611102578101809111611102579056fea26469706673582212203fedaeb0b29cd1414fe24535ce1d843b1dbb0e4ecbd319fc402ad6a7ac245bab64736f6c63430008140033","opcodes":"PUSH1 0x80 CALLVALUE PUSH2 0xCA JUMPI PUSH1 0x1F PUSH2 0x15F9 CODESIZE DUP2 SWAP1 SUB SWAP2 DUP3 ADD PUSH1 0x1F NOT AND DUP4 ADD SWAP2 PUSH1 0x1 PUSH1 0x1 PUSH1 0x40 SHL SUB DUP4 GT DUP5 DUP5 LT OR PUSH2 0xCF JUMPI DUP1 DUP5 SWAP3 PUSH1 0x20 SWAP5 PUSH1 0x40 MSTORE DUP4 CODECOPY DUP2 ADD SUB SLT PUSH2 0xCA JUMPI MLOAD PUSH1 0x1 PUSH1 0x1 PUSH1 0xA0 SHL SUB SWAP1 DUP2 DUP2 AND SWAP1 DUP2 SWAP1 SUB PUSH2 0xCA JUMPI CALLER ISZERO PUSH2 0xB1 JUMPI PUSH1 0x0 SLOAD PUSH1 0x1 DUP1 PUSH1 0xA0 SHL SUB NOT SWAP1 CALLER DUP3 DUP3 AND OR PUSH1 0x0 SSTORE PUSH1 0x40 MLOAD SWAP4 CALLER SWAP2 AND PUSH32 0x8BE0079C531659141344CD1FD0A4F28419497F9722A3DAAFE3B4186F6B6457E0 PUSH1 0x0 DUP1 LOG3 PUSH1 0x1 DUP1 SSTORE PUSH1 0x2 SLOAD AND OR PUSH1 0x2 SSTORE PUSH2 0x1513 SWAP1 DUP2 PUSH2 0xE6 DUP3 CODECOPY RETURN JUMPDEST PUSH1 0x40 MLOAD PUSH4 0x1E4FBDF7 PUSH1 0xE0 SHL DUP2 MSTORE PUSH1 0x0 PUSH1 0x4 DUP3 ADD MSTORE PUSH1 0x24 SWAP1 REVERT JUMPDEST PUSH1 0x0 DUP1 REVERT JUMPDEST PUSH4 0x4E487B71 PUSH1 0xE0 SHL PUSH1 0x0 MSTORE PUSH1 0x41 PUSH1 0x4 MSTORE PUSH1 0x24 PUSH1 0x0 REVERT INVALID PUSH1 0x80 PUSH1 0x40 DUP2 DUP2 MSTORE PUSH1 0x4 CALLDATASIZE LT ISZERO PUSH2 0x1F JUMPI JUMPDEST POP POP CALLDATASIZE ISZERO PUSH2 0x1D JUMPI PUSH1 0x0 DUP1 REVERT JUMPDEST STOP JUMPDEST PUSH1 0x0 SWAP2 DUP3 CALLDATALOAD PUSH1 0xE0 SHR SWAP1 DUP2 PUSH4 0x47F8BC1 EQ PUSH2 0xEF0 JUMPI POP DUP1 PUSH4 0x752881A EQ PUSH2 0x9FA JUMPI DUP1 PUSH4 0x169F7DEE EQ PUSH2 0x983 JUMPI DUP1 PUSH4 0x360F2DC2 EQ PUSH2 0x79C JUMPI DUP1 PUSH4 0x3AECD0E3 EQ PUSH2 0x710 JUMPI DUP1 PUSH4 0x449E815D EQ PUSH2 0x76D JUMPI DUP1 PUSH4 0x4F39CB36 EQ PUSH2 0x747 JUMPI DUP1 PUSH4 0x523FBA7F EQ PUSH2 0x710 JUMPI DUP1 PUSH4 0x715018A6 EQ PUSH2 0x6B3 JUMPI DUP1 PUSH4 0x7B103999 EQ PUSH2 0x68B JUMPI DUP1 PUSH4 0x8DA5CB5B EQ PUSH2 0x664 JUMPI DUP1 PUSH4 0x9571B275 EQ PUSH2 0x63E JUMPI DUP1 PUSH4 0xC464FE65 EQ PUSH2 0x2B8 JUMPI DUP1 PUSH4 0xC8C5B1CB EQ PUSH2 0x1B1 JUMPI DUP1 PUSH4 0xD73337DF EQ PUSH2 0x18E JUMPI DUP1 PUSH4 0xF2FDE38B EQ PUSH2 0x109 JUMPI PUSH4 0xFCFC0C09 SUB PUSH2 0x10 JUMPI CALLVALUE PUSH2 0x105 JUMPI DUP2 PUSH1 0x3 NOT CALLDATASIZE ADD SLT PUSH2 0x105 JUMPI PUSH1 0x20 SWAP1 MLOAD PUSH9 0x4563918244F400000 DUP2 MSTORE RETURN JUMPDEST POP DUP1 REVERT JUMPDEST POP CALLVALUE PUSH2 0x105 JUMPI PUSH1 0x20 CALLDATASIZE PUSH1 0x3 NOT ADD SLT PUSH2 0x105 JUMPI PUSH2 0x123 PUSH2 0xFC7 JUMP JUMPDEST PUSH2 0x12B PUSH2 0xFE2 JUMP JUMPDEST PUSH1 0x1 PUSH1 0x1 PUSH1 0xA0 SHL SUB SWAP1 DUP2 AND SWAP2 DUP3 ISZERO PUSH2 0x177 JUMPI POP DUP3 SLOAD PUSH1 0x1 PUSH1 0x1 PUSH1 0xA0 SHL SUB NOT DUP2 AND DUP4 OR DUP5 SSTORE AND PUSH32 0x8BE0079C531659141344CD1FD0A4F28419497F9722A3DAAFE3B4186F6B6457E0 DUP4 DUP1 LOG3 DUP1 RETURN JUMPDEST MLOAD PUSH4 0x1E4FBDF7 PUSH1 0xE0 SHL DUP2 MSTORE PUSH1 0x4 DUP2 ADD DUP5 SWAP1 MSTORE PUSH1 0x24 SWAP1 REVERT JUMPDEST POP CALLVALUE PUSH2 0x105 JUMPI DUP2 PUSH1 0x3 NOT CALLDATASIZE ADD SLT PUSH2 0x105 JUMPI PUSH1 0x20 SWAP1 MLOAD PUSH9 0x1A055690D9DB80000 DUP2 MSTORE RETURN JUMPDEST POP CALLVALUE PUSH2 0x105 JUMPI PUSH1 0x60 CALLDATASIZE PUSH1 0x3 NOT ADD SLT PUSH2 0x105 JUMPI PUSH2 0x1CB PUSH2 0xFC7 JUMP JUMPDEST SWAP1 PUSH1 0x24 CALLDATALOAD PUSH1 0x44 CALLDATALOAD SWAP3 PUSH2 0x1DB PUSH2 0xFE2 JUMP JUMPDEST PUSH1 0x1 PUSH1 0x1 PUSH1 0xA0 SHL SUB AND DUP1 DUP6 MSTORE PUSH1 0x3 PUSH1 0x20 MSTORE DUP3 DUP6 KECCAK256 PUSH1 0x4 ADD SLOAD SWAP1 SWAP4 SWAP1 PUSH2 0x205 SWAP1 PUSH1 0x8 SHR PUSH1 0xFF AND PUSH2 0x10B6 JUMP JUMPDEST DUP4 DUP6 MSTORE PUSH1 0x3 PUSH1 0x20 MSTORE PUSH2 0x220 PUSH1 0xFF PUSH1 0x4 DUP6 DUP9 KECCAK256 ADD SLOAD AND ISZERO PUSH2 0x120A JUMP JUMPDEST DUP2 ISZERO ISZERO DUP1 PUSH2 0x2AF JUMPI JUMPDEST ISZERO PUSH2 0x276 JUMPI SWAP1 PUSH32 0x69E033B4AE750CA02DE6986A1466464B43F15A095BB41BB657E4C19303C6F54A SWAP3 SWAP2 DUP5 DUP7 MSTORE PUSH1 0x3 PUSH1 0x20 MSTORE DUP1 PUSH1 0x3 DUP5 DUP9 KECCAK256 DUP5 PUSH1 0x2 DUP3 ADD SSTORE ADD SSTORE DUP3 MLOAD SWAP2 DUP3 MSTORE PUSH1 0x20 DUP3 ADD MSTORE LOG2 DUP1 RETURN JUMPDEST DUP3 MLOAD PUSH3 0x461BCD PUSH1 0xE5 SHL DUP2 MSTORE PUSH1 0x20 PUSH1 0x4 DUP3 ADD MSTORE PUSH1 0x12 PUSH1 0x24 DUP3 ADD MSTORE PUSH18 0x496E76616C696420706172616D6574657273 PUSH1 0x70 SHL PUSH1 0x44 DUP3 ADD MSTORE PUSH1 0x64 SWAP1 REVERT JUMPDEST POP DUP1 ISZERO ISZERO PUSH2 0x229 JUMP JUMPDEST POP CALLVALUE PUSH2 0x105 JUMPI DUP1 PUSH1 0x3 NOT CALLDATASIZE ADD SLT PUSH2 0x105 JUMPI PUSH2 0x2D1 PUSH2 0xFC7 JUMP JUMPDEST SWAP1 PUSH1 0x24 SWAP2 DUP3 CALLDATALOAD SWAP1 PUSH2 0x2E0 PUSH2 0x13B4 JUMP JUMPDEST PUSH1 0x1 DUP1 PUSH1 0xA0 SHL SUB DUP1 SWAP6 DUP2 PUSH1 0x2 SLOAD AND SWAP3 DUP6 MLOAD SWAP8 DUP9 SWAP2 PUSH4 0xC1876453 PUSH1 0xE0 SHL DUP4 MSTORE AND SWAP4 DUP5 PUSH1 0x4 DUP4 ADD MSTORE DUP2 DUP9 PUSH1 0x20 SWAP11 DUP12 SWAP4 GAS STATICCALL SWAP1 DUP2 ISZERO PUSH2 0x634 JUMPI SWAP1 PUSH2 0x328 SWAP2 DUP4 SWAP2 PUSH2 0x607 JUMPI JUMPDEST POP PUSH2 0x107A JUMP JUMPDEST DUP3 DUP2 MSTORE PUSH1 0x3 DUP8 MSTORE PUSH2 0x344 PUSH1 0xFF PUSH1 0x4 DUP8 DUP5 KECCAK256 ADD SLOAD PUSH1 0x8 SHR AND PUSH2 0x10B6 JUMP JUMPDEST DUP3 DUP2 MSTORE PUSH1 0x3 DUP8 MSTORE PUSH2 0x35E PUSH1 0xFF PUSH1 0x4 DUP8 DUP5 KECCAK256 ADD SLOAD AND ISZERO PUSH2 0x120A JUMP JUMPDEST PUSH2 0x369 DUP5 ISZERO ISZERO PUSH2 0x1248 JUMP JUMPDEST DUP3 DUP2 MSTORE PUSH1 0x3 DUP8 MSTORE DUP5 DUP2 KECCAK256 SWAP2 DUP3 SLOAD SWAP7 DUP8 DUP7 GT PUSH2 0x5C5 JUMPI PUSH2 0x388 DUP9 DUP8 PUSH2 0x1456 JUMP JUMPDEST SWAP8 DUP9 ISZERO PUSH2 0x58E JUMPI DUP9 SELFBALANCE LT PUSH2 0x54B JUMPI DUP7 PUSH2 0x3A0 SWAP2 PUSH2 0x10F5 JUMP JUMPDEST DUP5 SSTORE PUSH1 0x1 DUP5 ADD PUSH2 0x3B1 DUP10 DUP3 SLOAD PUSH2 0x10F5 JUMP JUMPDEST SWAP1 SSTORE DUP7 MLOAD PUSH4 0x23B872DD PUSH1 0xE0 SHL DUP11 DUP3 ADD MSTORE CALLER DUP3 DUP3 ADD MSTORE ADDRESS PUSH1 0x44 DUP3 ADD MSTORE PUSH1 0x64 DUP1 DUP3 ADD DUP9 SWAP1 MSTORE DUP2 MSTORE SWAP1 PUSH1 0xA0 DUP3 ADD SWAP1 PUSH8 0xFFFFFFFFFFFFFFFF DUP3 GT DUP4 DUP4 LT OR PUSH2 0x539 JUMPI POP PUSH1 0x4 SWAP3 SWAP2 PUSH2 0x400 SWAP2 DUP10 MSTORE DUP7 PUSH2 0x134C JUMP JUMPDEST DUP5 DUP4 MSTORE DUP2 DUP10 MSTORE DUP7 DUP4 KECCAK256 PUSH2 0x414 DUP8 DUP3 SLOAD PUSH2 0x1294 JUMP JUMPDEST SWAP1 SSTORE DUP9 DUP2 PUSH1 0x2 SLOAD AND DUP9 MLOAD SWAP4 DUP5 DUP1 SWAP3 PUSH4 0x796B1C13 PUSH1 0xE1 SHL DUP3 MSTORE GAS STATICCALL SWAP2 DUP3 ISZERO PUSH2 0x52F JUMPI SWAP1 DUP9 SWAP3 SWAP2 DUP5 SWAP3 PUSH2 0x500 JUMPI JUMPDEST POP DUP2 AND ISZERO PUSH2 0x4B9 JUMPI SWAP3 PUSH2 0x489 DUP4 DUP1 DUP1 PUSH2 0x4AC SWAP7 PUSH2 0x48F SWAP7 PUSH32 0x9387A595AC4BE9038BBB9751ABAD8BAA3DCF219DD9E19ABB81552BD521FE3546 SWAP10 GAS CALL PUSH2 0x483 PUSH2 0x12C0 JUMP JUMPDEST POP PUSH2 0x1300 JUMP JUMPDEST SLOAD PUSH2 0x14AC JUMP JUMPDEST DUP6 MLOAD SWAP5 DUP6 MSTORE PUSH1 0x20 DUP6 ADD DUP8 SWAP1 MSTORE PUSH1 0x40 DUP6 ADD MSTORE CALLER SWAP4 SWAP1 DUP2 SWAP1 PUSH1 0x60 DUP3 ADD SWAP1 JUMP JUMPDEST SUB SWAP1 LOG3 PUSH1 0x1 DUP1 SSTORE MLOAD SWAP1 DUP2 MSTORE RETURN JUMPDEST POP DUP2 DUP1 DUP1 DUP1 SWAP4 CALLER DUP3 CALL ISZERO PUSH2 0x4F5 JUMPI POP PUSH2 0x4AC PUSH2 0x48F PUSH32 0x9387A595AC4BE9038BBB9751ABAD8BAA3DCF219DD9E19ABB81552BD521FE3546 SWAP3 PUSH2 0x489 JUMP JUMPDEST DUP5 MLOAD SWAP1 RETURNDATASIZE SWAP1 DUP3 RETURNDATACOPY RETURNDATASIZE SWAP1 REVERT JUMPDEST PUSH2 0x521 SWAP2 SWAP3 POP DUP11 RETURNDATASIZE DUP13 GT PUSH2 0x528 JUMPI JUMPDEST PUSH2 0x519 DUP2 DUP4 PUSH2 0x1040 JUMP JUMPDEST DUP2 ADD SWAP1 PUSH2 0x12A1 JUMP JUMPDEST SWAP1 CODESIZE PUSH2 0x440 JUMP JUMPDEST POP RETURNDATASIZE PUSH2 0x50F JUMP JUMPDEST DUP8 MLOAD RETURNDATASIZE DUP6 DUP3 RETURNDATACOPY RETURNDATASIZE SWAP1 REVERT JUMPDEST PUSH4 0x4E487B71 PUSH1 0xE0 SHL DUP6 MSTORE PUSH1 0x41 PUSH1 0x4 MSTORE DUP5 REVERT JUMPDEST DUP8 MLOAD PUSH3 0x461BCD PUSH1 0xE5 SHL DUP2 MSTORE PUSH1 0x4 DUP2 ADD DUP12 SWAP1 MSTORE PUSH1 0x18 DUP2 DUP5 ADD MSTORE PUSH32 0x496E73756666696369656E74204F4B422062616C616E63650000000000000000 PUSH1 0x44 DUP3 ADD MSTORE PUSH1 0x64 SWAP1 REVERT JUMPDEST DUP8 MLOAD PUSH3 0x461BCD PUSH1 0xE5 SHL DUP2 MSTORE PUSH1 0x4 DUP2 ADD DUP12 SWAP1 MSTORE PUSH1 0x11 DUP2 DUP5 ADD MSTORE PUSH17 0x4E6F204F4B4220746F2072656365697665 PUSH1 0x78 SHL PUSH1 0x44 DUP3 ADD MSTORE PUSH1 0x64 SWAP1 REVERT JUMPDEST DUP9 PUSH1 0x1A PUSH1 0x64 SWAP3 DUP10 MLOAD SWAP3 PUSH3 0x461BCD PUSH1 0xE5 SHL DUP5 MSTORE PUSH1 0x4 DUP5 ADD MSTORE DUP3 ADD MSTORE PUSH32 0x43616E6E6F742073656C6C206D6F7265207468616E20736F6C64000000000000 PUSH1 0x44 DUP3 ADD MSTORE REVERT JUMPDEST PUSH2 0x627 SWAP2 POP DUP10 RETURNDATASIZE DUP12 GT PUSH2 0x62D JUMPI JUMPDEST PUSH2 0x61F DUP2 DUP4 PUSH2 0x1040 JUMP JUMPDEST DUP2 ADD SWAP1 PUSH2 0x1062 JUMP JUMPDEST CODESIZE PUSH2 0x322 JUMP JUMPDEST POP RETURNDATASIZE PUSH2 0x615 JUMP JUMPDEST DUP7 MLOAD RETURNDATASIZE DUP5 DUP3 RETURNDATACOPY RETURNDATASIZE SWAP1 REVERT JUMPDEST POP CALLVALUE PUSH2 0x105 JUMPI DUP2 PUSH1 0x3 NOT CALLDATASIZE ADD SLT PUSH2 0x105 JUMPI PUSH1 0x20 SWAP1 MLOAD PUSH12 0x37790968DC8EFFFD1000000 DUP2 MSTORE RETURN JUMPDEST POP CALLVALUE PUSH2 0x105 JUMPI DUP2 PUSH1 0x3 NOT CALLDATASIZE ADD SLT PUSH2 0x105 JUMPI SWAP1 SLOAD SWAP1 MLOAD PUSH1 0x1 PUSH1 0x1 PUSH1 0xA0 SHL SUB SWAP1 SWAP2 AND DUP2 MSTORE PUSH1 0x20 SWAP1 RETURN JUMPDEST POP CALLVALUE PUSH2 0x105 JUMPI DUP2 PUSH1 0x3 NOT CALLDATASIZE ADD SLT PUSH2 0x105 JUMPI PUSH1 0x2 SLOAD SWAP1 MLOAD PUSH1 0x1 PUSH1 0x1 PUSH1 0xA0 SHL SUB SWAP1 SWAP2 AND DUP2 MSTORE PUSH1 0x20 SWAP1 RETURN JUMPDEST DUP3 CALLVALUE PUSH2 0x70D JUMPI DUP1 PUSH1 0x3 NOT CALLDATASIZE ADD SLT PUSH2 0x70D JUMPI PUSH2 0x6CC PUSH2 0xFE2 JUMP JUMPDEST DUP1 SLOAD PUSH1 0x1 PUSH1 0x1 PUSH1 0xA0 SHL SUB NOT DUP2 AND DUP3 SSTORE DUP2 SWAP1 PUSH1 0x1 PUSH1 0x1 PUSH1 0xA0 SHL SUB AND PUSH32 0x8BE0079C531659141344CD1FD0A4F28419497F9722A3DAAFE3B4186F6B6457E0 DUP3 DUP1 LOG3 DUP1 RETURN JUMPDEST DUP1 REVERT JUMPDEST POP CALLVALUE PUSH2 0x105 JUMPI PUSH1 0x20 CALLDATASIZE PUSH1 0x3 NOT ADD SLT PUSH2 0x105 JUMPI PUSH1 0x20 SWAP2 DUP2 SWAP1 PUSH1 0x1 PUSH1 0x1 PUSH1 0xA0 SHL SUB PUSH2 0x737 PUSH2 0xFC7 JUMP JUMPDEST AND DUP2 MSTORE PUSH1 0x4 DUP5 MSTORE KECCAK256 SLOAD SWAP1 MLOAD SWAP1 DUP2 MSTORE RETURN JUMPDEST POP CALLVALUE PUSH2 0x105 JUMPI DUP2 PUSH1 0x3 NOT CALLDATASIZE ADD SLT PUSH2 0x105 JUMPI PUSH1 0x20 SWAP1 MLOAD PUSH12 0x295BE96E640669720000000 DUP2 MSTORE RETURN JUMPDEST POP CALLVALUE PUSH2 0x105 JUMPI DUP1 PUSH1 0x3 NOT CALLDATASIZE ADD SLT PUSH2 0x105 JUMPI PUSH1 0x20 SWAP1 PUSH2 0x795 PUSH2 0x78C PUSH2 0xFC7 JUMP JUMPDEST PUSH1 0x24 CALLDATALOAD SWAP1 PUSH2 0x114B JUMP JUMPDEST SWAP1 MLOAD SWAP1 DUP2 MSTORE RETURN JUMPDEST POP CALLVALUE PUSH2 0x105 JUMPI PUSH1 0x20 SWAP1 DUP2 PUSH1 0x3 NOT CALLDATASIZE ADD SLT PUSH2 0x97F JUMPI PUSH2 0x7B8 PUSH2 0xFC7 JUMP JUMPDEST PUSH1 0x2 SLOAD DUP3 MLOAD PUSH4 0xC1876453 PUSH1 0xE0 SHL DUP2 MSTORE PUSH1 0x1 PUSH1 0x1 PUSH1 0xA0 SHL SUB SWAP3 DUP4 AND PUSH1 0x4 DUP3 ADD DUP2 SWAP1 MSTORE SWAP3 SWAP1 SWAP2 DUP6 SWAP2 DUP4 SWAP2 PUSH1 0x24 SWAP2 DUP4 SWAP2 AND GAS STATICCALL SWAP1 DUP2 ISZERO PUSH2 0x91A JUMPI SWAP1 PUSH2 0x800 SWAP2 DUP7 SWAP2 PUSH2 0x968 JUMPI POP PUSH2 0x107A JUMP JUMPDEST DUP1 DUP5 MSTORE PUSH1 0x3 DUP4 MSTORE PUSH1 0xFF PUSH1 0x4 DUP4 DUP7 KECCAK256 ADD SLOAD PUSH1 0x8 SHR AND PUSH2 0x924 JUMPI DUP2 MLOAD PUSH2 0x823 DUP2 PUSH2 0x100E JUMP JUMPDEST DUP5 DUP2 MSTORE DUP4 DUP2 ADD DUP6 DUP2 MSTORE PUSH1 0x4 DUP5 DUP4 ADD SWAP3 PUSH9 0x1A055690D9DB80000 DUP5 MSTORE PUSH1 0x60 DUP2 ADD PUSH12 0x37790968DC8EFFFD1000000 DUP2 MSTORE PUSH1 0x80 DUP3 ADD SWAP5 DUP10 DUP7 MSTORE PUSH1 0xA0 DUP4 ADD SWAP5 PUSH1 0x1 DUP7 MSTORE DUP8 DUP12 MSTORE PUSH1 0x3 DUP11 MSTORE DUP9 DUP12 KECCAK256 SWAP4 MLOAD DUP5 SSTORE MLOAD PUSH1 0x1 DUP5 ADD SSTORE MLOAD PUSH1 0x2 DUP4 ADD SSTORE MLOAD PUSH1 0x3 DUP3 ADD SSTORE ADD SWAP2 MLOAD ISZERO ISZERO SWAP1 PUSH1 0xFF PUSH2 0xFF00 DUP5 SLOAD SWAP3 MLOAD ISZERO ISZERO PUSH1 0x8 SHL AND SWAP3 AND SWAP1 PUSH2 0xFFFF NOT AND OR OR SWAP1 SSTORE DUP2 MLOAD SWAP3 PUSH4 0x70A08231 PUSH1 0xE0 SHL DUP5 MSTORE ADDRESS PUSH1 0x4 DUP6 ADD MSTORE DUP1 DUP5 PUSH1 0x24 DUP2 DUP6 GAS STATICCALL SWAP4 DUP5 ISZERO PUSH2 0x91A JUMPI DUP6 SWAP5 PUSH2 0x8E7 JUMPI JUMPDEST POP DUP4 PUSH2 0x8D6 JUMPI DUP5 DUP1 RETURN JUMPDEST PUSH1 0x4 SWAP2 DUP6 MSTORE MSTORE DUP3 KECCAK256 SSTORE CODESIZE DUP1 DUP1 DUP1 DUP5 DUP1 RETURN JUMPDEST SWAP1 DUP1 SWAP5 POP DUP2 DUP2 RETURNDATASIZE DUP4 GT PUSH2 0x913 JUMPI JUMPDEST PUSH2 0x8FF DUP2 DUP4 PUSH2 0x1040 JUMP JUMPDEST DUP2 ADD SUB SLT PUSH2 0x90F JUMPI MLOAD SWAP3 CODESIZE PUSH2 0x8CC JUMP JUMPDEST DUP5 DUP1 REVERT JUMPDEST POP RETURNDATASIZE PUSH2 0x8F5 JUMP JUMPDEST DUP4 MLOAD RETURNDATASIZE DUP8 DUP3 RETURNDATACOPY RETURNDATASIZE SWAP1 REVERT JUMPDEST DUP2 MLOAD PUSH3 0x461BCD PUSH1 0xE5 SHL DUP2 MSTORE PUSH1 0x4 DUP2 ADD DUP5 SWAP1 MSTORE PUSH1 0x19 PUSH1 0x24 DUP3 ADD MSTORE PUSH32 0x437572766520616C726561647920696E697469616C697A656400000000000000 PUSH1 0x44 DUP3 ADD MSTORE PUSH1 0x64 SWAP1 REVERT JUMPDEST PUSH2 0x627 SWAP2 POP DUP6 RETURNDATASIZE DUP8 GT PUSH2 0x62D JUMPI PUSH2 0x61F DUP2 DUP4 PUSH2 0x1040 JUMP JUMPDEST DUP3 DUP1 REVERT JUMPDEST POP CALLVALUE PUSH2 0x105 JUMPI PUSH1 0x20 CALLDATASIZE PUSH1 0x3 NOT ADD SLT PUSH2 0x105 JUMPI PUSH1 0xC0 SWAP2 PUSH1 0xFF SWAP1 DUP3 SWAP1 PUSH1 0x1 PUSH1 0x1 PUSH1 0xA0 SHL SUB PUSH2 0x9AD PUSH2 0xFC7 JUMP JUMPDEST AND DUP2 MSTORE PUSH1 0x3 PUSH1 0x20 MSTORE KECCAK256 SWAP2 DUP3 SLOAD SWAP3 PUSH1 0x1 DUP2 ADD SLOAD SWAP2 PUSH1 0x2 DUP3 ADD SLOAD SWAP1 PUSH1 0x4 PUSH1 0x3 DUP5 ADD SLOAD SWAP4 ADD SLOAD SWAP4 DUP2 MLOAD SWAP7 DUP8 MSTORE PUSH1 0x20 DUP8 ADD MSTORE DUP6 ADD MSTORE PUSH1 0x60 DUP5 ADD MSTORE DUP2 DUP2 AND ISZERO ISZERO PUSH1 0x80 DUP5 ADD MSTORE PUSH1 0x8 SHR AND ISZERO ISZERO PUSH1 0xA0 DUP3 ADD MSTORE RETURN JUMPDEST POP SWAP1 DUP2 PUSH1 0x3 NOT CALLDATASIZE ADD SLT PUSH2 0x70D JUMPI PUSH2 0xA0F PUSH2 0xFC7 JUMP JUMPDEST SWAP1 PUSH2 0xA18 PUSH2 0x13B4 JUMP JUMPDEST PUSH1 0x2 SLOAD DUP4 MLOAD PUSH4 0xC1876453 PUSH1 0xE0 SHL DUP2 MSTORE PUSH1 0x1 PUSH1 0x1 PUSH1 0xA0 SHL SUB SWAP4 DUP5 AND PUSH1 0x4 DUP3 ADD DUP2 SWAP1 MSTORE SWAP4 SWAP1 SWAP2 PUSH1 0x20 SWAP2 DUP4 SWAP2 PUSH1 0x24 SWAP2 DUP4 SWAP2 AND GAS STATICCALL SWAP1 DUP2 ISZERO PUSH2 0xEE6 JUMPI SWAP1 PUSH2 0xA61 SWAP2 DUP4 SWAP2 PUSH2 0xECD JUMPI POP PUSH2 0x107A JUMP JUMPDEST DUP2 DUP2 MSTORE PUSH1 0x3 PUSH1 0x20 MSTORE PUSH2 0xA7E PUSH1 0xFF PUSH1 0x4 DUP6 DUP5 KECCAK256 ADD SLOAD PUSH1 0x8 SHR AND PUSH2 0x10B6 JUMP JUMPDEST DUP2 DUP2 MSTORE PUSH1 0x3 PUSH1 0x20 MSTORE PUSH2 0xA99 PUSH1 0xFF PUSH1 0x4 DUP6 DUP5 KECCAK256 ADD SLOAD AND ISZERO PUSH2 0x120A JUMP JUMPDEST PUSH1 0x24 CALLDATALOAD CALLVALUE SUB PUSH2 0xE92 JUMPI PUSH2 0xAAF PUSH1 0x24 CALLDATALOAD ISZERO ISZERO PUSH2 0x1248 JUMP JUMPDEST DUP2 DUP2 MSTORE PUSH1 0x3 PUSH1 0x20 MSTORE DUP3 DUP2 KECCAK256 SWAP2 DUP3 SLOAD SWAP3 PUSH2 0xACA DUP5 PUSH1 0x24 CALLDATALOAD PUSH2 0x13D7 JUMP JUMPDEST SWAP4 DUP5 ISZERO PUSH2 0xE58 JUMPI PUSH12 0x295BE96E640669720000000 PUSH2 0xAE8 DUP7 DUP4 PUSH2 0x1294 JUMP JUMPDEST GT PUSH2 0xE1E JUMPI DUP5 PUSH2 0xAF7 SWAP2 PUSH2 0x1294 JUMP JUMPDEST DUP2 SSTORE PUSH2 0xB09 PUSH1 0x24 CALLDATALOAD PUSH1 0x1 DUP4 ADD SLOAD PUSH2 0x1294 JUMP JUMPDEST PUSH1 0x1 DUP3 ADD SSTORE DUP2 DUP4 MSTORE PUSH1 0x4 PUSH1 0x20 MSTORE DUP4 DUP6 DUP5 KECCAK256 SLOAD LT PUSH2 0xDDA JUMPI DUP2 DUP4 MSTORE PUSH1 0x4 PUSH1 0x20 MSTORE DUP5 DUP4 KECCAK256 PUSH2 0xB36 DUP6 DUP3 SLOAD PUSH2 0x10F5 JUMP JUMPDEST SWAP1 SSTORE DUP5 MLOAD PUSH4 0xA9059CBB PUSH1 0xE0 SHL PUSH1 0x20 DUP3 ADD MSTORE CALLER PUSH1 0x24 DUP3 ADD MSTORE PUSH1 0x44 DUP1 DUP3 ADD DUP7 SWAP1 MSTORE DUP2 MSTORE PUSH1 0x80 DUP2 ADD PUSH8 0xFFFFFFFFFFFFFFFF DUP2 GT DUP3 DUP3 LT OR PUSH2 0xD56 JUMPI DUP7 MSTORE PUSH2 0xB7A SWAP1 DUP4 PUSH2 0x134C JUMP JUMPDEST PUSH1 0x2 SLOAD DUP6 MLOAD PUSH4 0x796B1C13 PUSH1 0xE1 SHL DUP2 MSTORE SWAP1 PUSH1 0x20 SWAP1 DUP3 SWAP1 PUSH1 0x4 SWAP1 DUP3 SWAP1 PUSH1 0x1 PUSH1 0x1 PUSH1 0xA0 SHL SUB AND GAS STATICCALL SWAP1 DUP2 ISZERO PUSH2 0xDD0 JUMPI SWAP2 PUSH1 0x1 SWAP2 PUSH9 0x4563918244F400000 SWAP4 DUP7 SWAP2 PUSH2 0xDB1 JUMPI JUMPDEST POP DUP6 DUP4 DUP1 PUSH1 0xA0 SHL SUB DUP3 AND PUSH2 0xD95 JUMPI JUMPDEST POP POP PUSH2 0xBD7 DUP2 SLOAD PUSH2 0x14AC JUMP JUMPDEST DUP5 PUSH32 0x8692CF5BA66ABD64F88CDC1FFA0EE9D9C21EE2D999322A20445AE32393394E3E DUP10 MLOAD DUP1 PUSH2 0xC1C CALLER SWAP6 DUP13 PUSH1 0x24 CALLDATALOAD DUP5 PUSH1 0x40 SWAP2 SWAP5 SWAP4 SWAP3 PUSH1 0x60 DUP3 ADD SWAP6 DUP3 MSTORE PUSH1 0x20 DUP3 ADD MSTORE ADD MSTORE JUMP JUMPDEST SUB SWAP1 LOG3 ADD SLOAD LT ISZERO PUSH2 0xC36 JUMPI JUMPDEST PUSH1 0x20 DUP4 DUP6 PUSH1 0x1 DUP1 SSTORE MLOAD SWAP1 DUP2 MSTORE RETURN JUMPDEST DUP1 PUSH1 0x4 SWAP2 DUP4 MSTORE PUSH1 0x3 PUSH1 0x20 MSTORE DUP1 PUSH32 0x3774B363547126F466F72012377433CE54030696AE07AD35617AD9317EAF776B PUSH1 0x20 PUSH1 0x1 DUP9 DUP8 KECCAK256 DUP7 DUP2 ADD DUP3 PUSH1 0xFF NOT DUP3 SLOAD AND OR SWAP1 SSTORE ADD SLOAD DUP9 MLOAD SWAP1 DUP2 MSTORE LOG2 PUSH1 0x2 SLOAD DUP6 MLOAD PUSH4 0xEBDCCEBB PUSH1 0xE0 SHL DUP2 MSTORE SWAP3 PUSH1 0x20 SWAP2 DUP5 SWAP2 SWAP1 DUP3 SWAP1 PUSH1 0x1 PUSH1 0x1 PUSH1 0xA0 SHL SUB AND GAS STATICCALL SWAP2 DUP3 ISZERO PUSH2 0xD8B JUMPI DUP4 SWAP3 PUSH2 0xD6A JUMPI JUMPDEST POP PUSH1 0x1 PUSH1 0x1 PUSH1 0xA0 SHL SUB DUP3 AND PUSH2 0xCC6 JUMPI JUMPDEST POP PUSH2 0xC28 JUMP JUMPDEST DUP5 MLOAD PUSH1 0x20 DUP2 ADD SWAP2 PUSH4 0x97F548F7 PUSH1 0xE0 SHL DUP4 MSTORE PUSH1 0x24 DUP3 ADD MSTORE PUSH1 0x24 DUP2 MSTORE PUSH1 0x60 DUP2 ADD DUP2 DUP2 LT PUSH8 0xFFFFFFFFFFFFFFFF DUP3 GT OR PUSH2 0xD56 JUMPI DUP5 SWAP4 SWAP3 SWAP2 DUP5 SWAP2 DUP9 MSTORE MLOAD SWAP3 GAS CALL PUSH2 0xD0B PUSH2 0x12C0 JUMP JUMPDEST POP ISZERO PUSH2 0xD19 JUMPI CODESIZE DUP1 DUP1 PUSH2 0xCC0 JUMP JUMPDEST DUP2 MLOAD PUSH3 0x461BCD PUSH1 0xE5 SHL DUP2 MSTORE PUSH1 0x20 PUSH1 0x4 DUP3 ADD MSTORE PUSH1 0x16 PUSH1 0x24 DUP3 ADD MSTORE PUSH22 0x11DC98591D585D1A5BDB8818D85B1B0819985A5B1959 PUSH1 0x52 SHL PUSH1 0x44 DUP3 ADD MSTORE PUSH1 0x64 SWAP1 REVERT JUMPDEST PUSH4 0x4E487B71 PUSH1 0xE0 SHL DUP6 MSTORE PUSH1 0x41 PUSH1 0x4 MSTORE PUSH1 0x24 DUP6 REVERT JUMPDEST PUSH2 0xD84 SWAP2 SWAP3 POP PUSH1 0x20 RETURNDATASIZE PUSH1 0x20 GT PUSH2 0x528 JUMPI PUSH2 0x519 DUP2 DUP4 PUSH2 0x1040 JUMP JUMPDEST SWAP1 CODESIZE PUSH2 0xCB0 JUMP JUMPDEST DUP6 MLOAD RETURNDATASIZE DUP6 DUP3 RETURNDATACOPY RETURNDATASIZE SWAP1 REVERT JUMPDEST DUP1 DUP1 DUP1 PUSH2 0xDAA SWAP5 PUSH1 0x24 CALLDATALOAD SWAP1 GAS CALL PUSH2 0x483 PUSH2 0x12C0 JUMP JUMPDEST CODESIZE DUP6 PUSH2 0xBCB JUMP JUMPDEST PUSH2 0xDCA SWAP2 POP PUSH1 0x20 RETURNDATASIZE PUSH1 0x20 GT PUSH2 0x528 JUMPI PUSH2 0x519 DUP2 DUP4 PUSH2 0x1040 JUMP JUMPDEST CODESIZE PUSH2 0xBBC JUMP JUMPDEST DUP7 MLOAD RETURNDATASIZE DUP7 DUP3 RETURNDATACOPY RETURNDATASIZE SWAP1 REVERT JUMPDEST DUP5 MLOAD PUSH3 0x461BCD PUSH1 0xE5 SHL DUP2 MSTORE PUSH1 0x20 PUSH1 0x4 DUP3 ADD MSTORE PUSH1 0x1A PUSH1 0x24 DUP3 ADD MSTORE PUSH32 0x496E73756666696369656E7420746F6B656E2062616C616E6365000000000000 PUSH1 0x44 DUP3 ADD MSTORE PUSH1 0x64 SWAP1 REVERT JUMPDEST DUP6 MLOAD PUSH3 0x461BCD PUSH1 0xE5 SHL DUP2 MSTORE PUSH1 0x20 PUSH1 0x4 DUP3 ADD MSTORE PUSH1 0x13 PUSH1 0x24 DUP3 ADD MSTORE PUSH19 0x115E18D959591CC818DD5C9D99481B1A5B5A5D PUSH1 0x6A SHL PUSH1 0x44 DUP3 ADD MSTORE PUSH1 0x64 SWAP1 REVERT JUMPDEST DUP6 MLOAD PUSH3 0x461BCD PUSH1 0xE5 SHL DUP2 MSTORE PUSH1 0x20 PUSH1 0x4 DUP3 ADD MSTORE PUSH1 0x13 PUSH1 0x24 DUP3 ADD MSTORE PUSH19 0x4E6F20746F6B656E7320617661696C61626C65 PUSH1 0x68 SHL PUSH1 0x44 DUP3 ADD MSTORE PUSH1 0x64 SWAP1 REVERT JUMPDEST DUP3 MLOAD PUSH3 0x461BCD PUSH1 0xE5 SHL DUP2 MSTORE PUSH1 0x20 PUSH1 0x4 DUP3 ADD MSTORE PUSH1 0x14 PUSH1 0x24 DUP3 ADD MSTORE PUSH20 0x125B98DBDC9C9958DD0813D2D088185B5BDD5B9D PUSH1 0x62 SHL PUSH1 0x44 DUP3 ADD MSTORE PUSH1 0x64 SWAP1 REVERT JUMPDEST PUSH2 0x627 SWAP2 POP PUSH1 0x20 RETURNDATASIZE PUSH1 0x20 GT PUSH2 0x62D JUMPI PUSH2 0x61F DUP2 DUP4 PUSH2 0x1040 JUMP JUMPDEST DUP5 MLOAD RETURNDATASIZE DUP5 DUP3 RETURNDATACOPY RETURNDATASIZE SWAP1 REVERT JUMPDEST SWAP1 POP CALLVALUE PUSH2 0x97F JUMPI PUSH1 0x20 CALLDATASIZE PUSH1 0x3 NOT ADD SLT PUSH2 0x97F JUMPI DUP3 DUP3 SWAP2 PUSH1 0xC0 SWAP5 PUSH1 0xA0 PUSH2 0xF13 PUSH2 0xFC7 JUMP JUMPDEST SWAP3 PUSH2 0xF1D DUP2 PUSH2 0x100E JUMP JUMPDEST DUP3 DUP2 MSTORE DUP3 PUSH1 0x20 DUP3 ADD MSTORE DUP3 DUP7 DUP3 ADD MSTORE DUP3 PUSH1 0x60 DUP3 ADD MSTORE DUP3 PUSH1 0x80 DUP3 ADD MSTORE ADD MSTORE PUSH1 0x1 DUP1 PUSH1 0xA0 SHL SUB AND DUP2 MSTORE PUSH1 0x3 PUSH1 0x20 MSTORE KECCAK256 SWAP1 DUP1 MLOAD PUSH2 0xF55 DUP2 PUSH2 0x100E JUMP JUMPDEST DUP3 SLOAD SWAP3 DUP4 DUP3 MSTORE PUSH1 0x1 DUP2 ADD SLOAD SWAP3 PUSH1 0x20 DUP4 ADD SWAP4 DUP5 MSTORE PUSH1 0x2 DUP3 ADD SLOAD DUP2 DUP5 ADD SWAP1 DUP2 MSTORE PUSH1 0x4 PUSH1 0x3 DUP5 ADD SLOAD SWAP4 PUSH1 0x60 DUP7 ADD SWAP5 DUP6 MSTORE ADD SLOAD SWAP5 PUSH1 0xFF PUSH1 0xA0 PUSH1 0x80 DUP8 ADD SWAP7 DUP3 DUP10 AND ISZERO ISZERO DUP9 MSTORE ADD SWAP7 PUSH1 0x8 SHR AND ISZERO ISZERO DUP7 MSTORE DUP3 MLOAD SWAP7 DUP8 MSTORE MLOAD PUSH1 0x20 DUP8 ADD MSTORE MLOAD SWAP1 DUP6 ADD MSTORE MLOAD PUSH1 0x60 DUP5 ADD MSTORE MLOAD ISZERO ISZERO PUSH1 0x80 DUP4 ADD MSTORE MLOAD ISZERO ISZERO PUSH1 0xA0 DUP3 ADD MSTORE RETURN JUMPDEST PUSH1 0x4 CALLDATALOAD SWAP1 PUSH1 0x1 PUSH1 0x1 PUSH1 0xA0 SHL SUB DUP3 AND DUP3 SUB PUSH2 0xFDD JUMPI JUMP JUMPDEST PUSH1 0x0 DUP1 REVERT JUMPDEST PUSH1 0x0 SLOAD PUSH1 0x1 PUSH1 0x1 PUSH1 0xA0 SHL SUB AND CALLER SUB PUSH2 0xFF6 JUMPI JUMP JUMPDEST PUSH1 0x40 MLOAD PUSH4 0x118CDAA7 PUSH1 0xE0 SHL DUP2 MSTORE CALLER PUSH1 0x4 DUP3 ADD MSTORE PUSH1 0x24 SWAP1 REVERT JUMPDEST PUSH1 0xC0 DUP2 ADD SWAP1 DUP2 LT PUSH8 0xFFFFFFFFFFFFFFFF DUP3 GT OR PUSH2 0x102A JUMPI PUSH1 0x40 MSTORE JUMP JUMPDEST PUSH4 0x4E487B71 PUSH1 0xE0 SHL PUSH1 0x0 MSTORE PUSH1 0x41 PUSH1 0x4 MSTORE PUSH1 0x24 PUSH1 0x0 REVERT JUMPDEST SWAP1 PUSH1 0x1F DUP1 NOT SWAP2 ADD AND DUP2 ADD SWAP1 DUP2 LT PUSH8 0xFFFFFFFFFFFFFFFF DUP3 GT OR PUSH2 0x102A JUMPI PUSH1 0x40 MSTORE JUMP JUMPDEST SWAP1 DUP2 PUSH1 0x20 SWAP2 SUB SLT PUSH2 0xFDD JUMPI MLOAD DUP1 ISZERO ISZERO DUP2 SUB PUSH2 0xFDD JUMPI SWAP1 JUMP JUMPDEST ISZERO PUSH2 0x1081 JUMPI JUMP JUMPDEST PUSH1 0x40 MLOAD PUSH3 0x461BCD PUSH1 0xE5 SHL DUP2 MSTORE PUSH1 0x20 PUSH1 0x4 DUP3 ADD MSTORE PUSH1 0xD PUSH1 0x24 DUP3 ADD MSTORE PUSH13 0x24B73B30B634B2103A37B5B2B7 PUSH1 0x99 SHL PUSH1 0x44 DUP3 ADD MSTORE PUSH1 0x64 SWAP1 REVERT JUMPDEST ISZERO PUSH2 0x10BD JUMPI JUMP JUMPDEST PUSH1 0x40 MLOAD PUSH3 0x461BCD PUSH1 0xE5 SHL DUP2 MSTORE PUSH1 0x20 PUSH1 0x4 DUP3 ADD MSTORE PUSH1 0x10 PUSH1 0x24 DUP3 ADD MSTORE PUSH16 0x4375727665206E6F7420616374697665 PUSH1 0x80 SHL PUSH1 0x44 DUP3 ADD MSTORE PUSH1 0x64 SWAP1 REVERT JUMPDEST SWAP2 SWAP1 DUP3 SUB SWAP2 DUP3 GT PUSH2 0x1102 JUMPI JUMP JUMPDEST PUSH4 0x4E487B71 PUSH1 0xE0 SHL PUSH1 0x0 MSTORE PUSH1 0x11 PUSH1 0x4 MSTORE PUSH1 0x24 PUSH1 0x0 REVERT JUMPDEST DUP2 DUP2 MUL SWAP3 SWAP2 DUP2 ISZERO SWAP2 DUP5 DIV EQ OR ISZERO PUSH2 0x1102 JUMPI JUMP JUMPDEST DUP2 ISZERO PUSH2 0x1135 JUMPI DIV SWAP1 JUMP JUMPDEST PUSH4 0x4E487B71 PUSH1 0xE0 SHL PUSH1 0x0 MSTORE PUSH1 0x12 PUSH1 0x4 MSTORE PUSH1 0x24 PUSH1 0x0 REVERT JUMPDEST PUSH1 0x1 DUP1 PUSH1 0xA0 SHL SUB AND PUSH1 0x0 MSTORE PUSH1 0x3 PUSH1 0x20 MSTORE PUSH1 0x40 PUSH1 0x0 KECCAK256 PUSH1 0x40 MLOAD PUSH2 0x116C DUP2 PUSH2 0x100E JUMP JUMPDEST DUP2 SLOAD DUP2 MSTORE PUSH1 0x1 DUP3 ADD SLOAD PUSH1 0x20 DUP3 ADD MSTORE PUSH1 0x2 DUP3 ADD SLOAD SWAP1 PUSH1 0x40 DUP2 ADD SWAP2 DUP3 MSTORE PUSH1 0x4 PUSH1 0x3 DUP5 ADD SLOAD SWAP4 PUSH1 0x60 DUP4 ADD SWAP5 DUP6 MSTORE ADD SLOAD PUSH2 0x11BA PUSH1 0xFF PUSH1 0x80 DUP5 ADD SWAP3 DUP2 DUP2 AND ISZERO ISZERO DUP5 MSTORE PUSH1 0x8 SHR AND ISZERO ISZERO DUP1 PUSH1 0xA0 DUP6 ADD MSTORE PUSH2 0x10B6 JUMP JUMPDEST MLOAD PUSH2 0x1201 JUMPI PUSH2 0x11CE SWAP2 MLOAD SWAP3 MLOAD SWAP1 MLOAD SWAP1 PUSH2 0x10F5 JUMP JUMPDEST SWAP1 DUP2 ISZERO DUP1 ISZERO PUSH2 0x11F9 JUMPI JUMPDEST PUSH2 0x11F1 JUMPI PUSH2 0x11EE SWAP3 PUSH2 0x11E9 SWAP2 PUSH2 0x1118 JUMP JUMPDEST PUSH2 0x112B JUMP JUMPDEST SWAP1 JUMP JUMPDEST POP POP POP PUSH1 0x0 SWAP1 JUMP JUMPDEST POP DUP3 ISZERO PUSH2 0x11D8 JUMP JUMPDEST POP POP POP POP PUSH1 0x0 SWAP1 JUMP JUMPDEST ISZERO PUSH2 0x1211 JUMPI JUMP JUMPDEST PUSH1 0x40 MLOAD PUSH3 0x461BCD PUSH1 0xE5 SHL DUP2 MSTORE PUSH1 0x20 PUSH1 0x4 DUP3 ADD MSTORE PUSH1 0xF PUSH1 0x24 DUP3 ADD MSTORE PUSH15 0x151BDAD95B8819DC98591D585D1959 PUSH1 0x8A SHL PUSH1 0x44 DUP3 ADD MSTORE PUSH1 0x64 SWAP1 REVERT JUMPDEST ISZERO PUSH2 0x124F JUMPI JUMP JUMPDEST PUSH1 0x40 MLOAD PUSH3 0x461BCD PUSH1 0xE5 SHL DUP2 MSTORE PUSH1 0x20 PUSH1 0x4 DUP3 ADD MSTORE PUSH1 0x1D PUSH1 0x24 DUP3 ADD MSTORE PUSH32 0x416D6F756E74206D7573742062652067726561746572207468616E2030000000 PUSH1 0x44 DUP3 ADD MSTORE PUSH1 0x64 SWAP1 REVERT JUMPDEST SWAP2 SWAP1 DUP3 ADD DUP1 SWAP3 GT PUSH2 0x1102 JUMPI JUMP JUMPDEST SWAP1 DUP2 PUSH1 0x20 SWAP2 SUB SLT PUSH2 0xFDD JUMPI MLOAD PUSH1 0x1 PUSH1 0x1 PUSH1 0xA0 SHL SUB DUP2 AND DUP2 SUB PUSH2 0xFDD JUMPI SWAP1 JUMP JUMPDEST RETURNDATASIZE ISZERO PUSH2 0x12FB JUMPI RETURNDATASIZE SWAP1 PUSH8 0xFFFFFFFFFFFFFFFF DUP3 GT PUSH2 0x102A JUMPI PUSH1 0x40 MLOAD SWAP2 PUSH2 0x12EF PUSH1 0x1F DUP3 ADD PUSH1 0x1F NOT AND PUSH1 0x20 ADD DUP5 PUSH2 0x1040 JUMP JUMPDEST DUP3 MSTORE RETURNDATASIZE PUSH1 0x0 PUSH1 0x20 DUP5 ADD RETURNDATACOPY JUMP JUMPDEST PUSH1 0x60 SWAP1 JUMP JUMPDEST ISZERO PUSH2 0x1307 JUMPI JUMP JUMPDEST PUSH1 0x40 MLOAD PUSH3 0x461BCD PUSH1 0xE5 SHL DUP2 MSTORE PUSH1 0x20 PUSH1 0x4 DUP3 ADD MSTORE PUSH1 0x1B PUSH1 0x24 DUP3 ADD MSTORE PUSH32 0x466565206D616E61676572207472616E73666572206661696C65640000000000 PUSH1 0x44 DUP3 ADD MSTORE PUSH1 0x64 SWAP1 REVERT JUMPDEST SWAP1 PUSH1 0x0 PUSH1 0x20 SWAP2 DUP3 DUP2 MLOAD SWAP2 ADD DUP3 DUP6 GAS CALL ISZERO PUSH2 0x13A8 JUMPI PUSH1 0x0 MLOAD RETURNDATASIZE PUSH2 0x139F JUMPI POP PUSH1 0x1 PUSH1 0x1 PUSH1 0xA0 SHL SUB DUP2 AND EXTCODESIZE ISZERO JUMPDEST PUSH2 0x137D JUMPI POP JUMP JUMPDEST PUSH1 0x40 MLOAD PUSH4 0x5274AFE7 PUSH1 0xE0 SHL DUP2 MSTORE PUSH1 0x1 PUSH1 0x1 PUSH1 0xA0 SHL SUB SWAP1 SWAP2 AND PUSH1 0x4 DUP3 ADD MSTORE PUSH1 0x24 SWAP1 REVERT JUMPDEST PUSH1 0x1 EQ ISZERO PUSH2 0x1376 JUMP JUMPDEST PUSH1 0x40 MLOAD RETURNDATASIZE PUSH1 0x0 DUP3 RETURNDATACOPY RETURNDATASIZE SWAP1 REVERT JUMPDEST PUSH1 0x2 PUSH1 0x1 SLOAD EQ PUSH2 0x13C5 JUMPI PUSH1 0x2 PUSH1 0x1 SSTORE JUMP JUMPDEST PUSH1 0x40 MLOAD PUSH4 0x3EE5AEB5 PUSH1 0xE0 SHL DUP2 MSTORE PUSH1 0x4 SWAP1 REVERT JUMPDEST DUP1 ISZERO PUSH2 0x144F JUMPI PUSH12 0x295BE96E640669720000000 SWAP1 DUP2 DUP4 LT ISZERO PUSH2 0x11F1 JUMPI PUSH2 0x13FC DUP4 PUSH2 0x14AC JUMP JUMPDEST DUP1 ISZERO PUSH2 0x1443 JUMPI JUMPDEST PUSH8 0xDE0B6B3A7640000 DUP1 DUP4 MUL SWAP3 DUP4 DIV SUB PUSH2 0x1102 JUMPI PUSH2 0x1420 SWAP2 PUSH2 0x112B JUMP JUMPDEST SWAP2 DUP2 PUSH2 0x142C DUP5 DUP4 PUSH2 0x1294 JUMP JUMPDEST GT PUSH2 0x1436 JUMPI POP POP SWAP1 JUMP JUMPDEST DUP2 SUB SWAP2 POP DUP2 GT PUSH2 0x1102 JUMPI SWAP1 JUMP JUMPDEST POP PUSH5 0xE8D4A51000 PUSH2 0x1403 JUMP JUMPDEST POP POP PUSH1 0x0 SWAP1 JUMP JUMPDEST SWAP1 DUP2 ISZERO DUP1 ISZERO PUSH2 0x14A3 JUMPI JUMPDEST PUSH2 0x144F JUMPI DUP2 PUSH2 0x1496 DUP3 PUSH2 0x1490 PUSH2 0x148A PUSH2 0x1485 PUSH8 0xDE0B6B3A7640000 SWAP8 PUSH2 0x149F SWAP8 PUSH2 0x10F5 JUMP JUMPDEST PUSH2 0x14AC JUMP JUMPDEST SWAP2 PUSH2 0x14AC JUMP JUMPDEST SWAP1 PUSH2 0x1294 JUMP JUMPDEST PUSH1 0x1 SHR SWAP1 PUSH2 0x1118 JUMP JUMPDEST DIV SWAP1 JUMP JUMPDEST POP DUP1 DUP3 GT PUSH2 0x1460 JUMP JUMPDEST PUSH10 0xD3C21BCECCEDA1000000 SWAP1 DIV PUSH5 0xE8D4A51000 SWAP1 DUP2 DUP2 MUL SWAP1 DUP1 DUP3 DIV DUP4 EQ SWAP1 ISZERO OR ISZERO PUSH2 0x1102 JUMPI DUP2 ADD DUP1 SWAP2 GT PUSH2 0x1102 JUMPI SWAP1 JUMP INVALID LOG2 PUSH5 0x6970667358 0x22 SLT KECCAK256 EXTCODEHASH 0xED 0xAE 0xB0 0xB2 SWAP13 0xD1 COINBASE 0x4F 0xE2 GASLIMIT CALLDATALOAD 0xCE SAR DUP5 EXTCODESIZE SAR 0xBB 0xE 0x4E 0xCB 0xD3 NOT 0xFC BLOCKHASH 0x2A 0xD6 0xA7 0xAC 0x24 JUMPDEST 0xAB PUSH5 0x736F6C6343 STOP ADDMOD EQ STOP CALLER "},"methodIdentifiers":{"DEFAULT_VIRTUAL_OKB()":"d73337df","DEFAULT_VIRTUAL_TOKENS()":"9571b275","GRADUATION_THRESHOLD()":"fcfc0c09","MAX_SUPPLY_FOR_CURVE()":"4f39cb36","buyTokens(address,uint256)":"0752881a","getCurveInfo(address)":"047f8bc1","getPrice(address,uint256)":"449e815d","getTokenBalance(address)":"3aecd0e3","initializeCurve(address)":"360f2dc2","owner()":"8da5cb5b","registry()":"7b103999","renounceOwnership()":"715018a6","sellTokens(address,uint256)":"c464fe65","tokenBalances(address)":"523fba7f","tokenCurves(address)":"169f7dee","transferOwnership(address)":"f2fde38b","updateCurveParameters(address,uint256,uint256)":"c8c5b1cb"}}}}}