{
  "_format": "hh-sol-artifact-1",
  "contractName": "TokenFactory",
  "sourceName": "contracts/TokenFactory.sol",
  "abi": [
    {
      "inputs": [
        {
          "internalType": "address",
          "name": "_registry",
          "type": "address"
        }
      ],
      "stateMutability": "nonpayable",
      "type": "constructor"
    },
    {
      "inputs": [
        {
          "internalType": "address",
          "name": "owner",
          "type": "address"
        }
      ],
      "name": "OwnableInvalidOwner",
      "type": "error"
    },
    {
      "inputs": [
        {
          "internalType": "address",
          "name": "account",
          "type": "address"
        }
      ],
      "name": "OwnableUnauthorizedAccount",
      "type": "error"
    },
    {
      "inputs": [],
      "name": "ReentrancyGuardReentrantCall",
      "type": "error"
    },
    {
      "anonymous": false,
      "inputs": [
        {
          "indexed": true,
          "internalType": "address",
          "name": "tokenAddress",
          "type": "address"
        },
        {
          "indexed": false,
          "internalType": "string",
          "name": "imageUri",
          "type": "string"
        },
        {
          "indexed": false,
          "internalType": "string",
          "name": "description",
          "type": "string"
        }
      ],
      "name": "MetadataUpdated",
      "type": "event"
    },
    {
      "anonymous": false,
      "inputs": [
        {
          "indexed": true,
          "internalType": "address",
          "name": "previousOwner",
          "type": "address"
        },
        {
          "indexed": true,
          "internalType": "address",
          "name": "newOwner",
          "type": "address"
        }
      ],
      "name": "OwnershipTransferred",
      "type": "event"
    },
    {
      "anonymous": false,
      "inputs": [
        {
          "indexed": true,
          "internalType": "address",
          "name": "tokenAddress",
          "type": "address"
        },
        {
          "indexed": false,
          "internalType": "uint256",
          "name": "amount",
          "type": "uint256"
        }
      ],
      "name": "TokenBurned",
      "type": "event"
    },
    {
      "anonymous": false,
      "inputs": [
        {
          "indexed": true,
          "internalType": "address",
          "name": "tokenAddress",
          "type": "address"
        },
        {
          "indexed": true,
          "internalType": "address",
          "name": "creator",
          "type": "address"
        },
        {
          "indexed": false,
          "internalType": "string",
          "name": "name",
          "type": "string"
        },
        {
          "indexed": false,
          "internalType": "string",
          "name": "symbol",
          "type": "string"
        },
        {
          "indexed": false,
          "internalType": "uint256",
          "name": "totalSupply",
          "type": "uint256"
        }
      ],
      "name": "TokenCreated",
      "type": "event"
    },
    {
      "anonymous": false,
      "inputs": [
        {
          "indexed": true,
          "internalType": "address",
          "name": "tokenAddress",
          "type": "address"
        },
        {
          "indexed": false,
          "internalType": "uint256",
          "name": "amount",
          "type": "uint256"
        }
      ],
      "name": "TokenMinted",
      "type": "event"
    },
    {
      "inputs": [],
      "name": "CREATION_FEE",
      "outputs": [
        {
          "internalType": "uint256",
          "name": "",
          "type": "uint256"
        }
      ],
      "stateMutability": "view",
      "type": "function"
    },
    {
      "inputs": [],
      "name": "INITIAL_SUPPLY",
      "outputs": [
        {
          "internalType": "uint256",
          "name": "",
          "type": "uint256"
        }
      ],
      "stateMutability": "view",
      "type": "function"
    },
    {
      "inputs": [
        {
          "internalType": "uint256",
          "name": "",
          "type": "uint256"
        }
      ],
      "name": "allTokens",
      "outputs": [
        {
          "internalType": "address",
          "name": "",
          "type": "address"
        }
      ],
      "stateMutability": "view",
      "type": "function"
    },
    {
      "inputs": [
        {
          "internalType": "address",
          "name": "tokenAddress",
          "type": "address"
        },
        {
          "internalType": "uint256",
          "name": "amount",
          "type": "uint256"
        }
      ],
      "name": "burnToken",
      "outputs": [],
      "stateMutability": "nonpayable",
      "type": "function"
    },
    {
      "inputs": [
        {
          "internalType": "string",
          "name": "name",
          "type": "string"
        },
        {
          "internalType": "string",
          "name": "symbol",
          "type": "string"
        },
        {
          "internalType": "string",
          "name": "imageUri",
          "type": "string"
        },
        {
          "internalType": "string",
          "name": "description",
          "type": "string"
        }
      ],
      "name": "createToken",
      "outputs": [
        {
          "internalType": "address",
          "name": "",
          "type": "address"
        }
      ],
      "stateMutability": "payable",
      "type": "function"
    },
    {
      "inputs": [
        {
          "internalType": "address",
          "name": "",
          "type": "address"
        },
        {
          "internalType": "uint256",
          "name": "",
          "type": "uint256"
        }
      ],
      "name": "creatorTokens",
      "outputs": [
        {
          "internalType": "address",
          "name": "",
          "type": "address"
        }
      ],
      "stateMutability": "view",
      "type": "function"
    },
    {
      "inputs": [],
      "name": "getAllTokens",
      "outputs": [
        {
          "internalType": "address[]",
          "name": "",
          "type": "address[]"
        }
      ],
      "stateMutability": "view",
      "type": "function"
    },
    {
      "inputs": [
        {
          "internalType": "address",
          "name": "creator",
          "type": "address"
        }
      ],
      "name": "getCreatorTokens",
      "outputs": [
        {
          "internalType": "address[]",
          "name": "",
          "type": "address[]"
        }
      ],
      "stateMutability": "view",
      "type": "function"
    },
    {
      "inputs": [
        {
          "internalType": "address",
          "name": "tokenAddress",
          "type": "address"
        }
      ],
      "name": "getTokenMetadata",
      "outputs": [
        {
          "components": [
            {
              "internalType": "string",
              "name": "name",
              "type": "string"
            },
            {
              "internalType": "string",
              "name": "symbol",
              "type": "string"
            },
            {
              "internalType": "string",
              "name": "imageUri",
              "type": "string"
            },
            {
              "internalType": "string",
              "name": "description",
              "type": "string"
            },
            {
              "internalType": "address",
              "name": "creator",
              "type": "address"
            },
            {
              "internalType": "uint256",
              "name": "createdAt",
              "type": "uint256"
            },
            {
              "internalType": "uint256",
              "name": "totalSupply",
              "type": "uint256"
            },
            {
              "internalType": "bool",
              "name": "active",
              "type": "bool"
            }
          ],
          "internalType": "struct TokenFactory.TokenMetadata",
          "name": "",
          "type": "tuple"
        }
      ],
      "stateMutability": "view",
      "type": "function"
    },
    {
      "inputs": [
        {
          "internalType": "address",
          "name": "tokenAddress",
          "type": "address"
        },
        {
          "internalType": "uint256",
          "name": "amount",
          "type": "uint256"
        }
      ],
      "name": "mintToken",
      "outputs": [],
      "stateMutability": "nonpayable",
      "type": "function"
    },
    {
      "inputs": [],
      "name": "owner",
      "outputs": [
        {
          "internalType": "address",
          "name": "",
          "type": "address"
        }
      ],
      "stateMutability": "view",
      "type": "function"
    },
    {
      "inputs": [],
      "name": "registry",
      "outputs": [
        {
          "internalType": "contract IRegistry",
          "name": "",
          "type": "address"
        }
      ],
      "stateMutability": "view",
      "type": "function"
    },
    {
      "inputs": [],
      "name": "renounceOwnership",
      "outputs": [],
      "stateMutability": "nonpayable",
      "type": "function"
    },
    {
      "inputs": [
        {
          "internalType": "address",
          "name": "tokenAddress",
          "type": "address"
        },
        {
          "internalType": "string",
          "name": "imageUri",
          "type": "string"
        },
        {
          "internalType": "string",
          "name": "description",
          "type": "string"
        }
      ],
      "name": "setMetadata",
      "outputs": [],
      "stateMutability": "nonpayable",
      "type": "function"
    },
    {
      "inputs": [
        {
          "internalType": "address",
          "name": "",
          "type": "address"
        }
      ],
      "name": "tokenMetadata",
      "outputs": [
        {
          "internalType": "string",
          "name": "name",
          "type": "string"
        },
        {
          "internalType": "string",
          "name": "symbol",
          "type": "string"
        },
        {
          "internalType": "string",
          "name": "imageUri",
          "type": "string"
        },
        {
          "internalType": "string",
          "name": "description",
          "type": "string"
        },
        {
          "internalType": "address",
          "name": "creator",
          "type": "address"
        },
        {
          "internalType": "uint256",
          "name": "createdAt",
          "type": "uint256"
        },
        {
          "internalType": "uint256",
          "name": "totalSupply",
          "type": "uint256"
        },
        {
          "internalType": "bool",
          "name": "active",
          "type": "bool"
        }
      ],
      "stateMutability": "view",
      "type": "function"
    },
    {
      "inputs": [
        {
          "internalType": "address",
          "name": "newOwner",
          "type": "address"
        }
      ],
      "name": "transferOwnership",
      "outputs": [],
      "stateMutability": "nonpayable",
      "type": "function"
    }
  ],
  "bytecode": "0x6080346100ca57601f61395938819003918201601f19168301916001600160401b038311848410176100cf578084926020946040528339810103126100ca57516001600160a01b0390818116908190036100ca5733156100b15760005460018060a01b0319903382821617600055604051933391167f8be0079c531659141344cd1fd0a4f28419497f9722a3daafe3b4186f6b6457e0600080a360018055600254161760025561387390816100e68239f35b604051631e4fbdf760e01b815260006004820152602490fd5b600080fd5b634e487b7160e01b600052604160045260246000fdfe60808060405260043610156200001457600080fd5b600090813560e01c9081632a5c792a1462001888575080632ff2e9dc146200185f57806349a2104d146200183b578063634282af14620017dc5780636fecdf2414620016e5578063715018a6146200168757806374abfa5414620015f557806379c6506814620014e65780637b10399914620014bb5780638da5cb5b1462001492578063a076965914620008c7578063c00f14ab1462000733578063d1df306c1462000574578063db3fa4cc1462000512578063eb3b0cba146200017b5763f2fde38b14620000e257600080fd5b34620001785760203660031901126200017857620000ff6200196b565b6200010962001b74565b6001600160a01b039081169081156200015f57600054826bffffffffffffffffffffffff60a01b821617600055167f8be0079c531659141344cd1fd0a4f28419497f9722a3daafe3b4186f6b6457e0600080a380f35b604051631e4fbdf760e01b815260048101849052602490fd5b80fd5b5034620001785760603660031901126200017857620001996200196b565b906024356001600160401b0381116200050e57620001bc90369060040162001b27565b6044356001600160401b0381116200050a57620001de90369060040162001b27565b9060018060a01b0393848116845260036020526200020785600460408720015416331462001bf7565b848116845260036020526200022660ff60076040872001541662001c38565b848116845260036020526040842082516001600160401b0381116200042f5762000254600283015462001987565b601f8111620004bd575b506020601f82116001146200044f57908060039392889162000443575b508160011b9160001990851b1c19161760028201555b01948351956001600160401b0387116200042f57620002b1815462001987565b601f8111620003e5575b50602096601f81116001146200035157916200032e949391836200033f94899a7f6c1850fce35387a891e82ca88e975790ab6f0709e9ed6842e01397f296012a7e999a9162000345575b508160011b916000199060031b1c19161790555b60405194859460408652604086019062001ac9565b918483036020860152169562001ac9565b0390a280f35b90508901513862000305565b81875260208720601f198216885b818110620003cc5750826200032e979694927f6c1850fce35387a891e82ca88e975790ab6f0709e9ed6842e01397f296012a7e999a9b6200033f979560019410620003b2575b5050811b01905562000319565b8b015160001960f88460031b161c191690553880620003a5565b888b0151835560209a8b019a600190930192016200035f565b81875260208720601f890160051c81019160208a1062000424575b601f0160051c01905b818110620004185750620002bb565b87815560010162000409565b909150819062000400565b634e487b7160e01b86526041600452602486fd5b9050850151386200027b565b6002830187526020872090601f198316885b818110620004a4575091839160039594600194106200048b575b5050811b01600282015562000291565b87015160001983871b60f8161c1916905538806200047b565b9192602060018192868b01518155019401920162000461565b60028301875260208720601f830160051c81019160208410620004ff575b601f0160051c01905b818110620004f357506200025e565b878155600101620004e4565b9091508190620004db565b8280fd5b5080fd5b5034620001785760403660031901126200017857620005306200196b565b6001600160a01b03908116825260056020526040822080546024359390841015620001785750602092620005649162001952565b9190546040519260031b1c168152f35b5034620001785760403660031901126200017857620005926200196b565b906024359160018060a01b0316808252602060038152620005bd60ff60076040862001541662001c38565b620005ca84151562001c78565b6040516370a0823160e01b81523360048201528181602481865afa908115620006b2579085918591620006f8575b5010620006bd57813b156200050a5760405163079cc67960e41b815233600482015260248101859052838160448183875af18015620006b2579084916200069a575b50829052600381526006604084200193845481810390811162000686577f1af5163f80e79b5e554f61e1d052084d3a3fe1166e42a265798c4e2ddce8ffa293949555604051908152a280f35b634e487b7160e01b85526011600452602485fd5b620006a590620019c4565b6200050a5782386200063a565b6040513d86823e3d90fd5b6064906040519062461bcd60e51b825260048201526014602482015273496e73756666696369656e742062616c616e636560601b6044820152fd5b809250838092503d83116200072b575b620007148183620019f5565b81010312620007275784905138620005f8565b8380fd5b503d62000708565b50346200017857602090816003193601126200017857620007536200196b565b91604051916200076383620019d8565b80606093848152848482015284604082015284808201528160808201528160a08201528160c082015260e00152600160a01b60019003809416815260038252604090209060405192620007b684620019d8565b620007c18362001a17565b8452620007d16001840162001a17565b84830190815292620007e66002820162001a17565b6040860190815295620007fc6003830162001a17565b9083870191825280600484015416956080880196875260058401549260a0890193845260068501549460c08a019586526007015460ff169560e08a0196151587526040519a8b9a898c5251610100809a8d01526101208c016200085f9162001ac9565b9351601f198c8603810160408e0152946200087a9162001ac9565b905191848c830301908c0152620008919162001ac9565b9051918982030160808a0152620008a89162001ac9565b95511660a08701525160c08601525160e0850152511515908301520390f35b50608036600319011262000178576004356001600160401b0381116200050e57620008f790369060040162001b27565b906024356001600160401b0381116200050e576200091a90369060040162001b27565b916044356001600160401b0381116200050a576200093d90369060040162001b27565b916064356001600160401b0381116200050e576200096090369060040162001b27565b926002600154146200148057600260015566038d7ea4c6800034106200143b57825115158062001430575b15620013f25760025460405163faac38ef60e01b81529190602090839060049082906001600160a01b03165afa91821562001018578392620013cc575b506001600160a01b038216156200138f5760405180611b788101106001600160401b03611b78830111176200137b57611b7862001cc6823960c0611b788201528062000a6d62000a5662000a3f62000a2860c0611b788601018a62001ac9565b611b78850181036020611b78870101528b62001ac9565b611b78840181036040611b78860101528562001ac9565b611b78830181036060611b78850101528862001ac9565b33611b78830160808101919091526001600160a01b03861660a090910152039084f094851562001018576040519162000aa683620019d8565b858352876020840152604083015260608201523360808201524260a08201526b033b2e3c9fd0803ce800000060c0820152600160e082015260018060a01b038516835260036020526040832081518051906001600160401b0382116200042f57819062000b14845462001987565b601f811162001329575b50602090601f8311600114620012bb578792620012af575b50508160011b916000199060031b1c19161781555b60208201518051906001600160401b0382116200042f57819062000b73600185015462001987565b601f81116200125a575b50602090601f8311600114620011e6578792620011da575b50508160011b916000199060031b1c19161760018201555b60408201518051906001600160401b0382116200042f57819062000bd5600285015462001987565b601f811162001185575b50602090601f83116001146200111157879262001105575b50508160011b916000199060031b1c19161760028201555b60608201518051906001600160401b0382116200042f5762000c35600384015462001987565b601f8111620010bc575b50602090601f83116001146200104557918060e09492600794899262001039575b50508160011b916000199060031b1c19161760038201555b6004810160018060a01b036080860151166bffffffffffffffffffffffff60a01b82541617905560a0840151600582015560c0840151600682015501910151151560ff80198354169116179055600454600160401b81101562000fea576001810180600455811015620010235760046000527f8a35acfbc15ff81a39ae7d344fd709f28e8600b4aa8c65c6b64bfe7fe36bd19b0180546001600160a01b0319166001600160a01b0386161790553382526005602052604082208054600160401b81101562000fea5762000d519160018201815562001952565b81546001600160a01b0360039290921b82811b1990911687831690911b1790915560025416803b156200050a576040516213049560e71b81526001600160a01b03861660048201529083908290602490829084905af18015620010185790839162001000575b5050604051631b0796e160e11b602082019081526001600160a01b03861660248084019190915282526060820192906001600160401b0384118385101762000fea5784809493819460405251925af162000e1062001bc2565b501562000f995760025460405163796b1c1360e11b815290602090829060049082906001600160a01b03165afa90811562000f8e57829162000f58575b506001600160a01b03811615158062000f4e575b62000ef2575b505062000e9560209362000e876040519360608552606085019062001ac9565b908382038685015262001ac9565b6b033b2e3c9fd0803ce8000000604083015233916001600160a01b038416917f6e6ae68e7d7d45fbd855c40d1eaafa8de46c5fbec3ee26f1af88730e400bc92c919081900390a3600180556040516001600160a01b039091168152f35b8180809234905af162000f0462001bc2565b501562000f1357388062000e67565b60405162461bcd60e51b8152602060048201526013602482015272119959481d1c985b9cd9995c8819985a5b1959606a1b6044820152606490fd5b5034151562000e61565b62000f7f915060203d60201162000f86575b62000f768183620019f5565b81019062001ba1565b3862000e4d565b503d62000f6a565b6040513d84823e3d90fd5b60405162461bcd60e51b815260206004820152602360248201527f426f6e64696e6720637572766520696e697469616c697a6174696f6e206661696044820152621b195960ea1b6064820152608490fd5b634e487b7160e01b600052604160045260246000fd5b6200100b90620019c4565b6200050e57813862000db7565b6040513d85823e3d90fd5b634e487b7160e01b600052603260045260246000fd5b01519050388062000c60565b906003840187526020872091875b601f1985168110620010a357509260e0949260019260079583601f1981161062001089575b505050811b01600382015562000c78565b015160001960f88460031b161c1916905538808062001078565b9192602060018192868501518155019401920162001053565b60038401875260208720601f840160051c810160208510620010fd575b601f830160051c82018110620010f157505062000c3f565b888155600101620010d9565b5080620010d9565b01519050388062000bf7565b9250600284018752602087209087935b601f198416851062001169576001945083601f198116106200114f575b505050811b01600282015562000c0f565b015160001960f88460031b161c191690553880806200113e565b8181015183556020948501946001909301929091019062001121565b90915060028401875260208720601f840160051c810160208510620011d2575b90849392915b601f830160051c82018110620011c357505062000bdf565b898155859450600101620011ab565b5080620011a5565b01519050388062000b95565b9250600184018752602087209087935b601f19841685106200123e576001945083601f1981161062001224575b505050811b01600182015562000bad565b015160001960f88460031b161c1916905538808062001213565b81810151835560209485019460019093019290910190620011f6565b90915060018401875260208720601f840160051c810160208510620012a7575b90849392915b601f830160051c820181106200129857505062000b7d565b89815585945060010162001280565b50806200127a565b01519050388062000b36565b9250838752602087209087935b601f19841685106200130d576001945083601f19811610620012f3575b505050811b01815562000b4b565b015160001960f88460031b161c19169055388080620012e5565b81810151835560209485019460019093019290910190620012c8565b90915083875260208720601f840160051c81016020851062001373575b90849392915b601f830160051c820181106200136457505062000b1e565b8981558594506001016200134c565b508062001346565b634e487b7160e01b84526041600452602484fd5b60405162461bcd60e51b8152602060048201526015602482015274109bdb991a5b99c818dd5c9d99481b9bdd081cd95d605a1b6044820152606490fd5b620013ea91925060203d60201162000f865762000f768183620019f5565b9038620009c8565b60405162461bcd60e51b8152602060048201526016602482015275125b9d985b1a59081b985b59481bdc881cde5b589bdb60521b6044820152606490fd5b50845115156200098b565b60405162461bcd60e51b815260206004820152601960248201527f496e73756666696369656e74206372656174696f6e20666565000000000000006044820152606490fd5b604051633ee5aeb560e01b8152600490fd5b50346200017857806003193601126200017857546040516001600160a01b039091168152602090f35b503462000178578060031936011262000178576002546040516001600160a01b039091168152602090f35b5034620001785760403660031901126200017857620015046200196b565b6024356200152f60018060a01b03809316928385526003602052600460408620015416331462001bf7565b81835260036020526200154c60ff60076040862001541662001c38565b6200155981151562001c78565b813b156200050a576040516340c10f1960e01b815233600482015260248101829052838160448183875af18015620006b257620015df575b508183526003602052600660408420018054908282018092116200068657556040519081527fb9144c96c86541f6fa89c9f2f02495cccf4b08cd6643e26d34ee00aa586558a890602090a280f35b620015ed90939193620019c4565b913862001591565b503462000178576020806003193601126200050e576001600160a01b0391826200161e6200196b565b168152600582526040812092604051908193808654938481520195845280842093915b8383106200166d5762001669866200165c818a0382620019f5565b604051918291826200190c565b0390f35b845481168752958101956001948501949092019162001641565b50346200017857806003193601126200017857620016a462001b74565b80546001600160a01b03198116825581906001600160a01b03167f8be0079c531659141344cd1fd0a4f28419497f9722a3daafe3b4186f6b6457e08280a380f35b503462000178576020366003190112620001785762001794906001600160a01b039060409082620017156200196b565b168152600360205220906200172a8262001a17565b91620017396001820162001a17565b90620017486002820162001a17565b620017c16200175a6003840162001a17565b9460048401541694620017b2600585015493620017a360ff6007600689015498015416976040519b8c9b8c6101008091528d019062001ac9565b908b820360208d015262001ac9565b9089820360408b015262001ac9565b90878203606089015262001ac9565b93608086015260a085015260c0840152151560e08301520390f35b50346200017857602036600319011262000178576004356004548110156200050e5760049091527f8a35acfbc15ff81a39ae7d344fd709f28e8600b4aa8c65c6b64bfe7fe36bd19b01546040516001600160a01b039091168152602090f35b50346200017857806003193601126200017857602060405166038d7ea4c680008152f35b5034620001785780600319360112620001785760206040516b033b2e3c9fd0803ce80000008152f35b9050346200050e57816003193601126200050e57600480548083529083526020808301937f8a35acfbc15ff81a39ae7d344fd709f28e8600b4aa8c65c6b64bfe7fe36bd19b92915b828210620018eb5762001669856200165c81890382620019f5565b83546001600160a01b031686529485019460019384019390910190620018d0565b6020908160408183019282815285518094520193019160005b82811062001934575050505090565b83516001600160a01b03168552938101939281019260010162001925565b8054821015620010235760005260206000200190600090565b600435906001600160a01b03821682036200198257565b600080fd5b90600182811c92168015620019b9575b6020831014620019a357565b634e487b7160e01b600052602260045260246000fd5b91607f169162001997565b6001600160401b03811162000fea57604052565b61010081019081106001600160401b0382111762000fea57604052565b90601f801991011681019081106001600160401b0382111762000fea57604052565b906040519182600082549262001a2d8462001987565b90818452600194858116908160001462001aa4575060011462001a5d575b505062001a5b92500383620019f5565b565b9093915060005260209081600020936000915b81831062001a8b57505062001a5b9350820101388062001a4b565b8554888401850152948501948794509183019162001a70565b91505062001a5b94506020925060ff191682840152151560051b820101388062001a4b565b919082519283825260005b84811062001af6575050826000602080949584010152601f8019910116010190565b60208183018101518483018201520162001ad4565b6001600160401b03811162000fea57601f01601f191660200190565b81601f82011215620019825780359062001b418262001b0b565b9262001b516040519485620019f5565b828452602083830101116200198257816000926020809301838601378301015290565b6000546001600160a01b0316330362001b8957565b60405163118cdaa760e01b8152336004820152602490fd5b908160209103126200198257516001600160a01b0381168103620019825790565b3d1562001bf2573d9062001bd68262001b0b565b9162001be66040519384620019f5565b82523d6000602084013e565b606090565b1562001bff57565b60405162461bcd60e51b81526020600482015260116024820152702737ba103a37b5b2b71031b932b0ba37b960791b6044820152606490fd5b1562001c4057565b60405162461bcd60e51b815260206004820152601060248201526f546f6b656e206e6f742061637469766560801b6044820152606490fd5b1562001c8057565b60405162461bcd60e51b815260206004820152601d60248201527f416d6f756e74206d7573742062652067726561746572207468616e20300000006044820152606490fdfe604060c08152346200075b5762001b78803803806200001e8162000760565b928339810160c0828203126200075b5781516001600160401b0392908381116200075b57826200005091830162000786565b91602092838301518581116200075b57826200006e91850162000786565b94868401518181116200075b57836200008991860162000786565b926060850151908282116200075b57620000a591860162000786565b92620000c260a0620000ba60808801620007f8565b9601620007f8565b9383519083821162000658576003928354926001968785811c9516801562000750575b8b8610146200073a5781908b601f96878111620006e1575b50508b908683116001146200067a576000926200066e575b505060001982871b1c191690871b1784555b8951858111620006585760049a8b548881811c911680156200064d575b8c8210146200053557908b8287859411620005f4575b50508b908683116001146200058d5760009262000581575b505060001982871b1c191690871b178a555b6001600160a01b039788169081156200056a57600580546001600160a01b03198116841782559092908a167f8be0079c531659141344cd1fd0a4f28419497f9722a3daafe3b4186f6b6457e0600080a380519086821162000555576006548881811c911680156200054a575b8c8210146200053557908b8287859411620004dd575b50508b90868311600114620004725760009262000466575b505060001982871b1c191690871b176006555b81519485116200045157600754908682811c9216801562000446575b8a8310146200043157838211620003e7575b5050879184116001146200037a579383949184926000956200036e575b50501b92600019911b1c1916176007555b806080523360a0521691821562000357576002546b033b2e3c9fd0803ce80000009182820180921162000342575060025560008381528083528481208054830190558451918252917fddf252ad1be2c89b69c2b068fc378daa952ba7f163c4a11628f55a4df523b3ef91a35161136a90816200080e823960805181818161054701528181610b9e01528181610ec20152611081015260a051818181610363015281816105bd0152818161060f0152610c840152f35b601190634e487b7160e01b6000525260246000fd5b602490600085519163ec442f0560e01b8352820152fd5b0151935038806200027c565b9190601f19841692600760005284896000209460005b8b89838310620003cf5750505010620003b4575b50505050811b016007556200028d565b01519060f884600019921b161c1916905538808080620003a4565b86860151895590970196948501948893500162000390565b6007600052896000209084808801821c8301938c891062000427575b01901c019086905b8281106200041a57506200025f565b600081550186906200040b565b9350829362000403565b60228b634e487b7160e01b6000525260246000fd5b91607f16916200024d565b60418a634e487b7160e01b6000525260246000fd5b0151905038806200021e565b899350908c91601f198416600660005283600020936000905b828210620004c55750508411620004ac575b505050811b0160065562000231565b015160001983891b60f8161c191690553880806200049d565b8385015186558d979095019493840193018f6200048b565b909192506006600052868260002091818601871c83019386106200052b575b918b918695949301871c01915b8281106200051b57508d915062000206565b600081558594508b910162000509565b92508192620004fc565b60228d634e487b7160e01b6000525260246000fd5b90607f1690620001f0565b60418c634e487b7160e01b6000525260246000fd5b8b51631e4fbdf760e01b81526000818d0152602490fd5b01519050388062000172565b60008e81528d81208b9550929190601f198516908f5b828210620005dc5750508411620005c3575b505050811b018a5562000184565b015160001983891b60f8161c19169055388080620005b5565b8385015186558d979095019493840193018f620005a3565b909192508d60005286826000209181860160051c830193861062000643575b918b91869594930160051c01915b8281106200063357508d91506200015a565b600081558594508b910162000621565b9250819262000613565b90607f169062000144565b634e487b7160e01b600052604160045260246000fd5b01519050388062000115565b60008881528d81208b9550929190601f198516908f5b828210620006c95750508411620006b0575b505050811b01845562000127565b015160001983891b60f8161c19169055388080620006a2565b8385015186558d979095019493840193018f62000690565b909192508760005286826000209181860160051c830193861062000730575b918b91869594930160051c01915b8281106200072057508d9150620000fd565b600081558594508b91016200070e565b9250819262000700565b634e487b7160e01b600052602260045260246000fd5b94607f1694620000e5565b600080fd5b6040519190601f01601f191682016001600160401b038111838210176200065857604052565b919080601f840112156200075b5782516001600160401b0381116200065857602090620007bc601f8201601f1916830162000760565b928184528282870101116200075b5760005b818110620007e457508260009394955001015290565b8581018301518482018401528201620007ce565b51906001600160a01b03821682036200075b5756fe608060408181526004918236101561001657600080fd5b600092833560e01c91826302669b5214610eae5750816306fdde0314610e04578163095ea7b314610dda57816318160ddd14610dbb57816323b872dd14610cc7578163313ce56714610cab57816340c10f1914610b7257816342966c6814610b545781634ada218b14610b3057816356ce0e6c1461083d57816370a0823114610806578163715018a6146107a65781637284e416146106fc57816379cc6790146105e65781638a8c523c146105265781638da5cb5b146104fd578163902d55a5146104d657816395d89b4114610401578163a9059cbb146103d0578163aa2fe91b14610392578163c45a01551461034e578163dd62ed3e14610305578163ed58bad8146102af578163f2fde38b1461021b575063fc04b5e11461013857600080fd5b346102175781600319360112610217578051908260065461015881611026565b808552916001918083169081156101ef5750600114610192575b5050506101848261018e940383610f6b565b5191829182610ef1565b0390f35b9450600685527ff652222313e28459528d920b65115c16c04f3efc82aaedc97be59f3f377c0d3f5b8286106101d75750505061018482602061018e9582010194610172565b805460208787018101919091529095019481016101ba565b61018e97508693506020925061018494915060ff191682840152151560051b82010194610172565b5080fd5b9050346102ab5760203660031901126102ab57610236610f3a565b9061023f610ffa565b6001600160a01b03918216928315610295575050600554826bffffffffffffffffffffffff60a01b821617600555167f8be0079c531659141344cd1fd0a4f28419497f9722a3daafe3b4186f6b6457e08380a380f35b51631e4fbdf760e01b8152908101849052602490fd5b8280fd5b5050346102175780600319360112610217576102c9610f3a565b9060243591821515809303610301576102e0610ffa565b60018060a01b03168352600960205282209060ff8019835416911617905580f35b8380fd5b50503461021757806003193601126102175780602092610323610f3a565b61032b610f55565b6001600160a01b0391821683526001865283832091168252845220549051908152f35b505034610217578160031936011261021757517f00000000000000000000000000000000000000000000000000000000000000006001600160a01b03168152602090f35b5050346102175760203660031901126102175760209160ff9082906001600160a01b036103bd610f3a565b1681526009855220541690519015158152f35b5050346102175780600319360112610217576020906103fa6103f0610f3a565b6024359033611060565b5160018152f35b919050346102ab57826003193601126102ab578051918381549061042482611026565b808652926001928084169081156104ab575060011461044f575b61018e8686610184828b0383610f6b565b815294507f8a35acfbc15ff81a39ae7d344fd709f28e8600b4aa8c65c6b64bfe7fe36bd19b5b8286106104935750505061018482602061018e95820101943861043e565b80546020878701810191909152909501948101610475565b905061018e97508693506020925061018494915060ff191682840152151560051b820101943861043e565b505034610217578160031936011261021757602090516b033b2e3c9fd0803ce80000008152f35b50503461021757816003193601126102175760055490516001600160a01b039091168152602090f35b5050346102175781600319360112610217576105869060018060a01b0390817f00000000000000000000000000000000000000000000000000000000000000001633149182156105ba575b82156105ac575b508115610596575b506112f7565b600160ff19600854161760085580f35b60ff915033845260096020528320541638610580565b600554163314915038610578565b337f00000000000000000000000000000000000000000000000000000000000000008216149250610571565b838334610217578060031936011261021757610600610f3a565b602435916001600160a01b03337f000000000000000000000000000000000000000000000000000000000000000082161415806106ee575b61064b575b846106488585611258565b80f35b82168452600160205280842033855260205280842054908382106106a0575082810390811161068d576106489394506106859033836111c5565b83928561063d565b634e487b7160e01b845260118552602484fd5b5162461bcd60e51b81526020818701526024808201527f45524332303a206275726e20616d6f756e74206578636565647320616c6c6f77604482015263616e636560e01b6064820152608490fd5b508060055416331415610638565b5050346102175781600319360112610217578051908260075461071e81611026565b808552916001918083169081156101ef5750600114610749575050506101848261018e940383610f6b565b9450600785527fa66cc928b5edb82af9bd49922954155ab7b0942694bea4ce44661d9a8736c6885b82861061078e5750505061018482602061018e9582010194610172565b80546020878701810191909152909501948101610771565b83346108035780600319360112610803576107bf610ffa565b600580546001600160a01b0319811690915581906001600160a01b03167f8be0079c531659141344cd1fd0a4f28419497f9722a3daafe3b4186f6b6457e08280a380f35b80fd5b5050346102175760203660031901126102175760209181906001600160a01b0361082e610f3a565b16815280845220549051908152f35b838334610217573660031901126108035767ffffffffffffffff82358181116102ab5761086d9036908501610fa3565b92602435828111610301576108859036908301610fa3565b9061088e610ffa565b8451838111610b1d57806108a3600654611026565b96601f97888111610ab1575b50602090888311600114610a2e578792610a23575b50508160011b916000199060031b1c1916176006555b8151928311610a1057506108ef600754611026565b8481116109b0575b50602093821160011461093257928293829392610927575b50508160011b916000199060031b1c19161760075580f35b01519050838061090f565b60078352601f198216937fa66cc928b5edb82af9bd49922954155ab7b0942694bea4ce44661d9a8736c68891845b868110610998575083600195961061097f575b505050811b0160075580f35b015160001960f88460031b161c19169055838080610973565b91926020600181928685015181550194019201610960565b600784527fa66cc928b5edb82af9bd49922954155ab7b0942694bea4ce44661d9a8736c6888580850160051c82019260208610610a07575b0160051c01905b8181106109fc57506108f7565b8481556001016109ef565b925081926109e8565b634e487b7160e01b845260419052602483fd5b0151905087806108c4565b600688527ff652222313e28459528d920b65115c16c04f3efc82aaedc97be59f3f377c0d3f9250601f198416885b818110610a995750908460019594939210610a80575b505050811b016006556108da565b015160001960f88460031b161c19169055878080610a72565b92936020600181928786015181550195019301610a5c565b909150600687527ff652222313e28459528d920b65115c16c04f3efc82aaedc97be59f3f377c0d3f8880850160051c82019260208610610b14575b9085949392910160051c01905b818110610b0657506108af565b888155849350600101610af9565b92508192610aec565b634e487b7160e01b855260418252602485fd5b50503461021757816003193601126102175760209060ff6008541690519015158152f35b83903461021757602036600319011261021757610648903533611258565b919050346102ab57806003193601126102ab57610b8d610f3a565b60243591906001600160a01b0390337f00000000000000000000000000000000000000000000000000000000000000008316148015610c80575b8015610c73575b8015610c5e575b610bde906112f7565b16928315610c495760025490838201809211610c36575084927fddf252ad1be2c89b69c2b068fc378daa952ba7f163c4a11628f55a4df523b3ef9260209260025585855284835280852082815401905551908152a380f35b634e487b7160e01b865260119052602485fd5b84602492519163ec442f0560e01b8352820152fd5b5033865260096020528286205460ff16610bd5565b5081600554163314610bce565b50817f0000000000000000000000000000000000000000000000000000000000000000163314610bc7565b5050346102175781600319360112610217576020905160128152f35b9050823461080357606036600319011261080357610ce3610f3a565b610ceb610f55565b916044359360018060a01b038316808352600160205286832033845260205286832054916000198310610d27575b6020886103fa898989611060565b868310610d8f578115610d78573315610d61575082526001602090815286832033845281529186902090859003905582906103fa87610d19565b8751634a1406b160e11b8152908101849052602490fd5b875163e602df0560e01b8152908101849052602490fd5b8751637dc7a0d960e11b8152339181019182526020820193909352604081018790528291506060010390fd5b5050346102175781600319360112610217576020906002549051908152f35b5050346102175780600319360112610217576020906103fa610dfa610f3a565b60243590336111c5565b50503461021757816003193601126102175780519082600354610e2681611026565b808552916001918083169081156101ef5750600114610e51575050506101848261018e940383610f6b565b9450600385527fc2575a0e9e593c00f959f8c92f12db2869c3395a3b0502d05e2516446f71f85b5b828610610e965750505061018482602061018e9582010194610172565b80546020878701810191909152909501948101610e79565b8490346102175781600319360112610217577f00000000000000000000000000000000000000000000000000000000000000006001600160a01b03168152602090f35b6020808252825181830181905290939260005b828110610f2657505060409293506000838284010152601f8019910116010190565b818101860151848201604001528501610f04565b600435906001600160a01b0382168203610f5057565b600080fd5b602435906001600160a01b0382168203610f5057565b90601f8019910116810190811067ffffffffffffffff821117610f8d57604052565b634e487b7160e01b600052604160045260246000fd5b81601f82011215610f505780359067ffffffffffffffff8211610f8d5760405192610fd8601f8401601f191660200185610f6b565b82845260208383010111610f5057816000926020809301838601378301015290565b6005546001600160a01b0316330361100e57565b60405163118cdaa760e01b8152336004820152602490fd5b90600182811c92168015611056575b602083101461104057565b634e487b7160e01b600052602260045260246000fd5b91607f1691611035565b6001600160a01b03928382169290919083156111ac578416938415611193577f000000000000000000000000000000000000000000000000000000000000000016808414159081611188575b50611143575b60009083825281602052604082205490838210611111575091604082827fddf252ad1be2c89b69c2b068fc378daa952ba7f163c4a11628f55a4df523b3ef958760209652828652038282205586815220818154019055604051908152a3565b60405163391434e360e21b81526001600160a01b03919091166004820152602481019190915260448101839052606490fd5b60ff600854166110b25760405162461bcd60e51b8152602060048201526013602482015272151c98591a5b99c81b9bdd08195b98589b1959606a1b6044820152606490fd5b9050841415386110ac565b60405163ec442f0560e01b815260006004820152602490fd5b604051634b637e8f60e11b815260006004820152602490fd5b6001600160a01b0390811691821561123f57169182156112265760207f8c5be1e5ebec7d5bd14f71427d1e84f3dd0314c0f7b2291e5b200ac8c7c3b925918360005260018252604060002085600052825280604060002055604051908152a3565b604051634a1406b160e11b815260006004820152602490fd5b60405163e602df0560e01b815260006004820152602490fd5b906001600160a01b0382169081156111ac57600092828452836020526040842054908282106112c55750817fddf252ad1be2c89b69c2b068fc378daa952ba7f163c4a11628f55a4df523b3ef926020928587528684520360408620558060025403600255604051908152a3565b60405163391434e360e21b81526001600160a01b03919091166004820152602481019190915260448101829052606490fd5b156112fe57565b60405162461bcd60e51b815260206004820152600e60248201526d139bdd08185d5d1a1bdc9a5e995960921b6044820152606490fdfea2646970667358221220b6827bce96ccdf23b8e61645d22302186a93c4ecd16d80160fe16550161f93b564736f6c63430008140033a2646970667358221220260fa5597ce94a97a0e629116263a041e4fe1ef859dd2a3c78722a1a455c62eb64736f6c63430008140033",
  "linkReferences": {},
  "deployedLinkReferences": {}
}