{
  "_format": "hh-sol-artifact-1",
  "contractName": "BondingCurveContract",
  "sourceName": "contracts/BondingCurveContract.sol",
  "abi": [
    {
      "inputs": [
        {
          "internalType": "address",
          "name": "_registry",
          "type": "address"
        }
      ],
      "stateMutability": "nonpayable",
      "type": "constructor"
    },
    {
      "inputs": [
        {
          "internalType": "address",
          "name": "owner",
          "type": "address"
        }
      ],
      "name": "OwnableInvalidOwner",
      "type": "error"
    },
    {
      "inputs": [
        {
          "internalType": "address",
          "name": "account",
          "type": "address"
        }
      ],
      "name": "OwnableUnauthorizedAccount",
      "type": "error"
    },
    {
      "inputs": [],
      "name": "ReentrancyGuardReentrantCall",
      "type": "error"
    },
    {
      "inputs": [
        {
          "internalType": "address",
          "name": "token",
          "type": "address"
        }
      ],
      "name": "SafeERC20FailedOperation",
      "type": "error"
    },
    {
      "anonymous": false,
      "inputs": [
        {
          "indexed": true,
          "internalType": "address",
          "name": "token",
          "type": "address"
        },
        {
          "indexed": false,
          "internalType": "uint256",
          "name": "virtualOkbReserves",
          "type": "uint256"
        },
        {
          "indexed": false,
          "internalType": "uint256",
          "name": "virtualTokenReserves",
          "type": "uint256"
        }
      ],
      "name": "CurveParametersUpdated",
      "type": "event"
    },
    {
      "anonymous": false,
      "inputs": [
        {
          "indexed": true,
          "internalType": "address",
          "name": "previousOwner",
          "type": "address"
        },
        {
          "indexed": true,
          "internalType": "address",
          "name": "newOwner",
          "type": "address"
        }
      ],
      "name": "OwnershipTransferred",
      "type": "event"
    },
    {
      "anonymous": false,
      "inputs": [
        {
          "indexed": true,
          "internalType": "address",
          "name": "token",
          "type": "address"
        },
        {
          "indexed": true,
          "internalType": "address",
          "name": "buyer",
          "type": "address"
        },
        {
          "indexed": false,
          "internalType": "uint256",
          "name": "okbIn",
          "type": "uint256"
        },
        {
          "indexed": false,
          "internalType": "uint256",
          "name": "tokensOut",
          "type": "uint256"
        },
        {
          "indexed": false,
          "internalType": "uint256",
          "name": "newPrice",
          "type": "uint256"
        }
      ],
      "name": "TokenBought",
      "type": "event"
    },
    {
      "anonymous": false,
      "inputs": [
        {
          "indexed": true,
          "internalType": "address",
          "name": "token",
          "type": "address"
        },
        {
          "indexed": false,
          "internalType": "uint256",
          "name": "okbCollected",
          "type": "uint256"
        }
      ],
      "name": "TokenGraduated",
      "type": "event"
    },
    {
      "anonymous": false,
      "inputs": [
        {
          "indexed": true,
          "internalType": "address",
          "name": "token",
          "type": "address"
        },
        {
          "indexed": true,
          "internalType": "address",
          "name": "seller",
          "type": "address"
        },
        {
          "indexed": false,
          "internalType": "uint256",
          "name": "tokensIn",
          "type": "uint256"
        },
        {
          "indexed": false,
          "internalType": "uint256",
          "name": "okbOut",
          "type": "uint256"
        },
        {
          "indexed": false,
          "internalType": "uint256",
          "name": "newPrice",
          "type": "uint256"
        }
      ],
      "name": "TokenSold",
      "type": "event"
    },
    {
      "inputs": [],
      "name": "DEFAULT_VIRTUAL_OKB",
      "outputs": [
        {
          "internalType": "uint256",
          "name": "",
          "type": "uint256"
        }
      ],
      "stateMutability": "view",
      "type": "function"
    },
    {
      "inputs": [],
      "name": "DEFAULT_VIRTUAL_TOKENS",
      "outputs": [
        {
          "internalType": "uint256",
          "name": "",
          "type": "uint256"
        }
      ],
      "stateMutability": "view",
      "type": "function"
    },
    {
      "inputs": [],
      "name": "GRADUATION_THRESHOLD",
      "outputs": [
        {
          "internalType": "uint256",
          "name": "",
          "type": "uint256"
        }
      ],
      "stateMutability": "view",
      "type": "function"
    },
    {
      "inputs": [],
      "name": "MAX_SUPPLY_FOR_CURVE",
      "outputs": [
        {
          "internalType": "uint256",
          "name": "",
          "type": "uint256"
        }
      ],
      "stateMutability": "view",
      "type": "function"
    },
    {
      "inputs": [
        {
          "internalType": "address",
          "name": "token",
          "type": "address"
        },
        {
          "internalType": "uint256",
          "name": "okbAmount",
          "type": "uint256"
        }
      ],
      "name": "buyTokens",
      "outputs": [
        {
          "internalType": "uint256",
          "name": "",
          "type": "uint256"
        }
      ],
      "stateMutability": "payable",
      "type": "function"
    },
    {
      "inputs": [
        {
          "internalType": "address",
          "name": "token",
          "type": "address"
        }
      ],
      "name": "getCurveInfo",
      "outputs": [
        {
          "components": [
            {
              "internalType": "uint256",
              "name": "soldSupply",
              "type": "uint256"
            },
            {
              "internalType": "uint256",
              "name": "okbCollected",
              "type": "uint256"
            },
            {
              "internalType": "uint256",
              "name": "virtualOkbReserves",
              "type": "uint256"
            },
            {
              "internalType": "uint256",
              "name": "virtualTokenReserves",
              "type": "uint256"
            },
            {
              "internalType": "bool",
              "name": "graduated",
              "type": "bool"
            },
            {
              "internalType": "bool",
              "name": "active",
              "type": "bool"
            }
          ],
          "internalType": "struct BondingCurveContract.TokenCurve",
          "name": "",
          "type": "tuple"
        }
      ],
      "stateMutability": "view",
      "type": "function"
    },
    {
      "inputs": [
        {
          "internalType": "address",
          "name": "token",
          "type": "address"
        },
        {
          "internalType": "uint256",
          "name": "amount",
          "type": "uint256"
        }
      ],
      "name": "getPrice",
      "outputs": [
        {
          "internalType": "uint256",
          "name": "",
          "type": "uint256"
        }
      ],
      "stateMutability": "view",
      "type": "function"
    },
    {
      "inputs": [
        {
          "internalType": "address",
          "name": "token",
          "type": "address"
        }
      ],
      "name": "getTokenBalance",
      "outputs": [
        {
          "internalType": "uint256",
          "name": "",
          "type": "uint256"
        }
      ],
      "stateMutability": "view",
      "type": "function"
    },
    {
      "inputs": [
        {
          "internalType": "address",
          "name": "token",
          "type": "address"
        }
      ],
      "name": "initializeCurve",
      "outputs": [],
      "stateMutability": "nonpayable",
      "type": "function"
    },
    {
      "inputs": [],
      "name": "owner",
      "outputs": [
        {
          "internalType": "address",
          "name": "",
          "type": "address"
        }
      ],
      "stateMutability": "view",
      "type": "function"
    },
    {
      "inputs": [],
      "name": "registry",
      "outputs": [
        {
          "internalType": "contract IRegistry",
          "name": "",
          "type": "address"
        }
      ],
      "stateMutability": "view",
      "type": "function"
    },
    {
      "inputs": [],
      "name": "renounceOwnership",
      "outputs": [],
      "stateMutability": "nonpayable",
      "type": "function"
    },
    {
      "inputs": [
        {
          "internalType": "address",
          "name": "token",
          "type": "address"
        },
        {
          "internalType": "uint256",
          "name": "tokenAmount",
          "type": "uint256"
        }
      ],
      "name": "sellTokens",
      "outputs": [
        {
          "internalType": "uint256",
          "name": "",
          "type": "uint256"
        }
      ],
      "stateMutability": "nonpayable",
      "type": "function"
    },
    {
      "inputs": [
        {
          "internalType": "address",
          "name": "",
          "type": "address"
        }
      ],
      "name": "tokenBalances",
      "outputs": [
        {
          "internalType": "uint256",
          "name": "",
          "type": "uint256"
        }
      ],
      "stateMutability": "view",
      "type": "function"
    },
    {
      "inputs": [
        {
          "internalType": "address",
          "name": "",
          "type": "address"
        }
      ],
      "name": "tokenCurves",
      "outputs": [
        {
          "internalType": "uint256",
          "name": "soldSupply",
          "type": "uint256"
        },
        {
          "internalType": "uint256",
          "name": "okbCollected",
          "type": "uint256"
        },
        {
          "internalType": "uint256",
          "name": "virtualOkbReserves",
          "type": "uint256"
        },
        {
          "internalType": "uint256",
          "name": "virtualTokenReserves",
          "type": "uint256"
        },
        {
          "internalType": "bool",
          "name": "graduated",
          "type": "bool"
        },
        {
          "internalType": "bool",
          "name": "active",
          "type": "bool"
        }
      ],
      "stateMutability": "view",
      "type": "function"
    },
    {
      "inputs": [
        {
          "internalType": "address",
          "name": "newOwner",
          "type": "address"
        }
      ],
      "name": "transferOwnership",
      "outputs": [],
      "stateMutability": "nonpayable",
      "type": "function"
    },
    {
      "inputs": [
        {
          "internalType": "address",
          "name": "token",
          "type": "address"
        },
        {
          "internalType": "uint256",
          "name": "virtualOkbReserves",
          "type": "uint256"
        },
        {
          "internalType": "uint256",
          "name": "virtualTokenReserves",
          "type": "uint256"
        }
      ],
      "name": "updateCurveParameters",
      "outputs": [],
      "stateMutability": "nonpayable",
      "type": "function"
    },
    {
      "stateMutability": "payable",
      "type": "receive"
    }
  ],
  "bytecode": "0x6080346100ca57601f6115f938819003918201601f19168301916001600160401b038311848410176100cf578084926020946040528339810103126100ca57516001600160a01b0390818116908190036100ca5733156100b15760005460018060a01b0319903382821617600055604051933391167f8be0079c531659141344cd1fd0a4f28419497f9722a3daafe3b4186f6b6457e0600080a360018055600254161760025561151390816100e68239f35b604051631e4fbdf760e01b815260006004820152602490fd5b600080fd5b634e487b7160e01b600052604160045260246000fdfe60806040818152600436101561001f575b5050361561001d57600080fd5b005b600091823560e01c908163047f8bc114610ef0575080630752881a146109fa578063169f7dee14610983578063360f2dc21461079c5780633aecd0e314610710578063449e815d1461076d5780634f39cb3614610747578063523fba7f14610710578063715018a6146106b35780637b1039991461068b5780638da5cb5b146106645780639571b2751461063e578063c464fe65146102b8578063c8c5b1cb146101b1578063d73337df1461018e578063f2fde38b146101095763fcfc0c09036100105734610105578160031936011261010557602090516804563918244f4000008152f35b5080fd5b503461010557602036600319011261010557610123610fc7565b61012b610fe2565b6001600160a01b03908116918215610177575082546001600160a01b0319811683178455167f8be0079c531659141344cd1fd0a4f28419497f9722a3daafe3b4186f6b6457e08380a380f35b51631e4fbdf760e01b815260048101849052602490fd5b5034610105578160031936011261010557602090516801a055690d9db800008152f35b5034610105576060366003190112610105576101cb610fc7565b90602435604435926101db610fe2565b6001600160a01b03168085526003602052828520600401549093906102059060081c60ff166110b6565b838552600360205261022060ff60048588200154161561120a565b811515806102af575b1561027657907f69e033b4ae750ca02de6986a1466464b43f15a095bb41bb657e4c19303c6f54a92918486526003602052806003848820846002820155015582519182526020820152a280f35b825162461bcd60e51b8152602060048201526012602482015271496e76616c696420706172616d657465727360701b6044820152606490fd5b50801515610229565b50346101055780600319360112610105576102d1610fc7565b906024918235906102e06113b4565b60018060a01b038095816002541692855197889163c187645360e01b83521693846004830152818860209a8b935afa9081156106345790610328918391610607575b5061107a565b8281526003875261034460ff6004878420015460081c166110b6565b8281526003875261035e60ff60048784200154161561120a565b610369841515611248565b82815260038752848120918254968786116105c5576103888887611456565b97881561058e5788471061054b57866103a0916110f5565b8455600184016103b18982546110f5565b905586516323b872dd60e01b8a8201523382820152306044820152606480820188905281529060a082019067ffffffffffffffff8211838310176105395750600492916104009189528661134c565b848352818952868320610414878254611294565b905588816002541688519384809263796b1c1360e11b82525afa91821561052f57908892918492610500575b508116156104b957926104898380806104ac9661048f967f9387a595ac4be9038bbb9751abad8baa3dcf219dd9e19abb81552bd521fe3546995af16104836112c0565b50611300565b546114ac565b855194855260208501879052604085015233939081906060820190565b0390a36001805551908152f35b5081808080933382f1156104f557506104ac61048f7f9387a595ac4be9038bbb9751abad8baa3dcf219dd9e19abb81552bd521fe354692610489565b8451903d90823e3d90fd5b6105219192508a3d8c11610528575b6105198183611040565b8101906112a1565b9038610440565b503d61050f565b87513d85823e3d90fd5b634e487b7160e01b8552604160045284fd5b875162461bcd60e51b8152600481018b90526018818401527f496e73756666696369656e74204f4b422062616c616e636500000000000000006044820152606490fd5b875162461bcd60e51b8152600481018b9052601181840152704e6f204f4b4220746f207265636569766560781b6044820152606490fd5b88601a60649289519262461bcd60e51b845260048401528201527f43616e6e6f742073656c6c206d6f7265207468616e20736f6c640000000000006044820152fd5b6106279150893d8b1161062d575b61061f8183611040565b810190611062565b38610322565b503d610615565b86513d84823e3d90fd5b5034610105578160031936011261010557602090516b037790968dc8efffd10000008152f35b5034610105578160031936011261010557905490516001600160a01b039091168152602090f35b503461010557816003193601126101055760025490516001600160a01b039091168152602090f35b823461070d578060031936011261070d576106cc610fe2565b80546001600160a01b03198116825581906001600160a01b03167f8be0079c531659141344cd1fd0a4f28419497f9722a3daafe3b4186f6b6457e08280a380f35b80fd5b50346101055760203660031901126101055760209181906001600160a01b03610737610fc7565b1681526004845220549051908152f35b5034610105578160031936011261010557602090516b0295be96e6406697200000008152f35b503461010557806003193601126101055760209061079561078c610fc7565b6024359061114b565b9051908152f35b5034610105576020908160031936011261097f576107b8610fc7565b600254825163c187645360e01b81526001600160a01b0392831660048201819052929091859183916024918391165afa90811561091a5790610800918691610968575061107a565b8084526003835260ff6004838620015460081c166109245781516108238161100e565b8481528381018581526004848301926801a055690d9db800008452606081016b037790968dc8efffd10000008152608082019489865260a083019460018652878b5260038a52888b209351845551600184015551600283015551600382015501915115159060ff61ff0084549251151560081b1692169061ffff1916171790558151926370a0823160e01b84523060048501528084602481855afa93841561091a5785946108e7575b50836108d6578480f35b600491855252822055388080808480f35b9080945081813d8311610913575b6108ff8183611040565b8101031261090f575192386108cc565b8480fd5b503d6108f5565b83513d87823e3d90fd5b815162461bcd60e51b815260048101849052601960248201527f437572766520616c726561647920696e697469616c697a6564000000000000006044820152606490fd5b6106279150853d871161062d5761061f8183611040565b8280fd5b50346101055760203660031901126101055760c09160ff9082906001600160a01b036109ad610fc7565b1681526003602052209182549260018101549160028201549060046003840154930154938151968752602087015285015260608401528181161515608084015260081c16151560a0820152f35b50908160031936011261070d57610a0f610fc7565b90610a186113b4565b600254835163c187645360e01b81526001600160a01b039384166004820181905293909160209183916024918391165afa908115610ee65790610a61918391610ecd575061107a565b8181526003602052610a7e60ff6004858420015460081c166110b6565b8181526003602052610a9960ff60048584200154161561120a565b6024353403610e9257610aaf6024351515611248565b818152600360205282812091825492610aca846024356113d7565b938415610e58576b0295be96e640669720000000610ae88683611294565b11610e1e5784610af791611294565b8155610b096024356001830154611294565b60018201558183526004602052838584205410610dda578183526004602052848320610b368582546110f5565b9055845163a9059cbb60e01b6020820152336024820152604480820186905281526080810167ffffffffffffffff811182821017610d56578652610b7a908361134c565b600254855163796b1c1360e11b815290602090829060049082906001600160a01b03165afa908115610dd057916001916804563918244f400000938691610db1575b5085838060a01b038216610d95575b5050610bd781546114ac565b847f8692cf5ba66abd64f88cdc1ffa0ee9d9c21ee2d999322a20445ae32393394e3e895180610c1c33958c602435846040919493926060820195825260208201520152565b0390a301541015610c36575b602083856001805551908152f35b8060049183526003602052807f3774b363547126f466f72012377433ce54030696ae07ad35617ad9317eaf776b602060018887208681018260ff1982541617905501548851908152a2600254855163ebdccebb60e01b81529260209184919082906001600160a01b03165afa918215610d8b578392610d6a575b506001600160a01b038216610cc6575b50610c28565b845160208101916397f548f760e01b83526024820152602481526060810181811067ffffffffffffffff821117610d5657849392918491885251925af1610d0b6112c0565b5015610d1957388080610cc0565b815162461bcd60e51b815260206004820152601660248201527511dc98591d585d1a5bdb8818d85b1b0819985a5b195960521b6044820152606490fd5b634e487b7160e01b85526041600452602485fd5b610d8491925060203d602011610528576105198183611040565b9038610cb0565b85513d85823e3d90fd5b808080610daa94602435905af16104836112c0565b3885610bcb565b610dca915060203d602011610528576105198183611040565b38610bbc565b86513d86823e3d90fd5b845162461bcd60e51b815260206004820152601a60248201527f496e73756666696369656e7420746f6b656e2062616c616e63650000000000006044820152606490fd5b855162461bcd60e51b8152602060048201526013602482015272115e18d959591cc818dd5c9d99481b1a5b5a5d606a1b6044820152606490fd5b855162461bcd60e51b81526020600482015260136024820152724e6f20746f6b656e7320617661696c61626c6560681b6044820152606490fd5b825162461bcd60e51b8152602060048201526014602482015273125b98dbdc9c9958dd0813d2d088185b5bdd5b9d60621b6044820152606490fd5b610627915060203d60201161062d5761061f8183611040565b84513d84823e3d90fd5b90503461097f57602036600319011261097f5782829160c09460a0610f13610fc7565b92610f1d8161100e565b8281528260208201528286820152826060820152826080820152015260018060a01b03168152600360205220908051610f558161100e565b82549283825260018101549260208301938452600282015481840190815260046003840154936060860194855201549460ff60a0608087019682891615158852019660081c161515865282519687525160208701525190850152516060840152511515608083015251151560a0820152f35b600435906001600160a01b0382168203610fdd57565b600080fd5b6000546001600160a01b03163303610ff657565b60405163118cdaa760e01b8152336004820152602490fd5b60c0810190811067ffffffffffffffff82111761102a57604052565b634e487b7160e01b600052604160045260246000fd5b90601f8019910116810190811067ffffffffffffffff82111761102a57604052565b90816020910312610fdd57518015158103610fdd5790565b1561108157565b60405162461bcd60e51b815260206004820152600d60248201526c24b73b30b634b2103a37b5b2b760991b6044820152606490fd5b156110bd57565b60405162461bcd60e51b815260206004820152601060248201526f4375727665206e6f742061637469766560801b6044820152606490fd5b9190820391821161110257565b634e487b7160e01b600052601160045260246000fd5b8181029291811591840414171561110257565b8115611135570490565b634e487b7160e01b600052601260045260246000fd5b60018060a01b03166000526003602052604060002060405161116c8161100e565b81548152600182015460208201526002820154906040810191825260046003840154936060830194855201546111ba60ff60808401928181161515845260081c1615158060a08501526110b6565b51611201576111ce915192519051906110f5565b90811580156111f9575b6111f1576111ee926111e991611118565b61112b565b90565b505050600090565b5082156111d8565b50505050600090565b1561121157565b60405162461bcd60e51b815260206004820152600f60248201526e151bdad95b8819dc98591d585d1959608a1b6044820152606490fd5b1561124f57565b60405162461bcd60e51b815260206004820152601d60248201527f416d6f756e74206d7573742062652067726561746572207468616e20300000006044820152606490fd5b9190820180921161110257565b90816020910312610fdd57516001600160a01b0381168103610fdd5790565b3d156112fb573d9067ffffffffffffffff821161102a57604051916112ef601f8201601f191660200184611040565b82523d6000602084013e565b606090565b1561130757565b60405162461bcd60e51b815260206004820152601b60248201527f466565206d616e61676572207472616e73666572206661696c656400000000006044820152606490fd5b906000602091828151910182855af1156113a8576000513d61139f57506001600160a01b0381163b155b61137d5750565b604051635274afe760e01b81526001600160a01b039091166004820152602490fd5b60011415611376565b6040513d6000823e3d90fd5b6002600154146113c5576002600155565b604051633ee5aeb560e01b8152600490fd5b801561144f576b0295be96e64066972000000090818310156111f1576113fc836114ac565b8015611443575b670de0b6b3a764000080830292830403611102576114209161112b565b918161142c8483611294565b1161143657505090565b8103915081116111025790565b5064e8d4a51000611403565b5050600090565b90811580156114a3575b61144f57816114968261149061148a611485670de0b6b3a76400009761149f976110f5565b6114ac565b916114ac565b90611294565b60011c90611118565b0490565b50808211611460565b69d3c21bcecceda1000000900464e8d4a510009081810290808204831490151715611102578101809111611102579056fea26469706673582212203fedaeb0b29cd1414fe24535ce1d843b1dbb0e4ecbd319fc402ad6a7ac245bab64736f6c63430008140033",
  "linkReferences": {},
  "deployedLinkReferences": {}
}